{
  "contracts/CampaignManager.sol": {
    "CampaignManager": {
      "abi": [
        {
          "inputs": [
            {
              "internalType": "contract IERC20",
              "name": "_rewardToken",
              "type": "address"
            }
          ],
          "stateMutability": "nonpayable",
          "type": "constructor"
        },
        {
          "anonymous": false,
          "inputs": [
            {
              "indexed": true,
              "internalType": "uint256",
              "name": "campaignId",
              "type": "uint256"
            }
          ],
          "name": "CampaignActivated",
          "type": "event"
        },
        {
          "anonymous": false,
          "inputs": [
            {
              "indexed": true,
              "internalType": "uint256",
              "name": "campaignId",
              "type": "uint256"
            },
            {
              "indexed": false,
              "internalType": "uint256",
              "name": "refundAmount",
              "type": "uint256"
            }
          ],
          "name": "CampaignCancelled",
          "type": "event"
        },
        {
          "anonymous": false,
          "inputs": [
            {
              "indexed": true,
              "internalType": "uint256",
              "name": "campaignId",
              "type": "uint256"
            },
            {
              "indexed": false,
              "internalType": "string",
              "name": "campaignIdString",
              "type": "string"
            },
            {
              "indexed": true,
              "internalType": "address",
              "name": "creator",
              "type": "address"
            },
            {
              "indexed": false,
              "internalType": "string",
              "name": "title",
              "type": "string"
            },
            {
              "indexed": false,
              "internalType": "uint256",
              "name": "budget",
              "type": "uint256"
            },
            {
              "indexed": false,
              "internalType": "uint256",
              "name": "startTime",
              "type": "uint256"
            },
            {
              "indexed": false,
              "internalType": "uint256",
              "name": "expiration",
              "type": "uint256"
            },
            {
              "indexed": false,
              "internalType": "string",
              "name": "metadataURI",
              "type": "string"
            }
          ],
          "name": "CampaignCreated",
          "type": "event"
        },
        {
          "anonymous": false,
          "inputs": [
            {
              "indexed": true,
              "internalType": "uint256",
              "name": "campaignId",
              "type": "uint256"
            }
          ],
          "name": "CampaignDeactivated",
          "type": "event"
        },
        {
          "anonymous": false,
          "inputs": [
            {
              "indexed": true,
              "internalType": "uint256",
              "name": "campaignId",
              "type": "uint256"
            }
          ],
          "name": "CampaignUpdated",
          "type": "event"
        },
        {
          "anonymous": false,
          "inputs": [
            {
              "indexed": false,
              "internalType": "address",
              "name": "contractAddress",
              "type": "address"
            }
          ],
          "name": "ContributionsContractUpdated",
          "type": "event"
        },
        {
          "anonymous": false,
          "inputs": [
            {
              "indexed": true,
              "internalType": "address",
              "name": "contributor",
              "type": "address"
            },
            {
              "indexed": false,
              "internalType": "uint256",
              "name": "amount",
              "type": "uint256"
            }
          ],
          "name": "ContributorRewarded",
          "type": "event"
        },
        {
          "anonymous": false,
          "inputs": [
            {
              "indexed": false,
              "internalType": "uint256",
              "name": "newFee",
              "type": "uint256"
            }
          ],
          "name": "DefaultPlatformFeeUpdated",
          "type": "event"
        },
        {
          "anonymous": false,
          "inputs": [
            {
              "indexed": false,
              "internalType": "address",
              "name": "contractAddress",
              "type": "address"
            }
          ],
          "name": "EscrowContractUpdated",
          "type": "event"
        },
        {
          "anonymous": false,
          "inputs": [
            {
              "indexed": true,
              "internalType": "address",
              "name": "previousOwner",
              "type": "address"
            },
            {
              "indexed": true,
              "internalType": "address",
              "name": "newOwner",
              "type": "address"
            }
          ],
          "name": "OwnershipTransferred",
          "type": "event"
        },
        {
          "anonymous": false,
          "inputs": [
            {
              "indexed": true,
              "internalType": "address",
              "name": "user",
              "type": "address"
            },
            {
              "indexed": false,
              "internalType": "string",
              "name": "oldUsername",
              "type": "string"
            },
            {
              "indexed": false,
              "internalType": "string",
              "name": "newUsername",
              "type": "string"
            }
          ],
          "name": "UsernameEdited",
          "type": "event"
        },
        {
          "anonymous": false,
          "inputs": [
            {
              "indexed": true,
              "internalType": "address",
              "name": "user",
              "type": "address"
            },
            {
              "indexed": false,
              "internalType": "string",
              "name": "username",
              "type": "string"
            }
          ],
          "name": "UsernameSet",
          "type": "event"
        },
        {
          "inputs": [],
          "name": "MAX_USERNAME_EDITS",
          "outputs": [
            {
              "internalType": "uint256",
              "name": "",
              "type": "uint256"
            }
          ],
          "stateMutability": "view",
          "type": "function"
        },
        {
          "inputs": [],
          "name": "MAX_USERNAME_LENGTH",
          "outputs": [
            {
              "internalType": "uint256",
              "name": "",
              "type": "uint256"
            }
          ],
          "stateMutability": "view",
          "type": "function"
        },
        {
          "inputs": [
            {
              "internalType": "uint256",
              "name": "_campaignId",
              "type": "uint256"
            }
          ],
          "name": "activateCampaign",
          "outputs": [],
          "stateMutability": "nonpayable",
          "type": "function"
        },
        {
          "inputs": [],
          "name": "activeCampaignCount",
          "outputs": [
            {
              "internalType": "uint256",
              "name": "",
              "type": "uint256"
            }
          ],
          "stateMutability": "view",
          "type": "function"
        },
        {
          "inputs": [],
          "name": "campaignCount",
          "outputs": [
            {
              "internalType": "uint256",
              "name": "",
              "type": "uint256"
            }
          ],
          "stateMutability": "view",
          "type": "function"
        },
        {
          "inputs": [
            {
              "internalType": "string",
              "name": "",
              "type": "string"
            }
          ],
          "name": "campaignIdStringExists",
          "outputs": [
            {
              "internalType": "bool",
              "name": "",
              "type": "bool"
            }
          ],
          "stateMutability": "view",
          "type": "function"
        },
        {
          "inputs": [
            {
              "internalType": "string",
              "name": "",
              "type": "string"
            }
          ],
          "name": "campaignIdStringToId",
          "outputs": [
            {
              "internalType": "uint256",
              "name": "",
              "type": "uint256"
            }
          ],
          "stateMutability": "view",
          "type": "function"
        },
        {
          "inputs": [
            {
              "internalType": "uint256",
              "name": "",
              "type": "uint256"
            }
          ],
          "name": "campaigns",
          "outputs": [
            {
              "internalType": "uint256",
              "name": "id",
              "type": "uint256"
            },
            {
              "internalType": "string",
              "name": "campaignIdString",
              "type": "string"
            },
            {
              "internalType": "address",
              "name": "creator",
              "type": "address"
            },
            {
              "internalType": "string",
              "name": "title",
              "type": "string"
            },
            {
              "internalType": "string",
              "name": "description",
              "type": "string"
            },
            {
              "internalType": "string",
              "name": "dataRequirements",
              "type": "string"
            },
            {
              "internalType": "uint256",
              "name": "unitPrice",
              "type": "uint256"
            },
            {
              "internalType": "uint256",
              "name": "totalBudget",
              "type": "uint256"
            },
            {
              "internalType": "uint256",
              "name": "remainingBudget",
              "type": "uint256"
            },
            {
              "internalType": "uint256",
              "name": "maxSubmissions",
              "type": "uint256"
            },
            {
              "internalType": "uint256",
              "name": "currentSubmissions",
              "type": "uint256"
            },
            {
              "internalType": "uint256",
              "name": "startTime",
              "type": "uint256"
            },
            {
              "internalType": "uint256",
              "name": "expiration",
              "type": "uint256"
            },
            {
              "internalType": "bool",
              "name": "active",
              "type": "bool"
            },
            {
              "internalType": "string",
              "name": "metadataURI",
              "type": "string"
            },
            {
              "internalType": "uint256",
              "name": "platformFee",
              "type": "uint256"
            },
            {
              "internalType": "string",
              "name": "encryptionPublicKey",
              "type": "string"
            },
            {
              "internalType": "uint256",
              "name": "rewardThreshold",
              "type": "uint256"
            }
          ],
          "stateMutability": "view",
          "type": "function"
        },
        {
          "inputs": [
            {
              "internalType": "uint256",
              "name": "_campaignId",
              "type": "uint256"
            }
          ],
          "name": "cancelCampaign",
          "outputs": [],
          "stateMutability": "nonpayable",
          "type": "function"
        },
        {
          "inputs": [],
          "name": "contributionsContract",
          "outputs": [
            {
              "internalType": "address",
              "name": "",
              "type": "address"
            }
          ],
          "stateMutability": "view",
          "type": "function"
        },
        {
          "inputs": [
            {
              "internalType": "address",
              "name": "",
              "type": "address"
            }
          ],
          "name": "contributorTotalEarned",
          "outputs": [
            {
              "internalType": "uint256",
              "name": "",
              "type": "uint256"
            }
          ],
          "stateMutability": "view",
          "type": "function"
        },
        {
          "inputs": [
            {
              "components": [
                {
                  "internalType": "string",
                  "name": "campaignIdString",
                  "type": "string"
                },
                {
                  "internalType": "string",
                  "name": "title",
                  "type": "string"
                },
                {
                  "internalType": "string",
                  "name": "description",
                  "type": "string"
                },
                {
                  "internalType": "string",
                  "name": "dataRequirements",
                  "type": "string"
                },
                {
                  "internalType": "string[]",
                  "name": "qualityCriteria",
                  "type": "string[]"
                },
                {
                  "internalType": "uint256",
                  "name": "unitPrice",
                  "type": "uint256"
                },
                {
                  "internalType": "uint256",
                  "name": "totalBudget",
                  "type": "uint256"
                },
                {
                  "internalType": "uint256",
                  "name": "maxSubmissions",
                  "type": "uint256"
                },
                {
                  "internalType": "uint256",
                  "name": "startTime",
                  "type": "uint256"
                },
                {
                  "internalType": "uint256",
                  "name": "expiration",
                  "type": "uint256"
                },
                {
                  "internalType": "string",
                  "name": "metadataURI",
                  "type": "string"
                },
                {
                  "internalType": "uint256",
                  "name": "platformFee",
                  "type": "uint256"
                },
                {
                  "internalType": "string",
                  "name": "encryptionPublicKey",
                  "type": "string"
                },
                {
                  "internalType": "uint256",
                  "name": "rewardThreshold",
                  "type": "uint256"
                }
              ],
              "internalType": "struct CampaignManager.CampaignParams",
              "name": "_params",
              "type": "tuple"
            }
          ],
          "name": "createCampaign",
          "outputs": [
            {
              "internalType": "uint256",
              "name": "",
              "type": "uint256"
            }
          ],
          "stateMutability": "nonpayable",
          "type": "function"
        },
        {
          "inputs": [
            {
              "internalType": "uint256",
              "name": "_campaignId",
              "type": "uint256"
            }
          ],
          "name": "deactivateCampaign",
          "outputs": [],
          "stateMutability": "nonpayable",
          "type": "function"
        },
        {
          "inputs": [],
          "name": "defaultPlatformFee",
          "outputs": [
            {
              "internalType": "uint256",
              "name": "",
              "type": "uint256"
            }
          ],
          "stateMutability": "view",
          "type": "function"
        },
        {
          "inputs": [
            {
              "internalType": "string",
              "name": "_newUsername",
              "type": "string"
            }
          ],
          "name": "editUsername",
          "outputs": [],
          "stateMutability": "nonpayable",
          "type": "function"
        },
        {
          "inputs": [],
          "name": "escrowContract",
          "outputs": [
            {
              "internalType": "address",
              "name": "",
              "type": "address"
            }
          ],
          "stateMutability": "view",
          "type": "function"
        },
        {
          "inputs": [],
          "name": "getActiveCampaigns",
          "outputs": [
            {
              "internalType": "uint256[]",
              "name": "",
              "type": "uint256[]"
            }
          ],
          "stateMutability": "view",
          "type": "function"
        },
        {
          "inputs": [
            {
              "internalType": "address",
              "name": "_address",
              "type": "address"
            }
          ],
          "name": "getAddressCampaignCount",
          "outputs": [
            {
              "internalType": "uint256",
              "name": "total",
              "type": "uint256"
            },
            {
              "internalType": "uint256",
              "name": "active",
              "type": "uint256"
            }
          ],
          "stateMutability": "view",
          "type": "function"
        },
        {
          "inputs": [
            {
              "internalType": "address",
              "name": "_address",
              "type": "address"
            }
          ],
          "name": "getAddressTotalEarned",
          "outputs": [
            {
              "internalType": "uint256",
              "name": "",
              "type": "uint256"
            }
          ],
          "stateMutability": "view",
          "type": "function"
        },
        {
          "inputs": [
            {
              "internalType": "address",
              "name": "_address",
              "type": "address"
            }
          ],
          "name": "getAddressTotalSpent",
          "outputs": [
            {
              "internalType": "uint256",
              "name": "",
              "type": "uint256"
            }
          ],
          "stateMutability": "view",
          "type": "function"
        },
        {
          "inputs": [],
          "name": "getCampaignCount",
          "outputs": [
            {
              "internalType": "uint256",
              "name": "total",
              "type": "uint256"
            },
            {
              "internalType": "uint256",
              "name": "active",
              "type": "uint256"
            }
          ],
          "stateMutability": "view",
          "type": "function"
        },
        {
          "inputs": [
            {
              "internalType": "uint256",
              "name": "_campaignId",
              "type": "uint256"
            }
          ],
          "name": "getCampaignCreator",
          "outputs": [
            {
              "internalType": "address",
              "name": "",
              "type": "address"
            }
          ],
          "stateMutability": "view",
          "type": "function"
        },
        {
          "inputs": [
            {
              "internalType": "uint256",
              "name": "_campaignId",
              "type": "uint256"
            }
          ],
          "name": "getCampaignDetails",
          "outputs": [
            {
              "components": [
                {
                  "internalType": "uint256",
                  "name": "id",
                  "type": "uint256"
                },
                {
                  "internalType": "string",
                  "name": "campaignIdString",
                  "type": "string"
                },
                {
                  "internalType": "address",
                  "name": "creator",
                  "type": "address"
                },
                {
                  "internalType": "string",
                  "name": "title",
                  "type": "string"
                },
                {
                  "internalType": "string",
                  "name": "description",
                  "type": "string"
                },
                {
                  "internalType": "string",
                  "name": "dataRequirements",
                  "type": "string"
                },
                {
                  "internalType": "string[]",
                  "name": "qualityCriteria",
                  "type": "string[]"
                },
                {
                  "internalType": "uint256",
                  "name": "unitPrice",
                  "type": "uint256"
                },
                {
                  "internalType": "uint256",
                  "name": "totalBudget",
                  "type": "uint256"
                },
                {
                  "internalType": "uint256",
                  "name": "remainingBudget",
                  "type": "uint256"
                },
                {
                  "internalType": "uint256",
                  "name": "maxSubmissions",
                  "type": "uint256"
                },
                {
                  "internalType": "uint256",
                  "name": "currentSubmissions",
                  "type": "uint256"
                },
                {
                  "internalType": "uint256",
                  "name": "startTime",
                  "type": "uint256"
                },
                {
                  "internalType": "uint256",
                  "name": "expiration",
                  "type": "uint256"
                },
                {
                  "internalType": "bool",
                  "name": "active",
                  "type": "bool"
                },
                {
                  "internalType": "string",
                  "name": "metadataURI",
                  "type": "string"
                },
                {
                  "internalType": "uint256",
                  "name": "platformFee",
                  "type": "uint256"
                },
                {
                  "internalType": "string",
                  "name": "encryptionPublicKey",
                  "type": "string"
                },
                {
                  "internalType": "uint256",
                  "name": "rewardThreshold",
                  "type": "uint256"
                }
              ],
              "internalType": "struct CampaignManager.Campaign",
              "name": "",
              "type": "tuple"
            }
          ],
          "stateMutability": "view",
          "type": "function"
        },
        {
          "inputs": [
            {
              "internalType": "string",
              "name": "_campaignIdString",
              "type": "string"
            }
          ],
          "name": "getCampaignDetailsByString",
          "outputs": [
            {
              "components": [
                {
                  "internalType": "uint256",
                  "name": "id",
                  "type": "uint256"
                },
                {
                  "internalType": "string",
                  "name": "campaignIdString",
                  "type": "string"
                },
                {
                  "internalType": "address",
                  "name": "creator",
                  "type": "address"
                },
                {
                  "internalType": "string",
                  "name": "title",
                  "type": "string"
                },
                {
                  "internalType": "string",
                  "name": "description",
                  "type": "string"
                },
                {
                  "internalType": "string",
                  "name": "dataRequirements",
                  "type": "string"
                },
                {
                  "internalType": "string[]",
                  "name": "qualityCriteria",
                  "type": "string[]"
                },
                {
                  "internalType": "uint256",
                  "name": "unitPrice",
                  "type": "uint256"
                },
                {
                  "internalType": "uint256",
                  "name": "totalBudget",
                  "type": "uint256"
                },
                {
                  "internalType": "uint256",
                  "name": "remainingBudget",
                  "type": "uint256"
                },
                {
                  "internalType": "uint256",
                  "name": "maxSubmissions",
                  "type": "uint256"
                },
                {
                  "internalType": "uint256",
                  "name": "currentSubmissions",
                  "type": "uint256"
                },
                {
                  "internalType": "uint256",
                  "name": "startTime",
                  "type": "uint256"
                },
                {
                  "internalType": "uint256",
                  "name": "expiration",
                  "type": "uint256"
                },
                {
                  "internalType": "bool",
                  "name": "active",
                  "type": "bool"
                },
                {
                  "internalType": "string",
                  "name": "metadataURI",
                  "type": "string"
                },
                {
                  "internalType": "uint256",
                  "name": "platformFee",
                  "type": "uint256"
                },
                {
                  "internalType": "string",
                  "name": "encryptionPublicKey",
                  "type": "string"
                },
                {
                  "internalType": "uint256",
                  "name": "rewardThreshold",
                  "type": "uint256"
                }
              ],
              "internalType": "struct CampaignManager.Campaign",
              "name": "",
              "type": "tuple"
            }
          ],
          "stateMutability": "view",
          "type": "function"
        },
        {
          "inputs": [
            {
              "internalType": "uint256",
              "name": "_campaignId",
              "type": "uint256"
            }
          ],
          "name": "getCampaignEncryptionPublicKey",
          "outputs": [
            {
              "internalType": "string",
              "name": "",
              "type": "string"
            }
          ],
          "stateMutability": "view",
          "type": "function"
        },
        {
          "inputs": [
            {
              "internalType": "string",
              "name": "_campaignIdString",
              "type": "string"
            }
          ],
          "name": "getCampaignIdFromString",
          "outputs": [
            {
              "internalType": "uint256",
              "name": "",
              "type": "uint256"
            }
          ],
          "stateMutability": "view",
          "type": "function"
        },
        {
          "inputs": [
            {
              "internalType": "uint256",
              "name": "_campaignId",
              "type": "uint256"
            }
          ],
          "name": "getCampaignRemainingBudget",
          "outputs": [
            {
              "internalType": "uint256",
              "name": "",
              "type": "uint256"
            }
          ],
          "stateMutability": "view",
          "type": "function"
        },
        {
          "inputs": [
            {
              "internalType": "uint256",
              "name": "_campaignId",
              "type": "uint256"
            }
          ],
          "name": "getCampaignStatus",
          "outputs": [
            {
              "internalType": "bool",
              "name": "active",
              "type": "bool"
            },
            {
              "internalType": "uint256",
              "name": "totalContributions",
              "type": "uint256"
            },
            {
              "internalType": "uint256",
              "name": "remainingSlots",
              "type": "uint256"
            }
          ],
          "stateMutability": "view",
          "type": "function"
        },
        {
          "inputs": [
            {
              "internalType": "address",
              "name": "_owner",
              "type": "address"
            }
          ],
          "name": "getOwnerActiveCampaigns",
          "outputs": [
            {
              "internalType": "uint256[]",
              "name": "",
              "type": "uint256[]"
            }
          ],
          "stateMutability": "view",
          "type": "function"
        },
        {
          "inputs": [
            {
              "internalType": "uint256",
              "name": "_campaignId",
              "type": "uint256"
            }
          ],
          "name": "getRewardThreshold",
          "outputs": [
            {
              "internalType": "uint256",
              "name": "",
              "type": "uint256"
            }
          ],
          "stateMutability": "view",
          "type": "function"
        },
        {
          "inputs": [
            {
              "internalType": "uint256",
              "name": "_campaignId",
              "type": "uint256"
            }
          ],
          "name": "getUnitPrice",
          "outputs": [
            {
              "internalType": "uint256",
              "name": "",
              "type": "uint256"
            }
          ],
          "stateMutability": "view",
          "type": "function"
        },
        {
          "inputs": [
            {
              "internalType": "address",
              "name": "_address",
              "type": "address"
            }
          ],
          "name": "getUsername",
          "outputs": [
            {
              "internalType": "string",
              "name": "",
              "type": "string"
            }
          ],
          "stateMutability": "view",
          "type": "function"
        },
        {
          "inputs": [
            {
              "internalType": "address",
              "name": "_address",
              "type": "address"
            }
          ],
          "name": "getUsernameEditCount",
          "outputs": [
            {
              "internalType": "uint256",
              "name": "",
              "type": "uint256"
            }
          ],
          "stateMutability": "view",
          "type": "function"
        },
        {
          "inputs": [
            {
              "internalType": "uint256",
              "name": "_campaignId",
              "type": "uint256"
            }
          ],
          "name": "isAcceptingSubmissions",
          "outputs": [
            {
              "internalType": "bool",
              "name": "",
              "type": "bool"
            }
          ],
          "stateMutability": "view",
          "type": "function"
        },
        {
          "inputs": [
            {
              "internalType": "uint256",
              "name": "_campaignId",
              "type": "uint256"
            },
            {
              "internalType": "address",
              "name": "_address",
              "type": "address"
            }
          ],
          "name": "isCampaignOwner",
          "outputs": [
            {
              "internalType": "bool",
              "name": "",
              "type": "bool"
            }
          ],
          "stateMutability": "view",
          "type": "function"
        },
        {
          "inputs": [],
          "name": "owner",
          "outputs": [
            {
              "internalType": "address",
              "name": "",
              "type": "address"
            }
          ],
          "stateMutability": "view",
          "type": "function"
        },
        {
          "inputs": [
            {
              "internalType": "address",
              "name": "",
              "type": "address"
            }
          ],
          "name": "ownerActiveCampaigns",
          "outputs": [
            {
              "internalType": "uint256",
              "name": "",
              "type": "uint256"
            }
          ],
          "stateMutability": "view",
          "type": "function"
        },
        {
          "inputs": [
            {
              "internalType": "address",
              "name": "",
              "type": "address"
            },
            {
              "internalType": "uint256",
              "name": "",
              "type": "uint256"
            }
          ],
          "name": "ownerCampaigns",
          "outputs": [
            {
              "internalType": "uint256",
              "name": "",
              "type": "uint256"
            }
          ],
          "stateMutability": "view",
          "type": "function"
        },
        {
          "inputs": [
            {
              "internalType": "address",
              "name": "",
              "type": "address"
            }
          ],
          "name": "ownerTotalSpent",
          "outputs": [
            {
              "internalType": "uint256",
              "name": "",
              "type": "uint256"
            }
          ],
          "stateMutability": "view",
          "type": "function"
        },
        {
          "inputs": [
            {
              "internalType": "uint256",
              "name": "_campaignId",
              "type": "uint256"
            }
          ],
          "name": "recordSubmission",
          "outputs": [
            {
              "internalType": "uint256",
              "name": "",
              "type": "uint256"
            }
          ],
          "stateMutability": "nonpayable",
          "type": "function"
        },
        {
          "inputs": [],
          "name": "renounceOwnership",
          "outputs": [],
          "stateMutability": "nonpayable",
          "type": "function"
        },
        {
          "inputs": [],
          "name": "rewardToken",
          "outputs": [
            {
              "internalType": "contract IERC20",
              "name": "",
              "type": "address"
            }
          ],
          "stateMutability": "view",
          "type": "function"
        },
        {
          "inputs": [
            {
              "internalType": "address",
              "name": "_contractAddress",
              "type": "address"
            }
          ],
          "name": "setContributionsContract",
          "outputs": [],
          "stateMutability": "nonpayable",
          "type": "function"
        },
        {
          "inputs": [
            {
              "internalType": "uint256",
              "name": "_fee",
              "type": "uint256"
            }
          ],
          "name": "setDefaultPlatformFee",
          "outputs": [],
          "stateMutability": "nonpayable",
          "type": "function"
        },
        {
          "inputs": [
            {
              "internalType": "address",
              "name": "_contractAddress",
              "type": "address"
            }
          ],
          "name": "setEscrowContract",
          "outputs": [],
          "stateMutability": "nonpayable",
          "type": "function"
        },
        {
          "inputs": [
            {
              "internalType": "string",
              "name": "_username",
              "type": "string"
            }
          ],
          "name": "setUsername",
          "outputs": [],
          "stateMutability": "nonpayable",
          "type": "function"
        },
        {
          "inputs": [
            {
              "internalType": "address",
              "name": "newOwner",
              "type": "address"
            }
          ],
          "name": "transferOwnership",
          "outputs": [],
          "stateMutability": "nonpayable",
          "type": "function"
        },
        {
          "inputs": [
            {
              "internalType": "uint256",
              "name": "_campaignId",
              "type": "uint256"
            },
            {
              "internalType": "string",
              "name": "_title",
              "type": "string"
            },
            {
              "internalType": "string",
              "name": "_description",
              "type": "string"
            },
            {
              "internalType": "string",
              "name": "_dataRequirements",
              "type": "string"
            },
            {
              "internalType": "string[]",
              "name": "_qualityCriteria",
              "type": "string[]"
            },
            {
              "internalType": "uint256",
              "name": "_expiration",
              "type": "uint256"
            },
            {
              "internalType": "string",
              "name": "_metadataURI",
              "type": "string"
            },
            {
              "internalType": "string",
              "name": "_encryptionPublicKey",
              "type": "string"
            }
          ],
          "name": "updateCampaign",
          "outputs": [],
          "stateMutability": "nonpayable",
          "type": "function"
        },
        {
          "inputs": [
            {
              "internalType": "address",
              "name": "",
              "type": "address"
            }
          ],
          "name": "usernameEditCount",
          "outputs": [
            {
              "internalType": "uint256",
              "name": "",
              "type": "uint256"
            }
          ],
          "stateMutability": "view",
          "type": "function"
        },
        {
          "inputs": [
            {
              "internalType": "string",
              "name": "",
              "type": "string"
            }
          ],
          "name": "usernameExists",
          "outputs": [
            {
              "internalType": "bool",
              "name": "",
              "type": "bool"
            }
          ],
          "stateMutability": "view",
          "type": "function"
        },
        {
          "inputs": [
            {
              "internalType": "address",
              "name": "",
              "type": "address"
            }
          ],
          "name": "usernames",
          "outputs": [
            {
              "internalType": "string",
              "name": "",
              "type": "string"
            }
          ],
          "stateMutability": "view",
          "type": "function"
        }
      ],
      "evm": {
        "bytecode": {
          "linkReferences": {},
          "object": "60803460bf57601f61410738819003918201601f19168301916001600160401b0383118484101760c45780849260209460405283398101031260bf57516001600160a01b0381169081900360bf5760008054336001600160a01b0319821681178355604051939290916001600160a01b0316907f8be0079c531659141344cd1fd0a4f28419497f9722a3daafe3b4186f6b6457e09080a36001805560fa601155601080546001600160a01b03191691909117905561402c90816100db8239f35b600080fd5b634e487b7160e01b600052604160045260246000fdfe610120604052600436101561001357600080fd5b60003560e01c806307810ae4146136c457806311c2ccc0146104a3578063141961bc146134fb57806315a92c5e146134b75780631c34212c146134995780631c9c9021146133e95780631cd896c1146133ce5780631e93945a1461337b578063285bc8d114610c2a5780632959195a14612af85780633e1d72c8146129325780633e8416ba146128f657806345598b4a14612752578063474e1a6f14610bd4578063493f17261461266c57806351e700cc1461237557806361e448cd1461233957806364c0e52f146122fd5780636c19e0041461229b5780636caa9218146122765780636cb0b50e14612258578063715018a6146121ff5780637274e30d146121e15780637b71f722146121955780637cf249df14611ed45780637eca30fe14611e015780638da5cb5b14611dd8578063a54864f114610cbd578063a56a275914610c64578063a734cbfd14610c2a578063a92e528814610c0e578063b388e16214610bd4578063b6a7a7d914610b9a578063b863191d14610b4c578063bd3c383214610b03578063c362b15614610a89578063cc22462c14610a4d578063ce43c032146104dd578063d599ba92146109e1578063d993de6214610842578063de04bbd214610819578063e42a96e7146107f0578063ed59313a14610589578063ee7cfc761461052f578063ee91877c146104dd578063f2f09ab7146104a3578063f2fde38b146103dc578063f309e3f91461037b578063f42375b51461030f578063f7c618c1146102e65763fdd950c11461024e57600080fd5b346102e15760203660031901126102e15760043561026a613f9e565b6103e881116102a4576020817f4a9456f0774fa7a6d15eeda6dd6c6a8ecda076eb0de34d87d5fce89bea38fc9692601155604051908152a1005b60405162461bcd60e51b81526020600482015260156024820152744665652063616e6e6f74206578636565642031302560581b6044820152606490fd5b600080fd5b346102e15760003660031901126102e1576010546040516001600160a01b039091168152602090f35b346102e15760203660031901126102e1577f3e3f3fc86f427db78be526abf54fdc5b307047dc0384650b4090d5a797267c58602061034b613764565b610353613f9e565b600f80546001600160a01b0319166001600160a01b03929092169182179055604051908152a1005b346102e15760203660031901126102e1576004356001600160401b0381116102e15760ff6103c660206103b381943690600401613917565b8160405193828580945193849201613895565b8101600d81520301902054166040519015158152f35b346102e15760203660031901126102e1576103f5613764565b6103fd613f9e565b6001600160a01b0316801561044f57600080546001600160a01b03198116831782556001600160a01b0316907f8be0079c531659141344cd1fd0a4f28419497f9722a3daafe3b4186f6b6457e09080a3005b60405162461bcd60e51b815260206004820152602660248201527f4f776e61626c653a206e6577206f776e657220697320746865207a65726f206160448201526564647265737360d01b6064820152608490fd5b346102e15760203660031901126102e1576001600160a01b036104c4613764565b16600052600c6020526020604060002054604051908152f35b346102e15760203660031901126102e1576001600160a01b036104fe613764565b16600052600b60205261052b61051760406000206137f1565b6040519182916020835260208301906138b8565b0390f35b346102e15760403660031901126102e1576004356024356001600160a01b038116908190036102e1576020916105686002548210613bf3565b6000526004825260018060a01b036002604060002001541614604051908152f35b346102e15760203660031901126102e1576004356001600160401b0381116102e1576105b9903690600401613917565b6105c581511515613eb3565b6105d3602082511115613eff565b33600052600b6020526105ea60406000205461377a565b6107b45760405161061d60ff8351926020818187019561060b818389613895565b8101600d815203019020541615613f3f565b33600052600b602052604060002082516001600160401b03811161079e57610645825461377a565b601f8111610761575b506020601f82116001146106f657916106858261069995936020956000916106eb575b508160011b916000199060031b1c19161790565b90555b604051809381928651928391613895565b8101600d815203019020600160ff198254161790557f74d8e560d2e870c35b35dc882df2a5c96e2bf1cdb5ef6dd2f9cb433c8d04885360405160208152806106e6339460208301906138b8565b0390a2005b905087015188610671565b601f1982169083600052806000209160005b8181106107495750926020949260019282610699989610610730575b5050811b019055610688565b88015160001960f88460031b161c191690558780610724565b9192602060018192868b015181550194019201610708565b61078e90836000526020600020601f840160051c81019160208510610794575b601f0160051c0190613de7565b8461064e565b9091508190610781565b634e487b7160e01b600052604160045260246000fd5b60405162461bcd60e51b8152602060048201526014602482015273155cd95c9b985b5948185b1c9958591e481cd95d60621b6044820152606490fd5b346102e15760003660031901126102e157600f546040516001600160a01b039091168152602090f35b346102e15760003660031901126102e157600e546040516001600160a01b039091168152602090f35b346102e15760203660031901126102e15760043561085e613dfe565b5061086c6002548210613bf3565b60005260046020526040600020604051610885816137b4565b81548152610895600183016137f1565b602082015260028201546001600160a01b031660408201526108b9600383016137f1565b60608201526108ca600483016137f1565b60808201526108db600583016137f1565b60a08201526006820180546108ef8161396d565b916108fd60405193846137d0565b818352602083019060005260206000206000915b8383106109c45761052b866012898860c0840152600781015460e084015260088101546101008401526009810154610120840152600a810154610140840152600b810154610160840152600c810154610180840152600d8101546101a084015260ff600e8201541615156101c084015261098d600f82016137f1565b6101e084015260108101546102008401526109aa601182016137f1565b610220840152015461024082015260405191829182613a02565b6001602081926109d3856137f1565b815201920192019190610911565b346102e15760203660031901126102e1577f7b831657bf556e81a1356cc284f90402807c6629f2ce4362e64538ce916394396020610a1d613764565b610a25613f9e565b600e80546001600160a01b0319166001600160a01b03929092169182179055604051908152a1005b346102e15760203660031901126102e157600435610a6e6002548210613bf3565b600052600460205261052b61051760116040600020016137f1565b346102e15760003660031901126102e157610aa5600354613c3f565b6002546000805b828110610ac1576040518061052b86826138dd565b80600052600460205260ff600e6040600020015416610ae3575b600101610aac565b90610afb8183610af560019488613c71565b52613c85565b919050610adb565b346102e15760203660031901126102e1576004356001600160401b0381116102e157610b3960206103b381933690600401613917565b8101600681520301902054604051908152f35b346102e15760203660031901126102e1576004356001600160401b0381116102e15760ff610b8460206103b381943690600401613917565b8101600581520301902054166040519015158152f35b346102e15760203660031901126102e1576001600160a01b03610bbb613764565b1660005260086020526020604060002054604051908152f35b346102e15760203660031901126102e1576001600160a01b03610bf5613764565b16600052600a6020526020604060002054604051908152f35b346102e15760003660031901126102e157602060405160028152f35b346102e15760203660031901126102e1576001600160a01b03610c4b613764565b1660005260096020526020604060002054604051908152f35b346102e15760403660031901126102e157610c7d613764565b6001600160a01b03166000908152600760205260409020805460243591908210156102e157602091610cae91613b9f565b90549060031b1c604051908152f35b346102e15760203660031901126102e1576004356001600160401b0381116102e1576101c060031982360301126102e157604051906101c082018281106001600160401b0382111761079e5760405280600401356001600160401b0381116102e157610d2f9060043691840101613917565b825260248101356001600160401b0381116102e157610d549060043691840101613917565b602083015260448101356001600160401b0381116102e157610d7c9060043691840101613917565b604083015260648101356001600160401b0381116102e157610da49060043691840101613917565b606083015260848101356001600160401b0381116102e157610dcc9060043691840101613984565b608083015260a481013560a083015260c481013560c083015260e481013560e08301526101048101356101008301526101248101356101208301526101448101356001600160401b0381116102e157610e2b9060043691840101613917565b6101408301526101608201906101648101358252610184810135906001600160401b0382116102e157610e676101a49260043691840101613917565b61018085015201356101a0830152600260015414611d935760026001556101208201516101008301511015611d425760c082015115611cfd5760a082015115611cae576101808201515115611c695781515115611c195760ff610eca8351613bcd565b5416611bca576101a082015115611b755760646101a083015111611b2557518015611b1c575b6103e88111611ad75760c0820151601054600f546040516323b872dd60e01b81523360048201526001600160a01b039182166024820152604481019390935260209183916064918391600091165af1908115611acb57600091611a9c575b5015611a5f57600254809183805191602082015160408301516060840151608085015160a086015160c08701519060e088015192610100890151946101208a0151966101408b0151986101808c01519b6101a001519c6040519e8f90610fb3826137b4565b8152602001528d3360408201526060015260808d015260a08c015260c08b015260e08a0152806101008a01526101208901526101408801526101608701600090526101808701526101a08601526101c08501600190526101e08501526102008401526102208301526102408201528160005260046020526040600020908051825560208101518051906001600160401b03821161079e57611057600185015461377a565b601f8111611a2a575b50602090601f83116001146119b9576110929291600091836117bc575b50508160011b916000199060031b1c19161790565b60018301555b6002820160018060a01b036040830151166bffffffffffffffffffffffff60a01b82541617905560608101518051906001600160401b03821161079e576110e2600385015461377a565b601f8111611984575b50602090601f83116001146119135761111c9291600091836117bc5750508160011b916000199060031b1c19161790565b60038301555b60808101518051906001600160401b03821161079e57611145600485015461377a565b601f81116118de575b50602090601f831160011461186d5761117f9291600091836117bc5750508160011b916000199060031b1c19161790565b60048301555b60a08101518051906001600160401b03821161079e576111a8600585015461377a565b601f8111611838575b50602090601f83116001146117c7576111e29291600091836117bc5750508160011b916000199060031b1c19161790565b60058301555b6006820160c0820151805190600160401b821161079e57825482845580831061173e575b50602001916000526020600020916000905b828210611626575050505060e0810151600783015561010081015160088301556101208101516009830155610140810151600a830155610160810151600b830155610180810151600c8301556101a0810151600d830155600e82016101c0820151151560ff80198354169116179055600f82016101e08201518051906001600160401b03821161079e576112b2835461377a565b601f81116115f4575b50602090601f831160011461158d576112ec9291600091836115825750508160011b916000199060031b1c19161790565b90555b6102008101516010830155601182016102208201518051906001600160401b03821161079e5761131f835461377a565b601f8111611550575b50602090601f83116001146114e25782601295936102409593611361936000926114d75750508160011b916000199060031b1c19161790565b90555b01519101556113738251613bcd565b600160ff1982541617905580611399602084518160405193828580945193849201613895565b81016006815203019020556113af600254613c85565b6002556113bd600354613c85565b600355336000526007602052604060002091825492600160401b84101561079e57836113f0916001602096018155613b9f565b81549060031b9084821b91600019901b19161790553360005260088352604060002061141c8154613c85565b905560c0810151336000526009845261143b6040600020918254613f91565b9055817f8d8a0ba1b7900a22437ee5041b51364efd2ea462cd602b640d3a1cc1eacc999061149c83516114c8878601519560c0810151906101008101516114a96101406101208401519301519960405197889760c0895260c08901906138b8565b908782038e8901526138b8565b9260408601526060850152608084015282810360a084015233966138b8565b0390a360018055604051908152f35b015190508a8061107d565b90601f1983169184600052816000209260005b81811061153857509260019285926012989661024098961061151f575b505050811b019055611364565b015160001960f88460031b161c19169055898080611512565b929360206001819287860151815501950193016114f5565b61157c90846000526020600020601f850160051c8101916020861061079457601f0160051c0190613de7565b87611328565b01519050888061107d565b90601f1983169184600052816000209260005b8181106115dc57509084600195949392106115c3575b505050811b0190556112ef565b015160001960f88460031b161c191690558780806115b6565b929360206001819287860151815501950193016115a0565b61162090846000526020600020601f850160051c8101916020861061079457601f0160051c0190613de7565b876112bb565b80518051906001600160401b03821161079e57611643865461377a565b601f811161170c575b50602090601f831160011461169f5792611685836001959460209487966000926116945750508160011b916000199060031b1c19161790565b87555b0194019101909261121e565b015190508e8061107d565b90601f1983169187600052816000209260005b8181106116f457509360209360019693879693838895106116db575b505050811b018755611688565b015160001960f88460031b161c191690558d80806116ce565b929360206001819287860151815501950193016116b2565b61173890876000526020600020601f850160051c8101916020861061079457601f0160051c0190613de7565b8a61164c565b8360005282602060002091820191015b81811061175b575061120c565b806117686001925461377a565b80611775575b500161174e565b601f8111831461178b5750600081555b8a61176e565b6117a9908260005283601f6020600020920160051c82019101613de7565b8060005260006020812081835555611785565b01519050878061107d565b91906005850160005280600020906000935b601f198416851061181d576001945083601f19811610611804575b505050811b0160058301556111e8565b015160001960f88460031b161c191690558680806117f4565b818101518355602094850194600190930192909101906117d9565b61186790600586016000526020600020601f850160051c8101916020861061079457601f0160051c0190613de7565b866111b1565b91906004850160005280600020906000935b601f19841685106118c3576001945083601f198116106118aa575b505050811b016004830155611185565b015160001960f88460031b161c1916905586808061189a565b8181015183556020948501946001909301929091019061187f565b61190d90600486016000526020600020601f850160051c8101916020861061079457601f0160051c0190613de7565b8661114e565b91906003850160005280600020906000935b601f1984168510611969576001945083601f19811610611950575b505050811b016003830155611122565b015160001960f88460031b161c19169055868080611940565b81810151835560209485019460019093019290910190611925565b6119b390600386016000526020600020601f850160051c8101916020861061079457601f0160051c0190613de7565b866110eb565b91906001850160005280600020906000935b601f1984168510611a0f576001945083601f198116106119f6575b505050811b016001830155611098565b015160001960f88460031b161c191690558680806119e6565b818101518355602094850194600190930192909101906119cb565b611a5990600186016000526020600020601f850160051c8101916020861061079457601f0160051c0190613de7565b86611060565b60405162461bcd60e51b8152602060048201526015602482015274151bdad95b881d1c985b9cd9995c8819985a5b1959605a1b6044820152606490fd5b611abe915060203d602011611ac4575b611ab681836137d0565b810190613e8e565b83610f4e565b503d611aac565b6040513d6000823e3d90fd5b60405162461bcd60e51b815260206004820152601e60248201527f506c6174666f726d206665652063616e6e6f74206578636565642031302500006044820152606490fd5b50601154610ef0565b60405162461bcd60e51b815260206004820152602260248201527f526577617264207468726573686f6c642063616e6e6f74206578636565642031604482015261030360f41b6064820152608490fd5b60405162461bcd60e51b815260206004820152602760248201527f526577617264207468726573686f6c64206d75737420626520677265617465726044820152660207468616e20360cc1b6064820152608490fd5b60405162461bcd60e51b815260206004820152602160248201527f43616d706169676e20494420737472696e6720616c72656164792065786973746044820152607360f81b6064820152608490fd5b60405162461bcd60e51b815260206004820152602260248201527f43616d706169676e20494420737472696e672063616e6e6f7420626520656d70604482015261747960f01b6064820152608490fd5b60405162461bcd60e51b815260206004820152601a60248201527f5075626c6963206b65792063616e6e6f7420626520656d7074790000000000006044820152606490fd5b60405162461bcd60e51b815260206004820152602160248201527f556e6974207072696365206d7573742062652067726561746572207468616e206044820152600360fc1b6064820152608490fd5b60405162461bcd60e51b815260206004820152601d60248201527f427564676574206d7573742062652067726561746572207468616e20300000006044820152606490fd5b60405162461bcd60e51b815260206004820152602360248201527f45787069726174696f6e206d7573742062652061667465722073746172742074604482015262696d6560e81b6064820152608490fd5b60405162461bcd60e51b815260206004820152601f60248201527f5265656e7472616e637947756172643a207265656e7472616e742063616c6c006044820152606490fd5b346102e15760003660031901126102e1576000546040516001600160a01b039091168152602090f35b346102e15760203660031901126102e157600435611e226002548210613bf3565b806000526004602052611e4660018060a01b03600260406000200154163314613d00565b806000526004602052600e604060002001805460ff811615611e8f5760ff191690557fa8ad368de07a46b4c9632fee456e1227f02e971f82939d68bd4696b2e378dfa7600080a2005b60405162461bcd60e51b815260206004820152601c60248201527f43616d706169676e20697320616c726561647920696e616374697665000000006044820152606490fd5b346102e15760203660031901126102e157600e54600435906001600160a01b0316330361213557611f086002548210613bf3565b8060005260046020526040600020600e810191611f2860ff845416613d61565b600c82015442106120f057611f43600d830154421115613da6565b600b820191825493600a82019384548610156120ab57600983019485549560078501968754908181106120665781611f8791611f8060209c613c85565b8755613f84565b825532600052600a8952611fa16040600020918254613f91565b90558654906040518281527f8565ff6669c04439af2c80b16abe9af84f3442c16849ae6b1eb657cb268bf4db8a3292a25410918215612058575b5050611fee575b50505054604051908152f35b60ff198154169055612001600354613ea6565b600355600201546001600160a01b031660009081526008845260409020805461202990613ea6565b90557fa8ad368de07a46b4c9632fee456e1227f02e971f82939d68bd4696b2e378dfa7600080a2828080611fe2565b549054111590508680611fdb565b60405162461bcd60e51b815260206004820152601c60248201527f496e73756666696369656e742063616d706169676e20627564676574000000006044820152606490fd5b60405162461bcd60e51b815260206004820152601760248201527f4d6178207375626d697373696f6e7320726561636865640000000000000000006044820152606490fd5b60405162461bcd60e51b815260206004820152601860248201527f43616d706169676e20686173206e6f74207374617274656400000000000000006044820152606490fd5b60405162461bcd60e51b815260206004820152603260248201527f4f6e6c7920636f6e747269627574696f6e7320636f6e74726163742063616e2060448201527131b0b636103a3434b990333ab731ba34b7b760711b6064820152608490fd5b346102e15760203660031901126102e15760406001600160a01b036121b8613764565b168060005260076020528160002054906000526008602052816000205482519182526020820152f35b346102e15760003660031901126102e1576020600254604051908152f35b346102e15760003660031901126102e157612218613f9e565b600080546001600160a01b0319811682556001600160a01b03167f8be0079c531659141344cd1fd0a4f28419497f9722a3daafe3b4186f6b6457e08280a3005b346102e15760003660031901126102e1576020600354604051908152f35b346102e15760003660031901126102e157604060025460035482519182526020820152f35b346102e15760203660031901126102e1576004356122bc6002548210613bf3565b600052600460205260606040600020600a6122e860ff600e8401541692600b8101549283910154613f84565b90604051921515835260208301526040820152f35b346102e15760203660031901126102e15760043561231e6002548210613bf3565b60005260046020526020600760406000200154604051908152f35b346102e15760203660031901126102e15760043561235a6002548210613bf3565b60005260046020526020601260406000200154604051908152f35b346102e15760203660031901126102e1576004356001600160401b0381116102e1576123a5903690600401613917565b6123b181511515613eb3565b6123bf602082511115613eff565b33600052600b6020526123d660406000205461377a565b15612635576040516123f860ff8351926020818187019561060b818389613895565b33600052600c602052600260406000205410156125fc5733600052600b602052612462602061242a60406000206137f1565b926040518281865161243f8183858b01613895565b8101600d81520301902060ff198154169055604051809381928751928391613895565b8101600d815203019020600160ff1982541617905533600052600b602052604060002082516001600160401b03811161079e5761249f825461377a565b601f81116125ca575b506020601f821160011461254057916124fd827f03cf3e8d8cbb3bb53f66bc49633dba574bf96da8ae4e488cdacbe87b5d6196e89593612531956000916106eb57508160011b916000199060031b1c19161790565b90555b33600052600c60205260406000206125188154613c85565b90556106e66040519283926040845260408401906138b8565b828103602084015233956138b8565b601f1982169083600052806000209160005b8181106125b25750926125319492600192827f03cf3e8d8cbb3bb53f66bc49633dba574bf96da8ae4e488cdacbe87b5d6196e8989610612599575b5050811b019055612500565b88015160001960f88460031b161c19169055878061258d565b9192602060018192868b015181550194019201612552565b6125f690836000526020600020601f840160051c8101916020851061079457601f0160051c0190613de7565b846124a8565b60405162461bcd60e51b815260206004820152601160248201527013585e0819591a5d1cc81c995858da1959607a1b6044820152606490fd5b60405162461bcd60e51b815260206004820152600f60248201526e139bc81d5cd95c9b985b59481cd95d608a1b6044820152606490fd5b346102e15760203660031901126102e15760043561268d6002548210613bf3565b8060005260046020526126b160018060a01b03600260406000200154163314613d00565b8060005260046020526040600020600e810190815460ff811661270d576126df600d60019301544210613da6565b60ff19161790557f141c887329aaf008f79cc3613bdf4b305d54d2f381909f35518966b3d6a79d56600080a2005b60405162461bcd60e51b815260206004820152601a60248201527f43616d706169676e20697320616c7265616479206163746976650000000000006044820152606490fd5b346102e15760203660031901126102e1576004356127736002548210613bf3565b80600052600460205261279760018060a01b03600260406000200154163314613d00565b806000526004602052604060002090600e820180546127b860ff8216613d61565b60ff191690556009820180549081612804575b836127d7600354613ea6565b600355600201546001600160a01b03166000908152600860205260409020805461280090613ea6565b9055005b600090819055601054600f5460028601546040516323b872dd60e01b81526001600160a01b03928316600482015290821660248201526044810185905292602092849260649284929091165af1908115611acb576000916128d7575b50156128995760207f36acd1dcb6f0ee33dd3de4e8247261b42637734a3841c141a5e17acd37ef584591604051908152a28180806127cb565b60405162461bcd60e51b81526020600482015260166024820152751499599d5b99081d1c985b9cd9995c8819985a5b195960521b6044820152606490fd5b6128f0915060203d602011611ac457611ab681836137d0565b84612860565b346102e15760203660031901126102e1576004356129176002548210613bf3565b60005260046020526020600960406000200154604051908152f35b346102e15760203660031901126102e1576004356001600160401b0381116102e15760206129676129af923690600401613917565b61296f613dfe565b506040519061299e60ff82519385818186019661298d81838a613895565b810160058152030190205416613caa565b604051938492839251928391613895565b8101600681520301902054600052600460205260406000206040516129d3816137b4565b815481526129e3600183016137f1565b602082015260028201546001600160a01b03166040820152612a07600383016137f1565b6060820152612a18600483016137f1565b6080820152612a29600583016137f1565b60a0820152600682018054612a3d8161396d565b91612a4b60405193846137d0565b818352602083019060005260206000206000915b838310612adb5761052b866012898860c0840152600781015460e084015260088101546101008401526009810154610120840152600a810154610140840152600b810154610160840152600c810154610180840152600d8101546101a084015260ff600e8201541615156101c084015261098d600f82016137f1565b600160208192612aea856137f1565b815201920192019190612a5f565b346102e1576101003660031901126102e1576004356024356001600160401b0381116102e157612b2c903690600401613917565b906044356001600160401b0381116102e157612b4c903690600401613917565b6064356001600160401b0381116102e157612b6b903690600401613917565b926084356001600160401b0381116102e157612b8b903690600401613984565b9060a4359060c4356001600160401b0381116102e157612baf903690600401613917565b9260e4356001600160401b0381116102e157612bcf903690600401613917565b96612bdd6002548810613bf3565b866000526004602052612c0160018060a01b03600260406000200154163314613d00565b866000526004602052604060002095612c2060ff600e89015416613d61565b600d870193612c3185544210613da6565b4286111561333757805160038901916001600160401b03821161079e57612c58835461377a565b601f8111613305575b50602090601f831160011461329e57612c929291600091836132935750508160011b916000199060031b1c19161790565b90555b805160048801916001600160401b03821161079e57612cb4835461377a565b601f8111613261575b50602090601f83116001146131fa57612cee9291600091836131ef5750508160011b916000199060031b1c19161790565b90555b805160058701916001600160401b03821161079e57612d10835461377a565b601f81116131bd575b50602090601f831160011461315657612d4a92916000918361314b5750508160011b916000199060031b1c19161790565b90555b80516006860191600160401b821161079e5782548284558083106130cd575b50602001916000526020600020916000905b828210612fb5575050505055600f8201908051906001600160401b03821161079e57612daa835461377a565b601f8111612f83575b50602090601f8311600114612f1c57612de49291600091836117bc5750508160011b916000199060031b1c19161790565b90555b82519081612e18575b827feb99199fa768b75351d1d205616eb313e8775bf75ad483f1a9c5dc947d9aa105600080a2005b601101906001600160401b03811161079e57612e34825461377a565b601f8111612eea575b506020601f8211600114612e85578190612e6f939495600092612e7a5750508160011b916000199060031b1c19161790565b90555b808280612df0565b01519050858061107d565b601f1982169083600052806000209160005b818110612ed257509583600195969710612eb9575b505050811b019055612e72565b015160001960f88460031b161c19169055848080612eac565b9192602060018192868b015181550194019201612e97565b612f1690836000526020600020601f840160051c8101916020851061079457601f0160051c0190613de7565b84612e3d565b90601f1983169184600052816000209260005b818110612f6b5750908460019594939210612f52575b505050811b019055612de7565b015160001960f88460031b161c19169055868080612f45565b92936020600181928786015181550195019301612f2f565b612faf90846000526020600020601f850160051c8101916020861061079457601f0160051c0190613de7565b86612db3565b80518051906001600160401b03821161079e57612fd2865461377a565b601f811161309b575b50602090601f831160011461302e5792613014836001959460209487966000926130235750508160011b916000199060031b1c19161790565b87555b01940191019092612d7e565b01519050388061107d565b90601f1983169187600052816000209260005b818110613083575093602093600196938796938388951061306a575b505050811b018755613017565b015160001960f88460031b161c191690558f808061305d565b92936020600181928786015181550195019301613041565b6130c790876000526020600020601f850160051c8101916020861061079457601f0160051c0190613de7565b8c612fdb565b8360005282602060002091820191015b8181106130ea5750612d6c565b806130f76001925461377a565b80613104575b50016130dd565b601f8111831461311a5750600081555b8c6130fd565b613138908260005283601f6020600020920160051c82019101613de7565b8060005260006020812081835555613114565b015190508b8061107d565b90601f1983169184600052816000209260005b8181106131a5575090846001959493921061318c575b505050811b019055612d4d565b015160001960f88460031b161c191690558a808061317f565b92936020600181928786015181550195019301613169565b6131e990846000526020600020601f850160051c8101916020861061079457601f0160051c0190613de7565b8a612d19565b015190508c8061107d565b90601f1983169184600052816000209260005b8181106132495750908460019594939210613230575b505050811b019055612cf1565b015160001960f88460031b161c191690558b8080613223565b9293602060018192878601518155019501930161320d565b61328d90846000526020600020601f850160051c8101916020861061079457601f0160051c0190613de7565b8b612cbd565b015190508d8061107d565b90601f1983169184600052816000209260005b8181106132ed57509084600195949392106132d4575b505050811b019055612c95565b015160001960f88460031b161c191690558c80806132c7565b929360206001819287860151815501950193016132b1565b61333190846000526020600020601f850160051c8101916020861061079457601f0160051c0190613de7565b8c612c61565b606460405162461bcd60e51b815260206004820152602060248201527f45787069726174696f6e206d75737420626520696e20746865206675747572656044820152fd5b346102e15760203660031901126102e1576004356001600160401b0381116102e157610b3960206133b181933690600401613917565b6040519061299e60ff82519385818186019661298d81838a613895565b346102e15760003660031901126102e1576020604051818152f35b346102e15760203660031901126102e1576001600160a01b0361340a613764565b16806000526008602052613422604060002054613c3f565b60009182526007602052604082208054919290815b83811061344c576040518061052b87826138dd565b6134568183613b9f565b90549060031b1c80600052600460205260ff600e6040600020015416613480575b50600101613437565b8361349291610af56001949689613c71565b9290613477565b346102e15760003660031901126102e1576020601154604051908152f35b346102e15760203660031901126102e1576004356134d86002548210613bf3565b6000526004602052602060018060a01b0360026040600020015416604051908152f35b346102e15760203660031901126102e157600435600052600460205260406000208054610100528060018101613530906137f1565b60028201546001600160a01b031660e05261354d600383016137f1565b9061355a600484016137f1565b91613567600585016137f1565b9260078501549360088601546009870154600a88015491600b89015493600c8a015495600d8b015497600e8c015460ff1699600f8d016135a6906137f1565b9c601001549d601181016135b9906137f1565b6080526012015460a05260405160c0526101005160c0515260c051602001610240905260c051610240016135ec916138b8565b60e05160c0516040015260c051810360c0516060015261360b916138b8565b60c051810360c05160800152613620916138b8565b60c051810360c05160a00152613635916138b8565b9760c05160c0015260c05160e0015260c051610100015260c051610120015260c051610140015260c051610160015260c0516101800152151560c0516101a0015260c051810360c0516101c0015261368c916138b8565b9060c0516101e0015260c051810360c0516102000152608051906136af916138b8565b60a05160c051610220015260c051900360c051f35b346102e15760203660031901126102e1576004356136e56002548210613bf3565b60005260046020526020604060002060ff600e820154169081613755575b81613746575b81613734575b81613720575b506040519015158152f35b905060076009820154910154111582613715565b600b810154600a82015411915061370f565b600d8101544211159150613709565b600c8101544210159150613703565b600435906001600160a01b03821682036102e157565b90600182811c921680156137aa575b602083101461379457565b634e487b7160e01b600052602260045260246000fd5b91607f1691613789565b61026081019081106001600160401b0382111761079e57604052565b90601f801991011681019081106001600160401b0382111761079e57604052565b90604051918260008254926138058461377a565b8084529360018116908115613873575060011461382c575b5061382a925003836137d0565b565b90506000929192526020600020906000915b81831061385757505090602061382a928201013861381d565b602091935080600191548385890101520191019091849261383e565b90506020925061382a94915060ff191682840152151560051b8201013861381d565b60005b8381106138a85750506000910152565b8181015183820152602001613898565b906020916138d181518092818552858086019101613895565b601f01601f1916010190565b602060408183019282815284518094520192019060005b8181106139015750505090565b82518452602093840193909201916001016138f4565b81601f820112156102e1578035906001600160401b03821161079e576040519261394b601f8401601f1916602001856137d0565b828452602083830101116102e157816000926020809301838601378301015290565b6001600160401b03811161079e5760051b60200190565b9080601f830112156102e157813561399b8161396d565b926139a960405194856137d0565b81845260208085019260051b820101918383116102e15760208201905b8382106139d557505050505090565b81356001600160401b0381116102e1576020916139f787848094880101613917565b8152019101906139c6565b6020815281516020820152613a88613a72613a5c613a31602086015161026060408701526102808601906138b8565b60408601516001600160a01b0316606086810191909152860151858203601f190160808701526138b8565b6080850151848203601f190160a08601526138b8565b60a0840151838203601f190160c08501526138b8565b60c083015190601f198382030160e0840152815180825260208201916020808360051b8301019401926000915b838310613b72575050505050610240613b69613b476102609360e08701516101008701526101008701516101208701526101208701516101408701526101408701516101608701526101608701516101808701526101808701516101a08701526101a08701516101c08701526101c087015115156101e08701526101e0870151601f19878303016102008801526138b8565b610200860151610220860152610220860151601f1986830301848701526138b8565b93015191015290565b9091929394602080613b90600193601f1986820301875289516138b8565b97019301930191939290613ab5565b8054821015613bb75760005260206000200190600090565b634e487b7160e01b600052603260045260246000fd5b6020613be6918160405193828580945193849201613895565b8101600581520301902090565b15613bfa57565b60405162461bcd60e51b815260206004820152601760248201527f43616d706169676e20646f6573206e6f742065786973740000000000000000006044820152606490fd5b90613c498261396d565b613c5660405191826137d0565b8281528092613c67601f199161396d565b0190602036910137565b8051821015613bb75760209160051b010190565b6000198114613c945760010190565b634e487b7160e01b600052601160045260246000fd5b15613cb157565b60405162461bcd60e51b815260206004820152602160248201527f43616d706169676e20494420737472696e6720646f6573206e6f7420657869736044820152601d60fa1b6064820152608490fd5b15613d0757565b60405162461bcd60e51b815260206004820152602c60248201527f4f6e6c792063616d706169676e2063726561746f722063616e2063616c6c207460448201526b3434b990333ab731ba34b7b760a11b6064820152608490fd5b15613d6857565b60405162461bcd60e51b815260206004820152601660248201527543616d706169676e206973206e6f742061637469766560501b6044820152606490fd5b15613dad57565b60405162461bcd60e51b815260206004820152601260248201527110d85b5c185a59db881a185cc8195b99195960721b6044820152606490fd5b818110613df2575050565b60008155600101613de7565b60405190613e0b826137b4565b6000610240838281526060602082015282604082015260608082015260606080820152606060a0820152606060c08201528260e08201528261010082015282610120820152826101408201528261016082015282610180820152826101a0820152826101c082015260606101e08201528261020082015260606102208201520152565b908160209103126102e1575180151581036102e15790565b8015613c94576000190190565b15613eba57565b60405162461bcd60e51b815260206004820152601860248201527f557365726e616d652063616e6e6f7420626520656d70747900000000000000006044820152606490fd5b15613f0657565b60405162461bcd60e51b8152602060048201526011602482015270557365726e616d6520746f6f206c6f6e6760781b6044820152606490fd5b15613f4657565b60405162461bcd60e51b81526020600482015260166024820152752ab9b2b93730b6b29030b63932b0b23c903a30b5b2b760511b6044820152606490fd5b91908203918211613c9457565b91908201809211613c9457565b6000546001600160a01b03163303613fb257565b606460405162461bcd60e51b815260206004820152602060248201527f4f776e61626c653a2063616c6c6572206973206e6f7420746865206f776e65726044820152fdfea2646970667358221220a17aed482e8ea8b278e3c120c335cf334076e42a007cea9ed2c39a77ab7bc1d964736f6c634300081c0033",
          "opcodes": "PUSH1 0x80 CALLVALUE PUSH1 0xBF JUMPI PUSH1 0x1F PUSH2 0x4107 CODESIZE DUP2 SWAP1 SUB SWAP2 DUP3 ADD PUSH1 0x1F NOT AND DUP4 ADD SWAP2 PUSH1 0x1 PUSH1 0x1 PUSH1 0x40 SHL SUB DUP4 GT DUP5 DUP5 LT OR PUSH1 0xC4 JUMPI DUP1 DUP5 SWAP3 PUSH1 0x20 SWAP5 PUSH1 0x40 MSTORE DUP4 CODECOPY DUP2 ADD SUB SLT PUSH1 0xBF JUMPI MLOAD PUSH1 0x1 PUSH1 0x1 PUSH1 0xA0 SHL SUB DUP2 AND SWAP1 DUP2 SWAP1 SUB PUSH1 0xBF JUMPI PUSH1 0x0 DUP1 SLOAD CALLER PUSH1 0x1 PUSH1 0x1 PUSH1 0xA0 SHL SUB NOT DUP3 AND DUP2 OR DUP4 SSTORE PUSH1 0x40 MLOAD SWAP4 SWAP3 SWAP1 SWAP2 PUSH1 0x1 PUSH1 0x1 PUSH1 0xA0 SHL SUB AND SWAP1 PUSH32 0x8BE0079C531659141344CD1FD0A4F28419497F9722A3DAAFE3B4186F6B6457E0 SWAP1 DUP1 LOG3 PUSH1 0x1 DUP1 SSTORE PUSH1 0xFA PUSH1 0x11 SSTORE PUSH1 0x10 DUP1 SLOAD PUSH1 0x1 PUSH1 0x1 PUSH1 0xA0 SHL SUB NOT AND SWAP2 SWAP1 SWAP2 OR SWAP1 SSTORE PUSH2 0x402C SWAP1 DUP2 PUSH2 0xDB DUP3 CODECOPY RETURN JUMPDEST PUSH1 0x0 DUP1 REVERT JUMPDEST PUSH4 0x4E487B71 PUSH1 0xE0 SHL PUSH1 0x0 MSTORE PUSH1 0x41 PUSH1 0x4 MSTORE PUSH1 0x24 PUSH1 0x0 REVERT INVALID PUSH2 0x120 PUSH1 0x40 MSTORE PUSH1 0x4 CALLDATASIZE LT ISZERO PUSH2 0x13 JUMPI PUSH1 0x0 DUP1 REVERT JUMPDEST PUSH1 0x0 CALLDATALOAD PUSH1 0xE0 SHR DUP1 PUSH4 0x7810AE4 EQ PUSH2 0x36C4 JUMPI DUP1 PUSH4 0x11C2CCC0 EQ PUSH2 0x4A3 JUMPI DUP1 PUSH4 0x141961BC EQ PUSH2 0x34FB JUMPI DUP1 PUSH4 0x15A92C5E EQ PUSH2 0x34B7 JUMPI DUP1 PUSH4 0x1C34212C EQ PUSH2 0x3499 JUMPI DUP1 PUSH4 0x1C9C9021 EQ PUSH2 0x33E9 JUMPI DUP1 PUSH4 0x1CD896C1 EQ PUSH2 0x33CE JUMPI DUP1 PUSH4 0x1E93945A EQ PUSH2 0x337B JUMPI DUP1 PUSH4 0x285BC8D1 EQ PUSH2 0xC2A JUMPI DUP1 PUSH4 0x2959195A EQ PUSH2 0x2AF8 JUMPI DUP1 PUSH4 0x3E1D72C8 EQ PUSH2 0x2932 JUMPI DUP1 PUSH4 0x3E8416BA EQ PUSH2 0x28F6 JUMPI DUP1 PUSH4 0x45598B4A EQ PUSH2 0x2752 JUMPI DUP1 PUSH4 0x474E1A6F EQ PUSH2 0xBD4 JUMPI DUP1 PUSH4 0x493F1726 EQ PUSH2 0x266C JUMPI DUP1 PUSH4 0x51E700CC EQ PUSH2 0x2375 JUMPI DUP1 PUSH4 0x61E448CD EQ PUSH2 0x2339 JUMPI DUP1 PUSH4 0x64C0E52F EQ PUSH2 0x22FD JUMPI DUP1 PUSH4 0x6C19E004 EQ PUSH2 0x229B JUMPI DUP1 PUSH4 0x6CAA9218 EQ PUSH2 0x2276 JUMPI DUP1 PUSH4 0x6CB0B50E EQ PUSH2 0x2258 JUMPI DUP1 PUSH4 0x715018A6 EQ PUSH2 0x21FF JUMPI DUP1 PUSH4 0x7274E30D EQ PUSH2 0x21E1 JUMPI DUP1 PUSH4 0x7B71F722 EQ PUSH2 0x2195 JUMPI DUP1 PUSH4 0x7CF249DF EQ PUSH2 0x1ED4 JUMPI DUP1 PUSH4 0x7ECA30FE EQ PUSH2 0x1E01 JUMPI DUP1 PUSH4 0x8DA5CB5B EQ PUSH2 0x1DD8 JUMPI DUP1 PUSH4 0xA54864F1 EQ PUSH2 0xCBD JUMPI DUP1 PUSH4 0xA56A2759 EQ PUSH2 0xC64 JUMPI DUP1 PUSH4 0xA734CBFD EQ PUSH2 0xC2A JUMPI DUP1 PUSH4 0xA92E5288 EQ PUSH2 0xC0E JUMPI DUP1 PUSH4 0xB388E162 EQ PUSH2 0xBD4 JUMPI DUP1 PUSH4 0xB6A7A7D9 EQ PUSH2 0xB9A JUMPI DUP1 PUSH4 0xB863191D EQ PUSH2 0xB4C JUMPI DUP1 PUSH4 0xBD3C3832 EQ PUSH2 0xB03 JUMPI DUP1 PUSH4 0xC362B156 EQ PUSH2 0xA89 JUMPI DUP1 PUSH4 0xCC22462C EQ PUSH2 0xA4D JUMPI DUP1 PUSH4 0xCE43C032 EQ PUSH2 0x4DD JUMPI DUP1 PUSH4 0xD599BA92 EQ PUSH2 0x9E1 JUMPI DUP1 PUSH4 0xD993DE62 EQ PUSH2 0x842 JUMPI DUP1 PUSH4 0xDE04BBD2 EQ PUSH2 0x819 JUMPI DUP1 PUSH4 0xE42A96E7 EQ PUSH2 0x7F0 JUMPI DUP1 PUSH4 0xED59313A EQ PUSH2 0x589 JUMPI DUP1 PUSH4 0xEE7CFC76 EQ PUSH2 0x52F JUMPI DUP1 PUSH4 0xEE91877C EQ PUSH2 0x4DD JUMPI DUP1 PUSH4 0xF2F09AB7 EQ PUSH2 0x4A3 JUMPI DUP1 PUSH4 0xF2FDE38B EQ PUSH2 0x3DC JUMPI DUP1 PUSH4 0xF309E3F9 EQ PUSH2 0x37B JUMPI DUP1 PUSH4 0xF42375B5 EQ PUSH2 0x30F JUMPI DUP1 PUSH4 0xF7C618C1 EQ PUSH2 0x2E6 JUMPI PUSH4 0xFDD950C1 EQ PUSH2 0x24E JUMPI PUSH1 0x0 DUP1 REVERT JUMPDEST CALLVALUE PUSH2 0x2E1 JUMPI PUSH1 0x20 CALLDATASIZE PUSH1 0x3 NOT ADD SLT PUSH2 0x2E1 JUMPI PUSH1 0x4 CALLDATALOAD PUSH2 0x26A PUSH2 0x3F9E JUMP JUMPDEST PUSH2 0x3E8 DUP2 GT PUSH2 0x2A4 JUMPI PUSH1 0x20 DUP2 PUSH32 0x4A9456F0774FA7A6D15EEDA6DD6C6A8ECDA076EB0DE34D87D5FCE89BEA38FC96 SWAP3 PUSH1 0x11 SSTORE PUSH1 0x40 MLOAD SWAP1 DUP2 MSTORE LOG1 STOP JUMPDEST PUSH1 0x40 MLOAD PUSH3 0x461BCD PUSH1 0xE5 SHL DUP2 MSTORE PUSH1 0x20 PUSH1 0x4 DUP3 ADD MSTORE PUSH1 0x15 PUSH1 0x24 DUP3 ADD MSTORE PUSH21 0x4665652063616E6E6F742065786365656420313025 PUSH1 0x58 SHL PUSH1 0x44 DUP3 ADD MSTORE PUSH1 0x64 SWAP1 REVERT JUMPDEST PUSH1 0x0 DUP1 REVERT JUMPDEST CALLVALUE PUSH2 0x2E1 JUMPI PUSH1 0x0 CALLDATASIZE PUSH1 0x3 NOT ADD SLT PUSH2 0x2E1 JUMPI PUSH1 0x10 SLOAD PUSH1 0x40 MLOAD PUSH1 0x1 PUSH1 0x1 PUSH1 0xA0 SHL SUB SWAP1 SWAP2 AND DUP2 MSTORE PUSH1 0x20 SWAP1 RETURN JUMPDEST CALLVALUE PUSH2 0x2E1 JUMPI PUSH1 0x20 CALLDATASIZE PUSH1 0x3 NOT ADD SLT PUSH2 0x2E1 JUMPI PUSH32 0x3E3F3FC86F427DB78BE526ABF54FDC5B307047DC0384650B4090D5A797267C58 PUSH1 0x20 PUSH2 0x34B PUSH2 0x3764 JUMP JUMPDEST PUSH2 0x353 PUSH2 0x3F9E JUMP JUMPDEST PUSH1 0xF DUP1 SLOAD PUSH1 0x1 PUSH1 0x1 PUSH1 0xA0 SHL SUB NOT AND PUSH1 0x1 PUSH1 0x1 PUSH1 0xA0 SHL SUB SWAP3 SWAP1 SWAP3 AND SWAP2 DUP3 OR SWAP1 SSTORE PUSH1 0x40 MLOAD SWAP1 DUP2 MSTORE LOG1 STOP JUMPDEST CALLVALUE PUSH2 0x2E1 JUMPI PUSH1 0x20 CALLDATASIZE PUSH1 0x3 NOT ADD SLT PUSH2 0x2E1 JUMPI PUSH1 0x4 CALLDATALOAD PUSH1 0x1 PUSH1 0x1 PUSH1 0x40 SHL SUB DUP2 GT PUSH2 0x2E1 JUMPI PUSH1 0xFF PUSH2 0x3C6 PUSH1 0x20 PUSH2 0x3B3 DUP2 SWAP5 CALLDATASIZE SWAP1 PUSH1 0x4 ADD PUSH2 0x3917 JUMP JUMPDEST DUP2 PUSH1 0x40 MLOAD SWAP4 DUP3 DUP6 DUP1 SWAP5 MLOAD SWAP4 DUP5 SWAP3 ADD PUSH2 0x3895 JUMP JUMPDEST DUP2 ADD PUSH1 0xD DUP2 MSTORE SUB ADD SWAP1 KECCAK256 SLOAD AND PUSH1 0x40 MLOAD SWAP1 ISZERO ISZERO DUP2 MSTORE RETURN JUMPDEST CALLVALUE PUSH2 0x2E1 JUMPI PUSH1 0x20 CALLDATASIZE PUSH1 0x3 NOT ADD SLT PUSH2 0x2E1 JUMPI PUSH2 0x3F5 PUSH2 0x3764 JUMP JUMPDEST PUSH2 0x3FD PUSH2 0x3F9E JUMP JUMPDEST PUSH1 0x1 PUSH1 0x1 PUSH1 0xA0 SHL SUB AND DUP1 ISZERO PUSH2 0x44F JUMPI PUSH1 0x0 DUP1 SLOAD PUSH1 0x1 PUSH1 0x1 PUSH1 0xA0 SHL SUB NOT DUP2 AND DUP4 OR DUP3 SSTORE PUSH1 0x1 PUSH1 0x1 PUSH1 0xA0 SHL SUB AND SWAP1 PUSH32 0x8BE0079C531659141344CD1FD0A4F28419497F9722A3DAAFE3B4186F6B6457E0 SWAP1 DUP1 LOG3 STOP JUMPDEST PUSH1 0x40 MLOAD PUSH3 0x461BCD PUSH1 0xE5 SHL DUP2 MSTORE PUSH1 0x20 PUSH1 0x4 DUP3 ADD MSTORE PUSH1 0x26 PUSH1 0x24 DUP3 ADD MSTORE PUSH32 0x4F776E61626C653A206E6577206F776E657220697320746865207A65726F2061 PUSH1 0x44 DUP3 ADD MSTORE PUSH6 0x646472657373 PUSH1 0xD0 SHL PUSH1 0x64 DUP3 ADD MSTORE PUSH1 0x84 SWAP1 REVERT JUMPDEST CALLVALUE PUSH2 0x2E1 JUMPI PUSH1 0x20 CALLDATASIZE PUSH1 0x3 NOT ADD SLT PUSH2 0x2E1 JUMPI PUSH1 0x1 PUSH1 0x1 PUSH1 0xA0 SHL SUB PUSH2 0x4C4 PUSH2 0x3764 JUMP JUMPDEST AND PUSH1 0x0 MSTORE PUSH1 0xC PUSH1 0x20 MSTORE PUSH1 0x20 PUSH1 0x40 PUSH1 0x0 KECCAK256 SLOAD PUSH1 0x40 MLOAD SWAP1 DUP2 MSTORE RETURN JUMPDEST CALLVALUE PUSH2 0x2E1 JUMPI PUSH1 0x20 CALLDATASIZE PUSH1 0x3 NOT ADD SLT PUSH2 0x2E1 JUMPI PUSH1 0x1 PUSH1 0x1 PUSH1 0xA0 SHL SUB PUSH2 0x4FE PUSH2 0x3764 JUMP JUMPDEST AND PUSH1 0x0 MSTORE PUSH1 0xB PUSH1 0x20 MSTORE PUSH2 0x52B PUSH2 0x517 PUSH1 0x40 PUSH1 0x0 KECCAK256 PUSH2 0x37F1 JUMP JUMPDEST PUSH1 0x40 MLOAD SWAP2 DUP3 SWAP2 PUSH1 0x20 DUP4 MSTORE PUSH1 0x20 DUP4 ADD SWAP1 PUSH2 0x38B8 JUMP JUMPDEST SUB SWAP1 RETURN JUMPDEST CALLVALUE PUSH2 0x2E1 JUMPI PUSH1 0x40 CALLDATASIZE PUSH1 0x3 NOT ADD SLT PUSH2 0x2E1 JUMPI PUSH1 0x4 CALLDATALOAD PUSH1 0x24 CALLDATALOAD PUSH1 0x1 PUSH1 0x1 PUSH1 0xA0 SHL SUB DUP2 AND SWAP1 DUP2 SWAP1 SUB PUSH2 0x2E1 JUMPI PUSH1 0x20 SWAP2 PUSH2 0x568 PUSH1 0x2 SLOAD DUP3 LT PUSH2 0x3BF3 JUMP JUMPDEST PUSH1 0x0 MSTORE PUSH1 0x4 DUP3 MSTORE PUSH1 0x1 DUP1 PUSH1 0xA0 SHL SUB PUSH1 0x2 PUSH1 0x40 PUSH1 0x0 KECCAK256 ADD SLOAD AND EQ PUSH1 0x40 MLOAD SWAP1 DUP2 MSTORE RETURN JUMPDEST CALLVALUE PUSH2 0x2E1 JUMPI PUSH1 0x20 CALLDATASIZE PUSH1 0x3 NOT ADD SLT PUSH2 0x2E1 JUMPI PUSH1 0x4 CALLDATALOAD PUSH1 0x1 PUSH1 0x1 PUSH1 0x40 SHL SUB DUP2 GT PUSH2 0x2E1 JUMPI PUSH2 0x5B9 SWAP1 CALLDATASIZE SWAP1 PUSH1 0x4 ADD PUSH2 0x3917 JUMP JUMPDEST PUSH2 0x5C5 DUP2 MLOAD ISZERO ISZERO PUSH2 0x3EB3 JUMP JUMPDEST PUSH2 0x5D3 PUSH1 0x20 DUP3 MLOAD GT ISZERO PUSH2 0x3EFF JUMP JUMPDEST CALLER PUSH1 0x0 MSTORE PUSH1 0xB PUSH1 0x20 MSTORE PUSH2 0x5EA PUSH1 0x40 PUSH1 0x0 KECCAK256 SLOAD PUSH2 0x377A JUMP JUMPDEST PUSH2 0x7B4 JUMPI PUSH1 0x40 MLOAD PUSH2 0x61D PUSH1 0xFF DUP4 MLOAD SWAP3 PUSH1 0x20 DUP2 DUP2 DUP8 ADD SWAP6 PUSH2 0x60B DUP2 DUP4 DUP10 PUSH2 0x3895 JUMP JUMPDEST DUP2 ADD PUSH1 0xD DUP2 MSTORE SUB ADD SWAP1 KECCAK256 SLOAD AND ISZERO PUSH2 0x3F3F JUMP JUMPDEST CALLER PUSH1 0x0 MSTORE PUSH1 0xB PUSH1 0x20 MSTORE PUSH1 0x40 PUSH1 0x0 KECCAK256 DUP3 MLOAD PUSH1 0x1 PUSH1 0x1 PUSH1 0x40 SHL SUB DUP2 GT PUSH2 0x79E JUMPI PUSH2 0x645 DUP3 SLOAD PUSH2 0x377A JUMP JUMPDEST PUSH1 0x1F DUP2 GT PUSH2 0x761 JUMPI JUMPDEST POP PUSH1 0x20 PUSH1 0x1F DUP3 GT PUSH1 0x1 EQ PUSH2 0x6F6 JUMPI SWAP2 PUSH2 0x685 DUP3 PUSH2 0x699 SWAP6 SWAP4 PUSH1 0x20 SWAP6 PUSH1 0x0 SWAP2 PUSH2 0x6EB JUMPI JUMPDEST POP DUP2 PUSH1 0x1 SHL SWAP2 PUSH1 0x0 NOT SWAP1 PUSH1 0x3 SHL SHR NOT AND OR SWAP1 JUMP JUMPDEST SWAP1 SSTORE JUMPDEST PUSH1 0x40 MLOAD DUP1 SWAP4 DUP2 SWAP3 DUP7 MLOAD SWAP3 DUP4 SWAP2 PUSH2 0x3895 JUMP JUMPDEST DUP2 ADD PUSH1 0xD DUP2 MSTORE SUB ADD SWAP1 KECCAK256 PUSH1 0x1 PUSH1 0xFF NOT DUP3 SLOAD AND OR SWAP1 SSTORE PUSH32 0x74D8E560D2E870C35B35DC882DF2A5C96E2BF1CDB5EF6DD2F9CB433C8D048853 PUSH1 0x40 MLOAD PUSH1 0x20 DUP2 MSTORE DUP1 PUSH2 0x6E6 CALLER SWAP5 PUSH1 0x20 DUP4 ADD SWAP1 PUSH2 0x38B8 JUMP JUMPDEST SUB SWAP1 LOG2 STOP JUMPDEST SWAP1 POP DUP8 ADD MLOAD DUP9 PUSH2 0x671 JUMP JUMPDEST PUSH1 0x1F NOT DUP3 AND SWAP1 DUP4 PUSH1 0x0 MSTORE DUP1 PUSH1 0x0 KECCAK256 SWAP2 PUSH1 0x0 JUMPDEST DUP2 DUP2 LT PUSH2 0x749 JUMPI POP SWAP3 PUSH1 0x20 SWAP5 SWAP3 PUSH1 0x1 SWAP3 DUP3 PUSH2 0x699 SWAP9 SWAP7 LT PUSH2 0x730 JUMPI JUMPDEST POP POP DUP2 SHL ADD SWAP1 SSTORE PUSH2 0x688 JUMP JUMPDEST DUP9 ADD MLOAD PUSH1 0x0 NOT PUSH1 0xF8 DUP5 PUSH1 0x3 SHL AND SHR NOT AND SWAP1 SSTORE DUP8 DUP1 PUSH2 0x724 JUMP JUMPDEST SWAP2 SWAP3 PUSH1 0x20 PUSH1 0x1 DUP2 SWAP3 DUP7 DUP12 ADD MLOAD DUP2 SSTORE ADD SWAP5 ADD SWAP3 ADD PUSH2 0x708 JUMP JUMPDEST PUSH2 0x78E SWAP1 DUP4 PUSH1 0x0 MSTORE PUSH1 0x20 PUSH1 0x0 KECCAK256 PUSH1 0x1F DUP5 ADD PUSH1 0x5 SHR DUP2 ADD SWAP2 PUSH1 0x20 DUP6 LT PUSH2 0x794 JUMPI JUMPDEST PUSH1 0x1F ADD PUSH1 0x5 SHR ADD SWAP1 PUSH2 0x3DE7 JUMP JUMPDEST DUP5 PUSH2 0x64E JUMP JUMPDEST SWAP1 SWAP2 POP DUP2 SWAP1 PUSH2 0x781 JUMP JUMPDEST PUSH4 0x4E487B71 PUSH1 0xE0 SHL PUSH1 0x0 MSTORE PUSH1 0x41 PUSH1 0x4 MSTORE PUSH1 0x24 PUSH1 0x0 REVERT JUMPDEST PUSH1 0x40 MLOAD PUSH3 0x461BCD PUSH1 0xE5 SHL DUP2 MSTORE PUSH1 0x20 PUSH1 0x4 DUP3 ADD MSTORE PUSH1 0x14 PUSH1 0x24 DUP3 ADD MSTORE PUSH20 0x155CD95C9B985B5948185B1C9958591E481CD95D PUSH1 0x62 SHL PUSH1 0x44 DUP3 ADD MSTORE PUSH1 0x64 SWAP1 REVERT JUMPDEST CALLVALUE PUSH2 0x2E1 JUMPI PUSH1 0x0 CALLDATASIZE PUSH1 0x3 NOT ADD SLT PUSH2 0x2E1 JUMPI PUSH1 0xF SLOAD PUSH1 0x40 MLOAD PUSH1 0x1 PUSH1 0x1 PUSH1 0xA0 SHL SUB SWAP1 SWAP2 AND DUP2 MSTORE PUSH1 0x20 SWAP1 RETURN JUMPDEST CALLVALUE PUSH2 0x2E1 JUMPI PUSH1 0x0 CALLDATASIZE PUSH1 0x3 NOT ADD SLT PUSH2 0x2E1 JUMPI PUSH1 0xE SLOAD PUSH1 0x40 MLOAD PUSH1 0x1 PUSH1 0x1 PUSH1 0xA0 SHL SUB SWAP1 SWAP2 AND DUP2 MSTORE PUSH1 0x20 SWAP1 RETURN JUMPDEST CALLVALUE PUSH2 0x2E1 JUMPI PUSH1 0x20 CALLDATASIZE PUSH1 0x3 NOT ADD SLT PUSH2 0x2E1 JUMPI PUSH1 0x4 CALLDATALOAD PUSH2 0x85E PUSH2 0x3DFE JUMP JUMPDEST POP PUSH2 0x86C PUSH1 0x2 SLOAD DUP3 LT PUSH2 0x3BF3 JUMP JUMPDEST PUSH1 0x0 MSTORE PUSH1 0x4 PUSH1 0x20 MSTORE PUSH1 0x40 PUSH1 0x0 KECCAK256 PUSH1 0x40 MLOAD PUSH2 0x885 DUP2 PUSH2 0x37B4 JUMP JUMPDEST DUP2 SLOAD DUP2 MSTORE PUSH2 0x895 PUSH1 0x1 DUP4 ADD PUSH2 0x37F1 JUMP JUMPDEST PUSH1 0x20 DUP3 ADD MSTORE PUSH1 0x2 DUP3 ADD SLOAD PUSH1 0x1 PUSH1 0x1 PUSH1 0xA0 SHL SUB AND PUSH1 0x40 DUP3 ADD MSTORE PUSH2 0x8B9 PUSH1 0x3 DUP4 ADD PUSH2 0x37F1 JUMP JUMPDEST PUSH1 0x60 DUP3 ADD MSTORE PUSH2 0x8CA PUSH1 0x4 DUP4 ADD PUSH2 0x37F1 JUMP JUMPDEST PUSH1 0x80 DUP3 ADD MSTORE PUSH2 0x8DB PUSH1 0x5 DUP4 ADD PUSH2 0x37F1 JUMP JUMPDEST PUSH1 0xA0 DUP3 ADD MSTORE PUSH1 0x6 DUP3 ADD DUP1 SLOAD PUSH2 0x8EF DUP2 PUSH2 0x396D JUMP JUMPDEST SWAP2 PUSH2 0x8FD PUSH1 0x40 MLOAD SWAP4 DUP5 PUSH2 0x37D0 JUMP JUMPDEST DUP2 DUP4 MSTORE PUSH1 0x20 DUP4 ADD SWAP1 PUSH1 0x0 MSTORE PUSH1 0x20 PUSH1 0x0 KECCAK256 PUSH1 0x0 SWAP2 JUMPDEST DUP4 DUP4 LT PUSH2 0x9C4 JUMPI PUSH2 0x52B DUP7 PUSH1 0x12 DUP10 DUP9 PUSH1 0xC0 DUP5 ADD MSTORE PUSH1 0x7 DUP2 ADD SLOAD PUSH1 0xE0 DUP5 ADD MSTORE PUSH1 0x8 DUP2 ADD SLOAD PUSH2 0x100 DUP5 ADD MSTORE PUSH1 0x9 DUP2 ADD SLOAD PUSH2 0x120 DUP5 ADD MSTORE PUSH1 0xA DUP2 ADD SLOAD PUSH2 0x140 DUP5 ADD MSTORE PUSH1 0xB DUP2 ADD SLOAD PUSH2 0x160 DUP5 ADD MSTORE PUSH1 0xC DUP2 ADD SLOAD PUSH2 0x180 DUP5 ADD MSTORE PUSH1 0xD DUP2 ADD SLOAD PUSH2 0x1A0 DUP5 ADD MSTORE PUSH1 0xFF PUSH1 0xE DUP3 ADD SLOAD AND ISZERO ISZERO PUSH2 0x1C0 DUP5 ADD MSTORE PUSH2 0x98D PUSH1 0xF DUP3 ADD PUSH2 0x37F1 JUMP JUMPDEST PUSH2 0x1E0 DUP5 ADD MSTORE PUSH1 0x10 DUP2 ADD SLOAD PUSH2 0x200 DUP5 ADD MSTORE PUSH2 0x9AA PUSH1 0x11 DUP3 ADD PUSH2 0x37F1 JUMP JUMPDEST PUSH2 0x220 DUP5 ADD MSTORE ADD SLOAD PUSH2 0x240 DUP3 ADD MSTORE PUSH1 0x40 MLOAD SWAP2 DUP3 SWAP2 DUP3 PUSH2 0x3A02 JUMP JUMPDEST PUSH1 0x1 PUSH1 0x20 DUP2 SWAP3 PUSH2 0x9D3 DUP6 PUSH2 0x37F1 JUMP JUMPDEST DUP2 MSTORE ADD SWAP3 ADD SWAP3 ADD SWAP2 SWAP1 PUSH2 0x911 JUMP JUMPDEST CALLVALUE PUSH2 0x2E1 JUMPI PUSH1 0x20 CALLDATASIZE PUSH1 0x3 NOT ADD SLT PUSH2 0x2E1 JUMPI PUSH32 0x7B831657BF556E81A1356CC284F90402807C6629F2CE4362E64538CE91639439 PUSH1 0x20 PUSH2 0xA1D PUSH2 0x3764 JUMP JUMPDEST PUSH2 0xA25 PUSH2 0x3F9E JUMP JUMPDEST PUSH1 0xE DUP1 SLOAD PUSH1 0x1 PUSH1 0x1 PUSH1 0xA0 SHL SUB NOT AND PUSH1 0x1 PUSH1 0x1 PUSH1 0xA0 SHL SUB SWAP3 SWAP1 SWAP3 AND SWAP2 DUP3 OR SWAP1 SSTORE PUSH1 0x40 MLOAD SWAP1 DUP2 MSTORE LOG1 STOP JUMPDEST CALLVALUE PUSH2 0x2E1 JUMPI PUSH1 0x20 CALLDATASIZE PUSH1 0x3 NOT ADD SLT PUSH2 0x2E1 JUMPI PUSH1 0x4 CALLDATALOAD PUSH2 0xA6E PUSH1 0x2 SLOAD DUP3 LT PUSH2 0x3BF3 JUMP JUMPDEST PUSH1 0x0 MSTORE PUSH1 0x4 PUSH1 0x20 MSTORE PUSH2 0x52B PUSH2 0x517 PUSH1 0x11 PUSH1 0x40 PUSH1 0x0 KECCAK256 ADD PUSH2 0x37F1 JUMP JUMPDEST CALLVALUE PUSH2 0x2E1 JUMPI PUSH1 0x0 CALLDATASIZE PUSH1 0x3 NOT ADD SLT PUSH2 0x2E1 JUMPI PUSH2 0xAA5 PUSH1 0x3 SLOAD PUSH2 0x3C3F JUMP JUMPDEST PUSH1 0x2 SLOAD PUSH1 0x0 DUP1 JUMPDEST DUP3 DUP2 LT PUSH2 0xAC1 JUMPI PUSH1 0x40 MLOAD DUP1 PUSH2 0x52B DUP7 DUP3 PUSH2 0x38DD JUMP JUMPDEST DUP1 PUSH1 0x0 MSTORE PUSH1 0x4 PUSH1 0x20 MSTORE PUSH1 0xFF PUSH1 0xE PUSH1 0x40 PUSH1 0x0 KECCAK256 ADD SLOAD AND PUSH2 0xAE3 JUMPI JUMPDEST PUSH1 0x1 ADD PUSH2 0xAAC JUMP JUMPDEST SWAP1 PUSH2 0xAFB DUP2 DUP4 PUSH2 0xAF5 PUSH1 0x1 SWAP5 DUP9 PUSH2 0x3C71 JUMP JUMPDEST MSTORE PUSH2 0x3C85 JUMP JUMPDEST SWAP2 SWAP1 POP PUSH2 0xADB JUMP JUMPDEST CALLVALUE PUSH2 0x2E1 JUMPI PUSH1 0x20 CALLDATASIZE PUSH1 0x3 NOT ADD SLT PUSH2 0x2E1 JUMPI PUSH1 0x4 CALLDATALOAD PUSH1 0x1 PUSH1 0x1 PUSH1 0x40 SHL SUB DUP2 GT PUSH2 0x2E1 JUMPI PUSH2 0xB39 PUSH1 0x20 PUSH2 0x3B3 DUP2 SWAP4 CALLDATASIZE SWAP1 PUSH1 0x4 ADD PUSH2 0x3917 JUMP JUMPDEST DUP2 ADD PUSH1 0x6 DUP2 MSTORE SUB ADD SWAP1 KECCAK256 SLOAD PUSH1 0x40 MLOAD SWAP1 DUP2 MSTORE RETURN JUMPDEST CALLVALUE PUSH2 0x2E1 JUMPI PUSH1 0x20 CALLDATASIZE PUSH1 0x3 NOT ADD SLT PUSH2 0x2E1 JUMPI PUSH1 0x4 CALLDATALOAD PUSH1 0x1 PUSH1 0x1 PUSH1 0x40 SHL SUB DUP2 GT PUSH2 0x2E1 JUMPI PUSH1 0xFF PUSH2 0xB84 PUSH1 0x20 PUSH2 0x3B3 DUP2 SWAP5 CALLDATASIZE SWAP1 PUSH1 0x4 ADD PUSH2 0x3917 JUMP JUMPDEST DUP2 ADD PUSH1 0x5 DUP2 MSTORE SUB ADD SWAP1 KECCAK256 SLOAD AND PUSH1 0x40 MLOAD SWAP1 ISZERO ISZERO DUP2 MSTORE RETURN JUMPDEST CALLVALUE PUSH2 0x2E1 JUMPI PUSH1 0x20 CALLDATASIZE PUSH1 0x3 NOT ADD SLT PUSH2 0x2E1 JUMPI PUSH1 0x1 PUSH1 0x1 PUSH1 0xA0 SHL SUB PUSH2 0xBBB PUSH2 0x3764 JUMP JUMPDEST AND PUSH1 0x0 MSTORE PUSH1 0x8 PUSH1 0x20 MSTORE PUSH1 0x20 PUSH1 0x40 PUSH1 0x0 KECCAK256 SLOAD PUSH1 0x40 MLOAD SWAP1 DUP2 MSTORE RETURN JUMPDEST CALLVALUE PUSH2 0x2E1 JUMPI PUSH1 0x20 CALLDATASIZE PUSH1 0x3 NOT ADD SLT PUSH2 0x2E1 JUMPI PUSH1 0x1 PUSH1 0x1 PUSH1 0xA0 SHL SUB PUSH2 0xBF5 PUSH2 0x3764 JUMP JUMPDEST AND PUSH1 0x0 MSTORE PUSH1 0xA PUSH1 0x20 MSTORE PUSH1 0x20 PUSH1 0x40 PUSH1 0x0 KECCAK256 SLOAD PUSH1 0x40 MLOAD SWAP1 DUP2 MSTORE RETURN JUMPDEST CALLVALUE PUSH2 0x2E1 JUMPI PUSH1 0x0 CALLDATASIZE PUSH1 0x3 NOT ADD SLT PUSH2 0x2E1 JUMPI PUSH1 0x20 PUSH1 0x40 MLOAD PUSH1 0x2 DUP2 MSTORE RETURN JUMPDEST CALLVALUE PUSH2 0x2E1 JUMPI PUSH1 0x20 CALLDATASIZE PUSH1 0x3 NOT ADD SLT PUSH2 0x2E1 JUMPI PUSH1 0x1 PUSH1 0x1 PUSH1 0xA0 SHL SUB PUSH2 0xC4B PUSH2 0x3764 JUMP JUMPDEST AND PUSH1 0x0 MSTORE PUSH1 0x9 PUSH1 0x20 MSTORE PUSH1 0x20 PUSH1 0x40 PUSH1 0x0 KECCAK256 SLOAD PUSH1 0x40 MLOAD SWAP1 DUP2 MSTORE RETURN JUMPDEST CALLVALUE PUSH2 0x2E1 JUMPI PUSH1 0x40 CALLDATASIZE PUSH1 0x3 NOT ADD SLT PUSH2 0x2E1 JUMPI PUSH2 0xC7D PUSH2 0x3764 JUMP JUMPDEST PUSH1 0x1 PUSH1 0x1 PUSH1 0xA0 SHL SUB AND PUSH1 0x0 SWAP1 DUP2 MSTORE PUSH1 0x7 PUSH1 0x20 MSTORE PUSH1 0x40 SWAP1 KECCAK256 DUP1 SLOAD PUSH1 0x24 CALLDATALOAD SWAP2 SWAP1 DUP3 LT ISZERO PUSH2 0x2E1 JUMPI PUSH1 0x20 SWAP2 PUSH2 0xCAE SWAP2 PUSH2 0x3B9F JUMP JUMPDEST SWAP1 SLOAD SWAP1 PUSH1 0x3 SHL SHR PUSH1 0x40 MLOAD SWAP1 DUP2 MSTORE RETURN JUMPDEST CALLVALUE PUSH2 0x2E1 JUMPI PUSH1 0x20 CALLDATASIZE PUSH1 0x3 NOT ADD SLT PUSH2 0x2E1 JUMPI PUSH1 0x4 CALLDATALOAD PUSH1 0x1 PUSH1 0x1 PUSH1 0x40 SHL SUB DUP2 GT PUSH2 0x2E1 JUMPI PUSH2 0x1C0 PUSH1 0x3 NOT DUP3 CALLDATASIZE SUB ADD SLT PUSH2 0x2E1 JUMPI PUSH1 0x40 MLOAD SWAP1 PUSH2 0x1C0 DUP3 ADD DUP3 DUP2 LT PUSH1 0x1 PUSH1 0x1 PUSH1 0x40 SHL SUB DUP3 GT OR PUSH2 0x79E JUMPI PUSH1 0x40 MSTORE DUP1 PUSH1 0x4 ADD CALLDATALOAD PUSH1 0x1 PUSH1 0x1 PUSH1 0x40 SHL SUB DUP2 GT PUSH2 0x2E1 JUMPI PUSH2 0xD2F SWAP1 PUSH1 0x4 CALLDATASIZE SWAP2 DUP5 ADD ADD PUSH2 0x3917 JUMP JUMPDEST DUP3 MSTORE PUSH1 0x24 DUP2 ADD CALLDATALOAD PUSH1 0x1 PUSH1 0x1 PUSH1 0x40 SHL SUB DUP2 GT PUSH2 0x2E1 JUMPI PUSH2 0xD54 SWAP1 PUSH1 0x4 CALLDATASIZE SWAP2 DUP5 ADD ADD PUSH2 0x3917 JUMP JUMPDEST PUSH1 0x20 DUP4 ADD MSTORE PUSH1 0x44 DUP2 ADD CALLDATALOAD PUSH1 0x1 PUSH1 0x1 PUSH1 0x40 SHL SUB DUP2 GT PUSH2 0x2E1 JUMPI PUSH2 0xD7C SWAP1 PUSH1 0x4 CALLDATASIZE SWAP2 DUP5 ADD ADD PUSH2 0x3917 JUMP JUMPDEST PUSH1 0x40 DUP4 ADD MSTORE PUSH1 0x64 DUP2 ADD CALLDATALOAD PUSH1 0x1 PUSH1 0x1 PUSH1 0x40 SHL SUB DUP2 GT PUSH2 0x2E1 JUMPI PUSH2 0xDA4 SWAP1 PUSH1 0x4 CALLDATASIZE SWAP2 DUP5 ADD ADD PUSH2 0x3917 JUMP JUMPDEST PUSH1 0x60 DUP4 ADD MSTORE PUSH1 0x84 DUP2 ADD CALLDATALOAD PUSH1 0x1 PUSH1 0x1 PUSH1 0x40 SHL SUB DUP2 GT PUSH2 0x2E1 JUMPI PUSH2 0xDCC SWAP1 PUSH1 0x4 CALLDATASIZE SWAP2 DUP5 ADD ADD PUSH2 0x3984 JUMP JUMPDEST PUSH1 0x80 DUP4 ADD MSTORE PUSH1 0xA4 DUP2 ADD CALLDATALOAD PUSH1 0xA0 DUP4 ADD MSTORE PUSH1 0xC4 DUP2 ADD CALLDATALOAD PUSH1 0xC0 DUP4 ADD MSTORE PUSH1 0xE4 DUP2 ADD CALLDATALOAD PUSH1 0xE0 DUP4 ADD MSTORE PUSH2 0x104 DUP2 ADD CALLDATALOAD PUSH2 0x100 DUP4 ADD MSTORE PUSH2 0x124 DUP2 ADD CALLDATALOAD PUSH2 0x120 DUP4 ADD MSTORE PUSH2 0x144 DUP2 ADD CALLDATALOAD PUSH1 0x1 PUSH1 0x1 PUSH1 0x40 SHL SUB DUP2 GT PUSH2 0x2E1 JUMPI PUSH2 0xE2B SWAP1 PUSH1 0x4 CALLDATASIZE SWAP2 DUP5 ADD ADD PUSH2 0x3917 JUMP JUMPDEST PUSH2 0x140 DUP4 ADD MSTORE PUSH2 0x160 DUP3 ADD SWAP1 PUSH2 0x164 DUP2 ADD CALLDATALOAD DUP3 MSTORE PUSH2 0x184 DUP2 ADD CALLDATALOAD SWAP1 PUSH1 0x1 PUSH1 0x1 PUSH1 0x40 SHL SUB DUP3 GT PUSH2 0x2E1 JUMPI PUSH2 0xE67 PUSH2 0x1A4 SWAP3 PUSH1 0x4 CALLDATASIZE SWAP2 DUP5 ADD ADD PUSH2 0x3917 JUMP JUMPDEST PUSH2 0x180 DUP6 ADD MSTORE ADD CALLDATALOAD PUSH2 0x1A0 DUP4 ADD MSTORE PUSH1 0x2 PUSH1 0x1 SLOAD EQ PUSH2 0x1D93 JUMPI PUSH1 0x2 PUSH1 0x1 SSTORE PUSH2 0x120 DUP3 ADD MLOAD PUSH2 0x100 DUP4 ADD MLOAD LT ISZERO PUSH2 0x1D42 JUMPI PUSH1 0xC0 DUP3 ADD MLOAD ISZERO PUSH2 0x1CFD JUMPI PUSH1 0xA0 DUP3 ADD MLOAD ISZERO PUSH2 0x1CAE JUMPI PUSH2 0x180 DUP3 ADD MLOAD MLOAD ISZERO PUSH2 0x1C69 JUMPI DUP2 MLOAD MLOAD ISZERO PUSH2 0x1C19 JUMPI PUSH1 0xFF PUSH2 0xECA DUP4 MLOAD PUSH2 0x3BCD JUMP JUMPDEST SLOAD AND PUSH2 0x1BCA JUMPI PUSH2 0x1A0 DUP3 ADD MLOAD ISZERO PUSH2 0x1B75 JUMPI PUSH1 0x64 PUSH2 0x1A0 DUP4 ADD MLOAD GT PUSH2 0x1B25 JUMPI MLOAD DUP1 ISZERO PUSH2 0x1B1C JUMPI JUMPDEST PUSH2 0x3E8 DUP2 GT PUSH2 0x1AD7 JUMPI PUSH1 0xC0 DUP3 ADD MLOAD PUSH1 0x10 SLOAD PUSH1 0xF SLOAD PUSH1 0x40 MLOAD PUSH4 0x23B872DD PUSH1 0xE0 SHL DUP2 MSTORE CALLER PUSH1 0x4 DUP3 ADD MSTORE PUSH1 0x1 PUSH1 0x1 PUSH1 0xA0 SHL SUB SWAP2 DUP3 AND PUSH1 0x24 DUP3 ADD MSTORE PUSH1 0x44 DUP2 ADD SWAP4 SWAP1 SWAP4 MSTORE PUSH1 0x20 SWAP2 DUP4 SWAP2 PUSH1 0x64 SWAP2 DUP4 SWAP2 PUSH1 0x0 SWAP2 AND GAS CALL SWAP1 DUP2 ISZERO PUSH2 0x1ACB JUMPI PUSH1 0x0 SWAP2 PUSH2 0x1A9C JUMPI JUMPDEST POP ISZERO PUSH2 0x1A5F JUMPI PUSH1 0x2 SLOAD DUP1 SWAP2 DUP4 DUP1 MLOAD SWAP2 PUSH1 0x20 DUP3 ADD MLOAD PUSH1 0x40 DUP4 ADD MLOAD PUSH1 0x60 DUP5 ADD MLOAD PUSH1 0x80 DUP6 ADD MLOAD PUSH1 0xA0 DUP7 ADD MLOAD PUSH1 0xC0 DUP8 ADD MLOAD SWAP1 PUSH1 0xE0 DUP9 ADD MLOAD SWAP3 PUSH2 0x100 DUP10 ADD MLOAD SWAP5 PUSH2 0x120 DUP11 ADD MLOAD SWAP7 PUSH2 0x140 DUP12 ADD MLOAD SWAP9 PUSH2 0x180 DUP13 ADD MLOAD SWAP12 PUSH2 0x1A0 ADD MLOAD SWAP13 PUSH1 0x40 MLOAD SWAP15 DUP16 SWAP1 PUSH2 0xFB3 DUP3 PUSH2 0x37B4 JUMP JUMPDEST DUP2 MSTORE PUSH1 0x20 ADD MSTORE DUP14 CALLER PUSH1 0x40 DUP3 ADD MSTORE PUSH1 0x60 ADD MSTORE PUSH1 0x80 DUP14 ADD MSTORE PUSH1 0xA0 DUP13 ADD MSTORE PUSH1 0xC0 DUP12 ADD MSTORE PUSH1 0xE0 DUP11 ADD MSTORE DUP1 PUSH2 0x100 DUP11 ADD MSTORE PUSH2 0x120 DUP10 ADD MSTORE PUSH2 0x140 DUP9 ADD MSTORE PUSH2 0x160 DUP8 ADD PUSH1 0x0 SWAP1 MSTORE PUSH2 0x180 DUP8 ADD MSTORE PUSH2 0x1A0 DUP7 ADD MSTORE PUSH2 0x1C0 DUP6 ADD PUSH1 0x1 SWAP1 MSTORE PUSH2 0x1E0 DUP6 ADD MSTORE PUSH2 0x200 DUP5 ADD MSTORE PUSH2 0x220 DUP4 ADD MSTORE PUSH2 0x240 DUP3 ADD MSTORE DUP2 PUSH1 0x0 MSTORE PUSH1 0x4 PUSH1 0x20 MSTORE PUSH1 0x40 PUSH1 0x0 KECCAK256 SWAP1 DUP1 MLOAD DUP3 SSTORE PUSH1 0x20 DUP2 ADD MLOAD DUP1 MLOAD SWAP1 PUSH1 0x1 PUSH1 0x1 PUSH1 0x40 SHL SUB DUP3 GT PUSH2 0x79E JUMPI PUSH2 0x1057 PUSH1 0x1 DUP6 ADD SLOAD PUSH2 0x377A JUMP JUMPDEST PUSH1 0x1F DUP2 GT PUSH2 0x1A2A JUMPI JUMPDEST POP PUSH1 0x20 SWAP1 PUSH1 0x1F DUP4 GT PUSH1 0x1 EQ PUSH2 0x19B9 JUMPI PUSH2 0x1092 SWAP3 SWAP2 PUSH1 0x0 SWAP2 DUP4 PUSH2 0x17BC JUMPI JUMPDEST POP POP DUP2 PUSH1 0x1 SHL SWAP2 PUSH1 0x0 NOT SWAP1 PUSH1 0x3 SHL SHR NOT AND OR SWAP1 JUMP JUMPDEST PUSH1 0x1 DUP4 ADD SSTORE JUMPDEST PUSH1 0x2 DUP3 ADD PUSH1 0x1 DUP1 PUSH1 0xA0 SHL SUB PUSH1 0x40 DUP4 ADD MLOAD AND PUSH12 0xFFFFFFFFFFFFFFFFFFFFFFFF PUSH1 0xA0 SHL DUP3 SLOAD AND OR SWAP1 SSTORE PUSH1 0x60 DUP2 ADD MLOAD DUP1 MLOAD SWAP1 PUSH1 0x1 PUSH1 0x1 PUSH1 0x40 SHL SUB DUP3 GT PUSH2 0x79E JUMPI PUSH2 0x10E2 PUSH1 0x3 DUP6 ADD SLOAD PUSH2 0x377A JUMP JUMPDEST PUSH1 0x1F DUP2 GT PUSH2 0x1984 JUMPI JUMPDEST POP PUSH1 0x20 SWAP1 PUSH1 0x1F DUP4 GT PUSH1 0x1 EQ PUSH2 0x1913 JUMPI PUSH2 0x111C SWAP3 SWAP2 PUSH1 0x0 SWAP2 DUP4 PUSH2 0x17BC JUMPI POP POP DUP2 PUSH1 0x1 SHL SWAP2 PUSH1 0x0 NOT SWAP1 PUSH1 0x3 SHL SHR NOT AND OR SWAP1 JUMP JUMPDEST PUSH1 0x3 DUP4 ADD SSTORE JUMPDEST PUSH1 0x80 DUP2 ADD MLOAD DUP1 MLOAD SWAP1 PUSH1 0x1 PUSH1 0x1 PUSH1 0x40 SHL SUB DUP3 GT PUSH2 0x79E JUMPI PUSH2 0x1145 PUSH1 0x4 DUP6 ADD SLOAD PUSH2 0x377A JUMP JUMPDEST PUSH1 0x1F DUP2 GT PUSH2 0x18DE JUMPI JUMPDEST POP PUSH1 0x20 SWAP1 PUSH1 0x1F DUP4 GT PUSH1 0x1 EQ PUSH2 0x186D JUMPI PUSH2 0x117F SWAP3 SWAP2 PUSH1 0x0 SWAP2 DUP4 PUSH2 0x17BC JUMPI POP POP DUP2 PUSH1 0x1 SHL SWAP2 PUSH1 0x0 NOT SWAP1 PUSH1 0x3 SHL SHR NOT AND OR SWAP1 JUMP JUMPDEST PUSH1 0x4 DUP4 ADD SSTORE JUMPDEST PUSH1 0xA0 DUP2 ADD MLOAD DUP1 MLOAD SWAP1 PUSH1 0x1 PUSH1 0x1 PUSH1 0x40 SHL SUB DUP3 GT PUSH2 0x79E JUMPI PUSH2 0x11A8 PUSH1 0x5 DUP6 ADD SLOAD PUSH2 0x377A JUMP JUMPDEST PUSH1 0x1F DUP2 GT PUSH2 0x1838 JUMPI JUMPDEST POP PUSH1 0x20 SWAP1 PUSH1 0x1F DUP4 GT PUSH1 0x1 EQ PUSH2 0x17C7 JUMPI PUSH2 0x11E2 SWAP3 SWAP2 PUSH1 0x0 SWAP2 DUP4 PUSH2 0x17BC JUMPI POP POP DUP2 PUSH1 0x1 SHL SWAP2 PUSH1 0x0 NOT SWAP1 PUSH1 0x3 SHL SHR NOT AND OR SWAP1 JUMP JUMPDEST PUSH1 0x5 DUP4 ADD SSTORE JUMPDEST PUSH1 0x6 DUP3 ADD PUSH1 0xC0 DUP3 ADD MLOAD DUP1 MLOAD SWAP1 PUSH1 0x1 PUSH1 0x40 SHL DUP3 GT PUSH2 0x79E JUMPI DUP3 SLOAD DUP3 DUP5 SSTORE DUP1 DUP4 LT PUSH2 0x173E JUMPI JUMPDEST POP PUSH1 0x20 ADD SWAP2 PUSH1 0x0 MSTORE PUSH1 0x20 PUSH1 0x0 KECCAK256 SWAP2 PUSH1 0x0 SWAP1 JUMPDEST DUP3 DUP3 LT PUSH2 0x1626 JUMPI POP POP POP POP PUSH1 0xE0 DUP2 ADD MLOAD PUSH1 0x7 DUP4 ADD SSTORE PUSH2 0x100 DUP2 ADD MLOAD PUSH1 0x8 DUP4 ADD SSTORE PUSH2 0x120 DUP2 ADD MLOAD PUSH1 0x9 DUP4 ADD SSTORE PUSH2 0x140 DUP2 ADD MLOAD PUSH1 0xA DUP4 ADD SSTORE PUSH2 0x160 DUP2 ADD MLOAD PUSH1 0xB DUP4 ADD SSTORE PUSH2 0x180 DUP2 ADD MLOAD PUSH1 0xC DUP4 ADD SSTORE PUSH2 0x1A0 DUP2 ADD MLOAD PUSH1 0xD DUP4 ADD SSTORE PUSH1 0xE DUP3 ADD PUSH2 0x1C0 DUP3 ADD MLOAD ISZERO ISZERO PUSH1 0xFF DUP1 NOT DUP4 SLOAD AND SWAP2 AND OR SWAP1 SSTORE PUSH1 0xF DUP3 ADD PUSH2 0x1E0 DUP3 ADD MLOAD DUP1 MLOAD SWAP1 PUSH1 0x1 PUSH1 0x1 PUSH1 0x40 SHL SUB DUP3 GT PUSH2 0x79E JUMPI PUSH2 0x12B2 DUP4 SLOAD PUSH2 0x377A JUMP JUMPDEST PUSH1 0x1F DUP2 GT PUSH2 0x15F4 JUMPI JUMPDEST POP PUSH1 0x20 SWAP1 PUSH1 0x1F DUP4 GT PUSH1 0x1 EQ PUSH2 0x158D JUMPI PUSH2 0x12EC SWAP3 SWAP2 PUSH1 0x0 SWAP2 DUP4 PUSH2 0x1582 JUMPI POP POP DUP2 PUSH1 0x1 SHL SWAP2 PUSH1 0x0 NOT SWAP1 PUSH1 0x3 SHL SHR NOT AND OR SWAP1 JUMP JUMPDEST SWAP1 SSTORE JUMPDEST PUSH2 0x200 DUP2 ADD MLOAD PUSH1 0x10 DUP4 ADD SSTORE PUSH1 0x11 DUP3 ADD PUSH2 0x220 DUP3 ADD MLOAD DUP1 MLOAD SWAP1 PUSH1 0x1 PUSH1 0x1 PUSH1 0x40 SHL SUB DUP3 GT PUSH2 0x79E JUMPI PUSH2 0x131F DUP4 SLOAD PUSH2 0x377A JUMP JUMPDEST PUSH1 0x1F DUP2 GT PUSH2 0x1550 JUMPI JUMPDEST POP PUSH1 0x20 SWAP1 PUSH1 0x1F DUP4 GT PUSH1 0x1 EQ PUSH2 0x14E2 JUMPI DUP3 PUSH1 0x12 SWAP6 SWAP4 PUSH2 0x240 SWAP6 SWAP4 PUSH2 0x1361 SWAP4 PUSH1 0x0 SWAP3 PUSH2 0x14D7 JUMPI POP POP DUP2 PUSH1 0x1 SHL SWAP2 PUSH1 0x0 NOT SWAP1 PUSH1 0x3 SHL SHR NOT AND OR SWAP1 JUMP JUMPDEST SWAP1 SSTORE JUMPDEST ADD MLOAD SWAP2 ADD SSTORE PUSH2 0x1373 DUP3 MLOAD PUSH2 0x3BCD JUMP JUMPDEST PUSH1 0x1 PUSH1 0xFF NOT DUP3 SLOAD AND OR SWAP1 SSTORE DUP1 PUSH2 0x1399 PUSH1 0x20 DUP5 MLOAD DUP2 PUSH1 0x40 MLOAD SWAP4 DUP3 DUP6 DUP1 SWAP5 MLOAD SWAP4 DUP5 SWAP3 ADD PUSH2 0x3895 JUMP JUMPDEST DUP2 ADD PUSH1 0x6 DUP2 MSTORE SUB ADD SWAP1 KECCAK256 SSTORE PUSH2 0x13AF PUSH1 0x2 SLOAD PUSH2 0x3C85 JUMP JUMPDEST PUSH1 0x2 SSTORE PUSH2 0x13BD PUSH1 0x3 SLOAD PUSH2 0x3C85 JUMP JUMPDEST PUSH1 0x3 SSTORE CALLER PUSH1 0x0 MSTORE PUSH1 0x7 PUSH1 0x20 MSTORE PUSH1 0x40 PUSH1 0x0 KECCAK256 SWAP2 DUP3 SLOAD SWAP3 PUSH1 0x1 PUSH1 0x40 SHL DUP5 LT ISZERO PUSH2 0x79E JUMPI DUP4 PUSH2 0x13F0 SWAP2 PUSH1 0x1 PUSH1 0x20 SWAP7 ADD DUP2 SSTORE PUSH2 0x3B9F JUMP JUMPDEST DUP2 SLOAD SWAP1 PUSH1 0x3 SHL SWAP1 DUP5 DUP3 SHL SWAP2 PUSH1 0x0 NOT SWAP1 SHL NOT AND OR SWAP1 SSTORE CALLER PUSH1 0x0 MSTORE PUSH1 0x8 DUP4 MSTORE PUSH1 0x40 PUSH1 0x0 KECCAK256 PUSH2 0x141C DUP2 SLOAD PUSH2 0x3C85 JUMP JUMPDEST SWAP1 SSTORE PUSH1 0xC0 DUP2 ADD MLOAD CALLER PUSH1 0x0 MSTORE PUSH1 0x9 DUP5 MSTORE PUSH2 0x143B PUSH1 0x40 PUSH1 0x0 KECCAK256 SWAP2 DUP3 SLOAD PUSH2 0x3F91 JUMP JUMPDEST SWAP1 SSTORE DUP2 PUSH32 0x8D8A0BA1B7900A22437EE5041B51364EFD2EA462CD602B640D3A1CC1EACC9990 PUSH2 0x149C DUP4 MLOAD PUSH2 0x14C8 DUP8 DUP7 ADD MLOAD SWAP6 PUSH1 0xC0 DUP2 ADD MLOAD SWAP1 PUSH2 0x100 DUP2 ADD MLOAD PUSH2 0x14A9 PUSH2 0x140 PUSH2 0x120 DUP5 ADD MLOAD SWAP4 ADD MLOAD SWAP10 PUSH1 0x40 MLOAD SWAP8 DUP9 SWAP8 PUSH1 0xC0 DUP10 MSTORE PUSH1 0xC0 DUP10 ADD SWAP1 PUSH2 0x38B8 JUMP JUMPDEST SWAP1 DUP8 DUP3 SUB DUP15 DUP10 ADD MSTORE PUSH2 0x38B8 JUMP JUMPDEST SWAP3 PUSH1 0x40 DUP7 ADD MSTORE PUSH1 0x60 DUP6 ADD MSTORE PUSH1 0x80 DUP5 ADD MSTORE DUP3 DUP2 SUB PUSH1 0xA0 DUP5 ADD MSTORE CALLER SWAP7 PUSH2 0x38B8 JUMP JUMPDEST SUB SWAP1 LOG3 PUSH1 0x1 DUP1 SSTORE PUSH1 0x40 MLOAD SWAP1 DUP2 MSTORE RETURN JUMPDEST ADD MLOAD SWAP1 POP DUP11 DUP1 PUSH2 0x107D JUMP JUMPDEST SWAP1 PUSH1 0x1F NOT DUP4 AND SWAP2 DUP5 PUSH1 0x0 MSTORE DUP2 PUSH1 0x0 KECCAK256 SWAP3 PUSH1 0x0 JUMPDEST DUP2 DUP2 LT PUSH2 0x1538 JUMPI POP SWAP3 PUSH1 0x1 SWAP3 DUP6 SWAP3 PUSH1 0x12 SWAP9 SWAP7 PUSH2 0x240 SWAP9 SWAP7 LT PUSH2 0x151F JUMPI JUMPDEST POP POP POP DUP2 SHL ADD SWAP1 SSTORE PUSH2 0x1364 JUMP JUMPDEST ADD MLOAD PUSH1 0x0 NOT PUSH1 0xF8 DUP5 PUSH1 0x3 SHL AND SHR NOT AND SWAP1 SSTORE DUP10 DUP1 DUP1 PUSH2 0x1512 JUMP JUMPDEST SWAP3 SWAP4 PUSH1 0x20 PUSH1 0x1 DUP2 SWAP3 DUP8 DUP7 ADD MLOAD DUP2 SSTORE ADD SWAP6 ADD SWAP4 ADD PUSH2 0x14F5 JUMP JUMPDEST PUSH2 0x157C SWAP1 DUP5 PUSH1 0x0 MSTORE PUSH1 0x20 PUSH1 0x0 KECCAK256 PUSH1 0x1F DUP6 ADD PUSH1 0x5 SHR DUP2 ADD SWAP2 PUSH1 0x20 DUP7 LT PUSH2 0x794 JUMPI PUSH1 0x1F ADD PUSH1 0x5 SHR ADD SWAP1 PUSH2 0x3DE7 JUMP JUMPDEST DUP8 PUSH2 0x1328 JUMP JUMPDEST ADD MLOAD SWAP1 POP DUP9 DUP1 PUSH2 0x107D JUMP JUMPDEST SWAP1 PUSH1 0x1F NOT DUP4 AND SWAP2 DUP5 PUSH1 0x0 MSTORE DUP2 PUSH1 0x0 KECCAK256 SWAP3 PUSH1 0x0 JUMPDEST DUP2 DUP2 LT PUSH2 0x15DC JUMPI POP SWAP1 DUP5 PUSH1 0x1 SWAP6 SWAP5 SWAP4 SWAP3 LT PUSH2 0x15C3 JUMPI JUMPDEST POP POP POP DUP2 SHL ADD SWAP1 SSTORE PUSH2 0x12EF JUMP JUMPDEST ADD MLOAD PUSH1 0x0 NOT PUSH1 0xF8 DUP5 PUSH1 0x3 SHL AND SHR NOT AND SWAP1 SSTORE DUP8 DUP1 DUP1 PUSH2 0x15B6 JUMP JUMPDEST SWAP3 SWAP4 PUSH1 0x20 PUSH1 0x1 DUP2 SWAP3 DUP8 DUP7 ADD MLOAD DUP2 SSTORE ADD SWAP6 ADD SWAP4 ADD PUSH2 0x15A0 JUMP JUMPDEST PUSH2 0x1620 SWAP1 DUP5 PUSH1 0x0 MSTORE PUSH1 0x20 PUSH1 0x0 KECCAK256 PUSH1 0x1F DUP6 ADD PUSH1 0x5 SHR DUP2 ADD SWAP2 PUSH1 0x20 DUP7 LT PUSH2 0x794 JUMPI PUSH1 0x1F ADD PUSH1 0x5 SHR ADD SWAP1 PUSH2 0x3DE7 JUMP JUMPDEST DUP8 PUSH2 0x12BB JUMP JUMPDEST DUP1 MLOAD DUP1 MLOAD SWAP1 PUSH1 0x1 PUSH1 0x1 PUSH1 0x40 SHL SUB DUP3 GT PUSH2 0x79E JUMPI PUSH2 0x1643 DUP7 SLOAD PUSH2 0x377A JUMP JUMPDEST PUSH1 0x1F DUP2 GT PUSH2 0x170C JUMPI JUMPDEST POP PUSH1 0x20 SWAP1 PUSH1 0x1F DUP4 GT PUSH1 0x1 EQ PUSH2 0x169F JUMPI SWAP3 PUSH2 0x1685 DUP4 PUSH1 0x1 SWAP6 SWAP5 PUSH1 0x20 SWAP5 DUP8 SWAP7 PUSH1 0x0 SWAP3 PUSH2 0x1694 JUMPI POP POP DUP2 PUSH1 0x1 SHL SWAP2 PUSH1 0x0 NOT SWAP1 PUSH1 0x3 SHL SHR NOT AND OR SWAP1 JUMP JUMPDEST DUP8 SSTORE JUMPDEST ADD SWAP5 ADD SWAP2 ADD SWAP1 SWAP3 PUSH2 0x121E JUMP JUMPDEST ADD MLOAD SWAP1 POP DUP15 DUP1 PUSH2 0x107D JUMP JUMPDEST SWAP1 PUSH1 0x1F NOT DUP4 AND SWAP2 DUP8 PUSH1 0x0 MSTORE DUP2 PUSH1 0x0 KECCAK256 SWAP3 PUSH1 0x0 JUMPDEST DUP2 DUP2 LT PUSH2 0x16F4 JUMPI POP SWAP4 PUSH1 0x20 SWAP4 PUSH1 0x1 SWAP7 SWAP4 DUP8 SWAP7 SWAP4 DUP4 DUP9 SWAP6 LT PUSH2 0x16DB JUMPI JUMPDEST POP POP POP DUP2 SHL ADD DUP8 SSTORE PUSH2 0x1688 JUMP JUMPDEST ADD MLOAD PUSH1 0x0 NOT PUSH1 0xF8 DUP5 PUSH1 0x3 SHL AND SHR NOT AND SWAP1 SSTORE DUP14 DUP1 DUP1 PUSH2 0x16CE JUMP JUMPDEST SWAP3 SWAP4 PUSH1 0x20 PUSH1 0x1 DUP2 SWAP3 DUP8 DUP7 ADD MLOAD DUP2 SSTORE ADD SWAP6 ADD SWAP4 ADD PUSH2 0x16B2 JUMP JUMPDEST PUSH2 0x1738 SWAP1 DUP8 PUSH1 0x0 MSTORE PUSH1 0x20 PUSH1 0x0 KECCAK256 PUSH1 0x1F DUP6 ADD PUSH1 0x5 SHR DUP2 ADD SWAP2 PUSH1 0x20 DUP7 LT PUSH2 0x794 JUMPI PUSH1 0x1F ADD PUSH1 0x5 SHR ADD SWAP1 PUSH2 0x3DE7 JUMP JUMPDEST DUP11 PUSH2 0x164C JUMP JUMPDEST DUP4 PUSH1 0x0 MSTORE DUP3 PUSH1 0x20 PUSH1 0x0 KECCAK256 SWAP2 DUP3 ADD SWAP2 ADD JUMPDEST DUP2 DUP2 LT PUSH2 0x175B JUMPI POP PUSH2 0x120C JUMP JUMPDEST DUP1 PUSH2 0x1768 PUSH1 0x1 SWAP3 SLOAD PUSH2 0x377A JUMP JUMPDEST DUP1 PUSH2 0x1775 JUMPI JUMPDEST POP ADD PUSH2 0x174E JUMP JUMPDEST PUSH1 0x1F DUP2 GT DUP4 EQ PUSH2 0x178B JUMPI POP PUSH1 0x0 DUP2 SSTORE JUMPDEST DUP11 PUSH2 0x176E JUMP JUMPDEST PUSH2 0x17A9 SWAP1 DUP3 PUSH1 0x0 MSTORE DUP4 PUSH1 0x1F PUSH1 0x20 PUSH1 0x0 KECCAK256 SWAP3 ADD PUSH1 0x5 SHR DUP3 ADD SWAP2 ADD PUSH2 0x3DE7 JUMP JUMPDEST DUP1 PUSH1 0x0 MSTORE PUSH1 0x0 PUSH1 0x20 DUP2 KECCAK256 DUP2 DUP4 SSTORE SSTORE PUSH2 0x1785 JUMP JUMPDEST ADD MLOAD SWAP1 POP DUP8 DUP1 PUSH2 0x107D JUMP JUMPDEST SWAP2 SWAP1 PUSH1 0x5 DUP6 ADD PUSH1 0x0 MSTORE DUP1 PUSH1 0x0 KECCAK256 SWAP1 PUSH1 0x0 SWAP4 JUMPDEST PUSH1 0x1F NOT DUP5 AND DUP6 LT PUSH2 0x181D JUMPI PUSH1 0x1 SWAP5 POP DUP4 PUSH1 0x1F NOT DUP2 AND LT PUSH2 0x1804 JUMPI JUMPDEST POP POP POP DUP2 SHL ADD PUSH1 0x5 DUP4 ADD SSTORE PUSH2 0x11E8 JUMP JUMPDEST ADD MLOAD PUSH1 0x0 NOT PUSH1 0xF8 DUP5 PUSH1 0x3 SHL AND SHR NOT AND SWAP1 SSTORE DUP7 DUP1 DUP1 PUSH2 0x17F4 JUMP JUMPDEST DUP2 DUP2 ADD MLOAD DUP4 SSTORE PUSH1 0x20 SWAP5 DUP6 ADD SWAP5 PUSH1 0x1 SWAP1 SWAP4 ADD SWAP3 SWAP1 SWAP2 ADD SWAP1 PUSH2 0x17D9 JUMP JUMPDEST PUSH2 0x1867 SWAP1 PUSH1 0x5 DUP7 ADD PUSH1 0x0 MSTORE PUSH1 0x20 PUSH1 0x0 KECCAK256 PUSH1 0x1F DUP6 ADD PUSH1 0x5 SHR DUP2 ADD SWAP2 PUSH1 0x20 DUP7 LT PUSH2 0x794 JUMPI PUSH1 0x1F ADD PUSH1 0x5 SHR ADD SWAP1 PUSH2 0x3DE7 JUMP JUMPDEST DUP7 PUSH2 0x11B1 JUMP JUMPDEST SWAP2 SWAP1 PUSH1 0x4 DUP6 ADD PUSH1 0x0 MSTORE DUP1 PUSH1 0x0 KECCAK256 SWAP1 PUSH1 0x0 SWAP4 JUMPDEST PUSH1 0x1F NOT DUP5 AND DUP6 LT PUSH2 0x18C3 JUMPI PUSH1 0x1 SWAP5 POP DUP4 PUSH1 0x1F NOT DUP2 AND LT PUSH2 0x18AA JUMPI JUMPDEST POP POP POP DUP2 SHL ADD PUSH1 0x4 DUP4 ADD SSTORE PUSH2 0x1185 JUMP JUMPDEST ADD MLOAD PUSH1 0x0 NOT PUSH1 0xF8 DUP5 PUSH1 0x3 SHL AND SHR NOT AND SWAP1 SSTORE DUP7 DUP1 DUP1 PUSH2 0x189A JUMP JUMPDEST DUP2 DUP2 ADD MLOAD DUP4 SSTORE PUSH1 0x20 SWAP5 DUP6 ADD SWAP5 PUSH1 0x1 SWAP1 SWAP4 ADD SWAP3 SWAP1 SWAP2 ADD SWAP1 PUSH2 0x187F JUMP JUMPDEST PUSH2 0x190D SWAP1 PUSH1 0x4 DUP7 ADD PUSH1 0x0 MSTORE PUSH1 0x20 PUSH1 0x0 KECCAK256 PUSH1 0x1F DUP6 ADD PUSH1 0x5 SHR DUP2 ADD SWAP2 PUSH1 0x20 DUP7 LT PUSH2 0x794 JUMPI PUSH1 0x1F ADD PUSH1 0x5 SHR ADD SWAP1 PUSH2 0x3DE7 JUMP JUMPDEST DUP7 PUSH2 0x114E JUMP JUMPDEST SWAP2 SWAP1 PUSH1 0x3 DUP6 ADD PUSH1 0x0 MSTORE DUP1 PUSH1 0x0 KECCAK256 SWAP1 PUSH1 0x0 SWAP4 JUMPDEST PUSH1 0x1F NOT DUP5 AND DUP6 LT PUSH2 0x1969 JUMPI PUSH1 0x1 SWAP5 POP DUP4 PUSH1 0x1F NOT DUP2 AND LT PUSH2 0x1950 JUMPI JUMPDEST POP POP POP DUP2 SHL ADD PUSH1 0x3 DUP4 ADD SSTORE PUSH2 0x1122 JUMP JUMPDEST ADD MLOAD PUSH1 0x0 NOT PUSH1 0xF8 DUP5 PUSH1 0x3 SHL AND SHR NOT AND SWAP1 SSTORE DUP7 DUP1 DUP1 PUSH2 0x1940 JUMP JUMPDEST DUP2 DUP2 ADD MLOAD DUP4 SSTORE PUSH1 0x20 SWAP5 DUP6 ADD SWAP5 PUSH1 0x1 SWAP1 SWAP4 ADD SWAP3 SWAP1 SWAP2 ADD SWAP1 PUSH2 0x1925 JUMP JUMPDEST PUSH2 0x19B3 SWAP1 PUSH1 0x3 DUP7 ADD PUSH1 0x0 MSTORE PUSH1 0x20 PUSH1 0x0 KECCAK256 PUSH1 0x1F DUP6 ADD PUSH1 0x5 SHR DUP2 ADD SWAP2 PUSH1 0x20 DUP7 LT PUSH2 0x794 JUMPI PUSH1 0x1F ADD PUSH1 0x5 SHR ADD SWAP1 PUSH2 0x3DE7 JUMP JUMPDEST DUP7 PUSH2 0x10EB JUMP JUMPDEST SWAP2 SWAP1 PUSH1 0x1 DUP6 ADD PUSH1 0x0 MSTORE DUP1 PUSH1 0x0 KECCAK256 SWAP1 PUSH1 0x0 SWAP4 JUMPDEST PUSH1 0x1F NOT DUP5 AND DUP6 LT PUSH2 0x1A0F JUMPI PUSH1 0x1 SWAP5 POP DUP4 PUSH1 0x1F NOT DUP2 AND LT PUSH2 0x19F6 JUMPI JUMPDEST POP POP POP DUP2 SHL ADD PUSH1 0x1 DUP4 ADD SSTORE PUSH2 0x1098 JUMP JUMPDEST ADD MLOAD PUSH1 0x0 NOT PUSH1 0xF8 DUP5 PUSH1 0x3 SHL AND SHR NOT AND SWAP1 SSTORE DUP7 DUP1 DUP1 PUSH2 0x19E6 JUMP JUMPDEST DUP2 DUP2 ADD MLOAD DUP4 SSTORE PUSH1 0x20 SWAP5 DUP6 ADD SWAP5 PUSH1 0x1 SWAP1 SWAP4 ADD SWAP3 SWAP1 SWAP2 ADD SWAP1 PUSH2 0x19CB JUMP JUMPDEST PUSH2 0x1A59 SWAP1 PUSH1 0x1 DUP7 ADD PUSH1 0x0 MSTORE PUSH1 0x20 PUSH1 0x0 KECCAK256 PUSH1 0x1F DUP6 ADD PUSH1 0x5 SHR DUP2 ADD SWAP2 PUSH1 0x20 DUP7 LT PUSH2 0x794 JUMPI PUSH1 0x1F ADD PUSH1 0x5 SHR ADD SWAP1 PUSH2 0x3DE7 JUMP JUMPDEST DUP7 PUSH2 0x1060 JUMP JUMPDEST PUSH1 0x40 MLOAD PUSH3 0x461BCD PUSH1 0xE5 SHL DUP2 MSTORE PUSH1 0x20 PUSH1 0x4 DUP3 ADD MSTORE PUSH1 0x15 PUSH1 0x24 DUP3 ADD MSTORE PUSH21 0x151BDAD95B881D1C985B9CD9995C8819985A5B1959 PUSH1 0x5A SHL PUSH1 0x44 DUP3 ADD MSTORE PUSH1 0x64 SWAP1 REVERT JUMPDEST PUSH2 0x1ABE SWAP2 POP PUSH1 0x20 RETURNDATASIZE PUSH1 0x20 GT PUSH2 0x1AC4 JUMPI JUMPDEST PUSH2 0x1AB6 DUP2 DUP4 PUSH2 0x37D0 JUMP JUMPDEST DUP2 ADD SWAP1 PUSH2 0x3E8E JUMP JUMPDEST DUP4 PUSH2 0xF4E JUMP JUMPDEST POP RETURNDATASIZE PUSH2 0x1AAC JUMP JUMPDEST PUSH1 0x40 MLOAD RETURNDATASIZE PUSH1 0x0 DUP3 RETURNDATACOPY RETURNDATASIZE SWAP1 REVERT JUMPDEST PUSH1 0x40 MLOAD PUSH3 0x461BCD PUSH1 0xE5 SHL DUP2 MSTORE PUSH1 0x20 PUSH1 0x4 DUP3 ADD MSTORE PUSH1 0x1E PUSH1 0x24 DUP3 ADD MSTORE PUSH32 0x506C6174666F726D206665652063616E6E6F7420657863656564203130250000 PUSH1 0x44 DUP3 ADD MSTORE PUSH1 0x64 SWAP1 REVERT JUMPDEST POP PUSH1 0x11 SLOAD PUSH2 0xEF0 JUMP JUMPDEST PUSH1 0x40 MLOAD PUSH3 0x461BCD PUSH1 0xE5 SHL DUP2 MSTORE PUSH1 0x20 PUSH1 0x4 DUP3 ADD MSTORE PUSH1 0x22 PUSH1 0x24 DUP3 ADD MSTORE PUSH32 0x526577617264207468726573686F6C642063616E6E6F74206578636565642031 PUSH1 0x44 DUP3 ADD MSTORE PUSH2 0x303 PUSH1 0xF4 SHL PUSH1 0x64 DUP3 ADD MSTORE PUSH1 0x84 SWAP1 REVERT JUMPDEST PUSH1 0x40 MLOAD PUSH3 0x461BCD PUSH1 0xE5 SHL DUP2 MSTORE PUSH1 0x20 PUSH1 0x4 DUP3 ADD MSTORE PUSH1 0x27 PUSH1 0x24 DUP3 ADD MSTORE PUSH32 0x526577617264207468726573686F6C64206D7573742062652067726561746572 PUSH1 0x44 DUP3 ADD MSTORE PUSH7 0x207468616E203 PUSH1 0xCC SHL PUSH1 0x64 DUP3 ADD MSTORE PUSH1 0x84 SWAP1 REVERT JUMPDEST PUSH1 0x40 MLOAD PUSH3 0x461BCD PUSH1 0xE5 SHL DUP2 MSTORE PUSH1 0x20 PUSH1 0x4 DUP3 ADD MSTORE PUSH1 0x21 PUSH1 0x24 DUP3 ADD MSTORE PUSH32 0x43616D706169676E20494420737472696E6720616C7265616479206578697374 PUSH1 0x44 DUP3 ADD MSTORE PUSH1 0x73 PUSH1 0xF8 SHL PUSH1 0x64 DUP3 ADD MSTORE PUSH1 0x84 SWAP1 REVERT JUMPDEST PUSH1 0x40 MLOAD PUSH3 0x461BCD PUSH1 0xE5 SHL DUP2 MSTORE PUSH1 0x20 PUSH1 0x4 DUP3 ADD MSTORE PUSH1 0x22 PUSH1 0x24 DUP3 ADD MSTORE PUSH32 0x43616D706169676E20494420737472696E672063616E6E6F7420626520656D70 PUSH1 0x44 DUP3 ADD MSTORE PUSH2 0x7479 PUSH1 0xF0 SHL PUSH1 0x64 DUP3 ADD MSTORE PUSH1 0x84 SWAP1 REVERT JUMPDEST PUSH1 0x40 MLOAD PUSH3 0x461BCD PUSH1 0xE5 SHL DUP2 MSTORE PUSH1 0x20 PUSH1 0x4 DUP3 ADD MSTORE PUSH1 0x1A PUSH1 0x24 DUP3 ADD MSTORE PUSH32 0x5075626C6963206B65792063616E6E6F7420626520656D707479000000000000 PUSH1 0x44 DUP3 ADD MSTORE PUSH1 0x64 SWAP1 REVERT JUMPDEST PUSH1 0x40 MLOAD PUSH3 0x461BCD PUSH1 0xE5 SHL DUP2 MSTORE PUSH1 0x20 PUSH1 0x4 DUP3 ADD MSTORE PUSH1 0x21 PUSH1 0x24 DUP3 ADD MSTORE PUSH32 0x556E6974207072696365206D7573742062652067726561746572207468616E20 PUSH1 0x44 DUP3 ADD MSTORE PUSH1 0x3 PUSH1 0xFC SHL PUSH1 0x64 DUP3 ADD MSTORE PUSH1 0x84 SWAP1 REVERT JUMPDEST PUSH1 0x40 MLOAD PUSH3 0x461BCD PUSH1 0xE5 SHL DUP2 MSTORE PUSH1 0x20 PUSH1 0x4 DUP3 ADD MSTORE PUSH1 0x1D PUSH1 0x24 DUP3 ADD MSTORE PUSH32 0x427564676574206D7573742062652067726561746572207468616E2030000000 PUSH1 0x44 DUP3 ADD MSTORE PUSH1 0x64 SWAP1 REVERT JUMPDEST PUSH1 0x40 MLOAD PUSH3 0x461BCD PUSH1 0xE5 SHL DUP2 MSTORE PUSH1 0x20 PUSH1 0x4 DUP3 ADD MSTORE PUSH1 0x23 PUSH1 0x24 DUP3 ADD MSTORE PUSH32 0x45787069726174696F6E206D7573742062652061667465722073746172742074 PUSH1 0x44 DUP3 ADD MSTORE PUSH3 0x696D65 PUSH1 0xE8 SHL PUSH1 0x64 DUP3 ADD MSTORE PUSH1 0x84 SWAP1 REVERT JUMPDEST PUSH1 0x40 MLOAD PUSH3 0x461BCD PUSH1 0xE5 SHL DUP2 MSTORE PUSH1 0x20 PUSH1 0x4 DUP3 ADD MSTORE PUSH1 0x1F PUSH1 0x24 DUP3 ADD MSTORE PUSH32 0x5265656E7472616E637947756172643A207265656E7472616E742063616C6C00 PUSH1 0x44 DUP3 ADD MSTORE PUSH1 0x64 SWAP1 REVERT JUMPDEST CALLVALUE PUSH2 0x2E1 JUMPI PUSH1 0x0 CALLDATASIZE PUSH1 0x3 NOT ADD SLT PUSH2 0x2E1 JUMPI PUSH1 0x0 SLOAD PUSH1 0x40 MLOAD PUSH1 0x1 PUSH1 0x1 PUSH1 0xA0 SHL SUB SWAP1 SWAP2 AND DUP2 MSTORE PUSH1 0x20 SWAP1 RETURN JUMPDEST CALLVALUE PUSH2 0x2E1 JUMPI PUSH1 0x20 CALLDATASIZE PUSH1 0x3 NOT ADD SLT PUSH2 0x2E1 JUMPI PUSH1 0x4 CALLDATALOAD PUSH2 0x1E22 PUSH1 0x2 SLOAD DUP3 LT PUSH2 0x3BF3 JUMP JUMPDEST DUP1 PUSH1 0x0 MSTORE PUSH1 0x4 PUSH1 0x20 MSTORE PUSH2 0x1E46 PUSH1 0x1 DUP1 PUSH1 0xA0 SHL SUB PUSH1 0x2 PUSH1 0x40 PUSH1 0x0 KECCAK256 ADD SLOAD AND CALLER EQ PUSH2 0x3D00 JUMP JUMPDEST DUP1 PUSH1 0x0 MSTORE PUSH1 0x4 PUSH1 0x20 MSTORE PUSH1 0xE PUSH1 0x40 PUSH1 0x0 KECCAK256 ADD DUP1 SLOAD PUSH1 0xFF DUP2 AND ISZERO PUSH2 0x1E8F JUMPI PUSH1 0xFF NOT AND SWAP1 SSTORE PUSH32 0xA8AD368DE07A46B4C9632FEE456E1227F02E971F82939D68BD4696B2E378DFA7 PUSH1 0x0 DUP1 LOG2 STOP JUMPDEST PUSH1 0x40 MLOAD PUSH3 0x461BCD PUSH1 0xE5 SHL DUP2 MSTORE PUSH1 0x20 PUSH1 0x4 DUP3 ADD MSTORE PUSH1 0x1C PUSH1 0x24 DUP3 ADD MSTORE PUSH32 0x43616D706169676E20697320616C726561647920696E61637469766500000000 PUSH1 0x44 DUP3 ADD MSTORE PUSH1 0x64 SWAP1 REVERT JUMPDEST CALLVALUE PUSH2 0x2E1 JUMPI PUSH1 0x20 CALLDATASIZE PUSH1 0x3 NOT ADD SLT PUSH2 0x2E1 JUMPI PUSH1 0xE SLOAD PUSH1 0x4 CALLDATALOAD SWAP1 PUSH1 0x1 PUSH1 0x1 PUSH1 0xA0 SHL SUB AND CALLER SUB PUSH2 0x2135 JUMPI PUSH2 0x1F08 PUSH1 0x2 SLOAD DUP3 LT PUSH2 0x3BF3 JUMP JUMPDEST DUP1 PUSH1 0x0 MSTORE PUSH1 0x4 PUSH1 0x20 MSTORE PUSH1 0x40 PUSH1 0x0 KECCAK256 PUSH1 0xE DUP2 ADD SWAP2 PUSH2 0x1F28 PUSH1 0xFF DUP5 SLOAD AND PUSH2 0x3D61 JUMP JUMPDEST PUSH1 0xC DUP3 ADD SLOAD TIMESTAMP LT PUSH2 0x20F0 JUMPI PUSH2 0x1F43 PUSH1 0xD DUP4 ADD SLOAD TIMESTAMP GT ISZERO PUSH2 0x3DA6 JUMP JUMPDEST PUSH1 0xB DUP3 ADD SWAP2 DUP3 SLOAD SWAP4 PUSH1 0xA DUP3 ADD SWAP4 DUP5 SLOAD DUP7 LT ISZERO PUSH2 0x20AB JUMPI PUSH1 0x9 DUP4 ADD SWAP5 DUP6 SLOAD SWAP6 PUSH1 0x7 DUP6 ADD SWAP7 DUP8 SLOAD SWAP1 DUP2 DUP2 LT PUSH2 0x2066 JUMPI DUP2 PUSH2 0x1F87 SWAP2 PUSH2 0x1F80 PUSH1 0x20 SWAP13 PUSH2 0x3C85 JUMP JUMPDEST DUP8 SSTORE PUSH2 0x3F84 JUMP JUMPDEST DUP3 SSTORE ORIGIN PUSH1 0x0 MSTORE PUSH1 0xA DUP10 MSTORE PUSH2 0x1FA1 PUSH1 0x40 PUSH1 0x0 KECCAK256 SWAP2 DUP3 SLOAD PUSH2 0x3F91 JUMP JUMPDEST SWAP1 SSTORE DUP7 SLOAD SWAP1 PUSH1 0x40 MLOAD DUP3 DUP2 MSTORE PUSH32 0x8565FF6669C04439AF2C80B16ABE9AF84F3442C16849AE6B1EB657CB268BF4DB DUP11 ORIGIN SWAP3 LOG2 SLOAD LT SWAP2 DUP3 ISZERO PUSH2 0x2058 JUMPI JUMPDEST POP POP PUSH2 0x1FEE JUMPI JUMPDEST POP POP POP SLOAD PUSH1 0x40 MLOAD SWAP1 DUP2 MSTORE RETURN JUMPDEST PUSH1 0xFF NOT DUP2 SLOAD AND SWAP1 SSTORE PUSH2 0x2001 PUSH1 0x3 SLOAD PUSH2 0x3EA6 JUMP JUMPDEST PUSH1 0x3 SSTORE PUSH1 0x2 ADD SLOAD PUSH1 0x1 PUSH1 0x1 PUSH1 0xA0 SHL SUB AND PUSH1 0x0 SWAP1 DUP2 MSTORE PUSH1 0x8 DUP5 MSTORE PUSH1 0x40 SWAP1 KECCAK256 DUP1 SLOAD PUSH2 0x2029 SWAP1 PUSH2 0x3EA6 JUMP JUMPDEST SWAP1 SSTORE PUSH32 0xA8AD368DE07A46B4C9632FEE456E1227F02E971F82939D68BD4696B2E378DFA7 PUSH1 0x0 DUP1 LOG2 DUP3 DUP1 DUP1 PUSH2 0x1FE2 JUMP JUMPDEST SLOAD SWAP1 SLOAD GT ISZERO SWAP1 POP DUP7 DUP1 PUSH2 0x1FDB JUMP JUMPDEST PUSH1 0x40 MLOAD PUSH3 0x461BCD PUSH1 0xE5 SHL DUP2 MSTORE PUSH1 0x20 PUSH1 0x4 DUP3 ADD MSTORE PUSH1 0x1C PUSH1 0x24 DUP3 ADD MSTORE PUSH32 0x496E73756666696369656E742063616D706169676E2062756467657400000000 PUSH1 0x44 DUP3 ADD MSTORE PUSH1 0x64 SWAP1 REVERT JUMPDEST PUSH1 0x40 MLOAD PUSH3 0x461BCD PUSH1 0xE5 SHL DUP2 MSTORE PUSH1 0x20 PUSH1 0x4 DUP3 ADD MSTORE PUSH1 0x17 PUSH1 0x24 DUP3 ADD MSTORE PUSH32 0x4D6178207375626D697373696F6E732072656163686564000000000000000000 PUSH1 0x44 DUP3 ADD MSTORE PUSH1 0x64 SWAP1 REVERT JUMPDEST PUSH1 0x40 MLOAD PUSH3 0x461BCD PUSH1 0xE5 SHL DUP2 MSTORE PUSH1 0x20 PUSH1 0x4 DUP3 ADD MSTORE PUSH1 0x18 PUSH1 0x24 DUP3 ADD MSTORE PUSH32 0x43616D706169676E20686173206E6F7420737461727465640000000000000000 PUSH1 0x44 DUP3 ADD MSTORE PUSH1 0x64 SWAP1 REVERT JUMPDEST PUSH1 0x40 MLOAD PUSH3 0x461BCD PUSH1 0xE5 SHL DUP2 MSTORE PUSH1 0x20 PUSH1 0x4 DUP3 ADD MSTORE PUSH1 0x32 PUSH1 0x24 DUP3 ADD MSTORE PUSH32 0x4F6E6C7920636F6E747269627574696F6E7320636F6E74726163742063616E20 PUSH1 0x44 DUP3 ADD MSTORE PUSH18 0x31B0B636103A3434B990333AB731BA34B7B7 PUSH1 0x71 SHL PUSH1 0x64 DUP3 ADD MSTORE PUSH1 0x84 SWAP1 REVERT JUMPDEST CALLVALUE PUSH2 0x2E1 JUMPI PUSH1 0x20 CALLDATASIZE PUSH1 0x3 NOT ADD SLT PUSH2 0x2E1 JUMPI PUSH1 0x40 PUSH1 0x1 PUSH1 0x1 PUSH1 0xA0 SHL SUB PUSH2 0x21B8 PUSH2 0x3764 JUMP JUMPDEST AND DUP1 PUSH1 0x0 MSTORE PUSH1 0x7 PUSH1 0x20 MSTORE DUP2 PUSH1 0x0 KECCAK256 SLOAD SWAP1 PUSH1 0x0 MSTORE PUSH1 0x8 PUSH1 0x20 MSTORE DUP2 PUSH1 0x0 KECCAK256 SLOAD DUP3 MLOAD SWAP2 DUP3 MSTORE PUSH1 0x20 DUP3 ADD MSTORE RETURN JUMPDEST CALLVALUE PUSH2 0x2E1 JUMPI PUSH1 0x0 CALLDATASIZE PUSH1 0x3 NOT ADD SLT PUSH2 0x2E1 JUMPI PUSH1 0x20 PUSH1 0x2 SLOAD PUSH1 0x40 MLOAD SWAP1 DUP2 MSTORE RETURN JUMPDEST CALLVALUE PUSH2 0x2E1 JUMPI PUSH1 0x0 CALLDATASIZE PUSH1 0x3 NOT ADD SLT PUSH2 0x2E1 JUMPI PUSH2 0x2218 PUSH2 0x3F9E JUMP JUMPDEST PUSH1 0x0 DUP1 SLOAD PUSH1 0x1 PUSH1 0x1 PUSH1 0xA0 SHL SUB NOT DUP2 AND DUP3 SSTORE PUSH1 0x1 PUSH1 0x1 PUSH1 0xA0 SHL SUB AND PUSH32 0x8BE0079C531659141344CD1FD0A4F28419497F9722A3DAAFE3B4186F6B6457E0 DUP3 DUP1 LOG3 STOP JUMPDEST CALLVALUE PUSH2 0x2E1 JUMPI PUSH1 0x0 CALLDATASIZE PUSH1 0x3 NOT ADD SLT PUSH2 0x2E1 JUMPI PUSH1 0x20 PUSH1 0x3 SLOAD PUSH1 0x40 MLOAD SWAP1 DUP2 MSTORE RETURN JUMPDEST CALLVALUE PUSH2 0x2E1 JUMPI PUSH1 0x0 CALLDATASIZE PUSH1 0x3 NOT ADD SLT PUSH2 0x2E1 JUMPI PUSH1 0x40 PUSH1 0x2 SLOAD PUSH1 0x3 SLOAD DUP3 MLOAD SWAP2 DUP3 MSTORE PUSH1 0x20 DUP3 ADD MSTORE RETURN JUMPDEST CALLVALUE PUSH2 0x2E1 JUMPI PUSH1 0x20 CALLDATASIZE PUSH1 0x3 NOT ADD SLT PUSH2 0x2E1 JUMPI PUSH1 0x4 CALLDATALOAD PUSH2 0x22BC PUSH1 0x2 SLOAD DUP3 LT PUSH2 0x3BF3 JUMP JUMPDEST PUSH1 0x0 MSTORE PUSH1 0x4 PUSH1 0x20 MSTORE PUSH1 0x60 PUSH1 0x40 PUSH1 0x0 KECCAK256 PUSH1 0xA PUSH2 0x22E8 PUSH1 0xFF PUSH1 0xE DUP5 ADD SLOAD AND SWAP3 PUSH1 0xB DUP2 ADD SLOAD SWAP3 DUP4 SWAP2 ADD SLOAD PUSH2 0x3F84 JUMP JUMPDEST SWAP1 PUSH1 0x40 MLOAD SWAP3 ISZERO ISZERO DUP4 MSTORE PUSH1 0x20 DUP4 ADD MSTORE PUSH1 0x40 DUP3 ADD MSTORE RETURN JUMPDEST CALLVALUE PUSH2 0x2E1 JUMPI PUSH1 0x20 CALLDATASIZE PUSH1 0x3 NOT ADD SLT PUSH2 0x2E1 JUMPI PUSH1 0x4 CALLDATALOAD PUSH2 0x231E PUSH1 0x2 SLOAD DUP3 LT PUSH2 0x3BF3 JUMP JUMPDEST PUSH1 0x0 MSTORE PUSH1 0x4 PUSH1 0x20 MSTORE PUSH1 0x20 PUSH1 0x7 PUSH1 0x40 PUSH1 0x0 KECCAK256 ADD SLOAD PUSH1 0x40 MLOAD SWAP1 DUP2 MSTORE RETURN JUMPDEST CALLVALUE PUSH2 0x2E1 JUMPI PUSH1 0x20 CALLDATASIZE PUSH1 0x3 NOT ADD SLT PUSH2 0x2E1 JUMPI PUSH1 0x4 CALLDATALOAD PUSH2 0x235A PUSH1 0x2 SLOAD DUP3 LT PUSH2 0x3BF3 JUMP JUMPDEST PUSH1 0x0 MSTORE PUSH1 0x4 PUSH1 0x20 MSTORE PUSH1 0x20 PUSH1 0x12 PUSH1 0x40 PUSH1 0x0 KECCAK256 ADD SLOAD PUSH1 0x40 MLOAD SWAP1 DUP2 MSTORE RETURN JUMPDEST CALLVALUE PUSH2 0x2E1 JUMPI PUSH1 0x20 CALLDATASIZE PUSH1 0x3 NOT ADD SLT PUSH2 0x2E1 JUMPI PUSH1 0x4 CALLDATALOAD PUSH1 0x1 PUSH1 0x1 PUSH1 0x40 SHL SUB DUP2 GT PUSH2 0x2E1 JUMPI PUSH2 0x23A5 SWAP1 CALLDATASIZE SWAP1 PUSH1 0x4 ADD PUSH2 0x3917 JUMP JUMPDEST PUSH2 0x23B1 DUP2 MLOAD ISZERO ISZERO PUSH2 0x3EB3 JUMP JUMPDEST PUSH2 0x23BF PUSH1 0x20 DUP3 MLOAD GT ISZERO PUSH2 0x3EFF JUMP JUMPDEST CALLER PUSH1 0x0 MSTORE PUSH1 0xB PUSH1 0x20 MSTORE PUSH2 0x23D6 PUSH1 0x40 PUSH1 0x0 KECCAK256 SLOAD PUSH2 0x377A JUMP JUMPDEST ISZERO PUSH2 0x2635 JUMPI PUSH1 0x40 MLOAD PUSH2 0x23F8 PUSH1 0xFF DUP4 MLOAD SWAP3 PUSH1 0x20 DUP2 DUP2 DUP8 ADD SWAP6 PUSH2 0x60B DUP2 DUP4 DUP10 PUSH2 0x3895 JUMP JUMPDEST CALLER PUSH1 0x0 MSTORE PUSH1 0xC PUSH1 0x20 MSTORE PUSH1 0x2 PUSH1 0x40 PUSH1 0x0 KECCAK256 SLOAD LT ISZERO PUSH2 0x25FC JUMPI CALLER PUSH1 0x0 MSTORE PUSH1 0xB PUSH1 0x20 MSTORE PUSH2 0x2462 PUSH1 0x20 PUSH2 0x242A PUSH1 0x40 PUSH1 0x0 KECCAK256 PUSH2 0x37F1 JUMP JUMPDEST SWAP3 PUSH1 0x40 MLOAD DUP3 DUP2 DUP7 MLOAD PUSH2 0x243F DUP2 DUP4 DUP6 DUP12 ADD PUSH2 0x3895 JUMP JUMPDEST DUP2 ADD PUSH1 0xD DUP2 MSTORE SUB ADD SWAP1 KECCAK256 PUSH1 0xFF NOT DUP2 SLOAD AND SWAP1 SSTORE PUSH1 0x40 MLOAD DUP1 SWAP4 DUP2 SWAP3 DUP8 MLOAD SWAP3 DUP4 SWAP2 PUSH2 0x3895 JUMP JUMPDEST DUP2 ADD PUSH1 0xD DUP2 MSTORE SUB ADD SWAP1 KECCAK256 PUSH1 0x1 PUSH1 0xFF NOT DUP3 SLOAD AND OR SWAP1 SSTORE CALLER PUSH1 0x0 MSTORE PUSH1 0xB PUSH1 0x20 MSTORE PUSH1 0x40 PUSH1 0x0 KECCAK256 DUP3 MLOAD PUSH1 0x1 PUSH1 0x1 PUSH1 0x40 SHL SUB DUP2 GT PUSH2 0x79E JUMPI PUSH2 0x249F DUP3 SLOAD PUSH2 0x377A JUMP JUMPDEST PUSH1 0x1F DUP2 GT PUSH2 0x25CA JUMPI JUMPDEST POP PUSH1 0x20 PUSH1 0x1F DUP3 GT PUSH1 0x1 EQ PUSH2 0x2540 JUMPI SWAP2 PUSH2 0x24FD DUP3 PUSH32 0x3CF3E8D8CBB3BB53F66BC49633DBA574BF96DA8AE4E488CDACBE87B5D6196E8 SWAP6 SWAP4 PUSH2 0x2531 SWAP6 PUSH1 0x0 SWAP2 PUSH2 0x6EB JUMPI POP DUP2 PUSH1 0x1 SHL SWAP2 PUSH1 0x0 NOT SWAP1 PUSH1 0x3 SHL SHR NOT AND OR SWAP1 JUMP JUMPDEST SWAP1 SSTORE JUMPDEST CALLER PUSH1 0x0 MSTORE PUSH1 0xC PUSH1 0x20 MSTORE PUSH1 0x40 PUSH1 0x0 KECCAK256 PUSH2 0x2518 DUP2 SLOAD PUSH2 0x3C85 JUMP JUMPDEST SWAP1 SSTORE PUSH2 0x6E6 PUSH1 0x40 MLOAD SWAP3 DUP4 SWAP3 PUSH1 0x40 DUP5 MSTORE PUSH1 0x40 DUP5 ADD SWAP1 PUSH2 0x38B8 JUMP JUMPDEST DUP3 DUP2 SUB PUSH1 0x20 DUP5 ADD MSTORE CALLER SWAP6 PUSH2 0x38B8 JUMP JUMPDEST PUSH1 0x1F NOT DUP3 AND SWAP1 DUP4 PUSH1 0x0 MSTORE DUP1 PUSH1 0x0 KECCAK256 SWAP2 PUSH1 0x0 JUMPDEST DUP2 DUP2 LT PUSH2 0x25B2 JUMPI POP SWAP3 PUSH2 0x2531 SWAP5 SWAP3 PUSH1 0x1 SWAP3 DUP3 PUSH32 0x3CF3E8D8CBB3BB53F66BC49633DBA574BF96DA8AE4E488CDACBE87B5D6196E8 SWAP9 SWAP7 LT PUSH2 0x2599 JUMPI JUMPDEST POP POP DUP2 SHL ADD SWAP1 SSTORE PUSH2 0x2500 JUMP JUMPDEST DUP9 ADD MLOAD PUSH1 0x0 NOT PUSH1 0xF8 DUP5 PUSH1 0x3 SHL AND SHR NOT AND SWAP1 SSTORE DUP8 DUP1 PUSH2 0x258D JUMP JUMPDEST SWAP2 SWAP3 PUSH1 0x20 PUSH1 0x1 DUP2 SWAP3 DUP7 DUP12 ADD MLOAD DUP2 SSTORE ADD SWAP5 ADD SWAP3 ADD PUSH2 0x2552 JUMP JUMPDEST PUSH2 0x25F6 SWAP1 DUP4 PUSH1 0x0 MSTORE PUSH1 0x20 PUSH1 0x0 KECCAK256 PUSH1 0x1F DUP5 ADD PUSH1 0x5 SHR DUP2 ADD SWAP2 PUSH1 0x20 DUP6 LT PUSH2 0x794 JUMPI PUSH1 0x1F ADD PUSH1 0x5 SHR ADD SWAP1 PUSH2 0x3DE7 JUMP JUMPDEST DUP5 PUSH2 0x24A8 JUMP JUMPDEST PUSH1 0x40 MLOAD PUSH3 0x461BCD PUSH1 0xE5 SHL DUP2 MSTORE PUSH1 0x20 PUSH1 0x4 DUP3 ADD MSTORE PUSH1 0x11 PUSH1 0x24 DUP3 ADD MSTORE PUSH17 0x13585E0819591A5D1CC81C995858DA1959 PUSH1 0x7A SHL PUSH1 0x44 DUP3 ADD MSTORE PUSH1 0x64 SWAP1 REVERT JUMPDEST PUSH1 0x40 MLOAD PUSH3 0x461BCD PUSH1 0xE5 SHL DUP2 MSTORE PUSH1 0x20 PUSH1 0x4 DUP3 ADD MSTORE PUSH1 0xF PUSH1 0x24 DUP3 ADD MSTORE PUSH15 0x139BC81D5CD95C9B985B59481CD95D PUSH1 0x8A SHL PUSH1 0x44 DUP3 ADD MSTORE PUSH1 0x64 SWAP1 REVERT JUMPDEST CALLVALUE PUSH2 0x2E1 JUMPI PUSH1 0x20 CALLDATASIZE PUSH1 0x3 NOT ADD SLT PUSH2 0x2E1 JUMPI PUSH1 0x4 CALLDATALOAD PUSH2 0x268D PUSH1 0x2 SLOAD DUP3 LT PUSH2 0x3BF3 JUMP JUMPDEST DUP1 PUSH1 0x0 MSTORE PUSH1 0x4 PUSH1 0x20 MSTORE PUSH2 0x26B1 PUSH1 0x1 DUP1 PUSH1 0xA0 SHL SUB PUSH1 0x2 PUSH1 0x40 PUSH1 0x0 KECCAK256 ADD SLOAD AND CALLER EQ PUSH2 0x3D00 JUMP JUMPDEST DUP1 PUSH1 0x0 MSTORE PUSH1 0x4 PUSH1 0x20 MSTORE PUSH1 0x40 PUSH1 0x0 KECCAK256 PUSH1 0xE DUP2 ADD SWAP1 DUP2 SLOAD PUSH1 0xFF DUP2 AND PUSH2 0x270D JUMPI PUSH2 0x26DF PUSH1 0xD PUSH1 0x1 SWAP4 ADD SLOAD TIMESTAMP LT PUSH2 0x3DA6 JUMP JUMPDEST PUSH1 0xFF NOT AND OR SWAP1 SSTORE PUSH32 0x141C887329AAF008F79CC3613BDF4B305D54D2F381909F35518966B3D6A79D56 PUSH1 0x0 DUP1 LOG2 STOP JUMPDEST PUSH1 0x40 MLOAD PUSH3 0x461BCD PUSH1 0xE5 SHL DUP2 MSTORE PUSH1 0x20 PUSH1 0x4 DUP3 ADD MSTORE PUSH1 0x1A PUSH1 0x24 DUP3 ADD MSTORE PUSH32 0x43616D706169676E20697320616C726561647920616374697665000000000000 PUSH1 0x44 DUP3 ADD MSTORE PUSH1 0x64 SWAP1 REVERT JUMPDEST CALLVALUE PUSH2 0x2E1 JUMPI PUSH1 0x20 CALLDATASIZE PUSH1 0x3 NOT ADD SLT PUSH2 0x2E1 JUMPI PUSH1 0x4 CALLDATALOAD PUSH2 0x2773 PUSH1 0x2 SLOAD DUP3 LT PUSH2 0x3BF3 JUMP JUMPDEST DUP1 PUSH1 0x0 MSTORE PUSH1 0x4 PUSH1 0x20 MSTORE PUSH2 0x2797 PUSH1 0x1 DUP1 PUSH1 0xA0 SHL SUB PUSH1 0x2 PUSH1 0x40 PUSH1 0x0 KECCAK256 ADD SLOAD AND CALLER EQ PUSH2 0x3D00 JUMP JUMPDEST DUP1 PUSH1 0x0 MSTORE PUSH1 0x4 PUSH1 0x20 MSTORE PUSH1 0x40 PUSH1 0x0 KECCAK256 SWAP1 PUSH1 0xE DUP3 ADD DUP1 SLOAD PUSH2 0x27B8 PUSH1 0xFF DUP3 AND PUSH2 0x3D61 JUMP JUMPDEST PUSH1 0xFF NOT AND SWAP1 SSTORE PUSH1 0x9 DUP3 ADD DUP1 SLOAD SWAP1 DUP2 PUSH2 0x2804 JUMPI JUMPDEST DUP4 PUSH2 0x27D7 PUSH1 0x3 SLOAD PUSH2 0x3EA6 JUMP JUMPDEST PUSH1 0x3 SSTORE PUSH1 0x2 ADD SLOAD PUSH1 0x1 PUSH1 0x1 PUSH1 0xA0 SHL SUB AND PUSH1 0x0 SWAP1 DUP2 MSTORE PUSH1 0x8 PUSH1 0x20 MSTORE PUSH1 0x40 SWAP1 KECCAK256 DUP1 SLOAD PUSH2 0x2800 SWAP1 PUSH2 0x3EA6 JUMP JUMPDEST SWAP1 SSTORE STOP JUMPDEST PUSH1 0x0 SWAP1 DUP2 SWAP1 SSTORE PUSH1 0x10 SLOAD PUSH1 0xF SLOAD PUSH1 0x2 DUP7 ADD SLOAD PUSH1 0x40 MLOAD PUSH4 0x23B872DD PUSH1 0xE0 SHL DUP2 MSTORE PUSH1 0x1 PUSH1 0x1 PUSH1 0xA0 SHL SUB SWAP3 DUP4 AND PUSH1 0x4 DUP3 ADD MSTORE SWAP1 DUP3 AND PUSH1 0x24 DUP3 ADD MSTORE PUSH1 0x44 DUP2 ADD DUP6 SWAP1 MSTORE SWAP3 PUSH1 0x20 SWAP3 DUP5 SWAP3 PUSH1 0x64 SWAP3 DUP5 SWAP3 SWAP1 SWAP2 AND GAS CALL SWAP1 DUP2 ISZERO PUSH2 0x1ACB JUMPI PUSH1 0x0 SWAP2 PUSH2 0x28D7 JUMPI JUMPDEST POP ISZERO PUSH2 0x2899 JUMPI PUSH1 0x20 PUSH32 0x36ACD1DCB6F0EE33DD3DE4E8247261B42637734A3841C141A5E17ACD37EF5845 SWAP2 PUSH1 0x40 MLOAD SWAP1 DUP2 MSTORE LOG2 DUP2 DUP1 DUP1 PUSH2 0x27CB JUMP JUMPDEST PUSH1 0x40 MLOAD PUSH3 0x461BCD PUSH1 0xE5 SHL DUP2 MSTORE PUSH1 0x20 PUSH1 0x4 DUP3 ADD MSTORE PUSH1 0x16 PUSH1 0x24 DUP3 ADD MSTORE PUSH22 0x1499599D5B99081D1C985B9CD9995C8819985A5B1959 PUSH1 0x52 SHL PUSH1 0x44 DUP3 ADD MSTORE PUSH1 0x64 SWAP1 REVERT JUMPDEST PUSH2 0x28F0 SWAP2 POP PUSH1 0x20 RETURNDATASIZE PUSH1 0x20 GT PUSH2 0x1AC4 JUMPI PUSH2 0x1AB6 DUP2 DUP4 PUSH2 0x37D0 JUMP JUMPDEST DUP5 PUSH2 0x2860 JUMP JUMPDEST CALLVALUE PUSH2 0x2E1 JUMPI PUSH1 0x20 CALLDATASIZE PUSH1 0x3 NOT ADD SLT PUSH2 0x2E1 JUMPI PUSH1 0x4 CALLDATALOAD PUSH2 0x2917 PUSH1 0x2 SLOAD DUP3 LT PUSH2 0x3BF3 JUMP JUMPDEST PUSH1 0x0 MSTORE PUSH1 0x4 PUSH1 0x20 MSTORE PUSH1 0x20 PUSH1 0x9 PUSH1 0x40 PUSH1 0x0 KECCAK256 ADD SLOAD PUSH1 0x40 MLOAD SWAP1 DUP2 MSTORE RETURN JUMPDEST CALLVALUE PUSH2 0x2E1 JUMPI PUSH1 0x20 CALLDATASIZE PUSH1 0x3 NOT ADD SLT PUSH2 0x2E1 JUMPI PUSH1 0x4 CALLDATALOAD PUSH1 0x1 PUSH1 0x1 PUSH1 0x40 SHL SUB DUP2 GT PUSH2 0x2E1 JUMPI PUSH1 0x20 PUSH2 0x2967 PUSH2 0x29AF SWAP3 CALLDATASIZE SWAP1 PUSH1 0x4 ADD PUSH2 0x3917 JUMP JUMPDEST PUSH2 0x296F PUSH2 0x3DFE JUMP JUMPDEST POP PUSH1 0x40 MLOAD SWAP1 PUSH2 0x299E PUSH1 0xFF DUP3 MLOAD SWAP4 DUP6 DUP2 DUP2 DUP7 ADD SWAP7 PUSH2 0x298D DUP2 DUP4 DUP11 PUSH2 0x3895 JUMP JUMPDEST DUP2 ADD PUSH1 0x5 DUP2 MSTORE SUB ADD SWAP1 KECCAK256 SLOAD AND PUSH2 0x3CAA JUMP JUMPDEST PUSH1 0x40 MLOAD SWAP4 DUP5 SWAP3 DUP4 SWAP3 MLOAD SWAP3 DUP4 SWAP2 PUSH2 0x3895 JUMP JUMPDEST DUP2 ADD PUSH1 0x6 DUP2 MSTORE SUB ADD SWAP1 KECCAK256 SLOAD PUSH1 0x0 MSTORE PUSH1 0x4 PUSH1 0x20 MSTORE PUSH1 0x40 PUSH1 0x0 KECCAK256 PUSH1 0x40 MLOAD PUSH2 0x29D3 DUP2 PUSH2 0x37B4 JUMP JUMPDEST DUP2 SLOAD DUP2 MSTORE PUSH2 0x29E3 PUSH1 0x1 DUP4 ADD PUSH2 0x37F1 JUMP JUMPDEST PUSH1 0x20 DUP3 ADD MSTORE PUSH1 0x2 DUP3 ADD SLOAD PUSH1 0x1 PUSH1 0x1 PUSH1 0xA0 SHL SUB AND PUSH1 0x40 DUP3 ADD MSTORE PUSH2 0x2A07 PUSH1 0x3 DUP4 ADD PUSH2 0x37F1 JUMP JUMPDEST PUSH1 0x60 DUP3 ADD MSTORE PUSH2 0x2A18 PUSH1 0x4 DUP4 ADD PUSH2 0x37F1 JUMP JUMPDEST PUSH1 0x80 DUP3 ADD MSTORE PUSH2 0x2A29 PUSH1 0x5 DUP4 ADD PUSH2 0x37F1 JUMP JUMPDEST PUSH1 0xA0 DUP3 ADD MSTORE PUSH1 0x6 DUP3 ADD DUP1 SLOAD PUSH2 0x2A3D DUP2 PUSH2 0x396D JUMP JUMPDEST SWAP2 PUSH2 0x2A4B PUSH1 0x40 MLOAD SWAP4 DUP5 PUSH2 0x37D0 JUMP JUMPDEST DUP2 DUP4 MSTORE PUSH1 0x20 DUP4 ADD SWAP1 PUSH1 0x0 MSTORE PUSH1 0x20 PUSH1 0x0 KECCAK256 PUSH1 0x0 SWAP2 JUMPDEST DUP4 DUP4 LT PUSH2 0x2ADB JUMPI PUSH2 0x52B DUP7 PUSH1 0x12 DUP10 DUP9 PUSH1 0xC0 DUP5 ADD MSTORE PUSH1 0x7 DUP2 ADD SLOAD PUSH1 0xE0 DUP5 ADD MSTORE PUSH1 0x8 DUP2 ADD SLOAD PUSH2 0x100 DUP5 ADD MSTORE PUSH1 0x9 DUP2 ADD SLOAD PUSH2 0x120 DUP5 ADD MSTORE PUSH1 0xA DUP2 ADD SLOAD PUSH2 0x140 DUP5 ADD MSTORE PUSH1 0xB DUP2 ADD SLOAD PUSH2 0x160 DUP5 ADD MSTORE PUSH1 0xC DUP2 ADD SLOAD PUSH2 0x180 DUP5 ADD MSTORE PUSH1 0xD DUP2 ADD SLOAD PUSH2 0x1A0 DUP5 ADD MSTORE PUSH1 0xFF PUSH1 0xE DUP3 ADD SLOAD AND ISZERO ISZERO PUSH2 0x1C0 DUP5 ADD MSTORE PUSH2 0x98D PUSH1 0xF DUP3 ADD PUSH2 0x37F1 JUMP JUMPDEST PUSH1 0x1 PUSH1 0x20 DUP2 SWAP3 PUSH2 0x2AEA DUP6 PUSH2 0x37F1 JUMP JUMPDEST DUP2 MSTORE ADD SWAP3 ADD SWAP3 ADD SWAP2 SWAP1 PUSH2 0x2A5F JUMP JUMPDEST CALLVALUE PUSH2 0x2E1 JUMPI PUSH2 0x100 CALLDATASIZE PUSH1 0x3 NOT ADD SLT PUSH2 0x2E1 JUMPI PUSH1 0x4 CALLDATALOAD PUSH1 0x24 CALLDATALOAD PUSH1 0x1 PUSH1 0x1 PUSH1 0x40 SHL SUB DUP2 GT PUSH2 0x2E1 JUMPI PUSH2 0x2B2C SWAP1 CALLDATASIZE SWAP1 PUSH1 0x4 ADD PUSH2 0x3917 JUMP JUMPDEST SWAP1 PUSH1 0x44 CALLDATALOAD PUSH1 0x1 PUSH1 0x1 PUSH1 0x40 SHL SUB DUP2 GT PUSH2 0x2E1 JUMPI PUSH2 0x2B4C SWAP1 CALLDATASIZE SWAP1 PUSH1 0x4 ADD PUSH2 0x3917 JUMP JUMPDEST PUSH1 0x64 CALLDATALOAD PUSH1 0x1 PUSH1 0x1 PUSH1 0x40 SHL SUB DUP2 GT PUSH2 0x2E1 JUMPI PUSH2 0x2B6B SWAP1 CALLDATASIZE SWAP1 PUSH1 0x4 ADD PUSH2 0x3917 JUMP JUMPDEST SWAP3 PUSH1 0x84 CALLDATALOAD PUSH1 0x1 PUSH1 0x1 PUSH1 0x40 SHL SUB DUP2 GT PUSH2 0x2E1 JUMPI PUSH2 0x2B8B SWAP1 CALLDATASIZE SWAP1 PUSH1 0x4 ADD PUSH2 0x3984 JUMP JUMPDEST SWAP1 PUSH1 0xA4 CALLDATALOAD SWAP1 PUSH1 0xC4 CALLDATALOAD PUSH1 0x1 PUSH1 0x1 PUSH1 0x40 SHL SUB DUP2 GT PUSH2 0x2E1 JUMPI PUSH2 0x2BAF SWAP1 CALLDATASIZE SWAP1 PUSH1 0x4 ADD PUSH2 0x3917 JUMP JUMPDEST SWAP3 PUSH1 0xE4 CALLDATALOAD PUSH1 0x1 PUSH1 0x1 PUSH1 0x40 SHL SUB DUP2 GT PUSH2 0x2E1 JUMPI PUSH2 0x2BCF SWAP1 CALLDATASIZE SWAP1 PUSH1 0x4 ADD PUSH2 0x3917 JUMP JUMPDEST SWAP7 PUSH2 0x2BDD PUSH1 0x2 SLOAD DUP9 LT PUSH2 0x3BF3 JUMP JUMPDEST DUP7 PUSH1 0x0 MSTORE PUSH1 0x4 PUSH1 0x20 MSTORE PUSH2 0x2C01 PUSH1 0x1 DUP1 PUSH1 0xA0 SHL SUB PUSH1 0x2 PUSH1 0x40 PUSH1 0x0 KECCAK256 ADD SLOAD AND CALLER EQ PUSH2 0x3D00 JUMP JUMPDEST DUP7 PUSH1 0x0 MSTORE PUSH1 0x4 PUSH1 0x20 MSTORE PUSH1 0x40 PUSH1 0x0 KECCAK256 SWAP6 PUSH2 0x2C20 PUSH1 0xFF PUSH1 0xE DUP10 ADD SLOAD AND PUSH2 0x3D61 JUMP JUMPDEST PUSH1 0xD DUP8 ADD SWAP4 PUSH2 0x2C31 DUP6 SLOAD TIMESTAMP LT PUSH2 0x3DA6 JUMP JUMPDEST TIMESTAMP DUP7 GT ISZERO PUSH2 0x3337 JUMPI DUP1 MLOAD PUSH1 0x3 DUP10 ADD SWAP2 PUSH1 0x1 PUSH1 0x1 PUSH1 0x40 SHL SUB DUP3 GT PUSH2 0x79E JUMPI PUSH2 0x2C58 DUP4 SLOAD PUSH2 0x377A JUMP JUMPDEST PUSH1 0x1F DUP2 GT PUSH2 0x3305 JUMPI JUMPDEST POP PUSH1 0x20 SWAP1 PUSH1 0x1F DUP4 GT PUSH1 0x1 EQ PUSH2 0x329E JUMPI PUSH2 0x2C92 SWAP3 SWAP2 PUSH1 0x0 SWAP2 DUP4 PUSH2 0x3293 JUMPI POP POP DUP2 PUSH1 0x1 SHL SWAP2 PUSH1 0x0 NOT SWAP1 PUSH1 0x3 SHL SHR NOT AND OR SWAP1 JUMP JUMPDEST SWAP1 SSTORE JUMPDEST DUP1 MLOAD PUSH1 0x4 DUP9 ADD SWAP2 PUSH1 0x1 PUSH1 0x1 PUSH1 0x40 SHL SUB DUP3 GT PUSH2 0x79E JUMPI PUSH2 0x2CB4 DUP4 SLOAD PUSH2 0x377A JUMP JUMPDEST PUSH1 0x1F DUP2 GT PUSH2 0x3261 JUMPI JUMPDEST POP PUSH1 0x20 SWAP1 PUSH1 0x1F DUP4 GT PUSH1 0x1 EQ PUSH2 0x31FA JUMPI PUSH2 0x2CEE SWAP3 SWAP2 PUSH1 0x0 SWAP2 DUP4 PUSH2 0x31EF JUMPI POP POP DUP2 PUSH1 0x1 SHL SWAP2 PUSH1 0x0 NOT SWAP1 PUSH1 0x3 SHL SHR NOT AND OR SWAP1 JUMP JUMPDEST SWAP1 SSTORE JUMPDEST DUP1 MLOAD PUSH1 0x5 DUP8 ADD SWAP2 PUSH1 0x1 PUSH1 0x1 PUSH1 0x40 SHL SUB DUP3 GT PUSH2 0x79E JUMPI PUSH2 0x2D10 DUP4 SLOAD PUSH2 0x377A JUMP JUMPDEST PUSH1 0x1F DUP2 GT PUSH2 0x31BD JUMPI JUMPDEST POP PUSH1 0x20 SWAP1 PUSH1 0x1F DUP4 GT PUSH1 0x1 EQ PUSH2 0x3156 JUMPI PUSH2 0x2D4A SWAP3 SWAP2 PUSH1 0x0 SWAP2 DUP4 PUSH2 0x314B JUMPI POP POP DUP2 PUSH1 0x1 SHL SWAP2 PUSH1 0x0 NOT SWAP1 PUSH1 0x3 SHL SHR NOT AND OR SWAP1 JUMP JUMPDEST SWAP1 SSTORE JUMPDEST DUP1 MLOAD PUSH1 0x6 DUP7 ADD SWAP2 PUSH1 0x1 PUSH1 0x40 SHL DUP3 GT PUSH2 0x79E JUMPI DUP3 SLOAD DUP3 DUP5 SSTORE DUP1 DUP4 LT PUSH2 0x30CD JUMPI JUMPDEST POP PUSH1 0x20 ADD SWAP2 PUSH1 0x0 MSTORE PUSH1 0x20 PUSH1 0x0 KECCAK256 SWAP2 PUSH1 0x0 SWAP1 JUMPDEST DUP3 DUP3 LT PUSH2 0x2FB5 JUMPI POP POP POP POP SSTORE PUSH1 0xF DUP3 ADD SWAP1 DUP1 MLOAD SWAP1 PUSH1 0x1 PUSH1 0x1 PUSH1 0x40 SHL SUB DUP3 GT PUSH2 0x79E JUMPI PUSH2 0x2DAA DUP4 SLOAD PUSH2 0x377A JUMP JUMPDEST PUSH1 0x1F DUP2 GT PUSH2 0x2F83 JUMPI JUMPDEST POP PUSH1 0x20 SWAP1 PUSH1 0x1F DUP4 GT PUSH1 0x1 EQ PUSH2 0x2F1C JUMPI PUSH2 0x2DE4 SWAP3 SWAP2 PUSH1 0x0 SWAP2 DUP4 PUSH2 0x17BC JUMPI POP POP DUP2 PUSH1 0x1 SHL SWAP2 PUSH1 0x0 NOT SWAP1 PUSH1 0x3 SHL SHR NOT AND OR SWAP1 JUMP JUMPDEST SWAP1 SSTORE JUMPDEST DUP3 MLOAD SWAP1 DUP2 PUSH2 0x2E18 JUMPI JUMPDEST DUP3 PUSH32 0xEB99199FA768B75351D1D205616EB313E8775BF75AD483F1A9C5DC947D9AA105 PUSH1 0x0 DUP1 LOG2 STOP JUMPDEST PUSH1 0x11 ADD SWAP1 PUSH1 0x1 PUSH1 0x1 PUSH1 0x40 SHL SUB DUP2 GT PUSH2 0x79E JUMPI PUSH2 0x2E34 DUP3 SLOAD PUSH2 0x377A JUMP JUMPDEST PUSH1 0x1F DUP2 GT PUSH2 0x2EEA JUMPI JUMPDEST POP PUSH1 0x20 PUSH1 0x1F DUP3 GT PUSH1 0x1 EQ PUSH2 0x2E85 JUMPI DUP2 SWAP1 PUSH2 0x2E6F SWAP4 SWAP5 SWAP6 PUSH1 0x0 SWAP3 PUSH2 0x2E7A JUMPI POP POP DUP2 PUSH1 0x1 SHL SWAP2 PUSH1 0x0 NOT SWAP1 PUSH1 0x3 SHL SHR NOT AND OR SWAP1 JUMP JUMPDEST SWAP1 SSTORE JUMPDEST DUP1 DUP3 DUP1 PUSH2 0x2DF0 JUMP JUMPDEST ADD MLOAD SWAP1 POP DUP6 DUP1 PUSH2 0x107D JUMP JUMPDEST PUSH1 0x1F NOT DUP3 AND SWAP1 DUP4 PUSH1 0x0 MSTORE DUP1 PUSH1 0x0 KECCAK256 SWAP2 PUSH1 0x0 JUMPDEST DUP2 DUP2 LT PUSH2 0x2ED2 JUMPI POP SWAP6 DUP4 PUSH1 0x1 SWAP6 SWAP7 SWAP8 LT PUSH2 0x2EB9 JUMPI JUMPDEST POP POP POP DUP2 SHL ADD SWAP1 SSTORE PUSH2 0x2E72 JUMP JUMPDEST ADD MLOAD PUSH1 0x0 NOT PUSH1 0xF8 DUP5 PUSH1 0x3 SHL AND SHR NOT AND SWAP1 SSTORE DUP5 DUP1 DUP1 PUSH2 0x2EAC JUMP JUMPDEST SWAP2 SWAP3 PUSH1 0x20 PUSH1 0x1 DUP2 SWAP3 DUP7 DUP12 ADD MLOAD DUP2 SSTORE ADD SWAP5 ADD SWAP3 ADD PUSH2 0x2E97 JUMP JUMPDEST PUSH2 0x2F16 SWAP1 DUP4 PUSH1 0x0 MSTORE PUSH1 0x20 PUSH1 0x0 KECCAK256 PUSH1 0x1F DUP5 ADD PUSH1 0x5 SHR DUP2 ADD SWAP2 PUSH1 0x20 DUP6 LT PUSH2 0x794 JUMPI PUSH1 0x1F ADD PUSH1 0x5 SHR ADD SWAP1 PUSH2 0x3DE7 JUMP JUMPDEST DUP5 PUSH2 0x2E3D JUMP JUMPDEST SWAP1 PUSH1 0x1F NOT DUP4 AND SWAP2 DUP5 PUSH1 0x0 MSTORE DUP2 PUSH1 0x0 KECCAK256 SWAP3 PUSH1 0x0 JUMPDEST DUP2 DUP2 LT PUSH2 0x2F6B JUMPI POP SWAP1 DUP5 PUSH1 0x1 SWAP6 SWAP5 SWAP4 SWAP3 LT PUSH2 0x2F52 JUMPI JUMPDEST POP POP POP DUP2 SHL ADD SWAP1 SSTORE PUSH2 0x2DE7 JUMP JUMPDEST ADD MLOAD PUSH1 0x0 NOT PUSH1 0xF8 DUP5 PUSH1 0x3 SHL AND SHR NOT AND SWAP1 SSTORE DUP7 DUP1 DUP1 PUSH2 0x2F45 JUMP JUMPDEST SWAP3 SWAP4 PUSH1 0x20 PUSH1 0x1 DUP2 SWAP3 DUP8 DUP7 ADD MLOAD DUP2 SSTORE ADD SWAP6 ADD SWAP4 ADD PUSH2 0x2F2F JUMP JUMPDEST PUSH2 0x2FAF SWAP1 DUP5 PUSH1 0x0 MSTORE PUSH1 0x20 PUSH1 0x0 KECCAK256 PUSH1 0x1F DUP6 ADD PUSH1 0x5 SHR DUP2 ADD SWAP2 PUSH1 0x20 DUP7 LT PUSH2 0x794 JUMPI PUSH1 0x1F ADD PUSH1 0x5 SHR ADD SWAP1 PUSH2 0x3DE7 JUMP JUMPDEST DUP7 PUSH2 0x2DB3 JUMP JUMPDEST DUP1 MLOAD DUP1 MLOAD SWAP1 PUSH1 0x1 PUSH1 0x1 PUSH1 0x40 SHL SUB DUP3 GT PUSH2 0x79E JUMPI PUSH2 0x2FD2 DUP7 SLOAD PUSH2 0x377A JUMP JUMPDEST PUSH1 0x1F DUP2 GT PUSH2 0x309B JUMPI JUMPDEST POP PUSH1 0x20 SWAP1 PUSH1 0x1F DUP4 GT PUSH1 0x1 EQ PUSH2 0x302E JUMPI SWAP3 PUSH2 0x3014 DUP4 PUSH1 0x1 SWAP6 SWAP5 PUSH1 0x20 SWAP5 DUP8 SWAP7 PUSH1 0x0 SWAP3 PUSH2 0x3023 JUMPI POP POP DUP2 PUSH1 0x1 SHL SWAP2 PUSH1 0x0 NOT SWAP1 PUSH1 0x3 SHL SHR NOT AND OR SWAP1 JUMP JUMPDEST DUP8 SSTORE JUMPDEST ADD SWAP5 ADD SWAP2 ADD SWAP1 SWAP3 PUSH2 0x2D7E JUMP JUMPDEST ADD MLOAD SWAP1 POP CODESIZE DUP1 PUSH2 0x107D JUMP JUMPDEST SWAP1 PUSH1 0x1F NOT DUP4 AND SWAP2 DUP8 PUSH1 0x0 MSTORE DUP2 PUSH1 0x0 KECCAK256 SWAP3 PUSH1 0x0 JUMPDEST DUP2 DUP2 LT PUSH2 0x3083 JUMPI POP SWAP4 PUSH1 0x20 SWAP4 PUSH1 0x1 SWAP7 SWAP4 DUP8 SWAP7 SWAP4 DUP4 DUP9 SWAP6 LT PUSH2 0x306A JUMPI JUMPDEST POP POP POP DUP2 SHL ADD DUP8 SSTORE PUSH2 0x3017 JUMP JUMPDEST ADD MLOAD PUSH1 0x0 NOT PUSH1 0xF8 DUP5 PUSH1 0x3 SHL AND SHR NOT AND SWAP1 SSTORE DUP16 DUP1 DUP1 PUSH2 0x305D JUMP JUMPDEST SWAP3 SWAP4 PUSH1 0x20 PUSH1 0x1 DUP2 SWAP3 DUP8 DUP7 ADD MLOAD DUP2 SSTORE ADD SWAP6 ADD SWAP4 ADD PUSH2 0x3041 JUMP JUMPDEST PUSH2 0x30C7 SWAP1 DUP8 PUSH1 0x0 MSTORE PUSH1 0x20 PUSH1 0x0 KECCAK256 PUSH1 0x1F DUP6 ADD PUSH1 0x5 SHR DUP2 ADD SWAP2 PUSH1 0x20 DUP7 LT PUSH2 0x794 JUMPI PUSH1 0x1F ADD PUSH1 0x5 SHR ADD SWAP1 PUSH2 0x3DE7 JUMP JUMPDEST DUP13 PUSH2 0x2FDB JUMP JUMPDEST DUP4 PUSH1 0x0 MSTORE DUP3 PUSH1 0x20 PUSH1 0x0 KECCAK256 SWAP2 DUP3 ADD SWAP2 ADD JUMPDEST DUP2 DUP2 LT PUSH2 0x30EA JUMPI POP PUSH2 0x2D6C JUMP JUMPDEST DUP1 PUSH2 0x30F7 PUSH1 0x1 SWAP3 SLOAD PUSH2 0x377A JUMP JUMPDEST DUP1 PUSH2 0x3104 JUMPI JUMPDEST POP ADD PUSH2 0x30DD JUMP JUMPDEST PUSH1 0x1F DUP2 GT DUP4 EQ PUSH2 0x311A JUMPI POP PUSH1 0x0 DUP2 SSTORE JUMPDEST DUP13 PUSH2 0x30FD JUMP JUMPDEST PUSH2 0x3138 SWAP1 DUP3 PUSH1 0x0 MSTORE DUP4 PUSH1 0x1F PUSH1 0x20 PUSH1 0x0 KECCAK256 SWAP3 ADD PUSH1 0x5 SHR DUP3 ADD SWAP2 ADD PUSH2 0x3DE7 JUMP JUMPDEST DUP1 PUSH1 0x0 MSTORE PUSH1 0x0 PUSH1 0x20 DUP2 KECCAK256 DUP2 DUP4 SSTORE SSTORE PUSH2 0x3114 JUMP JUMPDEST ADD MLOAD SWAP1 POP DUP12 DUP1 PUSH2 0x107D JUMP JUMPDEST SWAP1 PUSH1 0x1F NOT DUP4 AND SWAP2 DUP5 PUSH1 0x0 MSTORE DUP2 PUSH1 0x0 KECCAK256 SWAP3 PUSH1 0x0 JUMPDEST DUP2 DUP2 LT PUSH2 0x31A5 JUMPI POP SWAP1 DUP5 PUSH1 0x1 SWAP6 SWAP5 SWAP4 SWAP3 LT PUSH2 0x318C JUMPI JUMPDEST POP POP POP DUP2 SHL ADD SWAP1 SSTORE PUSH2 0x2D4D JUMP JUMPDEST ADD MLOAD PUSH1 0x0 NOT PUSH1 0xF8 DUP5 PUSH1 0x3 SHL AND SHR NOT AND SWAP1 SSTORE DUP11 DUP1 DUP1 PUSH2 0x317F JUMP JUMPDEST SWAP3 SWAP4 PUSH1 0x20 PUSH1 0x1 DUP2 SWAP3 DUP8 DUP7 ADD MLOAD DUP2 SSTORE ADD SWAP6 ADD SWAP4 ADD PUSH2 0x3169 JUMP JUMPDEST PUSH2 0x31E9 SWAP1 DUP5 PUSH1 0x0 MSTORE PUSH1 0x20 PUSH1 0x0 KECCAK256 PUSH1 0x1F DUP6 ADD PUSH1 0x5 SHR DUP2 ADD SWAP2 PUSH1 0x20 DUP7 LT PUSH2 0x794 JUMPI PUSH1 0x1F ADD PUSH1 0x5 SHR ADD SWAP1 PUSH2 0x3DE7 JUMP JUMPDEST DUP11 PUSH2 0x2D19 JUMP JUMPDEST ADD MLOAD SWAP1 POP DUP13 DUP1 PUSH2 0x107D JUMP JUMPDEST SWAP1 PUSH1 0x1F NOT DUP4 AND SWAP2 DUP5 PUSH1 0x0 MSTORE DUP2 PUSH1 0x0 KECCAK256 SWAP3 PUSH1 0x0 JUMPDEST DUP2 DUP2 LT PUSH2 0x3249 JUMPI POP SWAP1 DUP5 PUSH1 0x1 SWAP6 SWAP5 SWAP4 SWAP3 LT PUSH2 0x3230 JUMPI JUMPDEST POP POP POP DUP2 SHL ADD SWAP1 SSTORE PUSH2 0x2CF1 JUMP JUMPDEST ADD MLOAD PUSH1 0x0 NOT PUSH1 0xF8 DUP5 PUSH1 0x3 SHL AND SHR NOT AND SWAP1 SSTORE DUP12 DUP1 DUP1 PUSH2 0x3223 JUMP JUMPDEST SWAP3 SWAP4 PUSH1 0x20 PUSH1 0x1 DUP2 SWAP3 DUP8 DUP7 ADD MLOAD DUP2 SSTORE ADD SWAP6 ADD SWAP4 ADD PUSH2 0x320D JUMP JUMPDEST PUSH2 0x328D SWAP1 DUP5 PUSH1 0x0 MSTORE PUSH1 0x20 PUSH1 0x0 KECCAK256 PUSH1 0x1F DUP6 ADD PUSH1 0x5 SHR DUP2 ADD SWAP2 PUSH1 0x20 DUP7 LT PUSH2 0x794 JUMPI PUSH1 0x1F ADD PUSH1 0x5 SHR ADD SWAP1 PUSH2 0x3DE7 JUMP JUMPDEST DUP12 PUSH2 0x2CBD JUMP JUMPDEST ADD MLOAD SWAP1 POP DUP14 DUP1 PUSH2 0x107D JUMP JUMPDEST SWAP1 PUSH1 0x1F NOT DUP4 AND SWAP2 DUP5 PUSH1 0x0 MSTORE DUP2 PUSH1 0x0 KECCAK256 SWAP3 PUSH1 0x0 JUMPDEST DUP2 DUP2 LT PUSH2 0x32ED JUMPI POP SWAP1 DUP5 PUSH1 0x1 SWAP6 SWAP5 SWAP4 SWAP3 LT PUSH2 0x32D4 JUMPI JUMPDEST POP POP POP DUP2 SHL ADD SWAP1 SSTORE PUSH2 0x2C95 JUMP JUMPDEST ADD MLOAD PUSH1 0x0 NOT PUSH1 0xF8 DUP5 PUSH1 0x3 SHL AND SHR NOT AND SWAP1 SSTORE DUP13 DUP1 DUP1 PUSH2 0x32C7 JUMP JUMPDEST SWAP3 SWAP4 PUSH1 0x20 PUSH1 0x1 DUP2 SWAP3 DUP8 DUP7 ADD MLOAD DUP2 SSTORE ADD SWAP6 ADD SWAP4 ADD PUSH2 0x32B1 JUMP JUMPDEST PUSH2 0x3331 SWAP1 DUP5 PUSH1 0x0 MSTORE PUSH1 0x20 PUSH1 0x0 KECCAK256 PUSH1 0x1F DUP6 ADD PUSH1 0x5 SHR DUP2 ADD SWAP2 PUSH1 0x20 DUP7 LT PUSH2 0x794 JUMPI PUSH1 0x1F ADD PUSH1 0x5 SHR ADD SWAP1 PUSH2 0x3DE7 JUMP JUMPDEST DUP13 PUSH2 0x2C61 JUMP JUMPDEST PUSH1 0x64 PUSH1 0x40 MLOAD PUSH3 0x461BCD PUSH1 0xE5 SHL DUP2 MSTORE PUSH1 0x20 PUSH1 0x4 DUP3 ADD MSTORE PUSH1 0x20 PUSH1 0x24 DUP3 ADD MSTORE PUSH32 0x45787069726174696F6E206D75737420626520696E2074686520667574757265 PUSH1 0x44 DUP3 ADD MSTORE REVERT JUMPDEST CALLVALUE PUSH2 0x2E1 JUMPI PUSH1 0x20 CALLDATASIZE PUSH1 0x3 NOT ADD SLT PUSH2 0x2E1 JUMPI PUSH1 0x4 CALLDATALOAD PUSH1 0x1 PUSH1 0x1 PUSH1 0x40 SHL SUB DUP2 GT PUSH2 0x2E1 JUMPI PUSH2 0xB39 PUSH1 0x20 PUSH2 0x33B1 DUP2 SWAP4 CALLDATASIZE SWAP1 PUSH1 0x4 ADD PUSH2 0x3917 JUMP JUMPDEST PUSH1 0x40 MLOAD SWAP1 PUSH2 0x299E PUSH1 0xFF DUP3 MLOAD SWAP4 DUP6 DUP2 DUP2 DUP7 ADD SWAP7 PUSH2 0x298D DUP2 DUP4 DUP11 PUSH2 0x3895 JUMP JUMPDEST CALLVALUE PUSH2 0x2E1 JUMPI PUSH1 0x0 CALLDATASIZE PUSH1 0x3 NOT ADD SLT PUSH2 0x2E1 JUMPI PUSH1 0x20 PUSH1 0x40 MLOAD DUP2 DUP2 MSTORE RETURN JUMPDEST CALLVALUE PUSH2 0x2E1 JUMPI PUSH1 0x20 CALLDATASIZE PUSH1 0x3 NOT ADD SLT PUSH2 0x2E1 JUMPI PUSH1 0x1 PUSH1 0x1 PUSH1 0xA0 SHL SUB PUSH2 0x340A PUSH2 0x3764 JUMP JUMPDEST AND DUP1 PUSH1 0x0 MSTORE PUSH1 0x8 PUSH1 0x20 MSTORE PUSH2 0x3422 PUSH1 0x40 PUSH1 0x0 KECCAK256 SLOAD PUSH2 0x3C3F JUMP JUMPDEST PUSH1 0x0 SWAP2 DUP3 MSTORE PUSH1 0x7 PUSH1 0x20 MSTORE PUSH1 0x40 DUP3 KECCAK256 DUP1 SLOAD SWAP2 SWAP3 SWAP1 DUP2 JUMPDEST DUP4 DUP2 LT PUSH2 0x344C JUMPI PUSH1 0x40 MLOAD DUP1 PUSH2 0x52B DUP8 DUP3 PUSH2 0x38DD JUMP JUMPDEST PUSH2 0x3456 DUP2 DUP4 PUSH2 0x3B9F JUMP JUMPDEST SWAP1 SLOAD SWAP1 PUSH1 0x3 SHL SHR DUP1 PUSH1 0x0 MSTORE PUSH1 0x4 PUSH1 0x20 MSTORE PUSH1 0xFF PUSH1 0xE PUSH1 0x40 PUSH1 0x0 KECCAK256 ADD SLOAD AND PUSH2 0x3480 JUMPI JUMPDEST POP PUSH1 0x1 ADD PUSH2 0x3437 JUMP JUMPDEST DUP4 PUSH2 0x3492 SWAP2 PUSH2 0xAF5 PUSH1 0x1 SWAP5 SWAP7 DUP10 PUSH2 0x3C71 JUMP JUMPDEST SWAP3 SWAP1 PUSH2 0x3477 JUMP JUMPDEST CALLVALUE PUSH2 0x2E1 JUMPI PUSH1 0x0 CALLDATASIZE PUSH1 0x3 NOT ADD SLT PUSH2 0x2E1 JUMPI PUSH1 0x20 PUSH1 0x11 SLOAD PUSH1 0x40 MLOAD SWAP1 DUP2 MSTORE RETURN JUMPDEST CALLVALUE PUSH2 0x2E1 JUMPI PUSH1 0x20 CALLDATASIZE PUSH1 0x3 NOT ADD SLT PUSH2 0x2E1 JUMPI PUSH1 0x4 CALLDATALOAD PUSH2 0x34D8 PUSH1 0x2 SLOAD DUP3 LT PUSH2 0x3BF3 JUMP JUMPDEST PUSH1 0x0 MSTORE PUSH1 0x4 PUSH1 0x20 MSTORE PUSH1 0x20 PUSH1 0x1 DUP1 PUSH1 0xA0 SHL SUB PUSH1 0x2 PUSH1 0x40 PUSH1 0x0 KECCAK256 ADD SLOAD AND PUSH1 0x40 MLOAD SWAP1 DUP2 MSTORE RETURN JUMPDEST CALLVALUE PUSH2 0x2E1 JUMPI PUSH1 0x20 CALLDATASIZE PUSH1 0x3 NOT ADD SLT PUSH2 0x2E1 JUMPI PUSH1 0x4 CALLDATALOAD PUSH1 0x0 MSTORE PUSH1 0x4 PUSH1 0x20 MSTORE PUSH1 0x40 PUSH1 0x0 KECCAK256 DUP1 SLOAD PUSH2 0x100 MSTORE DUP1 PUSH1 0x1 DUP2 ADD PUSH2 0x3530 SWAP1 PUSH2 0x37F1 JUMP JUMPDEST PUSH1 0x2 DUP3 ADD SLOAD PUSH1 0x1 PUSH1 0x1 PUSH1 0xA0 SHL SUB AND PUSH1 0xE0 MSTORE PUSH2 0x354D PUSH1 0x3 DUP4 ADD PUSH2 0x37F1 JUMP JUMPDEST SWAP1 PUSH2 0x355A PUSH1 0x4 DUP5 ADD PUSH2 0x37F1 JUMP JUMPDEST SWAP2 PUSH2 0x3567 PUSH1 0x5 DUP6 ADD PUSH2 0x37F1 JUMP JUMPDEST SWAP3 PUSH1 0x7 DUP6 ADD SLOAD SWAP4 PUSH1 0x8 DUP7 ADD SLOAD PUSH1 0x9 DUP8 ADD SLOAD PUSH1 0xA DUP9 ADD SLOAD SWAP2 PUSH1 0xB DUP10 ADD SLOAD SWAP4 PUSH1 0xC DUP11 ADD SLOAD SWAP6 PUSH1 0xD DUP12 ADD SLOAD SWAP8 PUSH1 0xE DUP13 ADD SLOAD PUSH1 0xFF AND SWAP10 PUSH1 0xF DUP14 ADD PUSH2 0x35A6 SWAP1 PUSH2 0x37F1 JUMP JUMPDEST SWAP13 PUSH1 0x10 ADD SLOAD SWAP14 PUSH1 0x11 DUP2 ADD PUSH2 0x35B9 SWAP1 PUSH2 0x37F1 JUMP JUMPDEST PUSH1 0x80 MSTORE PUSH1 0x12 ADD SLOAD PUSH1 0xA0 MSTORE PUSH1 0x40 MLOAD PUSH1 0xC0 MSTORE PUSH2 0x100 MLOAD PUSH1 0xC0 MLOAD MSTORE PUSH1 0xC0 MLOAD PUSH1 0x20 ADD PUSH2 0x240 SWAP1 MSTORE PUSH1 0xC0 MLOAD PUSH2 0x240 ADD PUSH2 0x35EC SWAP2 PUSH2 0x38B8 JUMP JUMPDEST PUSH1 0xE0 MLOAD PUSH1 0xC0 MLOAD PUSH1 0x40 ADD MSTORE PUSH1 0xC0 MLOAD DUP2 SUB PUSH1 0xC0 MLOAD PUSH1 0x60 ADD MSTORE PUSH2 0x360B SWAP2 PUSH2 0x38B8 JUMP JUMPDEST PUSH1 0xC0 MLOAD DUP2 SUB PUSH1 0xC0 MLOAD PUSH1 0x80 ADD MSTORE PUSH2 0x3620 SWAP2 PUSH2 0x38B8 JUMP JUMPDEST PUSH1 0xC0 MLOAD DUP2 SUB PUSH1 0xC0 MLOAD PUSH1 0xA0 ADD MSTORE PUSH2 0x3635 SWAP2 PUSH2 0x38B8 JUMP JUMPDEST SWAP8 PUSH1 0xC0 MLOAD PUSH1 0xC0 ADD MSTORE PUSH1 0xC0 MLOAD PUSH1 0xE0 ADD MSTORE PUSH1 0xC0 MLOAD PUSH2 0x100 ADD MSTORE PUSH1 0xC0 MLOAD PUSH2 0x120 ADD MSTORE PUSH1 0xC0 MLOAD PUSH2 0x140 ADD MSTORE PUSH1 0xC0 MLOAD PUSH2 0x160 ADD MSTORE PUSH1 0xC0 MLOAD PUSH2 0x180 ADD MSTORE ISZERO ISZERO PUSH1 0xC0 MLOAD PUSH2 0x1A0 ADD MSTORE PUSH1 0xC0 MLOAD DUP2 SUB PUSH1 0xC0 MLOAD PUSH2 0x1C0 ADD MSTORE PUSH2 0x368C SWAP2 PUSH2 0x38B8 JUMP JUMPDEST SWAP1 PUSH1 0xC0 MLOAD PUSH2 0x1E0 ADD MSTORE PUSH1 0xC0 MLOAD DUP2 SUB PUSH1 0xC0 MLOAD PUSH2 0x200 ADD MSTORE PUSH1 0x80 MLOAD SWAP1 PUSH2 0x36AF SWAP2 PUSH2 0x38B8 JUMP JUMPDEST PUSH1 0xA0 MLOAD PUSH1 0xC0 MLOAD PUSH2 0x220 ADD MSTORE PUSH1 0xC0 MLOAD SWAP1 SUB PUSH1 0xC0 MLOAD RETURN JUMPDEST CALLVALUE PUSH2 0x2E1 JUMPI PUSH1 0x20 CALLDATASIZE PUSH1 0x3 NOT ADD SLT PUSH2 0x2E1 JUMPI PUSH1 0x4 CALLDATALOAD PUSH2 0x36E5 PUSH1 0x2 SLOAD DUP3 LT PUSH2 0x3BF3 JUMP JUMPDEST PUSH1 0x0 MSTORE PUSH1 0x4 PUSH1 0x20 MSTORE PUSH1 0x20 PUSH1 0x40 PUSH1 0x0 KECCAK256 PUSH1 0xFF PUSH1 0xE DUP3 ADD SLOAD AND SWAP1 DUP2 PUSH2 0x3755 JUMPI JUMPDEST DUP2 PUSH2 0x3746 JUMPI JUMPDEST DUP2 PUSH2 0x3734 JUMPI JUMPDEST DUP2 PUSH2 0x3720 JUMPI JUMPDEST POP PUSH1 0x40 MLOAD SWAP1 ISZERO ISZERO DUP2 MSTORE RETURN JUMPDEST SWAP1 POP PUSH1 0x7 PUSH1 0x9 DUP3 ADD SLOAD SWAP2 ADD SLOAD GT ISZERO DUP3 PUSH2 0x3715 JUMP JUMPDEST PUSH1 0xB DUP2 ADD SLOAD PUSH1 0xA DUP3 ADD SLOAD GT SWAP2 POP PUSH2 0x370F JUMP JUMPDEST PUSH1 0xD DUP2 ADD SLOAD TIMESTAMP GT ISZERO SWAP2 POP PUSH2 0x3709 JUMP JUMPDEST PUSH1 0xC DUP2 ADD SLOAD TIMESTAMP LT ISZERO SWAP2 POP PUSH2 0x3703 JUMP JUMPDEST PUSH1 0x4 CALLDATALOAD SWAP1 PUSH1 0x1 PUSH1 0x1 PUSH1 0xA0 SHL SUB DUP3 AND DUP3 SUB PUSH2 0x2E1 JUMPI JUMP JUMPDEST SWAP1 PUSH1 0x1 DUP3 DUP2 SHR SWAP3 AND DUP1 ISZERO PUSH2 0x37AA JUMPI JUMPDEST PUSH1 0x20 DUP4 LT EQ PUSH2 0x3794 JUMPI JUMP JUMPDEST PUSH4 0x4E487B71 PUSH1 0xE0 SHL PUSH1 0x0 MSTORE PUSH1 0x22 PUSH1 0x4 MSTORE PUSH1 0x24 PUSH1 0x0 REVERT JUMPDEST SWAP2 PUSH1 0x7F AND SWAP2 PUSH2 0x3789 JUMP JUMPDEST PUSH2 0x260 DUP2 ADD SWAP1 DUP2 LT PUSH1 0x1 PUSH1 0x1 PUSH1 0x40 SHL SUB DUP3 GT OR PUSH2 0x79E JUMPI PUSH1 0x40 MSTORE JUMP JUMPDEST SWAP1 PUSH1 0x1F DUP1 NOT SWAP2 ADD AND DUP2 ADD SWAP1 DUP2 LT PUSH1 0x1 PUSH1 0x1 PUSH1 0x40 SHL SUB DUP3 GT OR PUSH2 0x79E JUMPI PUSH1 0x40 MSTORE JUMP JUMPDEST SWAP1 PUSH1 0x40 MLOAD SWAP2 DUP3 PUSH1 0x0 DUP3 SLOAD SWAP3 PUSH2 0x3805 DUP5 PUSH2 0x377A JUMP JUMPDEST DUP1 DUP5 MSTORE SWAP4 PUSH1 0x1 DUP2 AND SWAP1 DUP2 ISZERO PUSH2 0x3873 JUMPI POP PUSH1 0x1 EQ PUSH2 0x382C JUMPI JUMPDEST POP PUSH2 0x382A SWAP3 POP SUB DUP4 PUSH2 0x37D0 JUMP JUMPDEST JUMP JUMPDEST SWAP1 POP PUSH1 0x0 SWAP3 SWAP2 SWAP3 MSTORE PUSH1 0x20 PUSH1 0x0 KECCAK256 SWAP1 PUSH1 0x0 SWAP2 JUMPDEST DUP2 DUP4 LT PUSH2 0x3857 JUMPI POP POP SWAP1 PUSH1 0x20 PUSH2 0x382A SWAP3 DUP3 ADD ADD CODESIZE PUSH2 0x381D JUMP JUMPDEST PUSH1 0x20 SWAP2 SWAP4 POP DUP1 PUSH1 0x1 SWAP2 SLOAD DUP4 DUP6 DUP10 ADD ADD MSTORE ADD SWAP2 ADD SWAP1 SWAP2 DUP5 SWAP3 PUSH2 0x383E JUMP JUMPDEST SWAP1 POP PUSH1 0x20 SWAP3 POP PUSH2 0x382A SWAP5 SWAP2 POP PUSH1 0xFF NOT AND DUP3 DUP5 ADD MSTORE ISZERO ISZERO PUSH1 0x5 SHL DUP3 ADD ADD CODESIZE PUSH2 0x381D JUMP JUMPDEST PUSH1 0x0 JUMPDEST DUP4 DUP2 LT PUSH2 0x38A8 JUMPI POP POP PUSH1 0x0 SWAP2 ADD MSTORE JUMP JUMPDEST DUP2 DUP2 ADD MLOAD DUP4 DUP3 ADD MSTORE PUSH1 0x20 ADD PUSH2 0x3898 JUMP JUMPDEST SWAP1 PUSH1 0x20 SWAP2 PUSH2 0x38D1 DUP2 MLOAD DUP1 SWAP3 DUP2 DUP6 MSTORE DUP6 DUP1 DUP7 ADD SWAP2 ADD PUSH2 0x3895 JUMP JUMPDEST PUSH1 0x1F ADD PUSH1 0x1F NOT AND ADD ADD SWAP1 JUMP JUMPDEST PUSH1 0x20 PUSH1 0x40 DUP2 DUP4 ADD SWAP3 DUP3 DUP2 MSTORE DUP5 MLOAD DUP1 SWAP5 MSTORE ADD SWAP3 ADD SWAP1 PUSH1 0x0 JUMPDEST DUP2 DUP2 LT PUSH2 0x3901 JUMPI POP POP POP SWAP1 JUMP JUMPDEST DUP3 MLOAD DUP5 MSTORE PUSH1 0x20 SWAP4 DUP5 ADD SWAP4 SWAP1 SWAP3 ADD SWAP2 PUSH1 0x1 ADD PUSH2 0x38F4 JUMP JUMPDEST DUP2 PUSH1 0x1F DUP3 ADD SLT ISZERO PUSH2 0x2E1 JUMPI DUP1 CALLDATALOAD SWAP1 PUSH1 0x1 PUSH1 0x1 PUSH1 0x40 SHL SUB DUP3 GT PUSH2 0x79E JUMPI PUSH1 0x40 MLOAD SWAP3 PUSH2 0x394B PUSH1 0x1F DUP5 ADD PUSH1 0x1F NOT AND PUSH1 0x20 ADD DUP6 PUSH2 0x37D0 JUMP JUMPDEST DUP3 DUP5 MSTORE PUSH1 0x20 DUP4 DUP4 ADD ADD GT PUSH2 0x2E1 JUMPI DUP2 PUSH1 0x0 SWAP3 PUSH1 0x20 DUP1 SWAP4 ADD DUP4 DUP7 ADD CALLDATACOPY DUP4 ADD ADD MSTORE SWAP1 JUMP JUMPDEST PUSH1 0x1 PUSH1 0x1 PUSH1 0x40 SHL SUB DUP2 GT PUSH2 0x79E JUMPI PUSH1 0x5 SHL PUSH1 0x20 ADD SWAP1 JUMP JUMPDEST SWAP1 DUP1 PUSH1 0x1F DUP4 ADD SLT ISZERO PUSH2 0x2E1 JUMPI DUP2 CALLDATALOAD PUSH2 0x399B DUP2 PUSH2 0x396D JUMP JUMPDEST SWAP3 PUSH2 0x39A9 PUSH1 0x40 MLOAD SWAP5 DUP6 PUSH2 0x37D0 JUMP JUMPDEST DUP2 DUP5 MSTORE PUSH1 0x20 DUP1 DUP6 ADD SWAP3 PUSH1 0x5 SHL DUP3 ADD ADD SWAP2 DUP4 DUP4 GT PUSH2 0x2E1 JUMPI PUSH1 0x20 DUP3 ADD SWAP1 JUMPDEST DUP4 DUP3 LT PUSH2 0x39D5 JUMPI POP POP POP POP POP SWAP1 JUMP JUMPDEST DUP2 CALLDATALOAD PUSH1 0x1 PUSH1 0x1 PUSH1 0x40 SHL SUB DUP2 GT PUSH2 0x2E1 JUMPI PUSH1 0x20 SWAP2 PUSH2 0x39F7 DUP8 DUP5 DUP1 SWAP5 DUP9 ADD ADD PUSH2 0x3917 JUMP JUMPDEST DUP2 MSTORE ADD SWAP2 ADD SWAP1 PUSH2 0x39C6 JUMP JUMPDEST PUSH1 0x20 DUP2 MSTORE DUP2 MLOAD PUSH1 0x20 DUP3 ADD MSTORE PUSH2 0x3A88 PUSH2 0x3A72 PUSH2 0x3A5C PUSH2 0x3A31 PUSH1 0x20 DUP7 ADD MLOAD PUSH2 0x260 PUSH1 0x40 DUP8 ADD MSTORE PUSH2 0x280 DUP7 ADD SWAP1 PUSH2 0x38B8 JUMP JUMPDEST PUSH1 0x40 DUP7 ADD MLOAD PUSH1 0x1 PUSH1 0x1 PUSH1 0xA0 SHL SUB AND PUSH1 0x60 DUP7 DUP2 ADD SWAP2 SWAP1 SWAP2 MSTORE DUP7 ADD MLOAD DUP6 DUP3 SUB PUSH1 0x1F NOT ADD PUSH1 0x80 DUP8 ADD MSTORE PUSH2 0x38B8 JUMP JUMPDEST PUSH1 0x80 DUP6 ADD MLOAD DUP5 DUP3 SUB PUSH1 0x1F NOT ADD PUSH1 0xA0 DUP7 ADD MSTORE PUSH2 0x38B8 JUMP JUMPDEST PUSH1 0xA0 DUP5 ADD MLOAD DUP4 DUP3 SUB PUSH1 0x1F NOT ADD PUSH1 0xC0 DUP6 ADD MSTORE PUSH2 0x38B8 JUMP JUMPDEST PUSH1 0xC0 DUP4 ADD MLOAD SWAP1 PUSH1 0x1F NOT DUP4 DUP3 SUB ADD PUSH1 0xE0 DUP5 ADD MSTORE DUP2 MLOAD DUP1 DUP3 MSTORE PUSH1 0x20 DUP3 ADD SWAP2 PUSH1 0x20 DUP1 DUP4 PUSH1 0x5 SHL DUP4 ADD ADD SWAP5 ADD SWAP3 PUSH1 0x0 SWAP2 JUMPDEST DUP4 DUP4 LT PUSH2 0x3B72 JUMPI POP POP POP POP POP PUSH2 0x240 PUSH2 0x3B69 PUSH2 0x3B47 PUSH2 0x260 SWAP4 PUSH1 0xE0 DUP8 ADD MLOAD PUSH2 0x100 DUP8 ADD MSTORE PUSH2 0x100 DUP8 ADD MLOAD PUSH2 0x120 DUP8 ADD MSTORE PUSH2 0x120 DUP8 ADD MLOAD PUSH2 0x140 DUP8 ADD MSTORE PUSH2 0x140 DUP8 ADD MLOAD PUSH2 0x160 DUP8 ADD MSTORE PUSH2 0x160 DUP8 ADD MLOAD PUSH2 0x180 DUP8 ADD MSTORE PUSH2 0x180 DUP8 ADD MLOAD PUSH2 0x1A0 DUP8 ADD MSTORE PUSH2 0x1A0 DUP8 ADD MLOAD PUSH2 0x1C0 DUP8 ADD MSTORE PUSH2 0x1C0 DUP8 ADD MLOAD ISZERO ISZERO PUSH2 0x1E0 DUP8 ADD MSTORE PUSH2 0x1E0 DUP8 ADD MLOAD PUSH1 0x1F NOT DUP8 DUP4 SUB ADD PUSH2 0x200 DUP9 ADD MSTORE PUSH2 0x38B8 JUMP JUMPDEST PUSH2 0x200 DUP7 ADD MLOAD PUSH2 0x220 DUP7 ADD MSTORE PUSH2 0x220 DUP7 ADD MLOAD PUSH1 0x1F NOT DUP7 DUP4 SUB ADD DUP5 DUP8 ADD MSTORE PUSH2 0x38B8 JUMP JUMPDEST SWAP4 ADD MLOAD SWAP2 ADD MSTORE SWAP1 JUMP JUMPDEST SWAP1 SWAP2 SWAP3 SWAP4 SWAP5 PUSH1 0x20 DUP1 PUSH2 0x3B90 PUSH1 0x1 SWAP4 PUSH1 0x1F NOT DUP7 DUP3 SUB ADD DUP8 MSTORE DUP10 MLOAD PUSH2 0x38B8 JUMP JUMPDEST SWAP8 ADD SWAP4 ADD SWAP4 ADD SWAP2 SWAP4 SWAP3 SWAP1 PUSH2 0x3AB5 JUMP JUMPDEST DUP1 SLOAD DUP3 LT ISZERO PUSH2 0x3BB7 JUMPI PUSH1 0x0 MSTORE PUSH1 0x20 PUSH1 0x0 KECCAK256 ADD SWAP1 PUSH1 0x0 SWAP1 JUMP JUMPDEST PUSH4 0x4E487B71 PUSH1 0xE0 SHL PUSH1 0x0 MSTORE PUSH1 0x32 PUSH1 0x4 MSTORE PUSH1 0x24 PUSH1 0x0 REVERT JUMPDEST PUSH1 0x20 PUSH2 0x3BE6 SWAP2 DUP2 PUSH1 0x40 MLOAD SWAP4 DUP3 DUP6 DUP1 SWAP5 MLOAD SWAP4 DUP5 SWAP3 ADD PUSH2 0x3895 JUMP JUMPDEST DUP2 ADD PUSH1 0x5 DUP2 MSTORE SUB ADD SWAP1 KECCAK256 SWAP1 JUMP JUMPDEST ISZERO PUSH2 0x3BFA JUMPI JUMP JUMPDEST PUSH1 0x40 MLOAD PUSH3 0x461BCD PUSH1 0xE5 SHL DUP2 MSTORE PUSH1 0x20 PUSH1 0x4 DUP3 ADD MSTORE PUSH1 0x17 PUSH1 0x24 DUP3 ADD MSTORE PUSH32 0x43616D706169676E20646F6573206E6F74206578697374000000000000000000 PUSH1 0x44 DUP3 ADD MSTORE PUSH1 0x64 SWAP1 REVERT JUMPDEST SWAP1 PUSH2 0x3C49 DUP3 PUSH2 0x396D JUMP JUMPDEST PUSH2 0x3C56 PUSH1 0x40 MLOAD SWAP2 DUP3 PUSH2 0x37D0 JUMP JUMPDEST DUP3 DUP2 MSTORE DUP1 SWAP3 PUSH2 0x3C67 PUSH1 0x1F NOT SWAP2 PUSH2 0x396D JUMP JUMPDEST ADD SWAP1 PUSH1 0x20 CALLDATASIZE SWAP2 ADD CALLDATACOPY JUMP JUMPDEST DUP1 MLOAD DUP3 LT ISZERO PUSH2 0x3BB7 JUMPI PUSH1 0x20 SWAP2 PUSH1 0x5 SHL ADD ADD SWAP1 JUMP JUMPDEST PUSH1 0x0 NOT DUP2 EQ PUSH2 0x3C94 JUMPI PUSH1 0x1 ADD SWAP1 JUMP JUMPDEST PUSH4 0x4E487B71 PUSH1 0xE0 SHL PUSH1 0x0 MSTORE PUSH1 0x11 PUSH1 0x4 MSTORE PUSH1 0x24 PUSH1 0x0 REVERT JUMPDEST ISZERO PUSH2 0x3CB1 JUMPI JUMP JUMPDEST PUSH1 0x40 MLOAD PUSH3 0x461BCD PUSH1 0xE5 SHL DUP2 MSTORE PUSH1 0x20 PUSH1 0x4 DUP3 ADD MSTORE PUSH1 0x21 PUSH1 0x24 DUP3 ADD MSTORE PUSH32 0x43616D706169676E20494420737472696E6720646F6573206E6F742065786973 PUSH1 0x44 DUP3 ADD MSTORE PUSH1 0x1D PUSH1 0xFA SHL PUSH1 0x64 DUP3 ADD MSTORE PUSH1 0x84 SWAP1 REVERT JUMPDEST ISZERO PUSH2 0x3D07 JUMPI JUMP JUMPDEST PUSH1 0x40 MLOAD PUSH3 0x461BCD PUSH1 0xE5 SHL DUP2 MSTORE PUSH1 0x20 PUSH1 0x4 DUP3 ADD MSTORE PUSH1 0x2C PUSH1 0x24 DUP3 ADD MSTORE PUSH32 0x4F6E6C792063616D706169676E2063726561746F722063616E2063616C6C2074 PUSH1 0x44 DUP3 ADD MSTORE PUSH12 0x3434B990333AB731BA34B7B7 PUSH1 0xA1 SHL PUSH1 0x64 DUP3 ADD MSTORE PUSH1 0x84 SWAP1 REVERT JUMPDEST ISZERO PUSH2 0x3D68 JUMPI JUMP JUMPDEST PUSH1 0x40 MLOAD PUSH3 0x461BCD PUSH1 0xE5 SHL DUP2 MSTORE PUSH1 0x20 PUSH1 0x4 DUP3 ADD MSTORE PUSH1 0x16 PUSH1 0x24 DUP3 ADD MSTORE PUSH22 0x43616D706169676E206973206E6F7420616374697665 PUSH1 0x50 SHL PUSH1 0x44 DUP3 ADD MSTORE PUSH1 0x64 SWAP1 REVERT JUMPDEST ISZERO PUSH2 0x3DAD JUMPI JUMP JUMPDEST PUSH1 0x40 MLOAD PUSH3 0x461BCD PUSH1 0xE5 SHL DUP2 MSTORE PUSH1 0x20 PUSH1 0x4 DUP3 ADD MSTORE PUSH1 0x12 PUSH1 0x24 DUP3 ADD MSTORE PUSH18 0x10D85B5C185A59DB881A185CC8195B991959 PUSH1 0x72 SHL PUSH1 0x44 DUP3 ADD MSTORE PUSH1 0x64 SWAP1 REVERT JUMPDEST DUP2 DUP2 LT PUSH2 0x3DF2 JUMPI POP POP JUMP JUMPDEST PUSH1 0x0 DUP2 SSTORE PUSH1 0x1 ADD PUSH2 0x3DE7 JUMP JUMPDEST PUSH1 0x40 MLOAD SWAP1 PUSH2 0x3E0B DUP3 PUSH2 0x37B4 JUMP JUMPDEST PUSH1 0x0 PUSH2 0x240 DUP4 DUP3 DUP2 MSTORE PUSH1 0x60 PUSH1 0x20 DUP3 ADD MSTORE DUP3 PUSH1 0x40 DUP3 ADD MSTORE PUSH1 0x60 DUP1 DUP3 ADD MSTORE PUSH1 0x60 PUSH1 0x80 DUP3 ADD MSTORE PUSH1 0x60 PUSH1 0xA0 DUP3 ADD MSTORE PUSH1 0x60 PUSH1 0xC0 DUP3 ADD MSTORE DUP3 PUSH1 0xE0 DUP3 ADD MSTORE DUP3 PUSH2 0x100 DUP3 ADD MSTORE DUP3 PUSH2 0x120 DUP3 ADD MSTORE DUP3 PUSH2 0x140 DUP3 ADD MSTORE DUP3 PUSH2 0x160 DUP3 ADD MSTORE DUP3 PUSH2 0x180 DUP3 ADD MSTORE DUP3 PUSH2 0x1A0 DUP3 ADD MSTORE DUP3 PUSH2 0x1C0 DUP3 ADD MSTORE PUSH1 0x60 PUSH2 0x1E0 DUP3 ADD MSTORE DUP3 PUSH2 0x200 DUP3 ADD MSTORE PUSH1 0x60 PUSH2 0x220 DUP3 ADD MSTORE ADD MSTORE JUMP JUMPDEST SWAP1 DUP2 PUSH1 0x20 SWAP2 SUB SLT PUSH2 0x2E1 JUMPI MLOAD DUP1 ISZERO ISZERO DUP2 SUB PUSH2 0x2E1 JUMPI SWAP1 JUMP JUMPDEST DUP1 ISZERO PUSH2 0x3C94 JUMPI PUSH1 0x0 NOT ADD SWAP1 JUMP JUMPDEST ISZERO PUSH2 0x3EBA JUMPI JUMP JUMPDEST PUSH1 0x40 MLOAD PUSH3 0x461BCD PUSH1 0xE5 SHL DUP2 MSTORE PUSH1 0x20 PUSH1 0x4 DUP3 ADD MSTORE PUSH1 0x18 PUSH1 0x24 DUP3 ADD MSTORE PUSH32 0x557365726E616D652063616E6E6F7420626520656D7074790000000000000000 PUSH1 0x44 DUP3 ADD MSTORE PUSH1 0x64 SWAP1 REVERT JUMPDEST ISZERO PUSH2 0x3F06 JUMPI JUMP JUMPDEST PUSH1 0x40 MLOAD PUSH3 0x461BCD PUSH1 0xE5 SHL DUP2 MSTORE PUSH1 0x20 PUSH1 0x4 DUP3 ADD MSTORE PUSH1 0x11 PUSH1 0x24 DUP3 ADD MSTORE PUSH17 0x557365726E616D6520746F6F206C6F6E67 PUSH1 0x78 SHL PUSH1 0x44 DUP3 ADD MSTORE PUSH1 0x64 SWAP1 REVERT JUMPDEST ISZERO PUSH2 0x3F46 JUMPI JUMP JUMPDEST PUSH1 0x40 MLOAD PUSH3 0x461BCD PUSH1 0xE5 SHL DUP2 MSTORE PUSH1 0x20 PUSH1 0x4 DUP3 ADD MSTORE PUSH1 0x16 PUSH1 0x24 DUP3 ADD MSTORE PUSH22 0x2AB9B2B93730B6B29030B63932B0B23C903A30B5B2B7 PUSH1 0x51 SHL PUSH1 0x44 DUP3 ADD MSTORE PUSH1 0x64 SWAP1 REVERT JUMPDEST SWAP2 SWAP1 DUP3 SUB SWAP2 DUP3 GT PUSH2 0x3C94 JUMPI JUMP JUMPDEST SWAP2 SWAP1 DUP3 ADD DUP1 SWAP3 GT PUSH2 0x3C94 JUMPI JUMP JUMPDEST PUSH1 0x0 SLOAD PUSH1 0x1 PUSH1 0x1 PUSH1 0xA0 SHL SUB AND CALLER SUB PUSH2 0x3FB2 JUMPI JUMP JUMPDEST PUSH1 0x64 PUSH1 0x40 MLOAD PUSH3 0x461BCD PUSH1 0xE5 SHL DUP2 MSTORE PUSH1 0x20 PUSH1 0x4 DUP3 ADD MSTORE PUSH1 0x20 PUSH1 0x24 DUP3 ADD MSTORE PUSH32 0x4F776E61626C653A2063616C6C6572206973206E6F7420746865206F776E6572 PUSH1 0x44 DUP3 ADD MSTORE REVERT INVALID LOG2 PUSH5 0x6970667358 0x22 SLT KECCAK256 LOG1 PUSH27 0xED482E8EA8B278E3C120C335CF334076E42A007CEA9ED2C39A77AB PUSH28 0xC1D964736F6C634300081C0033000000000000000000000000000000 "
        },
        "methodIdentifiers": {
          "MAX_USERNAME_EDITS()": "a92e5288",
          "MAX_USERNAME_LENGTH()": "1cd896c1",
          "activateCampaign(uint256)": "493f1726",
          "activeCampaignCount()": "6cb0b50e",
          "campaignCount()": "7274e30d",
          "campaignIdStringExists(string)": "b863191d",
          "campaignIdStringToId(string)": "bd3c3832",
          "campaigns(uint256)": "141961bc",
          "cancelCampaign(uint256)": "45598b4a",
          "contributionsContract()": "de04bbd2",
          "contributorTotalEarned(address)": "b388e162",
          "createCampaign((string,string,string,string,string[],uint256,uint256,uint256,uint256,uint256,string,uint256,string,uint256))": "a54864f1",
          "deactivateCampaign(uint256)": "7eca30fe",
          "defaultPlatformFee()": "1c34212c",
          "editUsername(string)": "51e700cc",
          "escrowContract()": "e42a96e7",
          "getActiveCampaigns()": "c362b156",
          "getAddressCampaignCount(address)": "7b71f722",
          "getAddressTotalEarned(address)": "474e1a6f",
          "getAddressTotalSpent(address)": "a734cbfd",
          "getCampaignCount()": "6caa9218",
          "getCampaignCreator(uint256)": "15a92c5e",
          "getCampaignDetails(uint256)": "d993de62",
          "getCampaignDetailsByString(string)": "3e1d72c8",
          "getCampaignEncryptionPublicKey(uint256)": "cc22462c",
          "getCampaignIdFromString(string)": "1e93945a",
          "getCampaignRemainingBudget(uint256)": "3e8416ba",
          "getCampaignStatus(uint256)": "6c19e004",
          "getOwnerActiveCampaigns(address)": "1c9c9021",
          "getRewardThreshold(uint256)": "61e448cd",
          "getUnitPrice(uint256)": "64c0e52f",
          "getUsername(address)": "ce43c032",
          "getUsernameEditCount(address)": "11c2ccc0",
          "isAcceptingSubmissions(uint256)": "07810ae4",
          "isCampaignOwner(uint256,address)": "ee7cfc76",
          "owner()": "8da5cb5b",
          "ownerActiveCampaigns(address)": "b6a7a7d9",
          "ownerCampaigns(address,uint256)": "a56a2759",
          "ownerTotalSpent(address)": "285bc8d1",
          "recordSubmission(uint256)": "7cf249df",
          "renounceOwnership()": "715018a6",
          "rewardToken()": "f7c618c1",
          "setContributionsContract(address)": "d599ba92",
          "setDefaultPlatformFee(uint256)": "fdd950c1",
          "setEscrowContract(address)": "f42375b5",
          "setUsername(string)": "ed59313a",
          "transferOwnership(address)": "f2fde38b",
          "updateCampaign(uint256,string,string,string,string[],uint256,string,string)": "2959195a",
          "usernameEditCount(address)": "f2f09ab7",
          "usernameExists(string)": "f309e3f9",
          "usernames(address)": "ee91877c"
        }
      }
    }
  }
}