{
  "contracts/ContributionManager.sol": {
    "ContributionManager": {
      "abi": [
        {
          "inputs": [
            {
              "internalType": "address",
              "name": "_campaignManager",
              "type": "address"
            },
            {
              "internalType": "address",
              "name": "_escrowManager",
              "type": "address"
            }
          ],
          "stateMutability": "nonpayable",
          "type": "constructor"
        },
        {
          "anonymous": false,
          "inputs": [
            {
              "indexed": true,
              "internalType": "uint256",
              "name": "contributionId",
              "type": "uint256"
            },
            {
              "indexed": true,
              "internalType": "uint256",
              "name": "campaignId",
              "type": "uint256"
            },
            {
              "indexed": true,
              "internalType": "address",
              "name": "contributor",
              "type": "address"
            },
            {
              "indexed": false,
              "internalType": "string",
              "name": "encryptedDataHash",
              "type": "string"
            },
            {
              "indexed": false,
              "internalType": "uint256",
              "name": "score",
              "type": "uint256"
            },
            {
              "indexed": false,
              "internalType": "bool",
              "name": "qualified",
              "type": "bool"
            },
            {
              "indexed": false,
              "internalType": "uint256",
              "name": "timestamp",
              "type": "uint256"
            }
          ],
          "name": "ContributionSubmitted",
          "type": "event"
        },
        {
          "anonymous": false,
          "inputs": [
            {
              "indexed": true,
              "internalType": "address",
              "name": "previousOwner",
              "type": "address"
            },
            {
              "indexed": true,
              "internalType": "address",
              "name": "newOwner",
              "type": "address"
            }
          ],
          "name": "OwnershipTransferred",
          "type": "event"
        },
        {
          "anonymous": false,
          "inputs": [
            {
              "indexed": false,
              "internalType": "address",
              "name": "contractAddress",
              "type": "address"
            }
          ],
          "name": "ReputationContractUpdated",
          "type": "event"
        },
        {
          "inputs": [
            {
              "internalType": "address",
              "name": "",
              "type": "address"
            },
            {
              "internalType": "uint256",
              "name": "",
              "type": "uint256"
            }
          ],
          "name": "addressCampaignContributions",
          "outputs": [
            {
              "internalType": "uint256",
              "name": "",
              "type": "uint256"
            }
          ],
          "stateMutability": "view",
          "type": "function"
        },
        {
          "inputs": [
            {
              "internalType": "address",
              "name": "",
              "type": "address"
            }
          ],
          "name": "addressQualifiedContributions",
          "outputs": [
            {
              "internalType": "uint256",
              "name": "",
              "type": "uint256"
            }
          ],
          "stateMutability": "view",
          "type": "function"
        },
        {
          "inputs": [
            {
              "internalType": "address",
              "name": "",
              "type": "address"
            }
          ],
          "name": "addressTotalContributions",
          "outputs": [
            {
              "internalType": "uint256",
              "name": "",
              "type": "uint256"
            }
          ],
          "stateMutability": "view",
          "type": "function"
        },
        {
          "inputs": [],
          "name": "campaignManager",
          "outputs": [
            {
              "internalType": "contract ICampaignManager",
              "name": "",
              "type": "address"
            }
          ],
          "stateMutability": "view",
          "type": "function"
        },
        {
          "inputs": [
            {
              "internalType": "uint256",
              "name": "",
              "type": "uint256"
            },
            {
              "internalType": "uint256",
              "name": "",
              "type": "uint256"
            }
          ],
          "name": "campaignSubmissions",
          "outputs": [
            {
              "internalType": "uint256",
              "name": "",
              "type": "uint256"
            }
          ],
          "stateMutability": "view",
          "type": "function"
        },
        {
          "inputs": [],
          "name": "contributionCount",
          "outputs": [
            {
              "internalType": "uint256",
              "name": "",
              "type": "uint256"
            }
          ],
          "stateMutability": "view",
          "type": "function"
        },
        {
          "inputs": [
            {
              "internalType": "uint256",
              "name": "_contributionId",
              "type": "uint256"
            }
          ],
          "name": "contributionExists",
          "outputs": [
            {
              "internalType": "bool",
              "name": "",
              "type": "bool"
            }
          ],
          "stateMutability": "view",
          "type": "function"
        },
        {
          "inputs": [
            {
              "internalType": "uint256",
              "name": "",
              "type": "uint256"
            }
          ],
          "name": "contributions",
          "outputs": [
            {
              "internalType": "uint256",
              "name": "id",
              "type": "uint256"
            },
            {
              "internalType": "uint256",
              "name": "campaignId",
              "type": "uint256"
            },
            {
              "internalType": "address",
              "name": "contributor",
              "type": "address"
            },
            {
              "internalType": "string",
              "name": "encryptedDataHash",
              "type": "string"
            },
            {
              "internalType": "string",
              "name": "encryptedAESKey",
              "type": "string"
            },
            {
              "internalType": "string",
              "name": "metadataURI",
              "type": "string"
            },
            {
              "internalType": "uint256",
              "name": "timestamp",
              "type": "uint256"
            },
            {
              "internalType": "uint256",
              "name": "score",
              "type": "uint256"
            },
            {
              "internalType": "bool",
              "name": "qualified",
              "type": "bool"
            }
          ],
          "stateMutability": "view",
          "type": "function"
        },
        {
          "inputs": [
            {
              "internalType": "address",
              "name": "",
              "type": "address"
            },
            {
              "internalType": "uint256",
              "name": "",
              "type": "uint256"
            }
          ],
          "name": "contributorSubmissions",
          "outputs": [
            {
              "internalType": "uint256",
              "name": "",
              "type": "uint256"
            }
          ],
          "stateMutability": "view",
          "type": "function"
        },
        {
          "inputs": [],
          "name": "escrowManager",
          "outputs": [
            {
              "internalType": "contract IEscrowManager",
              "name": "",
              "type": "address"
            }
          ],
          "stateMutability": "view",
          "type": "function"
        },
        {
          "inputs": [
            {
              "internalType": "address",
              "name": "_contributor",
              "type": "address"
            },
            {
              "internalType": "uint256",
              "name": "_campaignId",
              "type": "uint256"
            }
          ],
          "name": "getAddressContributionCount",
          "outputs": [
            {
              "internalType": "uint256",
              "name": "",
              "type": "uint256"
            }
          ],
          "stateMutability": "view",
          "type": "function"
        },
        {
          "inputs": [
            {
              "internalType": "address",
              "name": "_contributor",
              "type": "address"
            }
          ],
          "name": "getAddressTotalContributions",
          "outputs": [
            {
              "internalType": "uint256",
              "name": "totalSubmitted",
              "type": "uint256"
            },
            {
              "internalType": "uint256",
              "name": "totalQualified",
              "type": "uint256"
            }
          ],
          "stateMutability": "view",
          "type": "function"
        },
        {
          "inputs": [
            {
              "internalType": "uint256",
              "name": "_campaignId",
              "type": "uint256"
            }
          ],
          "name": "getCampaignSubmissions",
          "outputs": [
            {
              "internalType": "uint256[]",
              "name": "",
              "type": "uint256[]"
            }
          ],
          "stateMutability": "view",
          "type": "function"
        },
        {
          "inputs": [
            {
              "internalType": "uint256",
              "name": "_contributionId",
              "type": "uint256"
            }
          ],
          "name": "getContributionDetails",
          "outputs": [
            {
              "components": [
                {
                  "internalType": "uint256",
                  "name": "id",
                  "type": "uint256"
                },
                {
                  "internalType": "uint256",
                  "name": "campaignId",
                  "type": "uint256"
                },
                {
                  "internalType": "address",
                  "name": "contributor",
                  "type": "address"
                },
                {
                  "internalType": "string",
                  "name": "encryptedDataHash",
                  "type": "string"
                },
                {
                  "internalType": "string",
                  "name": "encryptedAESKey",
                  "type": "string"
                },
                {
                  "internalType": "string",
                  "name": "metadataURI",
                  "type": "string"
                },
                {
                  "internalType": "uint256",
                  "name": "timestamp",
                  "type": "uint256"
                },
                {
                  "internalType": "uint256",
                  "name": "score",
                  "type": "uint256"
                },
                {
                  "internalType": "bool",
                  "name": "qualified",
                  "type": "bool"
                }
              ],
              "internalType": "struct ContributionManager.Contribution",
              "name": "",
              "type": "tuple"
            }
          ],
          "stateMutability": "view",
          "type": "function"
        },
        {
          "inputs": [],
          "name": "getContributionStore",
          "outputs": [
            {
              "components": [
                {
                  "internalType": "uint256",
                  "name": "id",
                  "type": "uint256"
                },
                {
                  "internalType": "uint256",
                  "name": "campaignId",
                  "type": "uint256"
                },
                {
                  "internalType": "address",
                  "name": "contributor",
                  "type": "address"
                },
                {
                  "internalType": "string",
                  "name": "encryptedDataHash",
                  "type": "string"
                },
                {
                  "internalType": "string",
                  "name": "encryptedAESKey",
                  "type": "string"
                },
                {
                  "internalType": "string",
                  "name": "metadataURI",
                  "type": "string"
                },
                {
                  "internalType": "uint256",
                  "name": "timestamp",
                  "type": "uint256"
                },
                {
                  "internalType": "uint256",
                  "name": "score",
                  "type": "uint256"
                },
                {
                  "internalType": "bool",
                  "name": "qualified",
                  "type": "bool"
                }
              ],
              "internalType": "struct ContributionManager.Contribution[]",
              "name": "",
              "type": "tuple[]"
            }
          ],
          "stateMutability": "view",
          "type": "function"
        },
        {
          "inputs": [
            {
              "internalType": "address",
              "name": "_contributor",
              "type": "address"
            }
          ],
          "name": "getContributorSubmissions",
          "outputs": [
            {
              "internalType": "uint256[]",
              "name": "",
              "type": "uint256[]"
            }
          ],
          "stateMutability": "view",
          "type": "function"
        },
        {
          "inputs": [],
          "name": "owner",
          "outputs": [
            {
              "internalType": "address",
              "name": "",
              "type": "address"
            }
          ],
          "stateMutability": "view",
          "type": "function"
        },
        {
          "inputs": [],
          "name": "renounceOwnership",
          "outputs": [],
          "stateMutability": "nonpayable",
          "type": "function"
        },
        {
          "inputs": [],
          "name": "reputationContract",
          "outputs": [
            {
              "internalType": "contract IReputation",
              "name": "",
              "type": "address"
            }
          ],
          "stateMutability": "view",
          "type": "function"
        },
        {
          "inputs": [
            {
              "internalType": "address",
              "name": "_reputationContract",
              "type": "address"
            }
          ],
          "name": "setReputationContract",
          "outputs": [],
          "stateMutability": "nonpayable",
          "type": "function"
        },
        {
          "inputs": [
            {
              "internalType": "bytes32",
              "name": "",
              "type": "bytes32"
            }
          ],
          "name": "submissionHashes",
          "outputs": [
            {
              "internalType": "bool",
              "name": "",
              "type": "bool"
            }
          ],
          "stateMutability": "view",
          "type": "function"
        },
        {
          "inputs": [
            {
              "internalType": "uint256",
              "name": "_campaignId",
              "type": "uint256"
            },
            {
              "internalType": "string",
              "name": "_encryptedDataHash",
              "type": "string"
            },
            {
              "internalType": "string",
              "name": "_encryptedAESKey",
              "type": "string"
            },
            {
              "internalType": "string",
              "name": "_metadataURI",
              "type": "string"
            },
            {
              "internalType": "uint256",
              "name": "_score",
              "type": "uint256"
            }
          ],
          "name": "submitContribution",
          "outputs": [
            {
              "internalType": "uint256",
              "name": "",
              "type": "uint256"
            }
          ],
          "stateMutability": "nonpayable",
          "type": "function"
        },
        {
          "inputs": [
            {
              "internalType": "address",
              "name": "newOwner",
              "type": "address"
            }
          ],
          "name": "transferOwnership",
          "outputs": [],
          "stateMutability": "nonpayable",
          "type": "function"
        }
      ],
      "evm": {
        "bytecode": {
          "linkReferences": {},
          "object": "6080346100da57601f6119e138819003918201601f19168301916001600160401b038311848410176100df5780849260409485528339810103126100da57610052602061004b836100f5565b92016100f5565b60008054336001600160a01b0319821681178355604051949290916001600160a01b0316907f8be0079c531659141344cd1fd0a4f28419497f9722a3daafe3b4186f6b6457e09080a360018055600a80546001600160a01b039283166001600160a01b031991821617909155600b80549390921692169190911790556118d7908161010a8239f35b600080fd5b634e487b7160e01b600052604160045260246000fd5b51906001600160a01b03821682036100da5756fe608080604052600436101561001357600080fd5b600090813560e01c9081630b7a0f55146114695750806310d6ab6b146112f05780631cee07001461122057806340f77f3a14610d1e5780634a9aef68146111ae578063511e471f146111755780635b18056b14611157578063715018a6146110fd57806387bc1425146110d45780638ab83598146110a55780638da5cb5b1461107e5780639061b1a914610f6a5780639437e4bb14610ef65780639584660f14610e885780639aac93ce14610e655780639e342dc414610e1d578063c12255c414610df4578063d9303b6f14610daa578063ea4ef12614610d61578063f2f6824914610d1e578063f2fde38b14610c58578063f7aea860146101495763fb5e76e61461011e57600080fd5b34610146578060031936011261014657600a546040516001600160a01b039091168152602090f35b80fd5b50346101465760a03660031901126101465760043560243567ffffffffffffffff81116107995761017e903690600401611721565b9160443567ffffffffffffffff81116105a25761019f903690600401611721565b9160643567ffffffffffffffff8111610799576101c0903690600401611721565b9260843592600260015414610c13576002600155600c546001600160a01b031680610bcb575b50600a546040516301e042b960e21b81526004810185905290602090829060249082906001600160a01b03165afa908115610597578291610b90575b5015610b3d5760405160208101908482523360601b60408201526102666054828a51610255818d602086860191016114b5565b81010301601f1981018352826115f3565b519020808252600660205260ff604083205416610af8578152600660209081526040808320805460ff19166001179055600a5490516361e448cd60e01b8152600481018690529190829060249082906001600160a01b03165afa908115610597578291610ac6575b508410159160025495604051906102e4826115c0565b8782526020820192868452604083019133835260608401918b83526080850190815260a0850191825260c085019242845260e08601948b86526101008701978a89528d8a52600360205260408a2097518855516001880155600287019060018060a01b039051166bffffffffffffffffffffffff60a01b82541617905560038601905180519067ffffffffffffffff8211610ab25781906103858454611586565b601f8111610a62575b50602090601f83116001146109ff578b926109f4575b50508160011b916000199060031b1c19161790555b518051600486019167ffffffffffffffff82116109e05781906103dc8454611586565b601f8111610990575b50602090601f831160011461092d578a92610922575b50508160011b916000199060031b1c19161790555b518051600585019167ffffffffffffffff821161090e576104318354611586565b601f81116108c9575b50602090601f8311600114610860576008969594939291899183610855575b50508160011b916000199060031b1c19161790555b516006830155516007820155019051151560ff801983541691161790556104966002546117ea565b60025533815260046020526104ae856040832061180f565b82815260056020526104c3856040832061180f565b338152600860205281604082206104da81546117ea565b90556105a6575b600c546001600160a01b031680610552575b50507fe3176f1c77b6ae516a8e87a94008ec4af8cd9fbda69198d267ca67cfe0bb37256020958592610530604051926080845260808401906114d8565b958883015260408201524260608201528033950390a460018055604051908152f35b803b156105a25781809160246040518094819363ed34de0960e01b83523360048401525af1801561059757156104f35761058d8280926115f3565b61014657806104f3565b6040513d84823e3d90fd5b5080fd5b3381526009602052604081206105bc81546117ea565b9055338152600760205260408120838252602052604081206105de81546117ea565b9055600a54604051637cf249df60e01b815260048101859052906020908290602490829086906001600160a01b03165af190811561059757829161081e575b50600b546001600160a01b031690813b15610799578291604483926040519485938492637aa0e40960e11b845233600485015260248401525af1801561059757908291610809575b5050600c546001600160a01b03168061067f575b506104e1565b803b156105a25781809160246040518094819363ed34de0960e01b83523360048401525af18015610597579082916107f4575b5050600c546001600160a01b0316803b156105a2578180916024604051809481936334403e3b60e11b83523360048401525af18015610597579082916107df575b5050600a54604051630ad4962f60e11b81526004810185905290602090829060249082906001600160a01b03165afa90811561059757829161079d575b50600c546001600160a01b031690813b156107995760405163c9ef432960e01b81526001600160a01b0390911660048201529082908290602490829084905af1801561059757908291610784575b50610679565b8161078e916115f3565b61014657803861077e565b8280fd5b90506020813d6020116107d7575b816107b8602093836115f3565b810103126105a257516001600160a01b03811681036105a25738610730565b3d91506107ab565b816107e9916115f3565b6101465780386106f3565b816107fe916115f3565b6101465780386106b2565b81610813916115f3565b610146578038610665565b90506020813d60201161084d575b81610839602093836115f3565b8101031261084857513861061d565b600080fd5b3d915061082c565b015190503880610459565b8389528189209190601f1984168a5b8181106108b1575091600193918560089a999897969410610898575b505050811b01905561046e565b015160001960f88460031b161c1916905538808061088b565b9293602060018192878601518155019501930161086f565b83895260208920601f840160051c81019160208510610904575b601f0160051c01905b8181106108f9575061043a565b8981556001016108ec565b90915081906108e3565b634e487b7160e01b88526041600452602488fd5b0151905038806103fb565b848b52818b209250601f1984168b5b818110610978575090846001959493921061095f575b505050811b019055610410565b015160001960f88460031b161c19169055388080610952565b9293602060018192878601518155019501930161093c565b909150838a5260208a20601f840160051c810191602085106109d6575b90601f859493920160051c01905b8181106109c857506103e5565b8b81558493506001016109bb565b90915081906109ad565b634e487b7160e01b89526041600452602489fd5b0151905038806103a4565b848c52818c209250601f1984168c5b818110610a4a5750908460019594939210610a31575b505050811b0190556103b9565b015160001960f88460031b161c19169055388080610a24565b92936020600181928786015181550195019301610a0e565b909150838b5260208b20601f840160051c81019160208510610aa8575b90601f859493920160051c01905b818110610a9a575061038e565b8c8155849350600101610a8d565b9091508190610a7f565b634e487b7160e01b8a52604160045260248afd5b90506020813d602011610af0575b81610ae1602093836115f3565b810103126108485751386102ce565b3d9150610ad4565b60405162461bcd60e51b815260206004820152601d60248201527f4475706c6963617465207375626d697373696f6e2064657465637465640000006044820152606490fd5b60405162461bcd60e51b815260206004820152602560248201527f43616d706169676e206973206e6f7420616363657074696e67207375626d697360448201526473696f6e7360d81b6064820152608490fd5b90506020813d602011610bc3575b81610bab602093836115f3565b810103126105a2575180151581036105a25738610222565b3d9150610b9e565b803b156105a25781809160246040518094819363acc5f19160e01b83523360048401525af18015610597578290610c03575b506101e6565b610c0c916115f3565b3881610bfd565b60405162461bcd60e51b815260206004820152601f60248201527f5265656e7472616e637947756172643a207265656e7472616e742063616c6c006044820152606490fd5b503461014657602036600319011261014657610c7261149f565b610c7a611849565b6001600160a01b03168015610cca5781546001600160a01b03198116821783556001600160a01b03167f8be0079c531659141344cd1fd0a4f28419497f9722a3daafe3b4186f6b6457e08380a380f35b60405162461bcd60e51b815260206004820152602660248201527f4f776e61626c653a206e6577206f776e657220697320746865207a65726f206160448201526564647265737360d01b6064820152608490fd5b5034610146576040366003190112610146576020906040906001600160a01b03610d4661149f565b16815260078352818120602435825283522054604051908152f35b503461014657604036600319011261014657602435906004358152600560205260408120908154831015610146576020610d9b84846116f3565b90549060031b1c604051908152f35b503461014657602036600319011261014657604090816001600160a01b03610dd061149f565b16918281526008602052818120549281526009602052205482519182526020820152f35b5034610146578060031936011261014657600b546040516001600160a01b039091168152602090f35b503461014657604036600319011261014657610e3761149f565b6001600160a01b0316815260046020526040812080546024359290831015610146576020610d9b84846116f3565b503461014657602036600319011261014657602060025460043510604051908152f35b5034610146576020366003190112610146577fb48fa9bf541befcb145fb17ed9591349d15db698f48943730a3e93592b4011e46020610ec561149f565b610ecd611849565b600c80546001600160a01b0319166001600160a01b03929092169182179055604051908152a180f35b5034610146576020366003190112610146576004358152600560205260408120604051918260208354918281520192825260208220915b818110610f5457610f5085610f44818703826115f3565b604051918291826116b9565b0390f35b8254845260209093019260019283019201610f2d565b503461014657602036600319011261014657600435610f87611790565b506002548110156110395781604091610f50935260036020522060ff600860405192610fb2846115c0565b805484526001810154602085015260028101546001600160a01b03166040850152610fdf60038201611615565b6060850152610ff060048201611615565b608085015261100160058201611615565b60a0850152600681015460c0850152600781015460e085015201541615156101008201526040519182916020835260208301906114fd565b60405162461bcd60e51b815260206004820152601b60248201527f436f6e747269627574696f6e20646f6573206e6f7420657869737400000000006044820152606490fd5b5034610146578060031936011261014657546040516001600160a01b039091168152602090f35b50346101465760203660031901126101465760ff60406020926004358152600684522054166040519015158152f35b5034610146578060031936011261014657600c546040516001600160a01b039091168152602090f35b5034610146578060031936011261014657611116611849565b80546001600160a01b03198116825581906001600160a01b03167f8be0079c531659141344cd1fd0a4f28419497f9722a3daafe3b4186f6b6457e08280a380f35b50346101465780600319360112610146576020600254604051908152f35b5034610146576020366003190112610146576020906040906001600160a01b0361119d61149f565b168152600983522054604051908152f35b5034610146576020366003190112610146576001600160a01b036111d061149f565b168152600460205260408120604051918260208354918281520192825260208220915b81811061120a57610f5085610f44818703826115f3565b82548452602090930192600192830192016111f3565b5034610146576020366003190112610146576040906004358152600360205220805460018201549160018060a01b0360028201541661126160038301611615565b916112d961127160048301611615565b6112cb61128060058501611615565b916112bd60068601549760ff6008600789015498015416976040519b8c9b8c5260208c015260408b015261012060608b01526101208a01906114d8565b9088820360808a01526114d8565b9086820360a08801526114d8565b9260c085015260e084015215156101008301520390f35b503461014657806003193601126101465760025461130d81611778565b9061131b60405192836115f3565b808252601f1961132a82611778565b01835b818110611452575050825b8181106113a65782846040519182916020830160208452825180915260408401602060408360051b870101940192905b82821061137757505050500390f35b919360019193955060206113968192603f198a820301865288516114fd565b9601920192018594939192611368565b80600191855260036020526040852060ff6008604051926113c6846115c0565b80548452858101546020850152858060a01b0360028201541660408501526113f060038201611615565b606085015261140160048201611615565b608085015261141260058201611615565b60a0850152600681015460c0850152600781015460e0850152015416151561010082015261144082866117d6565b5261144b81856117d6565b5001611338565b60209061145d611790565b8282870101520161132d565b9050346105a25760203660031901126105a2576020916040906001600160a01b0361149261149f565b1681526008845220548152f35b600435906001600160a01b038216820361084857565b60005b8381106114c85750506000910152565b81810151838201526020016114b8565b906020916114f1815180928185528580860191016114b5565b601f01601f1916010190565b90815181526020820151602082015260018060a01b03604083015116604082015261010080611567611555611543606087015161012060608801526101208701906114d8565b608087015186820360808801526114d8565b60a086015185820360a08701526114d8565b9360c081015160c085015260e081015160e08501520151151591015290565b90600182811c921680156115b6575b60208310146115a057565b634e487b7160e01b600052602260045260246000fd5b91607f1691611595565b610120810190811067ffffffffffffffff8211176115dd57604052565b634e487b7160e01b600052604160045260246000fd5b90601f8019910116810190811067ffffffffffffffff8211176115dd57604052565b906040519182600082549261162984611586565b80845293600181169081156116975750600114611650575b5061164e925003836115f3565b565b90506000929192526020600020906000915b81831061167b57505090602061164e9282010138611641565b6020919350806001915483858901015201910190918492611662565b90506020925061164e94915060ff191682840152151560051b82010138611641565b602060408183019282815284518094520192019060005b8181106116dd5750505090565b82518452602093840193909201916001016116d0565b805482101561170b5760005260206000200190600090565b634e487b7160e01b600052603260045260246000fd5b81601f820112156108485780359067ffffffffffffffff82116115dd5760405192611756601f8401601f1916602001856115f3565b8284526020838301011161084857816000926020809301838601378301015290565b67ffffffffffffffff81116115dd5760051b60200190565b6040519061179d826115c0565b60006101008382815282602082015282604082015260608082015260606080820152606060a08201528260c08201528260e08201520152565b805182101561170b5760209160051b010190565b60001981146117f95760010190565b634e487b7160e01b600052601160045260246000fd5b8054680100000000000000008110156115dd57611831916001820181556116f3565b819291549060031b91821b91600019901b1916179055565b6000546001600160a01b0316330361185d57565b606460405162461bcd60e51b815260206004820152602060248201527f4f776e61626c653a2063616c6c6572206973206e6f7420746865206f776e65726044820152fdfea264697066735822122082d3532cc6a29cdbf328215c148a2c6c2cc2e884d5d41d0acacc15f97945f8f364736f6c634300081c0033",
          "opcodes": "PUSH1 0x80 CALLVALUE PUSH2 0xDA JUMPI PUSH1 0x1F PUSH2 0x19E1 CODESIZE DUP2 SWAP1 SUB SWAP2 DUP3 ADD PUSH1 0x1F NOT AND DUP4 ADD SWAP2 PUSH1 0x1 PUSH1 0x1 PUSH1 0x40 SHL SUB DUP4 GT DUP5 DUP5 LT OR PUSH2 0xDF JUMPI DUP1 DUP5 SWAP3 PUSH1 0x40 SWAP5 DUP6 MSTORE DUP4 CODECOPY DUP2 ADD SUB SLT PUSH2 0xDA JUMPI PUSH2 0x52 PUSH1 0x20 PUSH2 0x4B DUP4 PUSH2 0xF5 JUMP JUMPDEST SWAP3 ADD PUSH2 0xF5 JUMP JUMPDEST PUSH1 0x0 DUP1 SLOAD CALLER PUSH1 0x1 PUSH1 0x1 PUSH1 0xA0 SHL SUB NOT DUP3 AND DUP2 OR DUP4 SSTORE PUSH1 0x40 MLOAD SWAP5 SWAP3 SWAP1 SWAP2 PUSH1 0x1 PUSH1 0x1 PUSH1 0xA0 SHL SUB AND SWAP1 PUSH32 0x8BE0079C531659141344CD1FD0A4F28419497F9722A3DAAFE3B4186F6B6457E0 SWAP1 DUP1 LOG3 PUSH1 0x1 DUP1 SSTORE PUSH1 0xA DUP1 SLOAD PUSH1 0x1 PUSH1 0x1 PUSH1 0xA0 SHL SUB SWAP3 DUP4 AND PUSH1 0x1 PUSH1 0x1 PUSH1 0xA0 SHL SUB NOT SWAP2 DUP3 AND OR SWAP1 SWAP2 SSTORE PUSH1 0xB DUP1 SLOAD SWAP4 SWAP1 SWAP3 AND SWAP3 AND SWAP2 SWAP1 SWAP2 OR SWAP1 SSTORE PUSH2 0x18D7 SWAP1 DUP2 PUSH2 0x10A DUP3 CODECOPY RETURN JUMPDEST PUSH1 0x0 DUP1 REVERT JUMPDEST PUSH4 0x4E487B71 PUSH1 0xE0 SHL PUSH1 0x0 MSTORE PUSH1 0x41 PUSH1 0x4 MSTORE PUSH1 0x24 PUSH1 0x0 REVERT JUMPDEST MLOAD SWAP1 PUSH1 0x1 PUSH1 0x1 PUSH1 0xA0 SHL SUB DUP3 AND DUP3 SUB PUSH2 0xDA JUMPI JUMP INVALID PUSH1 0x80 DUP1 PUSH1 0x40 MSTORE PUSH1 0x4 CALLDATASIZE LT ISZERO PUSH2 0x13 JUMPI PUSH1 0x0 DUP1 REVERT JUMPDEST PUSH1 0x0 SWAP1 DUP2 CALLDATALOAD PUSH1 0xE0 SHR SWAP1 DUP2 PUSH4 0xB7A0F55 EQ PUSH2 0x1469 JUMPI POP DUP1 PUSH4 0x10D6AB6B EQ PUSH2 0x12F0 JUMPI DUP1 PUSH4 0x1CEE0700 EQ PUSH2 0x1220 JUMPI DUP1 PUSH4 0x40F77F3A EQ PUSH2 0xD1E JUMPI DUP1 PUSH4 0x4A9AEF68 EQ PUSH2 0x11AE JUMPI DUP1 PUSH4 0x511E471F EQ PUSH2 0x1175 JUMPI DUP1 PUSH4 0x5B18056B EQ PUSH2 0x1157 JUMPI DUP1 PUSH4 0x715018A6 EQ PUSH2 0x10FD JUMPI DUP1 PUSH4 0x87BC1425 EQ PUSH2 0x10D4 JUMPI DUP1 PUSH4 0x8AB83598 EQ PUSH2 0x10A5 JUMPI DUP1 PUSH4 0x8DA5CB5B EQ PUSH2 0x107E JUMPI DUP1 PUSH4 0x9061B1A9 EQ PUSH2 0xF6A JUMPI DUP1 PUSH4 0x9437E4BB EQ PUSH2 0xEF6 JUMPI DUP1 PUSH4 0x9584660F EQ PUSH2 0xE88 JUMPI DUP1 PUSH4 0x9AAC93CE EQ PUSH2 0xE65 JUMPI DUP1 PUSH4 0x9E342DC4 EQ PUSH2 0xE1D JUMPI DUP1 PUSH4 0xC12255C4 EQ PUSH2 0xDF4 JUMPI DUP1 PUSH4 0xD9303B6F EQ PUSH2 0xDAA JUMPI DUP1 PUSH4 0xEA4EF126 EQ PUSH2 0xD61 JUMPI DUP1 PUSH4 0xF2F68249 EQ PUSH2 0xD1E JUMPI DUP1 PUSH4 0xF2FDE38B EQ PUSH2 0xC58 JUMPI DUP1 PUSH4 0xF7AEA860 EQ PUSH2 0x149 JUMPI PUSH4 0xFB5E76E6 EQ PUSH2 0x11E JUMPI PUSH1 0x0 DUP1 REVERT JUMPDEST CALLVALUE PUSH2 0x146 JUMPI DUP1 PUSH1 0x3 NOT CALLDATASIZE ADD SLT PUSH2 0x146 JUMPI PUSH1 0xA SLOAD PUSH1 0x40 MLOAD PUSH1 0x1 PUSH1 0x1 PUSH1 0xA0 SHL SUB SWAP1 SWAP2 AND DUP2 MSTORE PUSH1 0x20 SWAP1 RETURN JUMPDEST DUP1 REVERT JUMPDEST POP CALLVALUE PUSH2 0x146 JUMPI PUSH1 0xA0 CALLDATASIZE PUSH1 0x3 NOT ADD SLT PUSH2 0x146 JUMPI PUSH1 0x4 CALLDATALOAD PUSH1 0x24 CALLDATALOAD PUSH8 0xFFFFFFFFFFFFFFFF DUP2 GT PUSH2 0x799 JUMPI PUSH2 0x17E SWAP1 CALLDATASIZE SWAP1 PUSH1 0x4 ADD PUSH2 0x1721 JUMP JUMPDEST SWAP2 PUSH1 0x44 CALLDATALOAD PUSH8 0xFFFFFFFFFFFFFFFF DUP2 GT PUSH2 0x5A2 JUMPI PUSH2 0x19F SWAP1 CALLDATASIZE SWAP1 PUSH1 0x4 ADD PUSH2 0x1721 JUMP JUMPDEST SWAP2 PUSH1 0x64 CALLDATALOAD PUSH8 0xFFFFFFFFFFFFFFFF DUP2 GT PUSH2 0x799 JUMPI PUSH2 0x1C0 SWAP1 CALLDATASIZE SWAP1 PUSH1 0x4 ADD PUSH2 0x1721 JUMP JUMPDEST SWAP3 PUSH1 0x84 CALLDATALOAD SWAP3 PUSH1 0x2 PUSH1 0x1 SLOAD EQ PUSH2 0xC13 JUMPI PUSH1 0x2 PUSH1 0x1 SSTORE PUSH1 0xC SLOAD PUSH1 0x1 PUSH1 0x1 PUSH1 0xA0 SHL SUB AND DUP1 PUSH2 0xBCB JUMPI JUMPDEST POP PUSH1 0xA SLOAD PUSH1 0x40 MLOAD PUSH4 0x1E042B9 PUSH1 0xE2 SHL DUP2 MSTORE PUSH1 0x4 DUP2 ADD DUP6 SWAP1 MSTORE SWAP1 PUSH1 0x20 SWAP1 DUP3 SWAP1 PUSH1 0x24 SWAP1 DUP3 SWAP1 PUSH1 0x1 PUSH1 0x1 PUSH1 0xA0 SHL SUB AND GAS STATICCALL SWAP1 DUP2 ISZERO PUSH2 0x597 JUMPI DUP3 SWAP2 PUSH2 0xB90 JUMPI JUMPDEST POP ISZERO PUSH2 0xB3D JUMPI PUSH1 0x40 MLOAD PUSH1 0x20 DUP2 ADD SWAP1 DUP5 DUP3 MSTORE CALLER PUSH1 0x60 SHL PUSH1 0x40 DUP3 ADD MSTORE PUSH2 0x266 PUSH1 0x54 DUP3 DUP11 MLOAD PUSH2 0x255 DUP2 DUP14 PUSH1 0x20 DUP7 DUP7 ADD SWAP2 ADD PUSH2 0x14B5 JUMP JUMPDEST DUP2 ADD SUB ADD PUSH1 0x1F NOT DUP2 ADD DUP4 MSTORE DUP3 PUSH2 0x15F3 JUMP JUMPDEST MLOAD SWAP1 KECCAK256 DUP1 DUP3 MSTORE PUSH1 0x6 PUSH1 0x20 MSTORE PUSH1 0xFF PUSH1 0x40 DUP4 KECCAK256 SLOAD AND PUSH2 0xAF8 JUMPI DUP2 MSTORE PUSH1 0x6 PUSH1 0x20 SWAP1 DUP2 MSTORE PUSH1 0x40 DUP1 DUP4 KECCAK256 DUP1 SLOAD PUSH1 0xFF NOT AND PUSH1 0x1 OR SWAP1 SSTORE PUSH1 0xA SLOAD SWAP1 MLOAD PUSH4 0x61E448CD PUSH1 0xE0 SHL DUP2 MSTORE PUSH1 0x4 DUP2 ADD DUP7 SWAP1 MSTORE SWAP2 SWAP1 DUP3 SWAP1 PUSH1 0x24 SWAP1 DUP3 SWAP1 PUSH1 0x1 PUSH1 0x1 PUSH1 0xA0 SHL SUB AND GAS STATICCALL SWAP1 DUP2 ISZERO PUSH2 0x597 JUMPI DUP3 SWAP2 PUSH2 0xAC6 JUMPI JUMPDEST POP DUP5 LT ISZERO SWAP2 PUSH1 0x2 SLOAD SWAP6 PUSH1 0x40 MLOAD SWAP1 PUSH2 0x2E4 DUP3 PUSH2 0x15C0 JUMP JUMPDEST DUP8 DUP3 MSTORE PUSH1 0x20 DUP3 ADD SWAP3 DUP7 DUP5 MSTORE PUSH1 0x40 DUP4 ADD SWAP2 CALLER DUP4 MSTORE PUSH1 0x60 DUP5 ADD SWAP2 DUP12 DUP4 MSTORE PUSH1 0x80 DUP6 ADD SWAP1 DUP2 MSTORE PUSH1 0xA0 DUP6 ADD SWAP2 DUP3 MSTORE PUSH1 0xC0 DUP6 ADD SWAP3 TIMESTAMP DUP5 MSTORE PUSH1 0xE0 DUP7 ADD SWAP5 DUP12 DUP7 MSTORE PUSH2 0x100 DUP8 ADD SWAP8 DUP11 DUP10 MSTORE DUP14 DUP11 MSTORE PUSH1 0x3 PUSH1 0x20 MSTORE PUSH1 0x40 DUP11 KECCAK256 SWAP8 MLOAD DUP9 SSTORE MLOAD PUSH1 0x1 DUP9 ADD SSTORE PUSH1 0x2 DUP8 ADD SWAP1 PUSH1 0x1 DUP1 PUSH1 0xA0 SHL SUB SWAP1 MLOAD AND PUSH12 0xFFFFFFFFFFFFFFFFFFFFFFFF PUSH1 0xA0 SHL DUP3 SLOAD AND OR SWAP1 SSTORE PUSH1 0x3 DUP7 ADD SWAP1 MLOAD DUP1 MLOAD SWAP1 PUSH8 0xFFFFFFFFFFFFFFFF DUP3 GT PUSH2 0xAB2 JUMPI DUP2 SWAP1 PUSH2 0x385 DUP5 SLOAD PUSH2 0x1586 JUMP JUMPDEST PUSH1 0x1F DUP2 GT PUSH2 0xA62 JUMPI JUMPDEST POP PUSH1 0x20 SWAP1 PUSH1 0x1F DUP4 GT PUSH1 0x1 EQ PUSH2 0x9FF JUMPI DUP12 SWAP3 PUSH2 0x9F4 JUMPI JUMPDEST POP POP DUP2 PUSH1 0x1 SHL SWAP2 PUSH1 0x0 NOT SWAP1 PUSH1 0x3 SHL SHR NOT AND OR SWAP1 SSTORE JUMPDEST MLOAD DUP1 MLOAD PUSH1 0x4 DUP7 ADD SWAP2 PUSH8 0xFFFFFFFFFFFFFFFF DUP3 GT PUSH2 0x9E0 JUMPI DUP2 SWAP1 PUSH2 0x3DC DUP5 SLOAD PUSH2 0x1586 JUMP JUMPDEST PUSH1 0x1F DUP2 GT PUSH2 0x990 JUMPI JUMPDEST POP PUSH1 0x20 SWAP1 PUSH1 0x1F DUP4 GT PUSH1 0x1 EQ PUSH2 0x92D JUMPI DUP11 SWAP3 PUSH2 0x922 JUMPI JUMPDEST POP POP DUP2 PUSH1 0x1 SHL SWAP2 PUSH1 0x0 NOT SWAP1 PUSH1 0x3 SHL SHR NOT AND OR SWAP1 SSTORE JUMPDEST MLOAD DUP1 MLOAD PUSH1 0x5 DUP6 ADD SWAP2 PUSH8 0xFFFFFFFFFFFFFFFF DUP3 GT PUSH2 0x90E JUMPI PUSH2 0x431 DUP4 SLOAD PUSH2 0x1586 JUMP JUMPDEST PUSH1 0x1F DUP2 GT PUSH2 0x8C9 JUMPI JUMPDEST POP PUSH1 0x20 SWAP1 PUSH1 0x1F DUP4 GT PUSH1 0x1 EQ PUSH2 0x860 JUMPI PUSH1 0x8 SWAP7 SWAP6 SWAP5 SWAP4 SWAP3 SWAP2 DUP10 SWAP2 DUP4 PUSH2 0x855 JUMPI JUMPDEST POP POP DUP2 PUSH1 0x1 SHL SWAP2 PUSH1 0x0 NOT SWAP1 PUSH1 0x3 SHL SHR NOT AND OR SWAP1 SSTORE JUMPDEST MLOAD PUSH1 0x6 DUP4 ADD SSTORE MLOAD PUSH1 0x7 DUP3 ADD SSTORE ADD SWAP1 MLOAD ISZERO ISZERO PUSH1 0xFF DUP1 NOT DUP4 SLOAD AND SWAP2 AND OR SWAP1 SSTORE PUSH2 0x496 PUSH1 0x2 SLOAD PUSH2 0x17EA JUMP JUMPDEST PUSH1 0x2 SSTORE CALLER DUP2 MSTORE PUSH1 0x4 PUSH1 0x20 MSTORE PUSH2 0x4AE DUP6 PUSH1 0x40 DUP4 KECCAK256 PUSH2 0x180F JUMP JUMPDEST DUP3 DUP2 MSTORE PUSH1 0x5 PUSH1 0x20 MSTORE PUSH2 0x4C3 DUP6 PUSH1 0x40 DUP4 KECCAK256 PUSH2 0x180F JUMP JUMPDEST CALLER DUP2 MSTORE PUSH1 0x8 PUSH1 0x20 MSTORE DUP2 PUSH1 0x40 DUP3 KECCAK256 PUSH2 0x4DA DUP2 SLOAD PUSH2 0x17EA JUMP JUMPDEST SWAP1 SSTORE PUSH2 0x5A6 JUMPI JUMPDEST PUSH1 0xC SLOAD PUSH1 0x1 PUSH1 0x1 PUSH1 0xA0 SHL SUB AND DUP1 PUSH2 0x552 JUMPI JUMPDEST POP POP PUSH32 0xE3176F1C77B6AE516A8E87A94008EC4AF8CD9FBDA69198D267CA67CFE0BB3725 PUSH1 0x20 SWAP6 DUP6 SWAP3 PUSH2 0x530 PUSH1 0x40 MLOAD SWAP3 PUSH1 0x80 DUP5 MSTORE PUSH1 0x80 DUP5 ADD SWAP1 PUSH2 0x14D8 JUMP JUMPDEST SWAP6 DUP9 DUP4 ADD MSTORE PUSH1 0x40 DUP3 ADD MSTORE TIMESTAMP PUSH1 0x60 DUP3 ADD MSTORE DUP1 CALLER SWAP6 SUB SWAP1 LOG4 PUSH1 0x1 DUP1 SSTORE PUSH1 0x40 MLOAD SWAP1 DUP2 MSTORE RETURN JUMPDEST DUP1 EXTCODESIZE ISZERO PUSH2 0x5A2 JUMPI DUP2 DUP1 SWAP2 PUSH1 0x24 PUSH1 0x40 MLOAD DUP1 SWAP5 DUP2 SWAP4 PUSH4 0xED34DE09 PUSH1 0xE0 SHL DUP4 MSTORE CALLER PUSH1 0x4 DUP5 ADD MSTORE GAS CALL DUP1 ISZERO PUSH2 0x597 JUMPI ISZERO PUSH2 0x4F3 JUMPI PUSH2 0x58D DUP3 DUP1 SWAP3 PUSH2 0x15F3 JUMP JUMPDEST PUSH2 0x146 JUMPI DUP1 PUSH2 0x4F3 JUMP JUMPDEST PUSH1 0x40 MLOAD RETURNDATASIZE DUP5 DUP3 RETURNDATACOPY RETURNDATASIZE SWAP1 REVERT JUMPDEST POP DUP1 REVERT JUMPDEST CALLER DUP2 MSTORE PUSH1 0x9 PUSH1 0x20 MSTORE PUSH1 0x40 DUP2 KECCAK256 PUSH2 0x5BC DUP2 SLOAD PUSH2 0x17EA JUMP JUMPDEST SWAP1 SSTORE CALLER DUP2 MSTORE PUSH1 0x7 PUSH1 0x20 MSTORE PUSH1 0x40 DUP2 KECCAK256 DUP4 DUP3 MSTORE PUSH1 0x20 MSTORE PUSH1 0x40 DUP2 KECCAK256 PUSH2 0x5DE DUP2 SLOAD PUSH2 0x17EA JUMP JUMPDEST SWAP1 SSTORE PUSH1 0xA SLOAD PUSH1 0x40 MLOAD PUSH4 0x7CF249DF PUSH1 0xE0 SHL DUP2 MSTORE PUSH1 0x4 DUP2 ADD DUP6 SWAP1 MSTORE SWAP1 PUSH1 0x20 SWAP1 DUP3 SWAP1 PUSH1 0x24 SWAP1 DUP3 SWAP1 DUP7 SWAP1 PUSH1 0x1 PUSH1 0x1 PUSH1 0xA0 SHL SUB AND GAS CALL SWAP1 DUP2 ISZERO PUSH2 0x597 JUMPI DUP3 SWAP2 PUSH2 0x81E JUMPI JUMPDEST POP PUSH1 0xB SLOAD PUSH1 0x1 PUSH1 0x1 PUSH1 0xA0 SHL SUB AND SWAP1 DUP2 EXTCODESIZE ISZERO PUSH2 0x799 JUMPI DUP3 SWAP2 PUSH1 0x44 DUP4 SWAP3 PUSH1 0x40 MLOAD SWAP5 DUP6 SWAP4 DUP5 SWAP3 PUSH4 0x7AA0E409 PUSH1 0xE1 SHL DUP5 MSTORE CALLER PUSH1 0x4 DUP6 ADD MSTORE PUSH1 0x24 DUP5 ADD MSTORE GAS CALL DUP1 ISZERO PUSH2 0x597 JUMPI SWAP1 DUP3 SWAP2 PUSH2 0x809 JUMPI JUMPDEST POP POP PUSH1 0xC SLOAD PUSH1 0x1 PUSH1 0x1 PUSH1 0xA0 SHL SUB AND DUP1 PUSH2 0x67F JUMPI JUMPDEST POP PUSH2 0x4E1 JUMP JUMPDEST DUP1 EXTCODESIZE ISZERO PUSH2 0x5A2 JUMPI DUP2 DUP1 SWAP2 PUSH1 0x24 PUSH1 0x40 MLOAD DUP1 SWAP5 DUP2 SWAP4 PUSH4 0xED34DE09 PUSH1 0xE0 SHL DUP4 MSTORE CALLER PUSH1 0x4 DUP5 ADD MSTORE GAS CALL DUP1 ISZERO PUSH2 0x597 JUMPI SWAP1 DUP3 SWAP2 PUSH2 0x7F4 JUMPI JUMPDEST POP POP PUSH1 0xC SLOAD PUSH1 0x1 PUSH1 0x1 PUSH1 0xA0 SHL SUB AND DUP1 EXTCODESIZE ISZERO PUSH2 0x5A2 JUMPI DUP2 DUP1 SWAP2 PUSH1 0x24 PUSH1 0x40 MLOAD DUP1 SWAP5 DUP2 SWAP4 PUSH4 0x34403E3B PUSH1 0xE1 SHL DUP4 MSTORE CALLER PUSH1 0x4 DUP5 ADD MSTORE GAS CALL DUP1 ISZERO PUSH2 0x597 JUMPI SWAP1 DUP3 SWAP2 PUSH2 0x7DF JUMPI JUMPDEST POP POP PUSH1 0xA SLOAD PUSH1 0x40 MLOAD PUSH4 0xAD4962F PUSH1 0xE1 SHL DUP2 MSTORE PUSH1 0x4 DUP2 ADD DUP6 SWAP1 MSTORE SWAP1 PUSH1 0x20 SWAP1 DUP3 SWAP1 PUSH1 0x24 SWAP1 DUP3 SWAP1 PUSH1 0x1 PUSH1 0x1 PUSH1 0xA0 SHL SUB AND GAS STATICCALL SWAP1 DUP2 ISZERO PUSH2 0x597 JUMPI DUP3 SWAP2 PUSH2 0x79D JUMPI JUMPDEST POP PUSH1 0xC SLOAD PUSH1 0x1 PUSH1 0x1 PUSH1 0xA0 SHL SUB AND SWAP1 DUP2 EXTCODESIZE ISZERO PUSH2 0x799 JUMPI PUSH1 0x40 MLOAD PUSH4 0xC9EF4329 PUSH1 0xE0 SHL DUP2 MSTORE PUSH1 0x1 PUSH1 0x1 PUSH1 0xA0 SHL SUB SWAP1 SWAP2 AND PUSH1 0x4 DUP3 ADD MSTORE SWAP1 DUP3 SWAP1 DUP3 SWAP1 PUSH1 0x24 SWAP1 DUP3 SWAP1 DUP5 SWAP1 GAS CALL DUP1 ISZERO PUSH2 0x597 JUMPI SWAP1 DUP3 SWAP2 PUSH2 0x784 JUMPI JUMPDEST POP PUSH2 0x679 JUMP JUMPDEST DUP2 PUSH2 0x78E SWAP2 PUSH2 0x15F3 JUMP JUMPDEST PUSH2 0x146 JUMPI DUP1 CODESIZE PUSH2 0x77E JUMP JUMPDEST DUP3 DUP1 REVERT JUMPDEST SWAP1 POP PUSH1 0x20 DUP2 RETURNDATASIZE PUSH1 0x20 GT PUSH2 0x7D7 JUMPI JUMPDEST DUP2 PUSH2 0x7B8 PUSH1 0x20 SWAP4 DUP4 PUSH2 0x15F3 JUMP JUMPDEST DUP2 ADD SUB SLT PUSH2 0x5A2 JUMPI MLOAD PUSH1 0x1 PUSH1 0x1 PUSH1 0xA0 SHL SUB DUP2 AND DUP2 SUB PUSH2 0x5A2 JUMPI CODESIZE PUSH2 0x730 JUMP JUMPDEST RETURNDATASIZE SWAP2 POP PUSH2 0x7AB JUMP JUMPDEST DUP2 PUSH2 0x7E9 SWAP2 PUSH2 0x15F3 JUMP JUMPDEST PUSH2 0x146 JUMPI DUP1 CODESIZE PUSH2 0x6F3 JUMP JUMPDEST DUP2 PUSH2 0x7FE SWAP2 PUSH2 0x15F3 JUMP JUMPDEST PUSH2 0x146 JUMPI DUP1 CODESIZE PUSH2 0x6B2 JUMP JUMPDEST DUP2 PUSH2 0x813 SWAP2 PUSH2 0x15F3 JUMP JUMPDEST PUSH2 0x146 JUMPI DUP1 CODESIZE PUSH2 0x665 JUMP JUMPDEST SWAP1 POP PUSH1 0x20 DUP2 RETURNDATASIZE PUSH1 0x20 GT PUSH2 0x84D JUMPI JUMPDEST DUP2 PUSH2 0x839 PUSH1 0x20 SWAP4 DUP4 PUSH2 0x15F3 JUMP JUMPDEST DUP2 ADD SUB SLT PUSH2 0x848 JUMPI MLOAD CODESIZE PUSH2 0x61D JUMP JUMPDEST PUSH1 0x0 DUP1 REVERT JUMPDEST RETURNDATASIZE SWAP2 POP PUSH2 0x82C JUMP JUMPDEST ADD MLOAD SWAP1 POP CODESIZE DUP1 PUSH2 0x459 JUMP JUMPDEST DUP4 DUP10 MSTORE DUP2 DUP10 KECCAK256 SWAP2 SWAP1 PUSH1 0x1F NOT DUP5 AND DUP11 JUMPDEST DUP2 DUP2 LT PUSH2 0x8B1 JUMPI POP SWAP2 PUSH1 0x1 SWAP4 SWAP2 DUP6 PUSH1 0x8 SWAP11 SWAP10 SWAP9 SWAP8 SWAP7 SWAP5 LT PUSH2 0x898 JUMPI JUMPDEST POP POP POP DUP2 SHL ADD SWAP1 SSTORE PUSH2 0x46E JUMP JUMPDEST ADD MLOAD PUSH1 0x0 NOT PUSH1 0xF8 DUP5 PUSH1 0x3 SHL AND SHR NOT AND SWAP1 SSTORE CODESIZE DUP1 DUP1 PUSH2 0x88B JUMP JUMPDEST SWAP3 SWAP4 PUSH1 0x20 PUSH1 0x1 DUP2 SWAP3 DUP8 DUP7 ADD MLOAD DUP2 SSTORE ADD SWAP6 ADD SWAP4 ADD PUSH2 0x86F JUMP JUMPDEST DUP4 DUP10 MSTORE PUSH1 0x20 DUP10 KECCAK256 PUSH1 0x1F DUP5 ADD PUSH1 0x5 SHR DUP2 ADD SWAP2 PUSH1 0x20 DUP6 LT PUSH2 0x904 JUMPI JUMPDEST PUSH1 0x1F ADD PUSH1 0x5 SHR ADD SWAP1 JUMPDEST DUP2 DUP2 LT PUSH2 0x8F9 JUMPI POP PUSH2 0x43A JUMP JUMPDEST DUP10 DUP2 SSTORE PUSH1 0x1 ADD PUSH2 0x8EC JUMP JUMPDEST SWAP1 SWAP2 POP DUP2 SWAP1 PUSH2 0x8E3 JUMP JUMPDEST PUSH4 0x4E487B71 PUSH1 0xE0 SHL DUP9 MSTORE PUSH1 0x41 PUSH1 0x4 MSTORE PUSH1 0x24 DUP9 REVERT JUMPDEST ADD MLOAD SWAP1 POP CODESIZE DUP1 PUSH2 0x3FB JUMP JUMPDEST DUP5 DUP12 MSTORE DUP2 DUP12 KECCAK256 SWAP3 POP PUSH1 0x1F NOT DUP5 AND DUP12 JUMPDEST DUP2 DUP2 LT PUSH2 0x978 JUMPI POP SWAP1 DUP5 PUSH1 0x1 SWAP6 SWAP5 SWAP4 SWAP3 LT PUSH2 0x95F JUMPI JUMPDEST POP POP POP DUP2 SHL ADD SWAP1 SSTORE PUSH2 0x410 JUMP JUMPDEST ADD MLOAD PUSH1 0x0 NOT PUSH1 0xF8 DUP5 PUSH1 0x3 SHL AND SHR NOT AND SWAP1 SSTORE CODESIZE DUP1 DUP1 PUSH2 0x952 JUMP JUMPDEST SWAP3 SWAP4 PUSH1 0x20 PUSH1 0x1 DUP2 SWAP3 DUP8 DUP7 ADD MLOAD DUP2 SSTORE ADD SWAP6 ADD SWAP4 ADD PUSH2 0x93C JUMP JUMPDEST SWAP1 SWAP2 POP DUP4 DUP11 MSTORE PUSH1 0x20 DUP11 KECCAK256 PUSH1 0x1F DUP5 ADD PUSH1 0x5 SHR DUP2 ADD SWAP2 PUSH1 0x20 DUP6 LT PUSH2 0x9D6 JUMPI JUMPDEST SWAP1 PUSH1 0x1F DUP6 SWAP5 SWAP4 SWAP3 ADD PUSH1 0x5 SHR ADD SWAP1 JUMPDEST DUP2 DUP2 LT PUSH2 0x9C8 JUMPI POP PUSH2 0x3E5 JUMP JUMPDEST DUP12 DUP2 SSTORE DUP5 SWAP4 POP PUSH1 0x1 ADD PUSH2 0x9BB JUMP JUMPDEST SWAP1 SWAP2 POP DUP2 SWAP1 PUSH2 0x9AD JUMP JUMPDEST PUSH4 0x4E487B71 PUSH1 0xE0 SHL DUP10 MSTORE PUSH1 0x41 PUSH1 0x4 MSTORE PUSH1 0x24 DUP10 REVERT JUMPDEST ADD MLOAD SWAP1 POP CODESIZE DUP1 PUSH2 0x3A4 JUMP JUMPDEST DUP5 DUP13 MSTORE DUP2 DUP13 KECCAK256 SWAP3 POP PUSH1 0x1F NOT DUP5 AND DUP13 JUMPDEST DUP2 DUP2 LT PUSH2 0xA4A JUMPI POP SWAP1 DUP5 PUSH1 0x1 SWAP6 SWAP5 SWAP4 SWAP3 LT PUSH2 0xA31 JUMPI JUMPDEST POP POP POP DUP2 SHL ADD SWAP1 SSTORE PUSH2 0x3B9 JUMP JUMPDEST ADD MLOAD PUSH1 0x0 NOT PUSH1 0xF8 DUP5 PUSH1 0x3 SHL AND SHR NOT AND SWAP1 SSTORE CODESIZE DUP1 DUP1 PUSH2 0xA24 JUMP JUMPDEST SWAP3 SWAP4 PUSH1 0x20 PUSH1 0x1 DUP2 SWAP3 DUP8 DUP7 ADD MLOAD DUP2 SSTORE ADD SWAP6 ADD SWAP4 ADD PUSH2 0xA0E JUMP JUMPDEST SWAP1 SWAP2 POP DUP4 DUP12 MSTORE PUSH1 0x20 DUP12 KECCAK256 PUSH1 0x1F DUP5 ADD PUSH1 0x5 SHR DUP2 ADD SWAP2 PUSH1 0x20 DUP6 LT PUSH2 0xAA8 JUMPI JUMPDEST SWAP1 PUSH1 0x1F DUP6 SWAP5 SWAP4 SWAP3 ADD PUSH1 0x5 SHR ADD SWAP1 JUMPDEST DUP2 DUP2 LT PUSH2 0xA9A JUMPI POP PUSH2 0x38E JUMP JUMPDEST DUP13 DUP2 SSTORE DUP5 SWAP4 POP PUSH1 0x1 ADD PUSH2 0xA8D JUMP JUMPDEST SWAP1 SWAP2 POP DUP2 SWAP1 PUSH2 0xA7F JUMP JUMPDEST PUSH4 0x4E487B71 PUSH1 0xE0 SHL DUP11 MSTORE PUSH1 0x41 PUSH1 0x4 MSTORE PUSH1 0x24 DUP11 REVERT JUMPDEST SWAP1 POP PUSH1 0x20 DUP2 RETURNDATASIZE PUSH1 0x20 GT PUSH2 0xAF0 JUMPI JUMPDEST DUP2 PUSH2 0xAE1 PUSH1 0x20 SWAP4 DUP4 PUSH2 0x15F3 JUMP JUMPDEST DUP2 ADD SUB SLT PUSH2 0x848 JUMPI MLOAD CODESIZE PUSH2 0x2CE JUMP JUMPDEST RETURNDATASIZE SWAP2 POP PUSH2 0xAD4 JUMP JUMPDEST PUSH1 0x40 MLOAD PUSH3 0x461BCD PUSH1 0xE5 SHL DUP2 MSTORE PUSH1 0x20 PUSH1 0x4 DUP3 ADD MSTORE PUSH1 0x1D PUSH1 0x24 DUP3 ADD MSTORE PUSH32 0x4475706C6963617465207375626D697373696F6E206465746563746564000000 PUSH1 0x44 DUP3 ADD MSTORE PUSH1 0x64 SWAP1 REVERT JUMPDEST PUSH1 0x40 MLOAD PUSH3 0x461BCD PUSH1 0xE5 SHL DUP2 MSTORE PUSH1 0x20 PUSH1 0x4 DUP3 ADD MSTORE PUSH1 0x25 PUSH1 0x24 DUP3 ADD MSTORE PUSH32 0x43616D706169676E206973206E6F7420616363657074696E67207375626D6973 PUSH1 0x44 DUP3 ADD MSTORE PUSH5 0x73696F6E73 PUSH1 0xD8 SHL PUSH1 0x64 DUP3 ADD MSTORE PUSH1 0x84 SWAP1 REVERT JUMPDEST SWAP1 POP PUSH1 0x20 DUP2 RETURNDATASIZE PUSH1 0x20 GT PUSH2 0xBC3 JUMPI JUMPDEST DUP2 PUSH2 0xBAB PUSH1 0x20 SWAP4 DUP4 PUSH2 0x15F3 JUMP JUMPDEST DUP2 ADD SUB SLT PUSH2 0x5A2 JUMPI MLOAD DUP1 ISZERO ISZERO DUP2 SUB PUSH2 0x5A2 JUMPI CODESIZE PUSH2 0x222 JUMP JUMPDEST RETURNDATASIZE SWAP2 POP PUSH2 0xB9E JUMP JUMPDEST DUP1 EXTCODESIZE ISZERO PUSH2 0x5A2 JUMPI DUP2 DUP1 SWAP2 PUSH1 0x24 PUSH1 0x40 MLOAD DUP1 SWAP5 DUP2 SWAP4 PUSH4 0xACC5F191 PUSH1 0xE0 SHL DUP4 MSTORE CALLER PUSH1 0x4 DUP5 ADD MSTORE GAS CALL DUP1 ISZERO PUSH2 0x597 JUMPI DUP3 SWAP1 PUSH2 0xC03 JUMPI JUMPDEST POP PUSH2 0x1E6 JUMP JUMPDEST PUSH2 0xC0C SWAP2 PUSH2 0x15F3 JUMP JUMPDEST CODESIZE DUP2 PUSH2 0xBFD JUMP JUMPDEST PUSH1 0x40 MLOAD PUSH3 0x461BCD PUSH1 0xE5 SHL DUP2 MSTORE PUSH1 0x20 PUSH1 0x4 DUP3 ADD MSTORE PUSH1 0x1F PUSH1 0x24 DUP3 ADD MSTORE PUSH32 0x5265656E7472616E637947756172643A207265656E7472616E742063616C6C00 PUSH1 0x44 DUP3 ADD MSTORE PUSH1 0x64 SWAP1 REVERT JUMPDEST POP CALLVALUE PUSH2 0x146 JUMPI PUSH1 0x20 CALLDATASIZE PUSH1 0x3 NOT ADD SLT PUSH2 0x146 JUMPI PUSH2 0xC72 PUSH2 0x149F JUMP JUMPDEST PUSH2 0xC7A PUSH2 0x1849 JUMP JUMPDEST PUSH1 0x1 PUSH1 0x1 PUSH1 0xA0 SHL SUB AND DUP1 ISZERO PUSH2 0xCCA JUMPI DUP2 SLOAD PUSH1 0x1 PUSH1 0x1 PUSH1 0xA0 SHL SUB NOT DUP2 AND DUP3 OR DUP4 SSTORE PUSH1 0x1 PUSH1 0x1 PUSH1 0xA0 SHL SUB AND PUSH32 0x8BE0079C531659141344CD1FD0A4F28419497F9722A3DAAFE3B4186F6B6457E0 DUP4 DUP1 LOG3 DUP1 RETURN JUMPDEST PUSH1 0x40 MLOAD PUSH3 0x461BCD PUSH1 0xE5 SHL DUP2 MSTORE PUSH1 0x20 PUSH1 0x4 DUP3 ADD MSTORE PUSH1 0x26 PUSH1 0x24 DUP3 ADD MSTORE PUSH32 0x4F776E61626C653A206E6577206F776E657220697320746865207A65726F2061 PUSH1 0x44 DUP3 ADD MSTORE PUSH6 0x646472657373 PUSH1 0xD0 SHL PUSH1 0x64 DUP3 ADD MSTORE PUSH1 0x84 SWAP1 REVERT JUMPDEST POP CALLVALUE PUSH2 0x146 JUMPI PUSH1 0x40 CALLDATASIZE PUSH1 0x3 NOT ADD SLT PUSH2 0x146 JUMPI PUSH1 0x20 SWAP1 PUSH1 0x40 SWAP1 PUSH1 0x1 PUSH1 0x1 PUSH1 0xA0 SHL SUB PUSH2 0xD46 PUSH2 0x149F JUMP JUMPDEST AND DUP2 MSTORE PUSH1 0x7 DUP4 MSTORE DUP2 DUP2 KECCAK256 PUSH1 0x24 CALLDATALOAD DUP3 MSTORE DUP4 MSTORE KECCAK256 SLOAD PUSH1 0x40 MLOAD SWAP1 DUP2 MSTORE RETURN JUMPDEST POP CALLVALUE PUSH2 0x146 JUMPI PUSH1 0x40 CALLDATASIZE PUSH1 0x3 NOT ADD SLT PUSH2 0x146 JUMPI PUSH1 0x24 CALLDATALOAD SWAP1 PUSH1 0x4 CALLDATALOAD DUP2 MSTORE PUSH1 0x5 PUSH1 0x20 MSTORE PUSH1 0x40 DUP2 KECCAK256 SWAP1 DUP2 SLOAD DUP4 LT ISZERO PUSH2 0x146 JUMPI PUSH1 0x20 PUSH2 0xD9B DUP5 DUP5 PUSH2 0x16F3 JUMP JUMPDEST SWAP1 SLOAD SWAP1 PUSH1 0x3 SHL SHR PUSH1 0x40 MLOAD SWAP1 DUP2 MSTORE RETURN JUMPDEST POP CALLVALUE PUSH2 0x146 JUMPI PUSH1 0x20 CALLDATASIZE PUSH1 0x3 NOT ADD SLT PUSH2 0x146 JUMPI PUSH1 0x40 SWAP1 DUP2 PUSH1 0x1 PUSH1 0x1 PUSH1 0xA0 SHL SUB PUSH2 0xDD0 PUSH2 0x149F JUMP JUMPDEST AND SWAP2 DUP3 DUP2 MSTORE PUSH1 0x8 PUSH1 0x20 MSTORE DUP2 DUP2 KECCAK256 SLOAD SWAP3 DUP2 MSTORE PUSH1 0x9 PUSH1 0x20 MSTORE KECCAK256 SLOAD DUP3 MLOAD SWAP2 DUP3 MSTORE PUSH1 0x20 DUP3 ADD MSTORE RETURN JUMPDEST POP CALLVALUE PUSH2 0x146 JUMPI DUP1 PUSH1 0x3 NOT CALLDATASIZE ADD SLT PUSH2 0x146 JUMPI PUSH1 0xB SLOAD PUSH1 0x40 MLOAD PUSH1 0x1 PUSH1 0x1 PUSH1 0xA0 SHL SUB SWAP1 SWAP2 AND DUP2 MSTORE PUSH1 0x20 SWAP1 RETURN JUMPDEST POP CALLVALUE PUSH2 0x146 JUMPI PUSH1 0x40 CALLDATASIZE PUSH1 0x3 NOT ADD SLT PUSH2 0x146 JUMPI PUSH2 0xE37 PUSH2 0x149F JUMP JUMPDEST PUSH1 0x1 PUSH1 0x1 PUSH1 0xA0 SHL SUB AND DUP2 MSTORE PUSH1 0x4 PUSH1 0x20 MSTORE PUSH1 0x40 DUP2 KECCAK256 DUP1 SLOAD PUSH1 0x24 CALLDATALOAD SWAP3 SWAP1 DUP4 LT ISZERO PUSH2 0x146 JUMPI PUSH1 0x20 PUSH2 0xD9B DUP5 DUP5 PUSH2 0x16F3 JUMP JUMPDEST POP CALLVALUE PUSH2 0x146 JUMPI PUSH1 0x20 CALLDATASIZE PUSH1 0x3 NOT ADD SLT PUSH2 0x146 JUMPI PUSH1 0x20 PUSH1 0x2 SLOAD PUSH1 0x4 CALLDATALOAD LT PUSH1 0x40 MLOAD SWAP1 DUP2 MSTORE RETURN JUMPDEST POP CALLVALUE PUSH2 0x146 JUMPI PUSH1 0x20 CALLDATASIZE PUSH1 0x3 NOT ADD SLT PUSH2 0x146 JUMPI PUSH32 0xB48FA9BF541BEFCB145FB17ED9591349D15DB698F48943730A3E93592B4011E4 PUSH1 0x20 PUSH2 0xEC5 PUSH2 0x149F JUMP JUMPDEST PUSH2 0xECD PUSH2 0x1849 JUMP JUMPDEST PUSH1 0xC DUP1 SLOAD PUSH1 0x1 PUSH1 0x1 PUSH1 0xA0 SHL SUB NOT AND PUSH1 0x1 PUSH1 0x1 PUSH1 0xA0 SHL SUB SWAP3 SWAP1 SWAP3 AND SWAP2 DUP3 OR SWAP1 SSTORE PUSH1 0x40 MLOAD SWAP1 DUP2 MSTORE LOG1 DUP1 RETURN JUMPDEST POP CALLVALUE PUSH2 0x146 JUMPI PUSH1 0x20 CALLDATASIZE PUSH1 0x3 NOT ADD SLT PUSH2 0x146 JUMPI PUSH1 0x4 CALLDATALOAD DUP2 MSTORE PUSH1 0x5 PUSH1 0x20 MSTORE PUSH1 0x40 DUP2 KECCAK256 PUSH1 0x40 MLOAD SWAP2 DUP3 PUSH1 0x20 DUP4 SLOAD SWAP2 DUP3 DUP2 MSTORE ADD SWAP3 DUP3 MSTORE PUSH1 0x20 DUP3 KECCAK256 SWAP2 JUMPDEST DUP2 DUP2 LT PUSH2 0xF54 JUMPI PUSH2 0xF50 DUP6 PUSH2 0xF44 DUP2 DUP8 SUB DUP3 PUSH2 0x15F3 JUMP JUMPDEST PUSH1 0x40 MLOAD SWAP2 DUP3 SWAP2 DUP3 PUSH2 0x16B9 JUMP JUMPDEST SUB SWAP1 RETURN JUMPDEST DUP3 SLOAD DUP5 MSTORE PUSH1 0x20 SWAP1 SWAP4 ADD SWAP3 PUSH1 0x1 SWAP3 DUP4 ADD SWAP3 ADD PUSH2 0xF2D JUMP JUMPDEST POP CALLVALUE PUSH2 0x146 JUMPI PUSH1 0x20 CALLDATASIZE PUSH1 0x3 NOT ADD SLT PUSH2 0x146 JUMPI PUSH1 0x4 CALLDATALOAD PUSH2 0xF87 PUSH2 0x1790 JUMP JUMPDEST POP PUSH1 0x2 SLOAD DUP2 LT ISZERO PUSH2 0x1039 JUMPI DUP2 PUSH1 0x40 SWAP2 PUSH2 0xF50 SWAP4 MSTORE PUSH1 0x3 PUSH1 0x20 MSTORE KECCAK256 PUSH1 0xFF PUSH1 0x8 PUSH1 0x40 MLOAD SWAP3 PUSH2 0xFB2 DUP5 PUSH2 0x15C0 JUMP JUMPDEST DUP1 SLOAD DUP5 MSTORE PUSH1 0x1 DUP2 ADD SLOAD PUSH1 0x20 DUP6 ADD MSTORE PUSH1 0x2 DUP2 ADD SLOAD PUSH1 0x1 PUSH1 0x1 PUSH1 0xA0 SHL SUB AND PUSH1 0x40 DUP6 ADD MSTORE PUSH2 0xFDF PUSH1 0x3 DUP3 ADD PUSH2 0x1615 JUMP JUMPDEST PUSH1 0x60 DUP6 ADD MSTORE PUSH2 0xFF0 PUSH1 0x4 DUP3 ADD PUSH2 0x1615 JUMP JUMPDEST PUSH1 0x80 DUP6 ADD MSTORE PUSH2 0x1001 PUSH1 0x5 DUP3 ADD PUSH2 0x1615 JUMP JUMPDEST PUSH1 0xA0 DUP6 ADD MSTORE PUSH1 0x6 DUP2 ADD SLOAD PUSH1 0xC0 DUP6 ADD MSTORE PUSH1 0x7 DUP2 ADD SLOAD PUSH1 0xE0 DUP6 ADD MSTORE ADD SLOAD AND ISZERO ISZERO PUSH2 0x100 DUP3 ADD MSTORE PUSH1 0x40 MLOAD SWAP2 DUP3 SWAP2 PUSH1 0x20 DUP4 MSTORE PUSH1 0x20 DUP4 ADD SWAP1 PUSH2 0x14FD JUMP JUMPDEST PUSH1 0x40 MLOAD PUSH3 0x461BCD PUSH1 0xE5 SHL DUP2 MSTORE PUSH1 0x20 PUSH1 0x4 DUP3 ADD MSTORE PUSH1 0x1B PUSH1 0x24 DUP3 ADD MSTORE PUSH32 0x436F6E747269627574696F6E20646F6573206E6F742065786973740000000000 PUSH1 0x44 DUP3 ADD MSTORE PUSH1 0x64 SWAP1 REVERT JUMPDEST POP CALLVALUE PUSH2 0x146 JUMPI DUP1 PUSH1 0x3 NOT CALLDATASIZE ADD SLT PUSH2 0x146 JUMPI SLOAD PUSH1 0x40 MLOAD PUSH1 0x1 PUSH1 0x1 PUSH1 0xA0 SHL SUB SWAP1 SWAP2 AND DUP2 MSTORE PUSH1 0x20 SWAP1 RETURN JUMPDEST POP CALLVALUE PUSH2 0x146 JUMPI PUSH1 0x20 CALLDATASIZE PUSH1 0x3 NOT ADD SLT PUSH2 0x146 JUMPI PUSH1 0xFF PUSH1 0x40 PUSH1 0x20 SWAP3 PUSH1 0x4 CALLDATALOAD DUP2 MSTORE PUSH1 0x6 DUP5 MSTORE KECCAK256 SLOAD AND PUSH1 0x40 MLOAD SWAP1 ISZERO ISZERO DUP2 MSTORE RETURN JUMPDEST POP CALLVALUE PUSH2 0x146 JUMPI DUP1 PUSH1 0x3 NOT CALLDATASIZE ADD SLT PUSH2 0x146 JUMPI PUSH1 0xC SLOAD PUSH1 0x40 MLOAD PUSH1 0x1 PUSH1 0x1 PUSH1 0xA0 SHL SUB SWAP1 SWAP2 AND DUP2 MSTORE PUSH1 0x20 SWAP1 RETURN JUMPDEST POP CALLVALUE PUSH2 0x146 JUMPI DUP1 PUSH1 0x3 NOT CALLDATASIZE ADD SLT PUSH2 0x146 JUMPI PUSH2 0x1116 PUSH2 0x1849 JUMP JUMPDEST DUP1 SLOAD PUSH1 0x1 PUSH1 0x1 PUSH1 0xA0 SHL SUB NOT DUP2 AND DUP3 SSTORE DUP2 SWAP1 PUSH1 0x1 PUSH1 0x1 PUSH1 0xA0 SHL SUB AND PUSH32 0x8BE0079C531659141344CD1FD0A4F28419497F9722A3DAAFE3B4186F6B6457E0 DUP3 DUP1 LOG3 DUP1 RETURN JUMPDEST POP CALLVALUE PUSH2 0x146 JUMPI DUP1 PUSH1 0x3 NOT CALLDATASIZE ADD SLT PUSH2 0x146 JUMPI PUSH1 0x20 PUSH1 0x2 SLOAD PUSH1 0x40 MLOAD SWAP1 DUP2 MSTORE RETURN JUMPDEST POP CALLVALUE PUSH2 0x146 JUMPI PUSH1 0x20 CALLDATASIZE PUSH1 0x3 NOT ADD SLT PUSH2 0x146 JUMPI PUSH1 0x20 SWAP1 PUSH1 0x40 SWAP1 PUSH1 0x1 PUSH1 0x1 PUSH1 0xA0 SHL SUB PUSH2 0x119D PUSH2 0x149F JUMP JUMPDEST AND DUP2 MSTORE PUSH1 0x9 DUP4 MSTORE KECCAK256 SLOAD PUSH1 0x40 MLOAD SWAP1 DUP2 MSTORE RETURN JUMPDEST POP CALLVALUE PUSH2 0x146 JUMPI PUSH1 0x20 CALLDATASIZE PUSH1 0x3 NOT ADD SLT PUSH2 0x146 JUMPI PUSH1 0x1 PUSH1 0x1 PUSH1 0xA0 SHL SUB PUSH2 0x11D0 PUSH2 0x149F JUMP JUMPDEST AND DUP2 MSTORE PUSH1 0x4 PUSH1 0x20 MSTORE PUSH1 0x40 DUP2 KECCAK256 PUSH1 0x40 MLOAD SWAP2 DUP3 PUSH1 0x20 DUP4 SLOAD SWAP2 DUP3 DUP2 MSTORE ADD SWAP3 DUP3 MSTORE PUSH1 0x20 DUP3 KECCAK256 SWAP2 JUMPDEST DUP2 DUP2 LT PUSH2 0x120A JUMPI PUSH2 0xF50 DUP6 PUSH2 0xF44 DUP2 DUP8 SUB DUP3 PUSH2 0x15F3 JUMP JUMPDEST DUP3 SLOAD DUP5 MSTORE PUSH1 0x20 SWAP1 SWAP4 ADD SWAP3 PUSH1 0x1 SWAP3 DUP4 ADD SWAP3 ADD PUSH2 0x11F3 JUMP JUMPDEST POP CALLVALUE PUSH2 0x146 JUMPI PUSH1 0x20 CALLDATASIZE PUSH1 0x3 NOT ADD SLT PUSH2 0x146 JUMPI PUSH1 0x40 SWAP1 PUSH1 0x4 CALLDATALOAD DUP2 MSTORE PUSH1 0x3 PUSH1 0x20 MSTORE KECCAK256 DUP1 SLOAD PUSH1 0x1 DUP3 ADD SLOAD SWAP2 PUSH1 0x1 DUP1 PUSH1 0xA0 SHL SUB PUSH1 0x2 DUP3 ADD SLOAD AND PUSH2 0x1261 PUSH1 0x3 DUP4 ADD PUSH2 0x1615 JUMP JUMPDEST SWAP2 PUSH2 0x12D9 PUSH2 0x1271 PUSH1 0x4 DUP4 ADD PUSH2 0x1615 JUMP JUMPDEST PUSH2 0x12CB PUSH2 0x1280 PUSH1 0x5 DUP6 ADD PUSH2 0x1615 JUMP JUMPDEST SWAP2 PUSH2 0x12BD PUSH1 0x6 DUP7 ADD SLOAD SWAP8 PUSH1 0xFF PUSH1 0x8 PUSH1 0x7 DUP10 ADD SLOAD SWAP9 ADD SLOAD AND SWAP8 PUSH1 0x40 MLOAD SWAP12 DUP13 SWAP12 DUP13 MSTORE PUSH1 0x20 DUP13 ADD MSTORE PUSH1 0x40 DUP12 ADD MSTORE PUSH2 0x120 PUSH1 0x60 DUP12 ADD MSTORE PUSH2 0x120 DUP11 ADD SWAP1 PUSH2 0x14D8 JUMP JUMPDEST SWAP1 DUP9 DUP3 SUB PUSH1 0x80 DUP11 ADD MSTORE PUSH2 0x14D8 JUMP JUMPDEST SWAP1 DUP7 DUP3 SUB PUSH1 0xA0 DUP9 ADD MSTORE PUSH2 0x14D8 JUMP JUMPDEST SWAP3 PUSH1 0xC0 DUP6 ADD MSTORE PUSH1 0xE0 DUP5 ADD MSTORE ISZERO ISZERO PUSH2 0x100 DUP4 ADD MSTORE SUB SWAP1 RETURN JUMPDEST POP CALLVALUE PUSH2 0x146 JUMPI DUP1 PUSH1 0x3 NOT CALLDATASIZE ADD SLT PUSH2 0x146 JUMPI PUSH1 0x2 SLOAD PUSH2 0x130D DUP2 PUSH2 0x1778 JUMP JUMPDEST SWAP1 PUSH2 0x131B PUSH1 0x40 MLOAD SWAP3 DUP4 PUSH2 0x15F3 JUMP JUMPDEST DUP1 DUP3 MSTORE PUSH1 0x1F NOT PUSH2 0x132A DUP3 PUSH2 0x1778 JUMP JUMPDEST ADD DUP4 JUMPDEST DUP2 DUP2 LT PUSH2 0x1452 JUMPI POP POP DUP3 JUMPDEST DUP2 DUP2 LT PUSH2 0x13A6 JUMPI DUP3 DUP5 PUSH1 0x40 MLOAD SWAP2 DUP3 SWAP2 PUSH1 0x20 DUP4 ADD PUSH1 0x20 DUP5 MSTORE DUP3 MLOAD DUP1 SWAP2 MSTORE PUSH1 0x40 DUP5 ADD PUSH1 0x20 PUSH1 0x40 DUP4 PUSH1 0x5 SHL DUP8 ADD ADD SWAP5 ADD SWAP3 SWAP1 JUMPDEST DUP3 DUP3 LT PUSH2 0x1377 JUMPI POP POP POP POP SUB SWAP1 RETURN JUMPDEST SWAP2 SWAP4 PUSH1 0x1 SWAP2 SWAP4 SWAP6 POP PUSH1 0x20 PUSH2 0x1396 DUP2 SWAP3 PUSH1 0x3F NOT DUP11 DUP3 SUB ADD DUP7 MSTORE DUP9 MLOAD PUSH2 0x14FD JUMP JUMPDEST SWAP7 ADD SWAP3 ADD SWAP3 ADD DUP6 SWAP5 SWAP4 SWAP2 SWAP3 PUSH2 0x1368 JUMP JUMPDEST DUP1 PUSH1 0x1 SWAP2 DUP6 MSTORE PUSH1 0x3 PUSH1 0x20 MSTORE PUSH1 0x40 DUP6 KECCAK256 PUSH1 0xFF PUSH1 0x8 PUSH1 0x40 MLOAD SWAP3 PUSH2 0x13C6 DUP5 PUSH2 0x15C0 JUMP JUMPDEST DUP1 SLOAD DUP5 MSTORE DUP6 DUP2 ADD SLOAD PUSH1 0x20 DUP6 ADD MSTORE DUP6 DUP1 PUSH1 0xA0 SHL SUB PUSH1 0x2 DUP3 ADD SLOAD AND PUSH1 0x40 DUP6 ADD MSTORE PUSH2 0x13F0 PUSH1 0x3 DUP3 ADD PUSH2 0x1615 JUMP JUMPDEST PUSH1 0x60 DUP6 ADD MSTORE PUSH2 0x1401 PUSH1 0x4 DUP3 ADD PUSH2 0x1615 JUMP JUMPDEST PUSH1 0x80 DUP6 ADD MSTORE PUSH2 0x1412 PUSH1 0x5 DUP3 ADD PUSH2 0x1615 JUMP JUMPDEST PUSH1 0xA0 DUP6 ADD MSTORE PUSH1 0x6 DUP2 ADD SLOAD PUSH1 0xC0 DUP6 ADD MSTORE PUSH1 0x7 DUP2 ADD SLOAD PUSH1 0xE0 DUP6 ADD MSTORE ADD SLOAD AND ISZERO ISZERO PUSH2 0x100 DUP3 ADD MSTORE PUSH2 0x1440 DUP3 DUP7 PUSH2 0x17D6 JUMP JUMPDEST MSTORE PUSH2 0x144B DUP2 DUP6 PUSH2 0x17D6 JUMP JUMPDEST POP ADD PUSH2 0x1338 JUMP JUMPDEST PUSH1 0x20 SWAP1 PUSH2 0x145D PUSH2 0x1790 JUMP JUMPDEST DUP3 DUP3 DUP8 ADD ADD MSTORE ADD PUSH2 0x132D JUMP JUMPDEST SWAP1 POP CALLVALUE PUSH2 0x5A2 JUMPI PUSH1 0x20 CALLDATASIZE PUSH1 0x3 NOT ADD SLT PUSH2 0x5A2 JUMPI PUSH1 0x20 SWAP2 PUSH1 0x40 SWAP1 PUSH1 0x1 PUSH1 0x1 PUSH1 0xA0 SHL SUB PUSH2 0x1492 PUSH2 0x149F JUMP JUMPDEST AND DUP2 MSTORE PUSH1 0x8 DUP5 MSTORE KECCAK256 SLOAD DUP2 MSTORE RETURN JUMPDEST PUSH1 0x4 CALLDATALOAD SWAP1 PUSH1 0x1 PUSH1 0x1 PUSH1 0xA0 SHL SUB DUP3 AND DUP3 SUB PUSH2 0x848 JUMPI JUMP JUMPDEST PUSH1 0x0 JUMPDEST DUP4 DUP2 LT PUSH2 0x14C8 JUMPI POP POP PUSH1 0x0 SWAP2 ADD MSTORE JUMP JUMPDEST DUP2 DUP2 ADD MLOAD DUP4 DUP3 ADD MSTORE PUSH1 0x20 ADD PUSH2 0x14B8 JUMP JUMPDEST SWAP1 PUSH1 0x20 SWAP2 PUSH2 0x14F1 DUP2 MLOAD DUP1 SWAP3 DUP2 DUP6 MSTORE DUP6 DUP1 DUP7 ADD SWAP2 ADD PUSH2 0x14B5 JUMP JUMPDEST PUSH1 0x1F ADD PUSH1 0x1F NOT AND ADD ADD SWAP1 JUMP JUMPDEST SWAP1 DUP2 MLOAD DUP2 MSTORE PUSH1 0x20 DUP3 ADD MLOAD PUSH1 0x20 DUP3 ADD MSTORE PUSH1 0x1 DUP1 PUSH1 0xA0 SHL SUB PUSH1 0x40 DUP4 ADD MLOAD AND PUSH1 0x40 DUP3 ADD MSTORE PUSH2 0x100 DUP1 PUSH2 0x1567 PUSH2 0x1555 PUSH2 0x1543 PUSH1 0x60 DUP8 ADD MLOAD PUSH2 0x120 PUSH1 0x60 DUP9 ADD MSTORE PUSH2 0x120 DUP8 ADD SWAP1 PUSH2 0x14D8 JUMP JUMPDEST PUSH1 0x80 DUP8 ADD MLOAD DUP7 DUP3 SUB PUSH1 0x80 DUP9 ADD MSTORE PUSH2 0x14D8 JUMP JUMPDEST PUSH1 0xA0 DUP7 ADD MLOAD DUP6 DUP3 SUB PUSH1 0xA0 DUP8 ADD MSTORE PUSH2 0x14D8 JUMP JUMPDEST SWAP4 PUSH1 0xC0 DUP2 ADD MLOAD PUSH1 0xC0 DUP6 ADD MSTORE PUSH1 0xE0 DUP2 ADD MLOAD PUSH1 0xE0 DUP6 ADD MSTORE ADD MLOAD ISZERO ISZERO SWAP2 ADD MSTORE SWAP1 JUMP JUMPDEST SWAP1 PUSH1 0x1 DUP3 DUP2 SHR SWAP3 AND DUP1 ISZERO PUSH2 0x15B6 JUMPI JUMPDEST PUSH1 0x20 DUP4 LT EQ PUSH2 0x15A0 JUMPI JUMP JUMPDEST PUSH4 0x4E487B71 PUSH1 0xE0 SHL PUSH1 0x0 MSTORE PUSH1 0x22 PUSH1 0x4 MSTORE PUSH1 0x24 PUSH1 0x0 REVERT JUMPDEST SWAP2 PUSH1 0x7F AND SWAP2 PUSH2 0x1595 JUMP JUMPDEST PUSH2 0x120 DUP2 ADD SWAP1 DUP2 LT PUSH8 0xFFFFFFFFFFFFFFFF DUP3 GT OR PUSH2 0x15DD JUMPI PUSH1 0x40 MSTORE JUMP JUMPDEST PUSH4 0x4E487B71 PUSH1 0xE0 SHL PUSH1 0x0 MSTORE PUSH1 0x41 PUSH1 0x4 MSTORE PUSH1 0x24 PUSH1 0x0 REVERT JUMPDEST SWAP1 PUSH1 0x1F DUP1 NOT SWAP2 ADD AND DUP2 ADD SWAP1 DUP2 LT PUSH8 0xFFFFFFFFFFFFFFFF DUP3 GT OR PUSH2 0x15DD JUMPI PUSH1 0x40 MSTORE JUMP JUMPDEST SWAP1 PUSH1 0x40 MLOAD SWAP2 DUP3 PUSH1 0x0 DUP3 SLOAD SWAP3 PUSH2 0x1629 DUP5 PUSH2 0x1586 JUMP JUMPDEST DUP1 DUP5 MSTORE SWAP4 PUSH1 0x1 DUP2 AND SWAP1 DUP2 ISZERO PUSH2 0x1697 JUMPI POP PUSH1 0x1 EQ PUSH2 0x1650 JUMPI JUMPDEST POP PUSH2 0x164E SWAP3 POP SUB DUP4 PUSH2 0x15F3 JUMP JUMPDEST JUMP JUMPDEST SWAP1 POP PUSH1 0x0 SWAP3 SWAP2 SWAP3 MSTORE PUSH1 0x20 PUSH1 0x0 KECCAK256 SWAP1 PUSH1 0x0 SWAP2 JUMPDEST DUP2 DUP4 LT PUSH2 0x167B JUMPI POP POP SWAP1 PUSH1 0x20 PUSH2 0x164E SWAP3 DUP3 ADD ADD CODESIZE PUSH2 0x1641 JUMP JUMPDEST PUSH1 0x20 SWAP2 SWAP4 POP DUP1 PUSH1 0x1 SWAP2 SLOAD DUP4 DUP6 DUP10 ADD ADD MSTORE ADD SWAP2 ADD SWAP1 SWAP2 DUP5 SWAP3 PUSH2 0x1662 JUMP JUMPDEST SWAP1 POP PUSH1 0x20 SWAP3 POP PUSH2 0x164E SWAP5 SWAP2 POP PUSH1 0xFF NOT AND DUP3 DUP5 ADD MSTORE ISZERO ISZERO PUSH1 0x5 SHL DUP3 ADD ADD CODESIZE PUSH2 0x1641 JUMP JUMPDEST PUSH1 0x20 PUSH1 0x40 DUP2 DUP4 ADD SWAP3 DUP3 DUP2 MSTORE DUP5 MLOAD DUP1 SWAP5 MSTORE ADD SWAP3 ADD SWAP1 PUSH1 0x0 JUMPDEST DUP2 DUP2 LT PUSH2 0x16DD JUMPI POP POP POP SWAP1 JUMP JUMPDEST DUP3 MLOAD DUP5 MSTORE PUSH1 0x20 SWAP4 DUP5 ADD SWAP4 SWAP1 SWAP3 ADD SWAP2 PUSH1 0x1 ADD PUSH2 0x16D0 JUMP JUMPDEST DUP1 SLOAD DUP3 LT ISZERO PUSH2 0x170B JUMPI PUSH1 0x0 MSTORE PUSH1 0x20 PUSH1 0x0 KECCAK256 ADD SWAP1 PUSH1 0x0 SWAP1 JUMP JUMPDEST PUSH4 0x4E487B71 PUSH1 0xE0 SHL PUSH1 0x0 MSTORE PUSH1 0x32 PUSH1 0x4 MSTORE PUSH1 0x24 PUSH1 0x0 REVERT JUMPDEST DUP2 PUSH1 0x1F DUP3 ADD SLT ISZERO PUSH2 0x848 JUMPI DUP1 CALLDATALOAD SWAP1 PUSH8 0xFFFFFFFFFFFFFFFF DUP3 GT PUSH2 0x15DD JUMPI PUSH1 0x40 MLOAD SWAP3 PUSH2 0x1756 PUSH1 0x1F DUP5 ADD PUSH1 0x1F NOT AND PUSH1 0x20 ADD DUP6 PUSH2 0x15F3 JUMP JUMPDEST DUP3 DUP5 MSTORE PUSH1 0x20 DUP4 DUP4 ADD ADD GT PUSH2 0x848 JUMPI DUP2 PUSH1 0x0 SWAP3 PUSH1 0x20 DUP1 SWAP4 ADD DUP4 DUP7 ADD CALLDATACOPY DUP4 ADD ADD MSTORE SWAP1 JUMP JUMPDEST PUSH8 0xFFFFFFFFFFFFFFFF DUP2 GT PUSH2 0x15DD JUMPI PUSH1 0x5 SHL PUSH1 0x20 ADD SWAP1 JUMP JUMPDEST PUSH1 0x40 MLOAD SWAP1 PUSH2 0x179D DUP3 PUSH2 0x15C0 JUMP JUMPDEST PUSH1 0x0 PUSH2 0x100 DUP4 DUP3 DUP2 MSTORE DUP3 PUSH1 0x20 DUP3 ADD MSTORE DUP3 PUSH1 0x40 DUP3 ADD MSTORE PUSH1 0x60 DUP1 DUP3 ADD MSTORE PUSH1 0x60 PUSH1 0x80 DUP3 ADD MSTORE PUSH1 0x60 PUSH1 0xA0 DUP3 ADD MSTORE DUP3 PUSH1 0xC0 DUP3 ADD MSTORE DUP3 PUSH1 0xE0 DUP3 ADD MSTORE ADD MSTORE JUMP JUMPDEST DUP1 MLOAD DUP3 LT ISZERO PUSH2 0x170B JUMPI PUSH1 0x20 SWAP2 PUSH1 0x5 SHL ADD ADD SWAP1 JUMP JUMPDEST PUSH1 0x0 NOT DUP2 EQ PUSH2 0x17F9 JUMPI PUSH1 0x1 ADD SWAP1 JUMP JUMPDEST PUSH4 0x4E487B71 PUSH1 0xE0 SHL PUSH1 0x0 MSTORE PUSH1 0x11 PUSH1 0x4 MSTORE PUSH1 0x24 PUSH1 0x0 REVERT JUMPDEST DUP1 SLOAD PUSH9 0x10000000000000000 DUP2 LT ISZERO PUSH2 0x15DD JUMPI PUSH2 0x1831 SWAP2 PUSH1 0x1 DUP3 ADD DUP2 SSTORE PUSH2 0x16F3 JUMP JUMPDEST DUP2 SWAP3 SWAP2 SLOAD SWAP1 PUSH1 0x3 SHL SWAP2 DUP3 SHL SWAP2 PUSH1 0x0 NOT SWAP1 SHL NOT AND OR SWAP1 SSTORE JUMP JUMPDEST PUSH1 0x0 SLOAD PUSH1 0x1 PUSH1 0x1 PUSH1 0xA0 SHL SUB AND CALLER SUB PUSH2 0x185D JUMPI JUMP JUMPDEST PUSH1 0x64 PUSH1 0x40 MLOAD PUSH3 0x461BCD PUSH1 0xE5 SHL DUP2 MSTORE PUSH1 0x20 PUSH1 0x4 DUP3 ADD MSTORE PUSH1 0x20 PUSH1 0x24 DUP3 ADD MSTORE PUSH32 0x4F776E61626C653A2063616C6C6572206973206E6F7420746865206F776E6572 PUSH1 0x44 DUP3 ADD MSTORE REVERT INVALID LOG2 PUSH5 0x6970667358 0x22 SLT KECCAK256 DUP3 0xD3 MSTORE8 0x2C 0xC6 LOG2 SWAP13 0xDB RETURN 0x28 0x21 TLOAD EQ DUP11 0x2C PUSH13 0x2CC2E884D5D41D0ACACC15F979 GASLIMIT 0xF8 RETURN PUSH5 0x736F6C6343 STOP ADDMOD SHR STOP CALLER "
        },
        "methodIdentifiers": {
          "addressCampaignContributions(address,uint256)": "f2f68249",
          "addressQualifiedContributions(address)": "511e471f",
          "addressTotalContributions(address)": "0b7a0f55",
          "campaignManager()": "fb5e76e6",
          "campaignSubmissions(uint256,uint256)": "ea4ef126",
          "contributionCount()": "5b18056b",
          "contributionExists(uint256)": "9aac93ce",
          "contributions(uint256)": "1cee0700",
          "contributorSubmissions(address,uint256)": "9e342dc4",
          "escrowManager()": "c12255c4",
          "getAddressContributionCount(address,uint256)": "40f77f3a",
          "getAddressTotalContributions(address)": "d9303b6f",
          "getCampaignSubmissions(uint256)": "9437e4bb",
          "getContributionDetails(uint256)": "9061b1a9",
          "getContributionStore()": "10d6ab6b",
          "getContributorSubmissions(address)": "4a9aef68",
          "owner()": "8da5cb5b",
          "renounceOwnership()": "715018a6",
          "reputationContract()": "87bc1425",
          "setReputationContract(address)": "9584660f",
          "submissionHashes(bytes32)": "8ab83598",
          "submitContribution(uint256,string,string,string,uint256)": "f7aea860",
          "transferOwnership(address)": "f2fde38b"
        }
      }
    }
  }
}