{
  "contracts/Reputation.sol": {
    "Reputation": {
      "abi": [
        {
          "inputs": [],
          "stateMutability": "nonpayable",
          "type": "constructor"
        },
        {
          "anonymous": false,
          "inputs": [
            {
              "indexed": true,
              "internalType": "address",
              "name": "user",
              "type": "address"
            },
            {
              "indexed": true,
              "internalType": "uint256",
              "name": "badgeId",
              "type": "uint256"
            },
            {
              "indexed": false,
              "internalType": "string",
              "name": "badgeName",
              "type": "string"
            }
          ],
          "name": "BadgeAwarded",
          "type": "event"
        },
        {
          "anonymous": false,
          "inputs": [
            {
              "indexed": true,
              "internalType": "uint256",
              "name": "badgeId",
              "type": "uint256"
            },
            {
              "indexed": false,
              "internalType": "string",
              "name": "name",
              "type": "string"
            }
          ],
          "name": "BadgeCreated",
          "type": "event"
        },
        {
          "anonymous": false,
          "inputs": [
            {
              "indexed": true,
              "internalType": "address",
              "name": "user",
              "type": "address"
            },
            {
              "indexed": false,
              "internalType": "uint256",
              "name": "newTotal",
              "type": "uint256"
            }
          ],
          "name": "CampaignContributionRecorded",
          "type": "event"
        },
        {
          "anonymous": false,
          "inputs": [
            {
              "indexed": true,
              "internalType": "address",
              "name": "user",
              "type": "address"
            },
            {
              "indexed": false,
              "internalType": "uint256",
              "name": "newTotal",
              "type": "uint256"
            }
          ],
          "name": "ContributionRecorded",
          "type": "event"
        },
        {
          "anonymous": false,
          "inputs": [
            {
              "indexed": true,
              "internalType": "address",
              "name": "previousOwner",
              "type": "address"
            },
            {
              "indexed": true,
              "internalType": "address",
              "name": "newOwner",
              "type": "address"
            }
          ],
          "name": "OwnershipTransferred",
          "type": "event"
        },
        {
          "anonymous": false,
          "inputs": [
            {
              "indexed": true,
              "internalType": "address",
              "name": "user",
              "type": "address"
            },
            {
              "indexed": false,
              "internalType": "uint256",
              "name": "newTotal",
              "type": "uint256"
            }
          ],
          "name": "PaymentRecorded",
          "type": "event"
        },
        {
          "anonymous": false,
          "inputs": [
            {
              "indexed": true,
              "internalType": "address",
              "name": "user",
              "type": "address"
            },
            {
              "indexed": false,
              "internalType": "int256",
              "name": "change",
              "type": "int256"
            },
            {
              "indexed": false,
              "internalType": "uint256",
              "name": "newScore",
              "type": "uint256"
            }
          ],
          "name": "ReputationChanged",
          "type": "event"
        },
        {
          "anonymous": false,
          "inputs": [
            {
              "indexed": true,
              "internalType": "address",
              "name": "user",
              "type": "address"
            }
          ],
          "name": "ReputationStoreCreated",
          "type": "event"
        },
        {
          "inputs": [],
          "name": "BASE_CAMPAIGN_CONTRIBUTION_POINTS",
          "outputs": [
            {
              "internalType": "uint256",
              "name": "",
              "type": "uint256"
            }
          ],
          "stateMutability": "view",
          "type": "function"
        },
        {
          "inputs": [],
          "name": "BASE_CONTRIBUTION_POINTS",
          "outputs": [
            {
              "internalType": "uint256",
              "name": "",
              "type": "uint256"
            }
          ],
          "stateMutability": "view",
          "type": "function"
        },
        {
          "inputs": [],
          "name": "BASE_PAYMENT_POINTS",
          "outputs": [
            {
              "internalType": "uint256",
              "name": "",
              "type": "uint256"
            }
          ],
          "stateMutability": "view",
          "type": "function"
        },
        {
          "inputs": [
            {
              "internalType": "address",
              "name": "_user",
              "type": "address"
            },
            {
              "internalType": "uint256",
              "name": "_points",
              "type": "uint256"
            }
          ],
          "name": "addReputationPoints",
          "outputs": [],
          "stateMutability": "nonpayable",
          "type": "function"
        },
        {
          "inputs": [
            {
              "internalType": "uint256",
              "name": "",
              "type": "uint256"
            }
          ],
          "name": "badges",
          "outputs": [
            {
              "internalType": "string",
              "name": "name",
              "type": "string"
            },
            {
              "internalType": "string",
              "name": "description",
              "type": "string"
            },
            {
              "internalType": "uint256",
              "name": "scoreThreshold",
              "type": "uint256"
            },
            {
              "internalType": "uint256",
              "name": "contributionThreshold",
              "type": "uint256"
            },
            {
              "internalType": "uint256",
              "name": "paymentThreshold",
              "type": "uint256"
            },
            {
              "internalType": "uint256",
              "name": "campaignContributionThreshold",
              "type": "uint256"
            }
          ],
          "stateMutability": "view",
          "type": "function"
        },
        {
          "inputs": [
            {
              "internalType": "address",
              "name": "_user",
              "type": "address"
            }
          ],
          "name": "ensureReputationStoreExists",
          "outputs": [],
          "stateMutability": "nonpayable",
          "type": "function"
        },
        {
          "inputs": [
            {
              "internalType": "address",
              "name": "_user",
              "type": "address"
            }
          ],
          "name": "getBadgeCount",
          "outputs": [
            {
              "internalType": "uint256",
              "name": "",
              "type": "uint256"
            }
          ],
          "stateMutability": "view",
          "type": "function"
        },
        {
          "inputs": [
            {
              "internalType": "address",
              "name": "_user",
              "type": "address"
            }
          ],
          "name": "getBadges",
          "outputs": [
            {
              "internalType": "uint256[]",
              "name": "",
              "type": "uint256[]"
            }
          ],
          "stateMutability": "view",
          "type": "function"
        },
        {
          "inputs": [
            {
              "internalType": "address",
              "name": "_user",
              "type": "address"
            }
          ],
          "name": "getCampaignContributionCount",
          "outputs": [
            {
              "internalType": "uint256",
              "name": "",
              "type": "uint256"
            }
          ],
          "stateMutability": "view",
          "type": "function"
        },
        {
          "inputs": [
            {
              "internalType": "address",
              "name": "_user",
              "type": "address"
            }
          ],
          "name": "getContributionCount",
          "outputs": [
            {
              "internalType": "uint256",
              "name": "",
              "type": "uint256"
            }
          ],
          "stateMutability": "view",
          "type": "function"
        },
        {
          "inputs": [
            {
              "internalType": "address",
              "name": "_user",
              "type": "address"
            }
          ],
          "name": "getReputationScore",
          "outputs": [
            {
              "internalType": "uint256",
              "name": "",
              "type": "uint256"
            }
          ],
          "stateMutability": "view",
          "type": "function"
        },
        {
          "inputs": [
            {
              "internalType": "address",
              "name": "_user",
              "type": "address"
            }
          ],
          "name": "getSuccessfulPayments",
          "outputs": [
            {
              "internalType": "uint256",
              "name": "",
              "type": "uint256"
            }
          ],
          "stateMutability": "view",
          "type": "function"
        },
        {
          "inputs": [
            {
              "internalType": "address",
              "name": "_user",
              "type": "address"
            }
          ],
          "name": "hasReputationStore",
          "outputs": [
            {
              "internalType": "bool",
              "name": "",
              "type": "bool"
            }
          ],
          "stateMutability": "view",
          "type": "function"
        },
        {
          "inputs": [],
          "name": "owner",
          "outputs": [
            {
              "internalType": "address",
              "name": "",
              "type": "address"
            }
          ],
          "stateMutability": "view",
          "type": "function"
        },
        {
          "inputs": [
            {
              "internalType": "address",
              "name": "_campaignCreator",
              "type": "address"
            }
          ],
          "name": "recordSuccessfulCampaignContribution",
          "outputs": [],
          "stateMutability": "nonpayable",
          "type": "function"
        },
        {
          "inputs": [
            {
              "internalType": "address",
              "name": "_user",
              "type": "address"
            }
          ],
          "name": "recordSuccessfulContribution",
          "outputs": [],
          "stateMutability": "nonpayable",
          "type": "function"
        },
        {
          "inputs": [
            {
              "internalType": "address",
              "name": "_user",
              "type": "address"
            }
          ],
          "name": "recordSuccessfulPayment",
          "outputs": [],
          "stateMutability": "nonpayable",
          "type": "function"
        },
        {
          "inputs": [],
          "name": "renounceOwnership",
          "outputs": [],
          "stateMutability": "nonpayable",
          "type": "function"
        },
        {
          "inputs": [
            {
              "internalType": "address",
              "name": "newOwner",
              "type": "address"
            }
          ],
          "name": "transferOwnership",
          "outputs": [],
          "stateMutability": "nonpayable",
          "type": "function"
        }
      ],
      "evm": {
        "bytecode": {
          "linkReferences": {},
          "object": "6080604052346116f35760008054336001600160a01b0319821681178355916001600160a01b03909116907f8be0079c531659141344cd1fd0a4f28419497f9722a3daafe3b4186f6b6457e09080a36001805561005c6040611717565b60128152712737bb34b1b29021b7b73a3934b13aba37b960711b60208201526100856040611717565b90601782527f4d61646520666972737420636f6e747269627574696f6e00000000000000000060208301526100b86116f8565b818152602081019283526040810160008152606082016001815260808301906000825260a08401926000845260035468010000000000000000811015610da8576001810180600355811015610e8b576003600052945180516006969096026000805160206124e78339815191520195906001600160401b038211610da857865490600182811c921680156116e9575b6020831014610d885781601f849311611696575b50602090601f831160011461163157600092611626575b50508160011b916000199060031b1c19161785555b9551805190969060018601906001600160401b038111610da8578154600181811c9116801561161c575b6020821014610d8857601f81116115d4575b506020601f821160011461156a578190600598999a60009261155f575b50508160011b916000199060031b1c19161790555b516002860155516003850155516004840155519101556003546000198101908111610cb5576040516020815282519283602083015260005b84811061154957836000805160206124c783398151915284604081896000838284010152601f80199101168101030190a26102686040611717565b601281527120b1ba34bb329021b7b73a3934b13aba37b960711b60208201526102916040611717565b90601582527f4d61646520313020636f6e747269627574696f6e73000000000000000000000060208301526102c46116f8565b81815260208101928352604081016064815260608201600a815260808301906000825260a08401926000845260035468010000000000000000811015610da8576001810180600355811015610e8b576003600052945180516006969096026000805160206124e78339815191520195906001600160401b038211610da857865490600182811c9216801561153f575b6020831014610d885781601f8493116114ec575b50602090601f83116001146114875760009261147c575b50508160011b916000199060031b1c19161785555b9551805190969060018601906001600160401b038111610da8578154600181811c91168015611472575b6020821014610d8857601f811161142a575b506020601f82116001146113c0578190600598999a6000926113b5575b50508160011b916000199060031b1c19161790555b516002860155516003850155516004840155519101556003546000198101908111610cb5576040516020815282519283602083015260005b84811061139f57836000805160206124c783398151915284604081896000838284010152601f80199101168101030190a26104746040611717565b601281527122bc3832b93a1021b7b73a3934b13aba37b960711b602082015261049d6040611717565b90601582527f4d61646520353020636f6e747269627574696f6e73000000000000000000000060208301526104d06116f8565b81815260208101928352604081016101f48152606082016032815260808301906000825260a08401926000845260035468010000000000000000811015610da8576001810180600355811015610e8b576003600052945180516006969096026000805160206124e78339815191520195906001600160401b038211610da857865490600182811c92168015611395575b6020831014610d885781601f849311611342575b50602090601f83116001146112dd576000926112d2575b50508160011b916000199060031b1c19161785555b9551805190969060018601906001600160401b038111610da8578154600181811c911680156112c8575b6020821014610d8857601f8111611280575b506020601f8211600114611216578190600598999a60009261120b575b50508160011b916000199060031b1c19161790555b516002860155516003850155516004840155519101556003546000198101908111610cb5576040516020815282519283602083015260005b8481106111f557836000805160206124c783398151915284604081896000838284010152601f80199101168101030190a26106816040611717565b600e81526d2a393ab9ba32b21026b2b6b132b960911b60208201526106a66040611717565b90601f82527f436f6d706c657465642035207375636365737366756c207061796d656e74730060208301526106d96116f8565b818152602081019283526040810160328152606082016000815260808301906005825260a08401926000845260035468010000000000000000811015610da8576001810180600355811015610e8b576003600052945180516006969096026000805160206124e78339815191520195906001600160401b038211610da857865490600182811c921680156111eb575b6020831014610d885781601f849311611198575b50602090601f831160011461113357600092611128575b50508160011b916000199060031b1c19161785555b9551805190969060018601906001600160401b038111610da8578154600181811c9116801561111e575b6020821014610d8857601f81116110d6575b506020601f821160011461106c578190600598999a600092611061575b50508160011b916000199060031b1c19161790555b516002860155516003850155516004840155519101556003546000198101908111610cb5576040516020815282519283602083015260005b84811061104b57836000805160206124c783398151915284604081896000838284010152601f80199101168101030190a26108896040611717565b600c81526b22b634ba329026b2b6b132b960a11b60208201526108ac6040611717565b90601582527f486967682072657075746174696f6e2073636f7265000000000000000000000060208301526108df6116f8565b81815260208101928352604081016103e88152606082016000815260808301906000825260a08401926000845260035468010000000000000000811015610da8576001810180600355811015610e8b576003600052945180516006969096026000805160206124e78339815191520195906001600160401b038211610da857865490600182811c92168015611041575b6020831014610d885781601f849311610fee575b50602090601f8311600114610f8957600092610f7e575b50508160011b916000199060031b1c19161785555b9551805190969060018601906001600160401b038111610da8578154600181811c91168015610f74575b6020821014610d8857601f8111610f2c575b506020601f8211600114610ec2578190600598999a600092610eb7575b50508160011b916000199060031b1c19161790555b516002860155516003850155516004840155519101556003546000198101908111610cb5576040516020815282519283602083015260005b848110610ea157836000805160206124c783398151915284604081896000838284010152601f80199101168101030190a2610a906040611717565b600f81526e21b0b6b830b4b3b71026b0b9ba32b960891b6020820152610ab66040611717565b90601a82527f52656365697665642031303020636f6e747269627574696f6e730000000000006020830152610ae96116f8565b818152602081019283526040810161012c8152606082016000815260808301906000825260a08401926064845260035468010000000000000000811015610da8576001810180600355811015610e8b576003600052945180516006969096026000805160206124e78339815191520195906001600160401b038211610da857865490600182811c92168015610e81575b6020831014610d885781601f849311610e2e575b50602090601f8311600114610dc957600092610dbe575b50508160011b916000199060031b1c19161785555b9551805190969060018601906001600160401b038111610da8578154600181811c91168015610d9e575b6020821014610d8857601f8111610d40575b506020601f8211600114610cd6578190600598999a600092610ccb575b50508160011b916000199060031b1c19161790555b516002860155516003850155516004840155519101556003546000198101908111610cb5576040516020815282519283602083015260005b848110610c9f57836000805160206124c783398151915284604081896000838284010152601f80199101168101030190a2604051610d8a908161173d8239f35b8060208092840101516040828601015201610c5f565b634e487b7160e01b600052601160045260246000fd5b015190508a80610c12565b601f1982169983600052816000209a60005b818110610d285750916005999a9b91846001959410610d0f575b505050811b019055610c27565b015160001960f88460031b161c191690558a8080610d02565b838301518d556001909c019b60209384019301610ce8565b826000526020600020601f830160051c81019160208410610d7e575b601f0160051c01905b818110610d725750610bf5565b60008155600101610d65565b9091508190610d5c565b634e487b7160e01b600052602260045260246000fd5b90607f1690610be3565b634e487b7160e01b600052604160045260246000fd5b015190508980610ba4565b60008981528281209350601f198516905b818110610e165750908460019594939210610dfd575b505050811b018555610bb9565b015160001960f88460031b161c19169055898080610df0565b92936020600181928786015181550195019301610dda565b909150876000526020600020601f840160051c81019160208510610e77575b90601f859493920160051c01905b818110610e685750610b8d565b60008155849350600101610e5b565b9091508190610e4d565b91607f1691610b79565b634e487b7160e01b600052603260045260246000fd5b8060208092840101516040828601015201610a55565b015190508a80610a08565b601f1982169983600052816000209a60005b818110610f145750916005999a9b91846001959410610efb575b505050811b019055610a1d565b015160001960f88460031b161c191690558a8080610eee565b838301518d556001909c019b60209384019301610ed4565b826000526020600020601f830160051c81019160208410610f6a575b601f0160051c01905b818110610f5e57506109eb565b60008155600101610f51565b9091508190610f48565b90607f16906109d9565b01519050898061099a565b60008981528281209350601f198516905b818110610fd65750908460019594939210610fbd575b505050811b0185556109af565b015160001960f88460031b161c19169055898080610fb0565b92936020600181928786015181550195019301610f9a565b909150876000526020600020601f840160051c81019160208510611037575b90601f859493920160051c01905b8181106110285750610983565b6000815584935060010161101b565b909150819061100d565b91607f169161096f565b806020809284010151604082860101520161084e565b015190508a80610801565b601f1982169983600052816000209a60005b8181106110be5750916005999a9b918460019594106110a5575b505050811b019055610816565b015160001960f88460031b161c191690558a8080611098565b838301518d556001909c019b6020938401930161107e565b826000526020600020601f830160051c81019160208410611114575b601f0160051c01905b81811061110857506107e4565b600081556001016110fb565b90915081906110f2565b90607f16906107d2565b015190508980610793565b60008981528281209350601f198516905b8181106111805750908460019594939210611167575b505050811b0185556107a8565b015160001960f88460031b161c1916905589808061115a565b92936020600181928786015181550195019301611144565b909150876000526020600020601f840160051c810191602085106111e1575b90601f859493920160051c01905b8181106111d2575061077c565b600081558493506001016111c5565b90915081906111b7565b91607f1691610768565b8060208092840101516040828601015201610646565b015190508a806105f9565b601f1982169983600052816000209a60005b8181106112685750916005999a9b9184600195941061124f575b505050811b01905561060e565b015160001960f88460031b161c191690558a8080611242565b838301518d556001909c019b60209384019301611228565b826000526020600020601f830160051c810191602084106112be575b601f0160051c01905b8181106112b257506105dc565b600081556001016112a5565b909150819061129c565b90607f16906105ca565b01519050898061058b565b60008981528281209350601f198516905b81811061132a5750908460019594939210611311575b505050811b0185556105a0565b015160001960f88460031b161c19169055898080611304565b929360206001819287860151815501950193016112ee565b909150876000526020600020601f840160051c8101916020851061138b575b90601f859493920160051c01905b81811061137c5750610574565b6000815584935060010161136f565b9091508190611361565b91607f1691610560565b8060208092840101516040828601015201610439565b015190508a806103ec565b601f1982169983600052816000209a60005b8181106114125750916005999a9b918460019594106113f9575b505050811b019055610401565b015160001960f88460031b161c191690558a80806113ec565b838301518d556001909c019b602093840193016113d2565b826000526020600020601f830160051c81019160208410611468575b601f0160051c01905b81811061145c57506103cf565b6000815560010161144f565b9091508190611446565b90607f16906103bd565b01519050898061037e565b60008981528281209350601f198516905b8181106114d457509084600195949392106114bb575b505050811b018555610393565b015160001960f88460031b161c191690558980806114ae565b92936020600181928786015181550195019301611498565b909150876000526020600020601f840160051c81019160208510611535575b90601f859493920160051c01905b8181106115265750610367565b60008155849350600101611519565b909150819061150b565b91607f1691610353565b806020809284010151604082860101520161022d565b0151905038806101e0565b601f1982169983600052816000209a60005b8181106115bc5750916005999a9b918460019594106115a3575b505050811b0190556101f5565b015160001960f88460031b161c19169055388080611596565b838301518d556001909c019b6020938401930161157c565b826000526020600020601f830160051c81019160208410611612575b601f0160051c01905b81811061160657506101c3565b600081556001016115f9565b90915081906115f0565b90607f16906101b1565b015190503880610172565b60008981528281209350601f198516905b81811061167e5750908460019594939210611665575b505050811b018555610187565b015160001960f88460031b161c19169055388080611658565b92936020600181928786015181550195019301611642565b909150876000526020600020601f840160051c810191602085106116df575b90601f859493920160051c01905b8181106116d0575061015b565b600081558493506001016116c3565b90915081906116b5565b91607f1691610147565b600080fd5b6040519060c082016001600160401b03811183821017610da857604052565b6040519190601f01601f191682016001600160401b03811183821017610da85760405256fe608080604052600436101561001357600080fd5b60003560e01c90816303828e4514610817575080630fb91b88146107da57806337f3a30c1461079d57806368807c76146106bd5780636f6569091461067b578063715018a61461062257806375a67d5c146105e85780637d0cd7f51461055f5780638529644f146105435780638da5cb5b1461051a57806398e36d8b14610467578063acc5f19114610446578063acccc3911461042a578063c9ef43291461034a578063d475c2c31461030d578063da94a3eb146102f1578063ea986c3e146102b4578063ed34de09146101bc5763f2fde38b146100f057600080fd5b346101b75760203660031901126101b7576101096108d1565b610111610abc565b6001600160a01b0316801561016357600080546001600160a01b03198116831782556001600160a01b0316907f8be0079c531659141344cd1fd0a4f28419497f9722a3daafe3b4186f6b6457e09080a3005b60405162461bcd60e51b815260206004820152602660248201527f4f776e61626c653a206e6577206f776e657220697320746865207a65726f206160448201526564647265737360d01b6064820152608490fd5b600080fd5b346101b75760203660031901126101b7576101d56108d1565b6101dd610abc565b6101e681610a53565b60018060a01b03811690816000526002602052600160406000200161020b8154610a44565b90558160005260026020526040600020918254600a810180911161029e5761029c9355806000526002602052807f066f85029e78c953d750ee9be93911767775a3ad66dfe87e746f58fce18d694a6020600160406000200154604051908152a2806000526002602052600080516020610d3583398151915260408060002054815190600a82526020820152a2610b14565b005b634e487b7160e01b600052601160045260246000fd5b346101b75760203660031901126101b7576001600160a01b036102d56108d1565b1660005260026020526020600360406000200154604051908152f35b346101b75760003660031901126101b7576020604051600a8152f35b346101b75760203660031901126101b7576001600160a01b0361032e6108d1565b1660005260026020526020600160406000200154604051908152f35b346101b75760203660031901126101b7576103636108d1565b61036b610abc565b61037481610a53565b60018060a01b0381169081600052600260205260036040600020016103998154610a44565b905581600052600260205260406000209182546003810180911161029e5761029c9355806000526002602052807f0c628ef7a55459ae22532e0a190407871bce70fcbd2d7390aa3a69b3a2d86e9f6020600360406000200154604051908152a2806000526002602052600080516020610d3583398151915260408060002054815190600382526020820152a2610b14565b346101b75760003660031901126101b757602060405160058152f35b346101b75760203660031901126101b75761029c6104626108d1565b610a53565b346101b75760203660031901126101b7576004356003548110156101b7576104916104f3916108e7565b50604051906104ab826104a4818461091c565b03836109cb565b6040516104c6816104bf816001860161091c565b03826109cb565b6002820154916003810154610501600560048401549301549360405197889760c0895260c0890190610a03565b908782036020890152610a03565b9360408601526060850152608084015260a08301520390f35b346101b75760003660031901126101b7576000546040516001600160a01b039091168152602090f35b346101b75760003660031901126101b757602060405160038152f35b346101b75760403660031901126101b7576105786108d1565b60243590610584610abc565b61058d81610a53565b6001600160a01b038116600081815260026020526040902080548481019190821061029e5761029c94600080516020610d358339815191529260409255836000526002602052816000205482519182526020820152a2610b14565b346101b75760203660031901126101b7576001600160a01b036106096108d1565b1660005260026020526020604060002054604051908152f35b346101b75760003660031901126101b75761063b610abc565b600080546001600160a01b0319811682556001600160a01b03167f8be0079c531659141344cd1fd0a4f28419497f9722a3daafe3b4186f6b6457e08280a3005b346101b75760203660031901126101b7576001600160a01b0361069c6108d1565b166000526002602052602060ff600660406000200154166040519015158152f35b346101b75760203660031901126101b7576106d66108d1565b6106de610abc565b6106e781610a53565b60018060a01b03811690816000526002602052600260406000200161070c8154610a44565b905581600052600260205260406000209182546005810180911161029e5761029c9355806000526002602052807f8d40b1e890ced9adf397d25a06046df796e132dd75cbfb5a21c868c2b4a4a75e6020600260406000200154604051908152a2806000526002602052600080516020610d3583398151915260408060002054815190600582526020820152a2610b14565b346101b75760203660031901126101b7576001600160a01b036107be6108d1565b1660005260026020526020600260406000200154604051908152f35b346101b75760203660031901126101b7576001600160a01b036107fb6108d1565b1660005260026020526020600460406000200154604051908152f35b346101b75760203660031901126101b7576001600160a01b036108386108d1565b16600052600260205260046040600020019081548082526020820190819360005260206000209060005b8181106108bb57505050816108789103826109cb565b6040519182916020830190602084525180915260408301919060005b8181106108a2575050500390f35b8251845285945060209384019390920191600101610894565b8254845260209093019260019283019201610862565b600435906001600160a01b03821682036101b757565b6003548110156109065760036000526006602060002091020190600090565b634e487b7160e01b600052603260045260246000fd5b600092918154918260011c926001811680156109c1575b6020851081146109ab5784845290811561098e575060011461095457505050565b60009081526020812093945091925b838310610974575060209250010190565b600181602092949394548385870101520191019190610963565b915050602093945060ff929192191683830152151560051b010190565b634e487b7160e01b600052602260045260246000fd5b93607f1693610933565b90601f8019910116810190811067ffffffffffffffff8211176109ed57604052565b634e487b7160e01b600052604160045260246000fd5b919082519283825260005b848110610a2f575050826000602080949584010152601f8019910116010190565b80602080928401015182828601015201610a0e565b600019811461029e5760010190565b6001600160a01b031660008181526002602052604090206006015460ff1615610a795750565b8060005260026020526006604060002001600160ff198254161790557f67305840db483c074758b9e8070d2d78b7e947e329fb759d0d3cc64bcfc441ac600080a2565b6000546001600160a01b03163303610ad057565b606460405162461bcd60e51b815260206004820152602060248201527f4f776e61626c653a2063616c6c6572206973206e6f7420746865206f776e65726044820152fd5b6001600160a01b031660008181526002602052604081209192919060058201905b600354811015610d2d57806000528160205260ff6040600020541615610b5e575b600101610b35565b610b67816108e7565b506040519060c082019082821067ffffffffffffffff8311176109ed5760a091604052604051610b9b816104bf818561091c565b8352604051610bb1816104bf816001860161091c565b60208401526002810154806040850152600382015493846060820152600560048401549384608084015201549384910152865410159283610d1e575b5082610d0f575b5081610d00575b5015610b56578460005260026020526040600020906005820191816000528260205260ff60406000205416610cc35760040191825492680100000000000000008410156109ed5760018401808255841015610906576001938391600052602060002001558160005260205260406000208260ff1982541617905580867f3c087d4e86c455eb2fc66d29134947033fd1c4133051c00e31a4ac6f76877ad1610cb9610ca4846108e7565b5060405191829160208352602083019061091c565b0390a39050610b56565b60405162461bcd60e51b815260206004820152601560248201527410985919d948185b1c9958591e48185dd85c991959605a1b6044820152606490fd5b90506003840154101538610bfb565b60028601541015915038610bf4565b60018701541015925038610bed565b505050905056fedc3faeadeebcfa827a4c4cc5a430dc9501e614bb5e272ffc223c35f8a48d92eca2646970667358221220600c78537732e0159cac160f7f560dee4d55cc495c2c705178e0e17d49ebd28964736f6c634300081c00332a19b122d7ceb6b21d4ac9a7636241ea8d5068dec98786163aa0de488f4ccc52c2575a0e9e593c00f959f8c92f12db2869c3395a3b0502d05e2516446f71f85b",
          "opcodes": "PUSH1 0x80 PUSH1 0x40 MSTORE CALLVALUE PUSH2 0x16F3 JUMPI PUSH1 0x0 DUP1 SLOAD CALLER PUSH1 0x1 PUSH1 0x1 PUSH1 0xA0 SHL SUB NOT DUP3 AND DUP2 OR DUP4 SSTORE SWAP2 PUSH1 0x1 PUSH1 0x1 PUSH1 0xA0 SHL SUB SWAP1 SWAP2 AND SWAP1 PUSH32 0x8BE0079C531659141344CD1FD0A4F28419497F9722A3DAAFE3B4186F6B6457E0 SWAP1 DUP1 LOG3 PUSH1 0x1 DUP1 SSTORE PUSH2 0x5C PUSH1 0x40 PUSH2 0x1717 JUMP JUMPDEST PUSH1 0x12 DUP2 MSTORE PUSH18 0x2737BB34B1B29021B7B73A3934B13ABA37B9 PUSH1 0x71 SHL PUSH1 0x20 DUP3 ADD MSTORE PUSH2 0x85 PUSH1 0x40 PUSH2 0x1717 JUMP JUMPDEST SWAP1 PUSH1 0x17 DUP3 MSTORE PUSH32 0x4D61646520666972737420636F6E747269627574696F6E000000000000000000 PUSH1 0x20 DUP4 ADD MSTORE PUSH2 0xB8 PUSH2 0x16F8 JUMP JUMPDEST DUP2 DUP2 MSTORE PUSH1 0x20 DUP2 ADD SWAP3 DUP4 MSTORE PUSH1 0x40 DUP2 ADD PUSH1 0x0 DUP2 MSTORE PUSH1 0x60 DUP3 ADD PUSH1 0x1 DUP2 MSTORE PUSH1 0x80 DUP4 ADD SWAP1 PUSH1 0x0 DUP3 MSTORE PUSH1 0xA0 DUP5 ADD SWAP3 PUSH1 0x0 DUP5 MSTORE PUSH1 0x3 SLOAD PUSH9 0x10000000000000000 DUP2 LT ISZERO PUSH2 0xDA8 JUMPI PUSH1 0x1 DUP2 ADD DUP1 PUSH1 0x3 SSTORE DUP2 LT ISZERO PUSH2 0xE8B JUMPI PUSH1 0x3 PUSH1 0x0 MSTORE SWAP5 MLOAD DUP1 MLOAD PUSH1 0x6 SWAP7 SWAP1 SWAP7 MUL PUSH1 0x0 DUP1 MLOAD PUSH1 0x20 PUSH2 0x24E7 DUP4 CODECOPY DUP2 MLOAD SWAP2 MSTORE ADD SWAP6 SWAP1 PUSH1 0x1 PUSH1 0x1 PUSH1 0x40 SHL SUB DUP3 GT PUSH2 0xDA8 JUMPI DUP7 SLOAD SWAP1 PUSH1 0x1 DUP3 DUP2 SHR SWAP3 AND DUP1 ISZERO PUSH2 0x16E9 JUMPI JUMPDEST PUSH1 0x20 DUP4 LT EQ PUSH2 0xD88 JUMPI DUP2 PUSH1 0x1F DUP5 SWAP4 GT PUSH2 0x1696 JUMPI JUMPDEST POP PUSH1 0x20 SWAP1 PUSH1 0x1F DUP4 GT PUSH1 0x1 EQ PUSH2 0x1631 JUMPI PUSH1 0x0 SWAP3 PUSH2 0x1626 JUMPI JUMPDEST POP POP DUP2 PUSH1 0x1 SHL SWAP2 PUSH1 0x0 NOT SWAP1 PUSH1 0x3 SHL SHR NOT AND OR DUP6 SSTORE JUMPDEST SWAP6 MLOAD DUP1 MLOAD SWAP1 SWAP7 SWAP1 PUSH1 0x1 DUP7 ADD SWAP1 PUSH1 0x1 PUSH1 0x1 PUSH1 0x40 SHL SUB DUP2 GT PUSH2 0xDA8 JUMPI DUP2 SLOAD PUSH1 0x1 DUP2 DUP2 SHR SWAP2 AND DUP1 ISZERO PUSH2 0x161C JUMPI JUMPDEST PUSH1 0x20 DUP3 LT EQ PUSH2 0xD88 JUMPI PUSH1 0x1F DUP2 GT PUSH2 0x15D4 JUMPI JUMPDEST POP PUSH1 0x20 PUSH1 0x1F DUP3 GT PUSH1 0x1 EQ PUSH2 0x156A JUMPI DUP2 SWAP1 PUSH1 0x5 SWAP9 SWAP10 SWAP11 PUSH1 0x0 SWAP3 PUSH2 0x155F JUMPI JUMPDEST POP POP DUP2 PUSH1 0x1 SHL SWAP2 PUSH1 0x0 NOT SWAP1 PUSH1 0x3 SHL SHR NOT AND OR SWAP1 SSTORE JUMPDEST MLOAD PUSH1 0x2 DUP7 ADD SSTORE MLOAD PUSH1 0x3 DUP6 ADD SSTORE MLOAD PUSH1 0x4 DUP5 ADD SSTORE MLOAD SWAP2 ADD SSTORE PUSH1 0x3 SLOAD PUSH1 0x0 NOT DUP2 ADD SWAP1 DUP2 GT PUSH2 0xCB5 JUMPI PUSH1 0x40 MLOAD PUSH1 0x20 DUP2 MSTORE DUP3 MLOAD SWAP3 DUP4 PUSH1 0x20 DUP4 ADD MSTORE PUSH1 0x0 JUMPDEST DUP5 DUP2 LT PUSH2 0x1549 JUMPI DUP4 PUSH1 0x0 DUP1 MLOAD PUSH1 0x20 PUSH2 0x24C7 DUP4 CODECOPY DUP2 MLOAD SWAP2 MSTORE DUP5 PUSH1 0x40 DUP2 DUP10 PUSH1 0x0 DUP4 DUP3 DUP5 ADD ADD MSTORE PUSH1 0x1F DUP1 NOT SWAP2 ADD AND DUP2 ADD SUB ADD SWAP1 LOG2 PUSH2 0x268 PUSH1 0x40 PUSH2 0x1717 JUMP JUMPDEST PUSH1 0x12 DUP2 MSTORE PUSH18 0x20B1BA34BB329021B7B73A3934B13ABA37B9 PUSH1 0x71 SHL PUSH1 0x20 DUP3 ADD MSTORE PUSH2 0x291 PUSH1 0x40 PUSH2 0x1717 JUMP JUMPDEST SWAP1 PUSH1 0x15 DUP3 MSTORE PUSH32 0x4D61646520313020636F6E747269627574696F6E730000000000000000000000 PUSH1 0x20 DUP4 ADD MSTORE PUSH2 0x2C4 PUSH2 0x16F8 JUMP JUMPDEST DUP2 DUP2 MSTORE PUSH1 0x20 DUP2 ADD SWAP3 DUP4 MSTORE PUSH1 0x40 DUP2 ADD PUSH1 0x64 DUP2 MSTORE PUSH1 0x60 DUP3 ADD PUSH1 0xA DUP2 MSTORE PUSH1 0x80 DUP4 ADD SWAP1 PUSH1 0x0 DUP3 MSTORE PUSH1 0xA0 DUP5 ADD SWAP3 PUSH1 0x0 DUP5 MSTORE PUSH1 0x3 SLOAD PUSH9 0x10000000000000000 DUP2 LT ISZERO PUSH2 0xDA8 JUMPI PUSH1 0x1 DUP2 ADD DUP1 PUSH1 0x3 SSTORE DUP2 LT ISZERO PUSH2 0xE8B JUMPI PUSH1 0x3 PUSH1 0x0 MSTORE SWAP5 MLOAD DUP1 MLOAD PUSH1 0x6 SWAP7 SWAP1 SWAP7 MUL PUSH1 0x0 DUP1 MLOAD PUSH1 0x20 PUSH2 0x24E7 DUP4 CODECOPY DUP2 MLOAD SWAP2 MSTORE ADD SWAP6 SWAP1 PUSH1 0x1 PUSH1 0x1 PUSH1 0x40 SHL SUB DUP3 GT PUSH2 0xDA8 JUMPI DUP7 SLOAD SWAP1 PUSH1 0x1 DUP3 DUP2 SHR SWAP3 AND DUP1 ISZERO PUSH2 0x153F JUMPI JUMPDEST PUSH1 0x20 DUP4 LT EQ PUSH2 0xD88 JUMPI DUP2 PUSH1 0x1F DUP5 SWAP4 GT PUSH2 0x14EC JUMPI JUMPDEST POP PUSH1 0x20 SWAP1 PUSH1 0x1F DUP4 GT PUSH1 0x1 EQ PUSH2 0x1487 JUMPI PUSH1 0x0 SWAP3 PUSH2 0x147C JUMPI JUMPDEST POP POP DUP2 PUSH1 0x1 SHL SWAP2 PUSH1 0x0 NOT SWAP1 PUSH1 0x3 SHL SHR NOT AND OR DUP6 SSTORE JUMPDEST SWAP6 MLOAD DUP1 MLOAD SWAP1 SWAP7 SWAP1 PUSH1 0x1 DUP7 ADD SWAP1 PUSH1 0x1 PUSH1 0x1 PUSH1 0x40 SHL SUB DUP2 GT PUSH2 0xDA8 JUMPI DUP2 SLOAD PUSH1 0x1 DUP2 DUP2 SHR SWAP2 AND DUP1 ISZERO PUSH2 0x1472 JUMPI JUMPDEST PUSH1 0x20 DUP3 LT EQ PUSH2 0xD88 JUMPI PUSH1 0x1F DUP2 GT PUSH2 0x142A JUMPI JUMPDEST POP PUSH1 0x20 PUSH1 0x1F DUP3 GT PUSH1 0x1 EQ PUSH2 0x13C0 JUMPI DUP2 SWAP1 PUSH1 0x5 SWAP9 SWAP10 SWAP11 PUSH1 0x0 SWAP3 PUSH2 0x13B5 JUMPI JUMPDEST POP POP DUP2 PUSH1 0x1 SHL SWAP2 PUSH1 0x0 NOT SWAP1 PUSH1 0x3 SHL SHR NOT AND OR SWAP1 SSTORE JUMPDEST MLOAD PUSH1 0x2 DUP7 ADD SSTORE MLOAD PUSH1 0x3 DUP6 ADD SSTORE MLOAD PUSH1 0x4 DUP5 ADD SSTORE MLOAD SWAP2 ADD SSTORE PUSH1 0x3 SLOAD PUSH1 0x0 NOT DUP2 ADD SWAP1 DUP2 GT PUSH2 0xCB5 JUMPI PUSH1 0x40 MLOAD PUSH1 0x20 DUP2 MSTORE DUP3 MLOAD SWAP3 DUP4 PUSH1 0x20 DUP4 ADD MSTORE PUSH1 0x0 JUMPDEST DUP5 DUP2 LT PUSH2 0x139F JUMPI DUP4 PUSH1 0x0 DUP1 MLOAD PUSH1 0x20 PUSH2 0x24C7 DUP4 CODECOPY DUP2 MLOAD SWAP2 MSTORE DUP5 PUSH1 0x40 DUP2 DUP10 PUSH1 0x0 DUP4 DUP3 DUP5 ADD ADD MSTORE PUSH1 0x1F DUP1 NOT SWAP2 ADD AND DUP2 ADD SUB ADD SWAP1 LOG2 PUSH2 0x474 PUSH1 0x40 PUSH2 0x1717 JUMP JUMPDEST PUSH1 0x12 DUP2 MSTORE PUSH18 0x22BC3832B93A1021B7B73A3934B13ABA37B9 PUSH1 0x71 SHL PUSH1 0x20 DUP3 ADD MSTORE PUSH2 0x49D PUSH1 0x40 PUSH2 0x1717 JUMP JUMPDEST SWAP1 PUSH1 0x15 DUP3 MSTORE PUSH32 0x4D61646520353020636F6E747269627574696F6E730000000000000000000000 PUSH1 0x20 DUP4 ADD MSTORE PUSH2 0x4D0 PUSH2 0x16F8 JUMP JUMPDEST DUP2 DUP2 MSTORE PUSH1 0x20 DUP2 ADD SWAP3 DUP4 MSTORE PUSH1 0x40 DUP2 ADD PUSH2 0x1F4 DUP2 MSTORE PUSH1 0x60 DUP3 ADD PUSH1 0x32 DUP2 MSTORE PUSH1 0x80 DUP4 ADD SWAP1 PUSH1 0x0 DUP3 MSTORE PUSH1 0xA0 DUP5 ADD SWAP3 PUSH1 0x0 DUP5 MSTORE PUSH1 0x3 SLOAD PUSH9 0x10000000000000000 DUP2 LT ISZERO PUSH2 0xDA8 JUMPI PUSH1 0x1 DUP2 ADD DUP1 PUSH1 0x3 SSTORE DUP2 LT ISZERO PUSH2 0xE8B JUMPI PUSH1 0x3 PUSH1 0x0 MSTORE SWAP5 MLOAD DUP1 MLOAD PUSH1 0x6 SWAP7 SWAP1 SWAP7 MUL PUSH1 0x0 DUP1 MLOAD PUSH1 0x20 PUSH2 0x24E7 DUP4 CODECOPY DUP2 MLOAD SWAP2 MSTORE ADD SWAP6 SWAP1 PUSH1 0x1 PUSH1 0x1 PUSH1 0x40 SHL SUB DUP3 GT PUSH2 0xDA8 JUMPI DUP7 SLOAD SWAP1 PUSH1 0x1 DUP3 DUP2 SHR SWAP3 AND DUP1 ISZERO PUSH2 0x1395 JUMPI JUMPDEST PUSH1 0x20 DUP4 LT EQ PUSH2 0xD88 JUMPI DUP2 PUSH1 0x1F DUP5 SWAP4 GT PUSH2 0x1342 JUMPI JUMPDEST POP PUSH1 0x20 SWAP1 PUSH1 0x1F DUP4 GT PUSH1 0x1 EQ PUSH2 0x12DD JUMPI PUSH1 0x0 SWAP3 PUSH2 0x12D2 JUMPI JUMPDEST POP POP DUP2 PUSH1 0x1 SHL SWAP2 PUSH1 0x0 NOT SWAP1 PUSH1 0x3 SHL SHR NOT AND OR DUP6 SSTORE JUMPDEST SWAP6 MLOAD DUP1 MLOAD SWAP1 SWAP7 SWAP1 PUSH1 0x1 DUP7 ADD SWAP1 PUSH1 0x1 PUSH1 0x1 PUSH1 0x40 SHL SUB DUP2 GT PUSH2 0xDA8 JUMPI DUP2 SLOAD PUSH1 0x1 DUP2 DUP2 SHR SWAP2 AND DUP1 ISZERO PUSH2 0x12C8 JUMPI JUMPDEST PUSH1 0x20 DUP3 LT EQ PUSH2 0xD88 JUMPI PUSH1 0x1F DUP2 GT PUSH2 0x1280 JUMPI JUMPDEST POP PUSH1 0x20 PUSH1 0x1F DUP3 GT PUSH1 0x1 EQ PUSH2 0x1216 JUMPI DUP2 SWAP1 PUSH1 0x5 SWAP9 SWAP10 SWAP11 PUSH1 0x0 SWAP3 PUSH2 0x120B JUMPI JUMPDEST POP POP DUP2 PUSH1 0x1 SHL SWAP2 PUSH1 0x0 NOT SWAP1 PUSH1 0x3 SHL SHR NOT AND OR SWAP1 SSTORE JUMPDEST MLOAD PUSH1 0x2 DUP7 ADD SSTORE MLOAD PUSH1 0x3 DUP6 ADD SSTORE MLOAD PUSH1 0x4 DUP5 ADD SSTORE MLOAD SWAP2 ADD SSTORE PUSH1 0x3 SLOAD PUSH1 0x0 NOT DUP2 ADD SWAP1 DUP2 GT PUSH2 0xCB5 JUMPI PUSH1 0x40 MLOAD PUSH1 0x20 DUP2 MSTORE DUP3 MLOAD SWAP3 DUP4 PUSH1 0x20 DUP4 ADD MSTORE PUSH1 0x0 JUMPDEST DUP5 DUP2 LT PUSH2 0x11F5 JUMPI DUP4 PUSH1 0x0 DUP1 MLOAD PUSH1 0x20 PUSH2 0x24C7 DUP4 CODECOPY DUP2 MLOAD SWAP2 MSTORE DUP5 PUSH1 0x40 DUP2 DUP10 PUSH1 0x0 DUP4 DUP3 DUP5 ADD ADD MSTORE PUSH1 0x1F DUP1 NOT SWAP2 ADD AND DUP2 ADD SUB ADD SWAP1 LOG2 PUSH2 0x681 PUSH1 0x40 PUSH2 0x1717 JUMP JUMPDEST PUSH1 0xE DUP2 MSTORE PUSH14 0x2A393AB9BA32B21026B2B6B132B9 PUSH1 0x91 SHL PUSH1 0x20 DUP3 ADD MSTORE PUSH2 0x6A6 PUSH1 0x40 PUSH2 0x1717 JUMP JUMPDEST SWAP1 PUSH1 0x1F DUP3 MSTORE PUSH32 0x436F6D706C657465642035207375636365737366756C207061796D656E747300 PUSH1 0x20 DUP4 ADD MSTORE PUSH2 0x6D9 PUSH2 0x16F8 JUMP JUMPDEST DUP2 DUP2 MSTORE PUSH1 0x20 DUP2 ADD SWAP3 DUP4 MSTORE PUSH1 0x40 DUP2 ADD PUSH1 0x32 DUP2 MSTORE PUSH1 0x60 DUP3 ADD PUSH1 0x0 DUP2 MSTORE PUSH1 0x80 DUP4 ADD SWAP1 PUSH1 0x5 DUP3 MSTORE PUSH1 0xA0 DUP5 ADD SWAP3 PUSH1 0x0 DUP5 MSTORE PUSH1 0x3 SLOAD PUSH9 0x10000000000000000 DUP2 LT ISZERO PUSH2 0xDA8 JUMPI PUSH1 0x1 DUP2 ADD DUP1 PUSH1 0x3 SSTORE DUP2 LT ISZERO PUSH2 0xE8B JUMPI PUSH1 0x3 PUSH1 0x0 MSTORE SWAP5 MLOAD DUP1 MLOAD PUSH1 0x6 SWAP7 SWAP1 SWAP7 MUL PUSH1 0x0 DUP1 MLOAD PUSH1 0x20 PUSH2 0x24E7 DUP4 CODECOPY DUP2 MLOAD SWAP2 MSTORE ADD SWAP6 SWAP1 PUSH1 0x1 PUSH1 0x1 PUSH1 0x40 SHL SUB DUP3 GT PUSH2 0xDA8 JUMPI DUP7 SLOAD SWAP1 PUSH1 0x1 DUP3 DUP2 SHR SWAP3 AND DUP1 ISZERO PUSH2 0x11EB JUMPI JUMPDEST PUSH1 0x20 DUP4 LT EQ PUSH2 0xD88 JUMPI DUP2 PUSH1 0x1F DUP5 SWAP4 GT PUSH2 0x1198 JUMPI JUMPDEST POP PUSH1 0x20 SWAP1 PUSH1 0x1F DUP4 GT PUSH1 0x1 EQ PUSH2 0x1133 JUMPI PUSH1 0x0 SWAP3 PUSH2 0x1128 JUMPI JUMPDEST POP POP DUP2 PUSH1 0x1 SHL SWAP2 PUSH1 0x0 NOT SWAP1 PUSH1 0x3 SHL SHR NOT AND OR DUP6 SSTORE JUMPDEST SWAP6 MLOAD DUP1 MLOAD SWAP1 SWAP7 SWAP1 PUSH1 0x1 DUP7 ADD SWAP1 PUSH1 0x1 PUSH1 0x1 PUSH1 0x40 SHL SUB DUP2 GT PUSH2 0xDA8 JUMPI DUP2 SLOAD PUSH1 0x1 DUP2 DUP2 SHR SWAP2 AND DUP1 ISZERO PUSH2 0x111E JUMPI JUMPDEST PUSH1 0x20 DUP3 LT EQ PUSH2 0xD88 JUMPI PUSH1 0x1F DUP2 GT PUSH2 0x10D6 JUMPI JUMPDEST POP PUSH1 0x20 PUSH1 0x1F DUP3 GT PUSH1 0x1 EQ PUSH2 0x106C JUMPI DUP2 SWAP1 PUSH1 0x5 SWAP9 SWAP10 SWAP11 PUSH1 0x0 SWAP3 PUSH2 0x1061 JUMPI JUMPDEST POP POP DUP2 PUSH1 0x1 SHL SWAP2 PUSH1 0x0 NOT SWAP1 PUSH1 0x3 SHL SHR NOT AND OR SWAP1 SSTORE JUMPDEST MLOAD PUSH1 0x2 DUP7 ADD SSTORE MLOAD PUSH1 0x3 DUP6 ADD SSTORE MLOAD PUSH1 0x4 DUP5 ADD SSTORE MLOAD SWAP2 ADD SSTORE PUSH1 0x3 SLOAD PUSH1 0x0 NOT DUP2 ADD SWAP1 DUP2 GT PUSH2 0xCB5 JUMPI PUSH1 0x40 MLOAD PUSH1 0x20 DUP2 MSTORE DUP3 MLOAD SWAP3 DUP4 PUSH1 0x20 DUP4 ADD MSTORE PUSH1 0x0 JUMPDEST DUP5 DUP2 LT PUSH2 0x104B JUMPI DUP4 PUSH1 0x0 DUP1 MLOAD PUSH1 0x20 PUSH2 0x24C7 DUP4 CODECOPY DUP2 MLOAD SWAP2 MSTORE DUP5 PUSH1 0x40 DUP2 DUP10 PUSH1 0x0 DUP4 DUP3 DUP5 ADD ADD MSTORE PUSH1 0x1F DUP1 NOT SWAP2 ADD AND DUP2 ADD SUB ADD SWAP1 LOG2 PUSH2 0x889 PUSH1 0x40 PUSH2 0x1717 JUMP JUMPDEST PUSH1 0xC DUP2 MSTORE PUSH12 0x22B634BA329026B2B6B132B9 PUSH1 0xA1 SHL PUSH1 0x20 DUP3 ADD MSTORE PUSH2 0x8AC PUSH1 0x40 PUSH2 0x1717 JUMP JUMPDEST SWAP1 PUSH1 0x15 DUP3 MSTORE PUSH32 0x486967682072657075746174696F6E2073636F72650000000000000000000000 PUSH1 0x20 DUP4 ADD MSTORE PUSH2 0x8DF PUSH2 0x16F8 JUMP JUMPDEST DUP2 DUP2 MSTORE PUSH1 0x20 DUP2 ADD SWAP3 DUP4 MSTORE PUSH1 0x40 DUP2 ADD PUSH2 0x3E8 DUP2 MSTORE PUSH1 0x60 DUP3 ADD PUSH1 0x0 DUP2 MSTORE PUSH1 0x80 DUP4 ADD SWAP1 PUSH1 0x0 DUP3 MSTORE PUSH1 0xA0 DUP5 ADD SWAP3 PUSH1 0x0 DUP5 MSTORE PUSH1 0x3 SLOAD PUSH9 0x10000000000000000 DUP2 LT ISZERO PUSH2 0xDA8 JUMPI PUSH1 0x1 DUP2 ADD DUP1 PUSH1 0x3 SSTORE DUP2 LT ISZERO PUSH2 0xE8B JUMPI PUSH1 0x3 PUSH1 0x0 MSTORE SWAP5 MLOAD DUP1 MLOAD PUSH1 0x6 SWAP7 SWAP1 SWAP7 MUL PUSH1 0x0 DUP1 MLOAD PUSH1 0x20 PUSH2 0x24E7 DUP4 CODECOPY DUP2 MLOAD SWAP2 MSTORE ADD SWAP6 SWAP1 PUSH1 0x1 PUSH1 0x1 PUSH1 0x40 SHL SUB DUP3 GT PUSH2 0xDA8 JUMPI DUP7 SLOAD SWAP1 PUSH1 0x1 DUP3 DUP2 SHR SWAP3 AND DUP1 ISZERO PUSH2 0x1041 JUMPI JUMPDEST PUSH1 0x20 DUP4 LT EQ PUSH2 0xD88 JUMPI DUP2 PUSH1 0x1F DUP5 SWAP4 GT PUSH2 0xFEE JUMPI JUMPDEST POP PUSH1 0x20 SWAP1 PUSH1 0x1F DUP4 GT PUSH1 0x1 EQ PUSH2 0xF89 JUMPI PUSH1 0x0 SWAP3 PUSH2 0xF7E JUMPI JUMPDEST POP POP DUP2 PUSH1 0x1 SHL SWAP2 PUSH1 0x0 NOT SWAP1 PUSH1 0x3 SHL SHR NOT AND OR DUP6 SSTORE JUMPDEST SWAP6 MLOAD DUP1 MLOAD SWAP1 SWAP7 SWAP1 PUSH1 0x1 DUP7 ADD SWAP1 PUSH1 0x1 PUSH1 0x1 PUSH1 0x40 SHL SUB DUP2 GT PUSH2 0xDA8 JUMPI DUP2 SLOAD PUSH1 0x1 DUP2 DUP2 SHR SWAP2 AND DUP1 ISZERO PUSH2 0xF74 JUMPI JUMPDEST PUSH1 0x20 DUP3 LT EQ PUSH2 0xD88 JUMPI PUSH1 0x1F DUP2 GT PUSH2 0xF2C JUMPI JUMPDEST POP PUSH1 0x20 PUSH1 0x1F DUP3 GT PUSH1 0x1 EQ PUSH2 0xEC2 JUMPI DUP2 SWAP1 PUSH1 0x5 SWAP9 SWAP10 SWAP11 PUSH1 0x0 SWAP3 PUSH2 0xEB7 JUMPI JUMPDEST POP POP DUP2 PUSH1 0x1 SHL SWAP2 PUSH1 0x0 NOT SWAP1 PUSH1 0x3 SHL SHR NOT AND OR SWAP1 SSTORE JUMPDEST MLOAD PUSH1 0x2 DUP7 ADD SSTORE MLOAD PUSH1 0x3 DUP6 ADD SSTORE MLOAD PUSH1 0x4 DUP5 ADD SSTORE MLOAD SWAP2 ADD SSTORE PUSH1 0x3 SLOAD PUSH1 0x0 NOT DUP2 ADD SWAP1 DUP2 GT PUSH2 0xCB5 JUMPI PUSH1 0x40 MLOAD PUSH1 0x20 DUP2 MSTORE DUP3 MLOAD SWAP3 DUP4 PUSH1 0x20 DUP4 ADD MSTORE PUSH1 0x0 JUMPDEST DUP5 DUP2 LT PUSH2 0xEA1 JUMPI DUP4 PUSH1 0x0 DUP1 MLOAD PUSH1 0x20 PUSH2 0x24C7 DUP4 CODECOPY DUP2 MLOAD SWAP2 MSTORE DUP5 PUSH1 0x40 DUP2 DUP10 PUSH1 0x0 DUP4 DUP3 DUP5 ADD ADD MSTORE PUSH1 0x1F DUP1 NOT SWAP2 ADD AND DUP2 ADD SUB ADD SWAP1 LOG2 PUSH2 0xA90 PUSH1 0x40 PUSH2 0x1717 JUMP JUMPDEST PUSH1 0xF DUP2 MSTORE PUSH15 0x21B0B6B830B4B3B71026B0B9BA32B9 PUSH1 0x89 SHL PUSH1 0x20 DUP3 ADD MSTORE PUSH2 0xAB6 PUSH1 0x40 PUSH2 0x1717 JUMP JUMPDEST SWAP1 PUSH1 0x1A DUP3 MSTORE PUSH32 0x52656365697665642031303020636F6E747269627574696F6E73000000000000 PUSH1 0x20 DUP4 ADD MSTORE PUSH2 0xAE9 PUSH2 0x16F8 JUMP JUMPDEST DUP2 DUP2 MSTORE PUSH1 0x20 DUP2 ADD SWAP3 DUP4 MSTORE PUSH1 0x40 DUP2 ADD PUSH2 0x12C DUP2 MSTORE PUSH1 0x60 DUP3 ADD PUSH1 0x0 DUP2 MSTORE PUSH1 0x80 DUP4 ADD SWAP1 PUSH1 0x0 DUP3 MSTORE PUSH1 0xA0 DUP5 ADD SWAP3 PUSH1 0x64 DUP5 MSTORE PUSH1 0x3 SLOAD PUSH9 0x10000000000000000 DUP2 LT ISZERO PUSH2 0xDA8 JUMPI PUSH1 0x1 DUP2 ADD DUP1 PUSH1 0x3 SSTORE DUP2 LT ISZERO PUSH2 0xE8B JUMPI PUSH1 0x3 PUSH1 0x0 MSTORE SWAP5 MLOAD DUP1 MLOAD PUSH1 0x6 SWAP7 SWAP1 SWAP7 MUL PUSH1 0x0 DUP1 MLOAD PUSH1 0x20 PUSH2 0x24E7 DUP4 CODECOPY DUP2 MLOAD SWAP2 MSTORE ADD SWAP6 SWAP1 PUSH1 0x1 PUSH1 0x1 PUSH1 0x40 SHL SUB DUP3 GT PUSH2 0xDA8 JUMPI DUP7 SLOAD SWAP1 PUSH1 0x1 DUP3 DUP2 SHR SWAP3 AND DUP1 ISZERO PUSH2 0xE81 JUMPI JUMPDEST PUSH1 0x20 DUP4 LT EQ PUSH2 0xD88 JUMPI DUP2 PUSH1 0x1F DUP5 SWAP4 GT PUSH2 0xE2E JUMPI JUMPDEST POP PUSH1 0x20 SWAP1 PUSH1 0x1F DUP4 GT PUSH1 0x1 EQ PUSH2 0xDC9 JUMPI PUSH1 0x0 SWAP3 PUSH2 0xDBE JUMPI JUMPDEST POP POP DUP2 PUSH1 0x1 SHL SWAP2 PUSH1 0x0 NOT SWAP1 PUSH1 0x3 SHL SHR NOT AND OR DUP6 SSTORE JUMPDEST SWAP6 MLOAD DUP1 MLOAD SWAP1 SWAP7 SWAP1 PUSH1 0x1 DUP7 ADD SWAP1 PUSH1 0x1 PUSH1 0x1 PUSH1 0x40 SHL SUB DUP2 GT PUSH2 0xDA8 JUMPI DUP2 SLOAD PUSH1 0x1 DUP2 DUP2 SHR SWAP2 AND DUP1 ISZERO PUSH2 0xD9E JUMPI JUMPDEST PUSH1 0x20 DUP3 LT EQ PUSH2 0xD88 JUMPI PUSH1 0x1F DUP2 GT PUSH2 0xD40 JUMPI JUMPDEST POP PUSH1 0x20 PUSH1 0x1F DUP3 GT PUSH1 0x1 EQ PUSH2 0xCD6 JUMPI DUP2 SWAP1 PUSH1 0x5 SWAP9 SWAP10 SWAP11 PUSH1 0x0 SWAP3 PUSH2 0xCCB JUMPI JUMPDEST POP POP DUP2 PUSH1 0x1 SHL SWAP2 PUSH1 0x0 NOT SWAP1 PUSH1 0x3 SHL SHR NOT AND OR SWAP1 SSTORE JUMPDEST MLOAD PUSH1 0x2 DUP7 ADD SSTORE MLOAD PUSH1 0x3 DUP6 ADD SSTORE MLOAD PUSH1 0x4 DUP5 ADD SSTORE MLOAD SWAP2 ADD SSTORE PUSH1 0x3 SLOAD PUSH1 0x0 NOT DUP2 ADD SWAP1 DUP2 GT PUSH2 0xCB5 JUMPI PUSH1 0x40 MLOAD PUSH1 0x20 DUP2 MSTORE DUP3 MLOAD SWAP3 DUP4 PUSH1 0x20 DUP4 ADD MSTORE PUSH1 0x0 JUMPDEST DUP5 DUP2 LT PUSH2 0xC9F JUMPI DUP4 PUSH1 0x0 DUP1 MLOAD PUSH1 0x20 PUSH2 0x24C7 DUP4 CODECOPY DUP2 MLOAD SWAP2 MSTORE DUP5 PUSH1 0x40 DUP2 DUP10 PUSH1 0x0 DUP4 DUP3 DUP5 ADD ADD MSTORE PUSH1 0x1F DUP1 NOT SWAP2 ADD AND DUP2 ADD SUB ADD SWAP1 LOG2 PUSH1 0x40 MLOAD PUSH2 0xD8A SWAP1 DUP2 PUSH2 0x173D DUP3 CODECOPY RETURN JUMPDEST DUP1 PUSH1 0x20 DUP1 SWAP3 DUP5 ADD ADD MLOAD PUSH1 0x40 DUP3 DUP7 ADD ADD MSTORE ADD PUSH2 0xC5F JUMP JUMPDEST PUSH4 0x4E487B71 PUSH1 0xE0 SHL PUSH1 0x0 MSTORE PUSH1 0x11 PUSH1 0x4 MSTORE PUSH1 0x24 PUSH1 0x0 REVERT JUMPDEST ADD MLOAD SWAP1 POP DUP11 DUP1 PUSH2 0xC12 JUMP JUMPDEST PUSH1 0x1F NOT DUP3 AND SWAP10 DUP4 PUSH1 0x0 MSTORE DUP2 PUSH1 0x0 KECCAK256 SWAP11 PUSH1 0x0 JUMPDEST DUP2 DUP2 LT PUSH2 0xD28 JUMPI POP SWAP2 PUSH1 0x5 SWAP10 SWAP11 SWAP12 SWAP2 DUP5 PUSH1 0x1 SWAP6 SWAP5 LT PUSH2 0xD0F JUMPI JUMPDEST POP POP POP DUP2 SHL ADD SWAP1 SSTORE PUSH2 0xC27 JUMP JUMPDEST ADD MLOAD PUSH1 0x0 NOT PUSH1 0xF8 DUP5 PUSH1 0x3 SHL AND SHR NOT AND SWAP1 SSTORE DUP11 DUP1 DUP1 PUSH2 0xD02 JUMP JUMPDEST DUP4 DUP4 ADD MLOAD DUP14 SSTORE PUSH1 0x1 SWAP1 SWAP13 ADD SWAP12 PUSH1 0x20 SWAP4 DUP5 ADD SWAP4 ADD PUSH2 0xCE8 JUMP JUMPDEST DUP3 PUSH1 0x0 MSTORE PUSH1 0x20 PUSH1 0x0 KECCAK256 PUSH1 0x1F DUP4 ADD PUSH1 0x5 SHR DUP2 ADD SWAP2 PUSH1 0x20 DUP5 LT PUSH2 0xD7E JUMPI JUMPDEST PUSH1 0x1F ADD PUSH1 0x5 SHR ADD SWAP1 JUMPDEST DUP2 DUP2 LT PUSH2 0xD72 JUMPI POP PUSH2 0xBF5 JUMP JUMPDEST PUSH1 0x0 DUP2 SSTORE PUSH1 0x1 ADD PUSH2 0xD65 JUMP JUMPDEST SWAP1 SWAP2 POP DUP2 SWAP1 PUSH2 0xD5C JUMP JUMPDEST PUSH4 0x4E487B71 PUSH1 0xE0 SHL PUSH1 0x0 MSTORE PUSH1 0x22 PUSH1 0x4 MSTORE PUSH1 0x24 PUSH1 0x0 REVERT JUMPDEST SWAP1 PUSH1 0x7F AND SWAP1 PUSH2 0xBE3 JUMP JUMPDEST PUSH4 0x4E487B71 PUSH1 0xE0 SHL PUSH1 0x0 MSTORE PUSH1 0x41 PUSH1 0x4 MSTORE PUSH1 0x24 PUSH1 0x0 REVERT JUMPDEST ADD MLOAD SWAP1 POP DUP10 DUP1 PUSH2 0xBA4 JUMP JUMPDEST PUSH1 0x0 DUP10 DUP2 MSTORE DUP3 DUP2 KECCAK256 SWAP4 POP PUSH1 0x1F NOT DUP6 AND SWAP1 JUMPDEST DUP2 DUP2 LT PUSH2 0xE16 JUMPI POP SWAP1 DUP5 PUSH1 0x1 SWAP6 SWAP5 SWAP4 SWAP3 LT PUSH2 0xDFD JUMPI JUMPDEST POP POP POP DUP2 SHL ADD DUP6 SSTORE PUSH2 0xBB9 JUMP JUMPDEST ADD MLOAD PUSH1 0x0 NOT PUSH1 0xF8 DUP5 PUSH1 0x3 SHL AND SHR NOT AND SWAP1 SSTORE DUP10 DUP1 DUP1 PUSH2 0xDF0 JUMP JUMPDEST SWAP3 SWAP4 PUSH1 0x20 PUSH1 0x1 DUP2 SWAP3 DUP8 DUP7 ADD MLOAD DUP2 SSTORE ADD SWAP6 ADD SWAP4 ADD PUSH2 0xDDA JUMP JUMPDEST SWAP1 SWAP2 POP DUP8 PUSH1 0x0 MSTORE PUSH1 0x20 PUSH1 0x0 KECCAK256 PUSH1 0x1F DUP5 ADD PUSH1 0x5 SHR DUP2 ADD SWAP2 PUSH1 0x20 DUP6 LT PUSH2 0xE77 JUMPI JUMPDEST SWAP1 PUSH1 0x1F DUP6 SWAP5 SWAP4 SWAP3 ADD PUSH1 0x5 SHR ADD SWAP1 JUMPDEST DUP2 DUP2 LT PUSH2 0xE68 JUMPI POP PUSH2 0xB8D JUMP JUMPDEST PUSH1 0x0 DUP2 SSTORE DUP5 SWAP4 POP PUSH1 0x1 ADD PUSH2 0xE5B JUMP JUMPDEST SWAP1 SWAP2 POP DUP2 SWAP1 PUSH2 0xE4D JUMP JUMPDEST SWAP2 PUSH1 0x7F AND SWAP2 PUSH2 0xB79 JUMP JUMPDEST PUSH4 0x4E487B71 PUSH1 0xE0 SHL PUSH1 0x0 MSTORE PUSH1 0x32 PUSH1 0x4 MSTORE PUSH1 0x24 PUSH1 0x0 REVERT JUMPDEST DUP1 PUSH1 0x20 DUP1 SWAP3 DUP5 ADD ADD MLOAD PUSH1 0x40 DUP3 DUP7 ADD ADD MSTORE ADD PUSH2 0xA55 JUMP JUMPDEST ADD MLOAD SWAP1 POP DUP11 DUP1 PUSH2 0xA08 JUMP JUMPDEST PUSH1 0x1F NOT DUP3 AND SWAP10 DUP4 PUSH1 0x0 MSTORE DUP2 PUSH1 0x0 KECCAK256 SWAP11 PUSH1 0x0 JUMPDEST DUP2 DUP2 LT PUSH2 0xF14 JUMPI POP SWAP2 PUSH1 0x5 SWAP10 SWAP11 SWAP12 SWAP2 DUP5 PUSH1 0x1 SWAP6 SWAP5 LT PUSH2 0xEFB JUMPI JUMPDEST POP POP POP DUP2 SHL ADD SWAP1 SSTORE PUSH2 0xA1D JUMP JUMPDEST ADD MLOAD PUSH1 0x0 NOT PUSH1 0xF8 DUP5 PUSH1 0x3 SHL AND SHR NOT AND SWAP1 SSTORE DUP11 DUP1 DUP1 PUSH2 0xEEE JUMP JUMPDEST DUP4 DUP4 ADD MLOAD DUP14 SSTORE PUSH1 0x1 SWAP1 SWAP13 ADD SWAP12 PUSH1 0x20 SWAP4 DUP5 ADD SWAP4 ADD PUSH2 0xED4 JUMP JUMPDEST DUP3 PUSH1 0x0 MSTORE PUSH1 0x20 PUSH1 0x0 KECCAK256 PUSH1 0x1F DUP4 ADD PUSH1 0x5 SHR DUP2 ADD SWAP2 PUSH1 0x20 DUP5 LT PUSH2 0xF6A JUMPI JUMPDEST PUSH1 0x1F ADD PUSH1 0x5 SHR ADD SWAP1 JUMPDEST DUP2 DUP2 LT PUSH2 0xF5E JUMPI POP PUSH2 0x9EB JUMP JUMPDEST PUSH1 0x0 DUP2 SSTORE PUSH1 0x1 ADD PUSH2 0xF51 JUMP JUMPDEST SWAP1 SWAP2 POP DUP2 SWAP1 PUSH2 0xF48 JUMP JUMPDEST SWAP1 PUSH1 0x7F AND SWAP1 PUSH2 0x9D9 JUMP JUMPDEST ADD MLOAD SWAP1 POP DUP10 DUP1 PUSH2 0x99A JUMP JUMPDEST PUSH1 0x0 DUP10 DUP2 MSTORE DUP3 DUP2 KECCAK256 SWAP4 POP PUSH1 0x1F NOT DUP6 AND SWAP1 JUMPDEST DUP2 DUP2 LT PUSH2 0xFD6 JUMPI POP SWAP1 DUP5 PUSH1 0x1 SWAP6 SWAP5 SWAP4 SWAP3 LT PUSH2 0xFBD JUMPI JUMPDEST POP POP POP DUP2 SHL ADD DUP6 SSTORE PUSH2 0x9AF JUMP JUMPDEST ADD MLOAD PUSH1 0x0 NOT PUSH1 0xF8 DUP5 PUSH1 0x3 SHL AND SHR NOT AND SWAP1 SSTORE DUP10 DUP1 DUP1 PUSH2 0xFB0 JUMP JUMPDEST SWAP3 SWAP4 PUSH1 0x20 PUSH1 0x1 DUP2 SWAP3 DUP8 DUP7 ADD MLOAD DUP2 SSTORE ADD SWAP6 ADD SWAP4 ADD PUSH2 0xF9A JUMP JUMPDEST SWAP1 SWAP2 POP DUP8 PUSH1 0x0 MSTORE PUSH1 0x20 PUSH1 0x0 KECCAK256 PUSH1 0x1F DUP5 ADD PUSH1 0x5 SHR DUP2 ADD SWAP2 PUSH1 0x20 DUP6 LT PUSH2 0x1037 JUMPI JUMPDEST SWAP1 PUSH1 0x1F DUP6 SWAP5 SWAP4 SWAP3 ADD PUSH1 0x5 SHR ADD SWAP1 JUMPDEST DUP2 DUP2 LT PUSH2 0x1028 JUMPI POP PUSH2 0x983 JUMP JUMPDEST PUSH1 0x0 DUP2 SSTORE DUP5 SWAP4 POP PUSH1 0x1 ADD PUSH2 0x101B JUMP JUMPDEST SWAP1 SWAP2 POP DUP2 SWAP1 PUSH2 0x100D JUMP JUMPDEST SWAP2 PUSH1 0x7F AND SWAP2 PUSH2 0x96F JUMP JUMPDEST DUP1 PUSH1 0x20 DUP1 SWAP3 DUP5 ADD ADD MLOAD PUSH1 0x40 DUP3 DUP7 ADD ADD MSTORE ADD PUSH2 0x84E JUMP JUMPDEST ADD MLOAD SWAP1 POP DUP11 DUP1 PUSH2 0x801 JUMP JUMPDEST PUSH1 0x1F NOT DUP3 AND SWAP10 DUP4 PUSH1 0x0 MSTORE DUP2 PUSH1 0x0 KECCAK256 SWAP11 PUSH1 0x0 JUMPDEST DUP2 DUP2 LT PUSH2 0x10BE JUMPI POP SWAP2 PUSH1 0x5 SWAP10 SWAP11 SWAP12 SWAP2 DUP5 PUSH1 0x1 SWAP6 SWAP5 LT PUSH2 0x10A5 JUMPI JUMPDEST POP POP POP DUP2 SHL ADD SWAP1 SSTORE PUSH2 0x816 JUMP JUMPDEST ADD MLOAD PUSH1 0x0 NOT PUSH1 0xF8 DUP5 PUSH1 0x3 SHL AND SHR NOT AND SWAP1 SSTORE DUP11 DUP1 DUP1 PUSH2 0x1098 JUMP JUMPDEST DUP4 DUP4 ADD MLOAD DUP14 SSTORE PUSH1 0x1 SWAP1 SWAP13 ADD SWAP12 PUSH1 0x20 SWAP4 DUP5 ADD SWAP4 ADD PUSH2 0x107E JUMP JUMPDEST DUP3 PUSH1 0x0 MSTORE PUSH1 0x20 PUSH1 0x0 KECCAK256 PUSH1 0x1F DUP4 ADD PUSH1 0x5 SHR DUP2 ADD SWAP2 PUSH1 0x20 DUP5 LT PUSH2 0x1114 JUMPI JUMPDEST PUSH1 0x1F ADD PUSH1 0x5 SHR ADD SWAP1 JUMPDEST DUP2 DUP2 LT PUSH2 0x1108 JUMPI POP PUSH2 0x7E4 JUMP JUMPDEST PUSH1 0x0 DUP2 SSTORE PUSH1 0x1 ADD PUSH2 0x10FB JUMP JUMPDEST SWAP1 SWAP2 POP DUP2 SWAP1 PUSH2 0x10F2 JUMP JUMPDEST SWAP1 PUSH1 0x7F AND SWAP1 PUSH2 0x7D2 JUMP JUMPDEST ADD MLOAD SWAP1 POP DUP10 DUP1 PUSH2 0x793 JUMP JUMPDEST PUSH1 0x0 DUP10 DUP2 MSTORE DUP3 DUP2 KECCAK256 SWAP4 POP PUSH1 0x1F NOT DUP6 AND SWAP1 JUMPDEST DUP2 DUP2 LT PUSH2 0x1180 JUMPI POP SWAP1 DUP5 PUSH1 0x1 SWAP6 SWAP5 SWAP4 SWAP3 LT PUSH2 0x1167 JUMPI JUMPDEST POP POP POP DUP2 SHL ADD DUP6 SSTORE PUSH2 0x7A8 JUMP JUMPDEST ADD MLOAD PUSH1 0x0 NOT PUSH1 0xF8 DUP5 PUSH1 0x3 SHL AND SHR NOT AND SWAP1 SSTORE DUP10 DUP1 DUP1 PUSH2 0x115A JUMP JUMPDEST SWAP3 SWAP4 PUSH1 0x20 PUSH1 0x1 DUP2 SWAP3 DUP8 DUP7 ADD MLOAD DUP2 SSTORE ADD SWAP6 ADD SWAP4 ADD PUSH2 0x1144 JUMP JUMPDEST SWAP1 SWAP2 POP DUP8 PUSH1 0x0 MSTORE PUSH1 0x20 PUSH1 0x0 KECCAK256 PUSH1 0x1F DUP5 ADD PUSH1 0x5 SHR DUP2 ADD SWAP2 PUSH1 0x20 DUP6 LT PUSH2 0x11E1 JUMPI JUMPDEST SWAP1 PUSH1 0x1F DUP6 SWAP5 SWAP4 SWAP3 ADD PUSH1 0x5 SHR ADD SWAP1 JUMPDEST DUP2 DUP2 LT PUSH2 0x11D2 JUMPI POP PUSH2 0x77C JUMP JUMPDEST PUSH1 0x0 DUP2 SSTORE DUP5 SWAP4 POP PUSH1 0x1 ADD PUSH2 0x11C5 JUMP JUMPDEST SWAP1 SWAP2 POP DUP2 SWAP1 PUSH2 0x11B7 JUMP JUMPDEST SWAP2 PUSH1 0x7F AND SWAP2 PUSH2 0x768 JUMP JUMPDEST DUP1 PUSH1 0x20 DUP1 SWAP3 DUP5 ADD ADD MLOAD PUSH1 0x40 DUP3 DUP7 ADD ADD MSTORE ADD PUSH2 0x646 JUMP JUMPDEST ADD MLOAD SWAP1 POP DUP11 DUP1 PUSH2 0x5F9 JUMP JUMPDEST PUSH1 0x1F NOT DUP3 AND SWAP10 DUP4 PUSH1 0x0 MSTORE DUP2 PUSH1 0x0 KECCAK256 SWAP11 PUSH1 0x0 JUMPDEST DUP2 DUP2 LT PUSH2 0x1268 JUMPI POP SWAP2 PUSH1 0x5 SWAP10 SWAP11 SWAP12 SWAP2 DUP5 PUSH1 0x1 SWAP6 SWAP5 LT PUSH2 0x124F JUMPI JUMPDEST POP POP POP DUP2 SHL ADD SWAP1 SSTORE PUSH2 0x60E JUMP JUMPDEST ADD MLOAD PUSH1 0x0 NOT PUSH1 0xF8 DUP5 PUSH1 0x3 SHL AND SHR NOT AND SWAP1 SSTORE DUP11 DUP1 DUP1 PUSH2 0x1242 JUMP JUMPDEST DUP4 DUP4 ADD MLOAD DUP14 SSTORE PUSH1 0x1 SWAP1 SWAP13 ADD SWAP12 PUSH1 0x20 SWAP4 DUP5 ADD SWAP4 ADD PUSH2 0x1228 JUMP JUMPDEST DUP3 PUSH1 0x0 MSTORE PUSH1 0x20 PUSH1 0x0 KECCAK256 PUSH1 0x1F DUP4 ADD PUSH1 0x5 SHR DUP2 ADD SWAP2 PUSH1 0x20 DUP5 LT PUSH2 0x12BE JUMPI JUMPDEST PUSH1 0x1F ADD PUSH1 0x5 SHR ADD SWAP1 JUMPDEST DUP2 DUP2 LT PUSH2 0x12B2 JUMPI POP PUSH2 0x5DC JUMP JUMPDEST PUSH1 0x0 DUP2 SSTORE PUSH1 0x1 ADD PUSH2 0x12A5 JUMP JUMPDEST SWAP1 SWAP2 POP DUP2 SWAP1 PUSH2 0x129C JUMP JUMPDEST SWAP1 PUSH1 0x7F AND SWAP1 PUSH2 0x5CA JUMP JUMPDEST ADD MLOAD SWAP1 POP DUP10 DUP1 PUSH2 0x58B JUMP JUMPDEST PUSH1 0x0 DUP10 DUP2 MSTORE DUP3 DUP2 KECCAK256 SWAP4 POP PUSH1 0x1F NOT DUP6 AND SWAP1 JUMPDEST DUP2 DUP2 LT PUSH2 0x132A JUMPI POP SWAP1 DUP5 PUSH1 0x1 SWAP6 SWAP5 SWAP4 SWAP3 LT PUSH2 0x1311 JUMPI JUMPDEST POP POP POP DUP2 SHL ADD DUP6 SSTORE PUSH2 0x5A0 JUMP JUMPDEST ADD MLOAD PUSH1 0x0 NOT PUSH1 0xF8 DUP5 PUSH1 0x3 SHL AND SHR NOT AND SWAP1 SSTORE DUP10 DUP1 DUP1 PUSH2 0x1304 JUMP JUMPDEST SWAP3 SWAP4 PUSH1 0x20 PUSH1 0x1 DUP2 SWAP3 DUP8 DUP7 ADD MLOAD DUP2 SSTORE ADD SWAP6 ADD SWAP4 ADD PUSH2 0x12EE JUMP JUMPDEST SWAP1 SWAP2 POP DUP8 PUSH1 0x0 MSTORE PUSH1 0x20 PUSH1 0x0 KECCAK256 PUSH1 0x1F DUP5 ADD PUSH1 0x5 SHR DUP2 ADD SWAP2 PUSH1 0x20 DUP6 LT PUSH2 0x138B JUMPI JUMPDEST SWAP1 PUSH1 0x1F DUP6 SWAP5 SWAP4 SWAP3 ADD PUSH1 0x5 SHR ADD SWAP1 JUMPDEST DUP2 DUP2 LT PUSH2 0x137C JUMPI POP PUSH2 0x574 JUMP JUMPDEST PUSH1 0x0 DUP2 SSTORE DUP5 SWAP4 POP PUSH1 0x1 ADD PUSH2 0x136F JUMP JUMPDEST SWAP1 SWAP2 POP DUP2 SWAP1 PUSH2 0x1361 JUMP JUMPDEST SWAP2 PUSH1 0x7F AND SWAP2 PUSH2 0x560 JUMP JUMPDEST DUP1 PUSH1 0x20 DUP1 SWAP3 DUP5 ADD ADD MLOAD PUSH1 0x40 DUP3 DUP7 ADD ADD MSTORE ADD PUSH2 0x439 JUMP JUMPDEST ADD MLOAD SWAP1 POP DUP11 DUP1 PUSH2 0x3EC JUMP JUMPDEST PUSH1 0x1F NOT DUP3 AND SWAP10 DUP4 PUSH1 0x0 MSTORE DUP2 PUSH1 0x0 KECCAK256 SWAP11 PUSH1 0x0 JUMPDEST DUP2 DUP2 LT PUSH2 0x1412 JUMPI POP SWAP2 PUSH1 0x5 SWAP10 SWAP11 SWAP12 SWAP2 DUP5 PUSH1 0x1 SWAP6 SWAP5 LT PUSH2 0x13F9 JUMPI JUMPDEST POP POP POP DUP2 SHL ADD SWAP1 SSTORE PUSH2 0x401 JUMP JUMPDEST ADD MLOAD PUSH1 0x0 NOT PUSH1 0xF8 DUP5 PUSH1 0x3 SHL AND SHR NOT AND SWAP1 SSTORE DUP11 DUP1 DUP1 PUSH2 0x13EC JUMP JUMPDEST DUP4 DUP4 ADD MLOAD DUP14 SSTORE PUSH1 0x1 SWAP1 SWAP13 ADD SWAP12 PUSH1 0x20 SWAP4 DUP5 ADD SWAP4 ADD PUSH2 0x13D2 JUMP JUMPDEST DUP3 PUSH1 0x0 MSTORE PUSH1 0x20 PUSH1 0x0 KECCAK256 PUSH1 0x1F DUP4 ADD PUSH1 0x5 SHR DUP2 ADD SWAP2 PUSH1 0x20 DUP5 LT PUSH2 0x1468 JUMPI JUMPDEST PUSH1 0x1F ADD PUSH1 0x5 SHR ADD SWAP1 JUMPDEST DUP2 DUP2 LT PUSH2 0x145C JUMPI POP PUSH2 0x3CF JUMP JUMPDEST PUSH1 0x0 DUP2 SSTORE PUSH1 0x1 ADD PUSH2 0x144F JUMP JUMPDEST SWAP1 SWAP2 POP DUP2 SWAP1 PUSH2 0x1446 JUMP JUMPDEST SWAP1 PUSH1 0x7F AND SWAP1 PUSH2 0x3BD JUMP JUMPDEST ADD MLOAD SWAP1 POP DUP10 DUP1 PUSH2 0x37E JUMP JUMPDEST PUSH1 0x0 DUP10 DUP2 MSTORE DUP3 DUP2 KECCAK256 SWAP4 POP PUSH1 0x1F NOT DUP6 AND SWAP1 JUMPDEST DUP2 DUP2 LT PUSH2 0x14D4 JUMPI POP SWAP1 DUP5 PUSH1 0x1 SWAP6 SWAP5 SWAP4 SWAP3 LT PUSH2 0x14BB JUMPI JUMPDEST POP POP POP DUP2 SHL ADD DUP6 SSTORE PUSH2 0x393 JUMP JUMPDEST ADD MLOAD PUSH1 0x0 NOT PUSH1 0xF8 DUP5 PUSH1 0x3 SHL AND SHR NOT AND SWAP1 SSTORE DUP10 DUP1 DUP1 PUSH2 0x14AE JUMP JUMPDEST SWAP3 SWAP4 PUSH1 0x20 PUSH1 0x1 DUP2 SWAP3 DUP8 DUP7 ADD MLOAD DUP2 SSTORE ADD SWAP6 ADD SWAP4 ADD PUSH2 0x1498 JUMP JUMPDEST SWAP1 SWAP2 POP DUP8 PUSH1 0x0 MSTORE PUSH1 0x20 PUSH1 0x0 KECCAK256 PUSH1 0x1F DUP5 ADD PUSH1 0x5 SHR DUP2 ADD SWAP2 PUSH1 0x20 DUP6 LT PUSH2 0x1535 JUMPI JUMPDEST SWAP1 PUSH1 0x1F DUP6 SWAP5 SWAP4 SWAP3 ADD PUSH1 0x5 SHR ADD SWAP1 JUMPDEST DUP2 DUP2 LT PUSH2 0x1526 JUMPI POP PUSH2 0x367 JUMP JUMPDEST PUSH1 0x0 DUP2 SSTORE DUP5 SWAP4 POP PUSH1 0x1 ADD PUSH2 0x1519 JUMP JUMPDEST SWAP1 SWAP2 POP DUP2 SWAP1 PUSH2 0x150B JUMP JUMPDEST SWAP2 PUSH1 0x7F AND SWAP2 PUSH2 0x353 JUMP JUMPDEST DUP1 PUSH1 0x20 DUP1 SWAP3 DUP5 ADD ADD MLOAD PUSH1 0x40 DUP3 DUP7 ADD ADD MSTORE ADD PUSH2 0x22D JUMP JUMPDEST ADD MLOAD SWAP1 POP CODESIZE DUP1 PUSH2 0x1E0 JUMP JUMPDEST PUSH1 0x1F NOT DUP3 AND SWAP10 DUP4 PUSH1 0x0 MSTORE DUP2 PUSH1 0x0 KECCAK256 SWAP11 PUSH1 0x0 JUMPDEST DUP2 DUP2 LT PUSH2 0x15BC JUMPI POP SWAP2 PUSH1 0x5 SWAP10 SWAP11 SWAP12 SWAP2 DUP5 PUSH1 0x1 SWAP6 SWAP5 LT PUSH2 0x15A3 JUMPI JUMPDEST POP POP POP DUP2 SHL ADD SWAP1 SSTORE PUSH2 0x1F5 JUMP JUMPDEST ADD MLOAD PUSH1 0x0 NOT PUSH1 0xF8 DUP5 PUSH1 0x3 SHL AND SHR NOT AND SWAP1 SSTORE CODESIZE DUP1 DUP1 PUSH2 0x1596 JUMP JUMPDEST DUP4 DUP4 ADD MLOAD DUP14 SSTORE PUSH1 0x1 SWAP1 SWAP13 ADD SWAP12 PUSH1 0x20 SWAP4 DUP5 ADD SWAP4 ADD PUSH2 0x157C JUMP JUMPDEST DUP3 PUSH1 0x0 MSTORE PUSH1 0x20 PUSH1 0x0 KECCAK256 PUSH1 0x1F DUP4 ADD PUSH1 0x5 SHR DUP2 ADD SWAP2 PUSH1 0x20 DUP5 LT PUSH2 0x1612 JUMPI JUMPDEST PUSH1 0x1F ADD PUSH1 0x5 SHR ADD SWAP1 JUMPDEST DUP2 DUP2 LT PUSH2 0x1606 JUMPI POP PUSH2 0x1C3 JUMP JUMPDEST PUSH1 0x0 DUP2 SSTORE PUSH1 0x1 ADD PUSH2 0x15F9 JUMP JUMPDEST SWAP1 SWAP2 POP DUP2 SWAP1 PUSH2 0x15F0 JUMP JUMPDEST SWAP1 PUSH1 0x7F AND SWAP1 PUSH2 0x1B1 JUMP JUMPDEST ADD MLOAD SWAP1 POP CODESIZE DUP1 PUSH2 0x172 JUMP JUMPDEST PUSH1 0x0 DUP10 DUP2 MSTORE DUP3 DUP2 KECCAK256 SWAP4 POP PUSH1 0x1F NOT DUP6 AND SWAP1 JUMPDEST DUP2 DUP2 LT PUSH2 0x167E JUMPI POP SWAP1 DUP5 PUSH1 0x1 SWAP6 SWAP5 SWAP4 SWAP3 LT PUSH2 0x1665 JUMPI JUMPDEST POP POP POP DUP2 SHL ADD DUP6 SSTORE PUSH2 0x187 JUMP JUMPDEST ADD MLOAD PUSH1 0x0 NOT PUSH1 0xF8 DUP5 PUSH1 0x3 SHL AND SHR NOT AND SWAP1 SSTORE CODESIZE DUP1 DUP1 PUSH2 0x1658 JUMP JUMPDEST SWAP3 SWAP4 PUSH1 0x20 PUSH1 0x1 DUP2 SWAP3 DUP8 DUP7 ADD MLOAD DUP2 SSTORE ADD SWAP6 ADD SWAP4 ADD PUSH2 0x1642 JUMP JUMPDEST SWAP1 SWAP2 POP DUP8 PUSH1 0x0 MSTORE PUSH1 0x20 PUSH1 0x0 KECCAK256 PUSH1 0x1F DUP5 ADD PUSH1 0x5 SHR DUP2 ADD SWAP2 PUSH1 0x20 DUP6 LT PUSH2 0x16DF JUMPI JUMPDEST SWAP1 PUSH1 0x1F DUP6 SWAP5 SWAP4 SWAP3 ADD PUSH1 0x5 SHR ADD SWAP1 JUMPDEST DUP2 DUP2 LT PUSH2 0x16D0 JUMPI POP PUSH2 0x15B JUMP JUMPDEST PUSH1 0x0 DUP2 SSTORE DUP5 SWAP4 POP PUSH1 0x1 ADD PUSH2 0x16C3 JUMP JUMPDEST SWAP1 SWAP2 POP DUP2 SWAP1 PUSH2 0x16B5 JUMP JUMPDEST SWAP2 PUSH1 0x7F AND SWAP2 PUSH2 0x147 JUMP JUMPDEST PUSH1 0x0 DUP1 REVERT JUMPDEST PUSH1 0x40 MLOAD SWAP1 PUSH1 0xC0 DUP3 ADD PUSH1 0x1 PUSH1 0x1 PUSH1 0x40 SHL SUB DUP2 GT DUP4 DUP3 LT OR PUSH2 0xDA8 JUMPI PUSH1 0x40 MSTORE JUMP JUMPDEST PUSH1 0x40 MLOAD SWAP2 SWAP1 PUSH1 0x1F ADD PUSH1 0x1F NOT AND DUP3 ADD PUSH1 0x1 PUSH1 0x1 PUSH1 0x40 SHL SUB DUP2 GT DUP4 DUP3 LT OR PUSH2 0xDA8 JUMPI PUSH1 0x40 MSTORE JUMP INVALID PUSH1 0x80 DUP1 PUSH1 0x40 MSTORE PUSH1 0x4 CALLDATASIZE LT ISZERO PUSH2 0x13 JUMPI PUSH1 0x0 DUP1 REVERT JUMPDEST PUSH1 0x0 CALLDATALOAD PUSH1 0xE0 SHR SWAP1 DUP2 PUSH4 0x3828E45 EQ PUSH2 0x817 JUMPI POP DUP1 PUSH4 0xFB91B88 EQ PUSH2 0x7DA JUMPI DUP1 PUSH4 0x37F3A30C EQ PUSH2 0x79D JUMPI DUP1 PUSH4 0x68807C76 EQ PUSH2 0x6BD JUMPI DUP1 PUSH4 0x6F656909 EQ PUSH2 0x67B JUMPI DUP1 PUSH4 0x715018A6 EQ PUSH2 0x622 JUMPI DUP1 PUSH4 0x75A67D5C EQ PUSH2 0x5E8 JUMPI DUP1 PUSH4 0x7D0CD7F5 EQ PUSH2 0x55F JUMPI DUP1 PUSH4 0x8529644F EQ PUSH2 0x543 JUMPI DUP1 PUSH4 0x8DA5CB5B EQ PUSH2 0x51A JUMPI DUP1 PUSH4 0x98E36D8B EQ PUSH2 0x467 JUMPI DUP1 PUSH4 0xACC5F191 EQ PUSH2 0x446 JUMPI DUP1 PUSH4 0xACCCC391 EQ PUSH2 0x42A JUMPI DUP1 PUSH4 0xC9EF4329 EQ PUSH2 0x34A JUMPI DUP1 PUSH4 0xD475C2C3 EQ PUSH2 0x30D JUMPI DUP1 PUSH4 0xDA94A3EB EQ PUSH2 0x2F1 JUMPI DUP1 PUSH4 0xEA986C3E EQ PUSH2 0x2B4 JUMPI DUP1 PUSH4 0xED34DE09 EQ PUSH2 0x1BC JUMPI PUSH4 0xF2FDE38B EQ PUSH2 0xF0 JUMPI PUSH1 0x0 DUP1 REVERT JUMPDEST CALLVALUE PUSH2 0x1B7 JUMPI PUSH1 0x20 CALLDATASIZE PUSH1 0x3 NOT ADD SLT PUSH2 0x1B7 JUMPI PUSH2 0x109 PUSH2 0x8D1 JUMP JUMPDEST PUSH2 0x111 PUSH2 0xABC JUMP JUMPDEST PUSH1 0x1 PUSH1 0x1 PUSH1 0xA0 SHL SUB AND DUP1 ISZERO PUSH2 0x163 JUMPI PUSH1 0x0 DUP1 SLOAD PUSH1 0x1 PUSH1 0x1 PUSH1 0xA0 SHL SUB NOT DUP2 AND DUP4 OR DUP3 SSTORE PUSH1 0x1 PUSH1 0x1 PUSH1 0xA0 SHL SUB AND SWAP1 PUSH32 0x8BE0079C531659141344CD1FD0A4F28419497F9722A3DAAFE3B4186F6B6457E0 SWAP1 DUP1 LOG3 STOP JUMPDEST PUSH1 0x40 MLOAD PUSH3 0x461BCD PUSH1 0xE5 SHL DUP2 MSTORE PUSH1 0x20 PUSH1 0x4 DUP3 ADD MSTORE PUSH1 0x26 PUSH1 0x24 DUP3 ADD MSTORE PUSH32 0x4F776E61626C653A206E6577206F776E657220697320746865207A65726F2061 PUSH1 0x44 DUP3 ADD MSTORE PUSH6 0x646472657373 PUSH1 0xD0 SHL PUSH1 0x64 DUP3 ADD MSTORE PUSH1 0x84 SWAP1 REVERT JUMPDEST PUSH1 0x0 DUP1 REVERT JUMPDEST CALLVALUE PUSH2 0x1B7 JUMPI PUSH1 0x20 CALLDATASIZE PUSH1 0x3 NOT ADD SLT PUSH2 0x1B7 JUMPI PUSH2 0x1D5 PUSH2 0x8D1 JUMP JUMPDEST PUSH2 0x1DD PUSH2 0xABC JUMP JUMPDEST PUSH2 0x1E6 DUP2 PUSH2 0xA53 JUMP JUMPDEST PUSH1 0x1 DUP1 PUSH1 0xA0 SHL SUB DUP2 AND SWAP1 DUP2 PUSH1 0x0 MSTORE PUSH1 0x2 PUSH1 0x20 MSTORE PUSH1 0x1 PUSH1 0x40 PUSH1 0x0 KECCAK256 ADD PUSH2 0x20B DUP2 SLOAD PUSH2 0xA44 JUMP JUMPDEST SWAP1 SSTORE DUP2 PUSH1 0x0 MSTORE PUSH1 0x2 PUSH1 0x20 MSTORE PUSH1 0x40 PUSH1 0x0 KECCAK256 SWAP2 DUP3 SLOAD PUSH1 0xA DUP2 ADD DUP1 SWAP2 GT PUSH2 0x29E JUMPI PUSH2 0x29C SWAP4 SSTORE DUP1 PUSH1 0x0 MSTORE PUSH1 0x2 PUSH1 0x20 MSTORE DUP1 PUSH32 0x66F85029E78C953D750EE9BE93911767775A3AD66DFE87E746F58FCE18D694A PUSH1 0x20 PUSH1 0x1 PUSH1 0x40 PUSH1 0x0 KECCAK256 ADD SLOAD PUSH1 0x40 MLOAD SWAP1 DUP2 MSTORE LOG2 DUP1 PUSH1 0x0 MSTORE PUSH1 0x2 PUSH1 0x20 MSTORE PUSH1 0x0 DUP1 MLOAD PUSH1 0x20 PUSH2 0xD35 DUP4 CODECOPY DUP2 MLOAD SWAP2 MSTORE PUSH1 0x40 DUP1 PUSH1 0x0 KECCAK256 SLOAD DUP2 MLOAD SWAP1 PUSH1 0xA DUP3 MSTORE PUSH1 0x20 DUP3 ADD MSTORE LOG2 PUSH2 0xB14 JUMP JUMPDEST STOP JUMPDEST PUSH4 0x4E487B71 PUSH1 0xE0 SHL PUSH1 0x0 MSTORE PUSH1 0x11 PUSH1 0x4 MSTORE PUSH1 0x24 PUSH1 0x0 REVERT JUMPDEST CALLVALUE PUSH2 0x1B7 JUMPI PUSH1 0x20 CALLDATASIZE PUSH1 0x3 NOT ADD SLT PUSH2 0x1B7 JUMPI PUSH1 0x1 PUSH1 0x1 PUSH1 0xA0 SHL SUB PUSH2 0x2D5 PUSH2 0x8D1 JUMP JUMPDEST AND PUSH1 0x0 MSTORE PUSH1 0x2 PUSH1 0x20 MSTORE PUSH1 0x20 PUSH1 0x3 PUSH1 0x40 PUSH1 0x0 KECCAK256 ADD SLOAD PUSH1 0x40 MLOAD SWAP1 DUP2 MSTORE RETURN JUMPDEST CALLVALUE PUSH2 0x1B7 JUMPI PUSH1 0x0 CALLDATASIZE PUSH1 0x3 NOT ADD SLT PUSH2 0x1B7 JUMPI PUSH1 0x20 PUSH1 0x40 MLOAD PUSH1 0xA DUP2 MSTORE RETURN JUMPDEST CALLVALUE PUSH2 0x1B7 JUMPI PUSH1 0x20 CALLDATASIZE PUSH1 0x3 NOT ADD SLT PUSH2 0x1B7 JUMPI PUSH1 0x1 PUSH1 0x1 PUSH1 0xA0 SHL SUB PUSH2 0x32E PUSH2 0x8D1 JUMP JUMPDEST AND PUSH1 0x0 MSTORE PUSH1 0x2 PUSH1 0x20 MSTORE PUSH1 0x20 PUSH1 0x1 PUSH1 0x40 PUSH1 0x0 KECCAK256 ADD SLOAD PUSH1 0x40 MLOAD SWAP1 DUP2 MSTORE RETURN JUMPDEST CALLVALUE PUSH2 0x1B7 JUMPI PUSH1 0x20 CALLDATASIZE PUSH1 0x3 NOT ADD SLT PUSH2 0x1B7 JUMPI PUSH2 0x363 PUSH2 0x8D1 JUMP JUMPDEST PUSH2 0x36B PUSH2 0xABC JUMP JUMPDEST PUSH2 0x374 DUP2 PUSH2 0xA53 JUMP JUMPDEST PUSH1 0x1 DUP1 PUSH1 0xA0 SHL SUB DUP2 AND SWAP1 DUP2 PUSH1 0x0 MSTORE PUSH1 0x2 PUSH1 0x20 MSTORE PUSH1 0x3 PUSH1 0x40 PUSH1 0x0 KECCAK256 ADD PUSH2 0x399 DUP2 SLOAD PUSH2 0xA44 JUMP JUMPDEST SWAP1 SSTORE DUP2 PUSH1 0x0 MSTORE PUSH1 0x2 PUSH1 0x20 MSTORE PUSH1 0x40 PUSH1 0x0 KECCAK256 SWAP2 DUP3 SLOAD PUSH1 0x3 DUP2 ADD DUP1 SWAP2 GT PUSH2 0x29E JUMPI PUSH2 0x29C SWAP4 SSTORE DUP1 PUSH1 0x0 MSTORE PUSH1 0x2 PUSH1 0x20 MSTORE DUP1 PUSH32 0xC628EF7A55459AE22532E0A190407871BCE70FCBD2D7390AA3A69B3A2D86E9F PUSH1 0x20 PUSH1 0x3 PUSH1 0x40 PUSH1 0x0 KECCAK256 ADD SLOAD PUSH1 0x40 MLOAD SWAP1 DUP2 MSTORE LOG2 DUP1 PUSH1 0x0 MSTORE PUSH1 0x2 PUSH1 0x20 MSTORE PUSH1 0x0 DUP1 MLOAD PUSH1 0x20 PUSH2 0xD35 DUP4 CODECOPY DUP2 MLOAD SWAP2 MSTORE PUSH1 0x40 DUP1 PUSH1 0x0 KECCAK256 SLOAD DUP2 MLOAD SWAP1 PUSH1 0x3 DUP3 MSTORE PUSH1 0x20 DUP3 ADD MSTORE LOG2 PUSH2 0xB14 JUMP JUMPDEST CALLVALUE PUSH2 0x1B7 JUMPI PUSH1 0x0 CALLDATASIZE PUSH1 0x3 NOT ADD SLT PUSH2 0x1B7 JUMPI PUSH1 0x20 PUSH1 0x40 MLOAD PUSH1 0x5 DUP2 MSTORE RETURN JUMPDEST CALLVALUE PUSH2 0x1B7 JUMPI PUSH1 0x20 CALLDATASIZE PUSH1 0x3 NOT ADD SLT PUSH2 0x1B7 JUMPI PUSH2 0x29C PUSH2 0x462 PUSH2 0x8D1 JUMP JUMPDEST PUSH2 0xA53 JUMP JUMPDEST CALLVALUE PUSH2 0x1B7 JUMPI PUSH1 0x20 CALLDATASIZE PUSH1 0x3 NOT ADD SLT PUSH2 0x1B7 JUMPI PUSH1 0x4 CALLDATALOAD PUSH1 0x3 SLOAD DUP2 LT ISZERO PUSH2 0x1B7 JUMPI PUSH2 0x491 PUSH2 0x4F3 SWAP2 PUSH2 0x8E7 JUMP JUMPDEST POP PUSH1 0x40 MLOAD SWAP1 PUSH2 0x4AB DUP3 PUSH2 0x4A4 DUP2 DUP5 PUSH2 0x91C JUMP JUMPDEST SUB DUP4 PUSH2 0x9CB JUMP JUMPDEST PUSH1 0x40 MLOAD PUSH2 0x4C6 DUP2 PUSH2 0x4BF DUP2 PUSH1 0x1 DUP7 ADD PUSH2 0x91C JUMP JUMPDEST SUB DUP3 PUSH2 0x9CB JUMP JUMPDEST PUSH1 0x2 DUP3 ADD SLOAD SWAP2 PUSH1 0x3 DUP2 ADD SLOAD PUSH2 0x501 PUSH1 0x5 PUSH1 0x4 DUP5 ADD SLOAD SWAP4 ADD SLOAD SWAP4 PUSH1 0x40 MLOAD SWAP8 DUP9 SWAP8 PUSH1 0xC0 DUP10 MSTORE PUSH1 0xC0 DUP10 ADD SWAP1 PUSH2 0xA03 JUMP JUMPDEST SWAP1 DUP8 DUP3 SUB PUSH1 0x20 DUP10 ADD MSTORE PUSH2 0xA03 JUMP JUMPDEST SWAP4 PUSH1 0x40 DUP7 ADD MSTORE PUSH1 0x60 DUP6 ADD MSTORE PUSH1 0x80 DUP5 ADD MSTORE PUSH1 0xA0 DUP4 ADD MSTORE SUB SWAP1 RETURN JUMPDEST CALLVALUE PUSH2 0x1B7 JUMPI PUSH1 0x0 CALLDATASIZE PUSH1 0x3 NOT ADD SLT PUSH2 0x1B7 JUMPI PUSH1 0x0 SLOAD PUSH1 0x40 MLOAD PUSH1 0x1 PUSH1 0x1 PUSH1 0xA0 SHL SUB SWAP1 SWAP2 AND DUP2 MSTORE PUSH1 0x20 SWAP1 RETURN JUMPDEST CALLVALUE PUSH2 0x1B7 JUMPI PUSH1 0x0 CALLDATASIZE PUSH1 0x3 NOT ADD SLT PUSH2 0x1B7 JUMPI PUSH1 0x20 PUSH1 0x40 MLOAD PUSH1 0x3 DUP2 MSTORE RETURN JUMPDEST CALLVALUE PUSH2 0x1B7 JUMPI PUSH1 0x40 CALLDATASIZE PUSH1 0x3 NOT ADD SLT PUSH2 0x1B7 JUMPI PUSH2 0x578 PUSH2 0x8D1 JUMP JUMPDEST PUSH1 0x24 CALLDATALOAD SWAP1 PUSH2 0x584 PUSH2 0xABC JUMP JUMPDEST PUSH2 0x58D DUP2 PUSH2 0xA53 JUMP JUMPDEST PUSH1 0x1 PUSH1 0x1 PUSH1 0xA0 SHL SUB DUP2 AND PUSH1 0x0 DUP2 DUP2 MSTORE PUSH1 0x2 PUSH1 0x20 MSTORE PUSH1 0x40 SWAP1 KECCAK256 DUP1 SLOAD DUP5 DUP2 ADD SWAP2 SWAP1 DUP3 LT PUSH2 0x29E JUMPI PUSH2 0x29C SWAP5 PUSH1 0x0 DUP1 MLOAD PUSH1 0x20 PUSH2 0xD35 DUP4 CODECOPY DUP2 MLOAD SWAP2 MSTORE SWAP3 PUSH1 0x40 SWAP3 SSTORE DUP4 PUSH1 0x0 MSTORE PUSH1 0x2 PUSH1 0x20 MSTORE DUP2 PUSH1 0x0 KECCAK256 SLOAD DUP3 MLOAD SWAP2 DUP3 MSTORE PUSH1 0x20 DUP3 ADD MSTORE LOG2 PUSH2 0xB14 JUMP JUMPDEST CALLVALUE PUSH2 0x1B7 JUMPI PUSH1 0x20 CALLDATASIZE PUSH1 0x3 NOT ADD SLT PUSH2 0x1B7 JUMPI PUSH1 0x1 PUSH1 0x1 PUSH1 0xA0 SHL SUB PUSH2 0x609 PUSH2 0x8D1 JUMP JUMPDEST AND PUSH1 0x0 MSTORE PUSH1 0x2 PUSH1 0x20 MSTORE PUSH1 0x20 PUSH1 0x40 PUSH1 0x0 KECCAK256 SLOAD PUSH1 0x40 MLOAD SWAP1 DUP2 MSTORE RETURN JUMPDEST CALLVALUE PUSH2 0x1B7 JUMPI PUSH1 0x0 CALLDATASIZE PUSH1 0x3 NOT ADD SLT PUSH2 0x1B7 JUMPI PUSH2 0x63B PUSH2 0xABC JUMP JUMPDEST PUSH1 0x0 DUP1 SLOAD PUSH1 0x1 PUSH1 0x1 PUSH1 0xA0 SHL SUB NOT DUP2 AND DUP3 SSTORE PUSH1 0x1 PUSH1 0x1 PUSH1 0xA0 SHL SUB AND PUSH32 0x8BE0079C531659141344CD1FD0A4F28419497F9722A3DAAFE3B4186F6B6457E0 DUP3 DUP1 LOG3 STOP JUMPDEST CALLVALUE PUSH2 0x1B7 JUMPI PUSH1 0x20 CALLDATASIZE PUSH1 0x3 NOT ADD SLT PUSH2 0x1B7 JUMPI PUSH1 0x1 PUSH1 0x1 PUSH1 0xA0 SHL SUB PUSH2 0x69C PUSH2 0x8D1 JUMP JUMPDEST AND PUSH1 0x0 MSTORE PUSH1 0x2 PUSH1 0x20 MSTORE PUSH1 0x20 PUSH1 0xFF PUSH1 0x6 PUSH1 0x40 PUSH1 0x0 KECCAK256 ADD SLOAD AND PUSH1 0x40 MLOAD SWAP1 ISZERO ISZERO DUP2 MSTORE RETURN JUMPDEST CALLVALUE PUSH2 0x1B7 JUMPI PUSH1 0x20 CALLDATASIZE PUSH1 0x3 NOT ADD SLT PUSH2 0x1B7 JUMPI PUSH2 0x6D6 PUSH2 0x8D1 JUMP JUMPDEST PUSH2 0x6DE PUSH2 0xABC JUMP JUMPDEST PUSH2 0x6E7 DUP2 PUSH2 0xA53 JUMP JUMPDEST PUSH1 0x1 DUP1 PUSH1 0xA0 SHL SUB DUP2 AND SWAP1 DUP2 PUSH1 0x0 MSTORE PUSH1 0x2 PUSH1 0x20 MSTORE PUSH1 0x2 PUSH1 0x40 PUSH1 0x0 KECCAK256 ADD PUSH2 0x70C DUP2 SLOAD PUSH2 0xA44 JUMP JUMPDEST SWAP1 SSTORE DUP2 PUSH1 0x0 MSTORE PUSH1 0x2 PUSH1 0x20 MSTORE PUSH1 0x40 PUSH1 0x0 KECCAK256 SWAP2 DUP3 SLOAD PUSH1 0x5 DUP2 ADD DUP1 SWAP2 GT PUSH2 0x29E JUMPI PUSH2 0x29C SWAP4 SSTORE DUP1 PUSH1 0x0 MSTORE PUSH1 0x2 PUSH1 0x20 MSTORE DUP1 PUSH32 0x8D40B1E890CED9ADF397D25A06046DF796E132DD75CBFB5A21C868C2B4A4A75E PUSH1 0x20 PUSH1 0x2 PUSH1 0x40 PUSH1 0x0 KECCAK256 ADD SLOAD PUSH1 0x40 MLOAD SWAP1 DUP2 MSTORE LOG2 DUP1 PUSH1 0x0 MSTORE PUSH1 0x2 PUSH1 0x20 MSTORE PUSH1 0x0 DUP1 MLOAD PUSH1 0x20 PUSH2 0xD35 DUP4 CODECOPY DUP2 MLOAD SWAP2 MSTORE PUSH1 0x40 DUP1 PUSH1 0x0 KECCAK256 SLOAD DUP2 MLOAD SWAP1 PUSH1 0x5 DUP3 MSTORE PUSH1 0x20 DUP3 ADD MSTORE LOG2 PUSH2 0xB14 JUMP JUMPDEST CALLVALUE PUSH2 0x1B7 JUMPI PUSH1 0x20 CALLDATASIZE PUSH1 0x3 NOT ADD SLT PUSH2 0x1B7 JUMPI PUSH1 0x1 PUSH1 0x1 PUSH1 0xA0 SHL SUB PUSH2 0x7BE PUSH2 0x8D1 JUMP JUMPDEST AND PUSH1 0x0 MSTORE PUSH1 0x2 PUSH1 0x20 MSTORE PUSH1 0x20 PUSH1 0x2 PUSH1 0x40 PUSH1 0x0 KECCAK256 ADD SLOAD PUSH1 0x40 MLOAD SWAP1 DUP2 MSTORE RETURN JUMPDEST CALLVALUE PUSH2 0x1B7 JUMPI PUSH1 0x20 CALLDATASIZE PUSH1 0x3 NOT ADD SLT PUSH2 0x1B7 JUMPI PUSH1 0x1 PUSH1 0x1 PUSH1 0xA0 SHL SUB PUSH2 0x7FB PUSH2 0x8D1 JUMP JUMPDEST AND PUSH1 0x0 MSTORE PUSH1 0x2 PUSH1 0x20 MSTORE PUSH1 0x20 PUSH1 0x4 PUSH1 0x40 PUSH1 0x0 KECCAK256 ADD SLOAD PUSH1 0x40 MLOAD SWAP1 DUP2 MSTORE RETURN JUMPDEST CALLVALUE PUSH2 0x1B7 JUMPI PUSH1 0x20 CALLDATASIZE PUSH1 0x3 NOT ADD SLT PUSH2 0x1B7 JUMPI PUSH1 0x1 PUSH1 0x1 PUSH1 0xA0 SHL SUB PUSH2 0x838 PUSH2 0x8D1 JUMP JUMPDEST AND PUSH1 0x0 MSTORE PUSH1 0x2 PUSH1 0x20 MSTORE PUSH1 0x4 PUSH1 0x40 PUSH1 0x0 KECCAK256 ADD SWAP1 DUP2 SLOAD DUP1 DUP3 MSTORE PUSH1 0x20 DUP3 ADD SWAP1 DUP2 SWAP4 PUSH1 0x0 MSTORE PUSH1 0x20 PUSH1 0x0 KECCAK256 SWAP1 PUSH1 0x0 JUMPDEST DUP2 DUP2 LT PUSH2 0x8BB JUMPI POP POP POP DUP2 PUSH2 0x878 SWAP2 SUB DUP3 PUSH2 0x9CB JUMP JUMPDEST PUSH1 0x40 MLOAD SWAP2 DUP3 SWAP2 PUSH1 0x20 DUP4 ADD SWAP1 PUSH1 0x20 DUP5 MSTORE MLOAD DUP1 SWAP2 MSTORE PUSH1 0x40 DUP4 ADD SWAP2 SWAP1 PUSH1 0x0 JUMPDEST DUP2 DUP2 LT PUSH2 0x8A2 JUMPI POP POP POP SUB SWAP1 RETURN JUMPDEST DUP3 MLOAD DUP5 MSTORE DUP6 SWAP5 POP PUSH1 0x20 SWAP4 DUP5 ADD SWAP4 SWAP1 SWAP3 ADD SWAP2 PUSH1 0x1 ADD PUSH2 0x894 JUMP JUMPDEST DUP3 SLOAD DUP5 MSTORE PUSH1 0x20 SWAP1 SWAP4 ADD SWAP3 PUSH1 0x1 SWAP3 DUP4 ADD SWAP3 ADD PUSH2 0x862 JUMP JUMPDEST PUSH1 0x4 CALLDATALOAD SWAP1 PUSH1 0x1 PUSH1 0x1 PUSH1 0xA0 SHL SUB DUP3 AND DUP3 SUB PUSH2 0x1B7 JUMPI JUMP JUMPDEST PUSH1 0x3 SLOAD DUP2 LT ISZERO PUSH2 0x906 JUMPI PUSH1 0x3 PUSH1 0x0 MSTORE PUSH1 0x6 PUSH1 0x20 PUSH1 0x0 KECCAK256 SWAP2 MUL ADD SWAP1 PUSH1 0x0 SWAP1 JUMP JUMPDEST PUSH4 0x4E487B71 PUSH1 0xE0 SHL PUSH1 0x0 MSTORE PUSH1 0x32 PUSH1 0x4 MSTORE PUSH1 0x24 PUSH1 0x0 REVERT JUMPDEST PUSH1 0x0 SWAP3 SWAP2 DUP2 SLOAD SWAP2 DUP3 PUSH1 0x1 SHR SWAP3 PUSH1 0x1 DUP2 AND DUP1 ISZERO PUSH2 0x9C1 JUMPI JUMPDEST PUSH1 0x20 DUP6 LT DUP2 EQ PUSH2 0x9AB JUMPI DUP5 DUP5 MSTORE SWAP1 DUP2 ISZERO PUSH2 0x98E JUMPI POP PUSH1 0x1 EQ PUSH2 0x954 JUMPI POP POP POP JUMP JUMPDEST PUSH1 0x0 SWAP1 DUP2 MSTORE PUSH1 0x20 DUP2 KECCAK256 SWAP4 SWAP5 POP SWAP2 SWAP3 JUMPDEST DUP4 DUP4 LT PUSH2 0x974 JUMPI POP PUSH1 0x20 SWAP3 POP ADD ADD SWAP1 JUMP JUMPDEST PUSH1 0x1 DUP2 PUSH1 0x20 SWAP3 SWAP5 SWAP4 SWAP5 SLOAD DUP4 DUP6 DUP8 ADD ADD MSTORE ADD SWAP2 ADD SWAP2 SWAP1 PUSH2 0x963 JUMP JUMPDEST SWAP2 POP POP PUSH1 0x20 SWAP4 SWAP5 POP PUSH1 0xFF SWAP3 SWAP2 SWAP3 NOT AND DUP4 DUP4 ADD MSTORE ISZERO ISZERO PUSH1 0x5 SHL ADD ADD SWAP1 JUMP JUMPDEST PUSH4 0x4E487B71 PUSH1 0xE0 SHL PUSH1 0x0 MSTORE PUSH1 0x22 PUSH1 0x4 MSTORE PUSH1 0x24 PUSH1 0x0 REVERT JUMPDEST SWAP4 PUSH1 0x7F AND SWAP4 PUSH2 0x933 JUMP JUMPDEST SWAP1 PUSH1 0x1F DUP1 NOT SWAP2 ADD AND DUP2 ADD SWAP1 DUP2 LT PUSH8 0xFFFFFFFFFFFFFFFF DUP3 GT OR PUSH2 0x9ED JUMPI PUSH1 0x40 MSTORE JUMP JUMPDEST PUSH4 0x4E487B71 PUSH1 0xE0 SHL PUSH1 0x0 MSTORE PUSH1 0x41 PUSH1 0x4 MSTORE PUSH1 0x24 PUSH1 0x0 REVERT JUMPDEST SWAP2 SWAP1 DUP3 MLOAD SWAP3 DUP4 DUP3 MSTORE PUSH1 0x0 JUMPDEST DUP5 DUP2 LT PUSH2 0xA2F JUMPI POP POP DUP3 PUSH1 0x0 PUSH1 0x20 DUP1 SWAP5 SWAP6 DUP5 ADD ADD MSTORE PUSH1 0x1F DUP1 NOT SWAP2 ADD AND ADD ADD SWAP1 JUMP JUMPDEST DUP1 PUSH1 0x20 DUP1 SWAP3 DUP5 ADD ADD MLOAD DUP3 DUP3 DUP7 ADD ADD MSTORE ADD PUSH2 0xA0E JUMP JUMPDEST PUSH1 0x0 NOT DUP2 EQ PUSH2 0x29E JUMPI PUSH1 0x1 ADD SWAP1 JUMP JUMPDEST PUSH1 0x1 PUSH1 0x1 PUSH1 0xA0 SHL SUB AND PUSH1 0x0 DUP2 DUP2 MSTORE PUSH1 0x2 PUSH1 0x20 MSTORE PUSH1 0x40 SWAP1 KECCAK256 PUSH1 0x6 ADD SLOAD PUSH1 0xFF AND ISZERO PUSH2 0xA79 JUMPI POP JUMP JUMPDEST DUP1 PUSH1 0x0 MSTORE PUSH1 0x2 PUSH1 0x20 MSTORE PUSH1 0x6 PUSH1 0x40 PUSH1 0x0 KECCAK256 ADD PUSH1 0x1 PUSH1 0xFF NOT DUP3 SLOAD AND OR SWAP1 SSTORE PUSH32 0x67305840DB483C074758B9E8070D2D78B7E947E329FB759D0D3CC64BCFC441AC PUSH1 0x0 DUP1 LOG2 JUMP JUMPDEST PUSH1 0x0 SLOAD PUSH1 0x1 PUSH1 0x1 PUSH1 0xA0 SHL SUB AND CALLER SUB PUSH2 0xAD0 JUMPI JUMP JUMPDEST PUSH1 0x64 PUSH1 0x40 MLOAD PUSH3 0x461BCD PUSH1 0xE5 SHL DUP2 MSTORE PUSH1 0x20 PUSH1 0x4 DUP3 ADD MSTORE PUSH1 0x20 PUSH1 0x24 DUP3 ADD MSTORE PUSH32 0x4F776E61626C653A2063616C6C6572206973206E6F7420746865206F776E6572 PUSH1 0x44 DUP3 ADD MSTORE REVERT JUMPDEST PUSH1 0x1 PUSH1 0x1 PUSH1 0xA0 SHL SUB AND PUSH1 0x0 DUP2 DUP2 MSTORE PUSH1 0x2 PUSH1 0x20 MSTORE PUSH1 0x40 DUP2 KECCAK256 SWAP2 SWAP3 SWAP2 SWAP1 PUSH1 0x5 DUP3 ADD SWAP1 JUMPDEST PUSH1 0x3 SLOAD DUP2 LT ISZERO PUSH2 0xD2D JUMPI DUP1 PUSH1 0x0 MSTORE DUP2 PUSH1 0x20 MSTORE PUSH1 0xFF PUSH1 0x40 PUSH1 0x0 KECCAK256 SLOAD AND ISZERO PUSH2 0xB5E JUMPI JUMPDEST PUSH1 0x1 ADD PUSH2 0xB35 JUMP JUMPDEST PUSH2 0xB67 DUP2 PUSH2 0x8E7 JUMP JUMPDEST POP PUSH1 0x40 MLOAD SWAP1 PUSH1 0xC0 DUP3 ADD SWAP1 DUP3 DUP3 LT PUSH8 0xFFFFFFFFFFFFFFFF DUP4 GT OR PUSH2 0x9ED JUMPI PUSH1 0xA0 SWAP2 PUSH1 0x40 MSTORE PUSH1 0x40 MLOAD PUSH2 0xB9B DUP2 PUSH2 0x4BF DUP2 DUP6 PUSH2 0x91C JUMP JUMPDEST DUP4 MSTORE PUSH1 0x40 MLOAD PUSH2 0xBB1 DUP2 PUSH2 0x4BF DUP2 PUSH1 0x1 DUP7 ADD PUSH2 0x91C JUMP JUMPDEST PUSH1 0x20 DUP5 ADD MSTORE PUSH1 0x2 DUP2 ADD SLOAD DUP1 PUSH1 0x40 DUP6 ADD MSTORE PUSH1 0x3 DUP3 ADD SLOAD SWAP4 DUP5 PUSH1 0x60 DUP3 ADD MSTORE PUSH1 0x5 PUSH1 0x4 DUP5 ADD SLOAD SWAP4 DUP5 PUSH1 0x80 DUP5 ADD MSTORE ADD SLOAD SWAP4 DUP5 SWAP2 ADD MSTORE DUP7 SLOAD LT ISZERO SWAP3 DUP4 PUSH2 0xD1E JUMPI JUMPDEST POP DUP3 PUSH2 0xD0F JUMPI JUMPDEST POP DUP2 PUSH2 0xD00 JUMPI JUMPDEST POP ISZERO PUSH2 0xB56 JUMPI DUP5 PUSH1 0x0 MSTORE PUSH1 0x2 PUSH1 0x20 MSTORE PUSH1 0x40 PUSH1 0x0 KECCAK256 SWAP1 PUSH1 0x5 DUP3 ADD SWAP2 DUP2 PUSH1 0x0 MSTORE DUP3 PUSH1 0x20 MSTORE PUSH1 0xFF PUSH1 0x40 PUSH1 0x0 KECCAK256 SLOAD AND PUSH2 0xCC3 JUMPI PUSH1 0x4 ADD SWAP2 DUP3 SLOAD SWAP3 PUSH9 0x10000000000000000 DUP5 LT ISZERO PUSH2 0x9ED JUMPI PUSH1 0x1 DUP5 ADD DUP1 DUP3 SSTORE DUP5 LT ISZERO PUSH2 0x906 JUMPI PUSH1 0x1 SWAP4 DUP4 SWAP2 PUSH1 0x0 MSTORE PUSH1 0x20 PUSH1 0x0 KECCAK256 ADD SSTORE DUP2 PUSH1 0x0 MSTORE PUSH1 0x20 MSTORE PUSH1 0x40 PUSH1 0x0 KECCAK256 DUP3 PUSH1 0xFF NOT DUP3 SLOAD AND OR SWAP1 SSTORE DUP1 DUP7 PUSH32 0x3C087D4E86C455EB2FC66D29134947033FD1C4133051C00E31A4AC6F76877AD1 PUSH2 0xCB9 PUSH2 0xCA4 DUP5 PUSH2 0x8E7 JUMP JUMPDEST POP PUSH1 0x40 MLOAD SWAP2 DUP3 SWAP2 PUSH1 0x20 DUP4 MSTORE PUSH1 0x20 DUP4 ADD SWAP1 PUSH2 0x91C JUMP JUMPDEST SUB SWAP1 LOG3 SWAP1 POP PUSH2 0xB56 JUMP JUMPDEST PUSH1 0x40 MLOAD PUSH3 0x461BCD PUSH1 0xE5 SHL DUP2 MSTORE PUSH1 0x20 PUSH1 0x4 DUP3 ADD MSTORE PUSH1 0x15 PUSH1 0x24 DUP3 ADD MSTORE PUSH21 0x10985919D948185B1C9958591E48185DD85C991959 PUSH1 0x5A SHL PUSH1 0x44 DUP3 ADD MSTORE PUSH1 0x64 SWAP1 REVERT JUMPDEST SWAP1 POP PUSH1 0x3 DUP5 ADD SLOAD LT ISZERO CODESIZE PUSH2 0xBFB JUMP JUMPDEST PUSH1 0x2 DUP7 ADD SLOAD LT ISZERO SWAP2 POP CODESIZE PUSH2 0xBF4 JUMP JUMPDEST PUSH1 0x1 DUP8 ADD SLOAD LT ISZERO SWAP3 POP CODESIZE PUSH2 0xBED JUMP JUMPDEST POP POP POP SWAP1 POP JUMP INVALID 0xDC EXTCODEHASH 0xAE 0xAD 0xEE 0xBC STATICCALL DUP3 PUSH27 0x4C4CC5A430DC9501E614BB5E272FFC223C35F8A48D92ECA2646970 PUSH7 0x7358221220600C PUSH25 0x537732E0159CAC160F7F560DEE4D55CC495C2C705178E0E17D BLOBHASH 0xEB 0xD2 DUP10 PUSH5 0x736F6C6343 STOP ADDMOD SHR STOP CALLER 0x2A NOT 0xB1 0x22 0xD7 0xCE 0xB6 0xB2 SAR BLOBBASEFEE 0xC9 0xA7 PUSH4 0x6241EA8D POP PUSH9 0xDEC98786163AA0DE48 DUP16 0x4C 0xCC MSTORE 0xC2 JUMPI GAS 0xE SWAP15 MSIZE EXTCODECOPY STOP 0xF9 MSIZE 0xF8 0xC9 0x2F SLT 0xDB 0x28 PUSH10 0xC3395A3B0502D05E2516 PREVRANDAO PUSH16 0x71F85B00000000000000000000000000 "
        },
        "methodIdentifiers": {
          "BASE_CAMPAIGN_CONTRIBUTION_POINTS()": "8529644f",
          "BASE_CONTRIBUTION_POINTS()": "da94a3eb",
          "BASE_PAYMENT_POINTS()": "acccc391",
          "addReputationPoints(address,uint256)": "7d0cd7f5",
          "badges(uint256)": "98e36d8b",
          "ensureReputationStoreExists(address)": "acc5f191",
          "getBadgeCount(address)": "0fb91b88",
          "getBadges(address)": "03828e45",
          "getCampaignContributionCount(address)": "ea986c3e",
          "getContributionCount(address)": "d475c2c3",
          "getReputationScore(address)": "75a67d5c",
          "getSuccessfulPayments(address)": "37f3a30c",
          "hasReputationStore(address)": "6f656909",
          "owner()": "8da5cb5b",
          "recordSuccessfulCampaignContribution(address)": "c9ef4329",
          "recordSuccessfulContribution(address)": "ed34de09",
          "recordSuccessfulPayment(address)": "68807c76",
          "renounceOwnership()": "715018a6",
          "transferOwnership(address)": "f2fde38b"
        }
      }
    }
  }
}