{
  "_format": "hh-sol-artifact-1",
  "contractName": "EscrowManager",
  "sourceName": "contracts/EscrowManager.sol",
  "abi": [
    {
      "inputs": [
        {
          "internalType": "contract IERC20",
          "name": "_rewardToken",
          "type": "address"
        }
      ],
      "stateMutability": "nonpayable",
      "type": "constructor"
    },
    {
      "anonymous": false,
      "inputs": [
        {
          "indexed": false,
          "internalType": "address",
          "name": "contractAddress",
          "type": "address"
        }
      ],
      "name": "CampaignManagerUpdated",
      "type": "event"
    },
    {
      "anonymous": false,
      "inputs": [
        {
          "indexed": false,
          "internalType": "address",
          "name": "contractAddress",
          "type": "address"
        }
      ],
      "name": "ContributionManagerUpdated",
      "type": "event"
    },
    {
      "anonymous": false,
      "inputs": [
        {
          "indexed": true,
          "internalType": "address",
          "name": "previousOwner",
          "type": "address"
        },
        {
          "indexed": true,
          "internalType": "address",
          "name": "newOwner",
          "type": "address"
        }
      ],
      "name": "OwnershipTransferred",
      "type": "event"
    },
    {
      "anonymous": false,
      "inputs": [
        {
          "indexed": true,
          "internalType": "address",
          "name": "recipient",
          "type": "address"
        },
        {
          "indexed": false,
          "internalType": "uint256",
          "name": "amount",
          "type": "uint256"
        }
      ],
      "name": "RewardReleased",
      "type": "event"
    },
    {
      "inputs": [],
      "name": "campaignManager",
      "outputs": [
        {
          "internalType": "address",
          "name": "",
          "type": "address"
        }
      ],
      "stateMutability": "view",
      "type": "function"
    },
    {
      "inputs": [],
      "name": "contributionManager",
      "outputs": [
        {
          "internalType": "address",
          "name": "",
          "type": "address"
        }
      ],
      "stateMutability": "view",
      "type": "function"
    },
    {
      "inputs": [],
      "name": "getBalance",
      "outputs": [
        {
          "internalType": "uint256",
          "name": "",
          "type": "uint256"
        }
      ],
      "stateMutability": "view",
      "type": "function"
    },
    {
      "inputs": [],
      "name": "owner",
      "outputs": [
        {
          "internalType": "address",
          "name": "",
          "type": "address"
        }
      ],
      "stateMutability": "view",
      "type": "function"
    },
    {
      "inputs": [
        {
          "internalType": "address",
          "name": "_contributor",
          "type": "address"
        },
        {
          "internalType": "uint256",
          "name": "_amount",
          "type": "uint256"
        }
      ],
      "name": "releaseReward",
      "outputs": [],
      "stateMutability": "nonpayable",
      "type": "function"
    },
    {
      "inputs": [],
      "name": "renounceOwnership",
      "outputs": [],
      "stateMutability": "nonpayable",
      "type": "function"
    },
    {
      "inputs": [],
      "name": "rewardToken",
      "outputs": [
        {
          "internalType": "contract IERC20",
          "name": "",
          "type": "address"
        }
      ],
      "stateMutability": "view",
      "type": "function"
    },
    {
      "inputs": [
        {
          "internalType": "address",
          "name": "_campaignManager",
          "type": "address"
        }
      ],
      "name": "setCampaignManager",
      "outputs": [],
      "stateMutability": "nonpayable",
      "type": "function"
    },
    {
      "inputs": [
        {
          "internalType": "address",
          "name": "_contributionManager",
          "type": "address"
        }
      ],
      "name": "setContributionManager",
      "outputs": [],
      "stateMutability": "nonpayable",
      "type": "function"
    },
    {
      "inputs": [
        {
          "internalType": "address",
          "name": "newOwner",
          "type": "address"
        }
      ],
      "name": "transferOwnership",
      "outputs": [],
      "stateMutability": "nonpayable",
      "type": "function"
    }
  ],
  "bytecode": "0x60803460ba57601f6107f538819003918201601f19168301916001600160401b0383118484101760bf5780849260209460405283398101031260ba57516001600160a01b0381169081900360ba5760008054336001600160a01b0319821681178355604051939290916001600160a01b0316907f8be0079c531659141344cd1fd0a4f28419497f9722a3daafe3b4186f6b6457e09080a360018055600280546001600160a01b03191691909117905561071f90816100d68239f35b600080fd5b634e487b7160e01b600052604160045260246000fdfe608080604052600436101561001357600080fd5b60003560e01c90816312065fe0146105be5750806335b979ca14610552578063715018a6146104f9578063880b04241461048d5780638da5cb5b14610464578063aefa3dd31461043b578063f2fde38b14610374578063f541c812146100e4578063f7c618c1146100bb5763fb5e76e61461008d57600080fd5b346100b65760003660031901126100b6576003546040516001600160a01b039091168152602090f35b600080fd5b346100b65760003660031901126100b6576002546040516001600160a01b039091168152602090f35b346100b65760403660031901126100b6576100fd610643565b6024359060018060a01b036000541633148015610360575b801561034c575b15610316576002600154146102d15760026001556001600160a01b031690811561028c578015610247576000602060018060a01b036002541660446040518094819363a9059cbb60e01b83528860048401528760248401525af190811561023b576000916101f9575b50156101bc5760207f7a710f494850039a90f19432a11f8187b6226e1f50c3ad3e9b99e10e56c8609191604051908152a260018055005b60405162461bcd60e51b8152602060048201526015602482015274151bdad95b881d1c985b9cd9995c8819985a5b1959605a1b6044820152606490fd5b6020813d602011610233575b8161021260209383610659565b8101031261022f575190811515820361022c575083610185565b80fd5b5080fd5b3d9150610205565b6040513d6000823e3d90fd5b60405162461bcd60e51b815260206004820152601d60248201527f416d6f756e74206d7573742062652067726561746572207468616e20300000006044820152606490fd5b60405162461bcd60e51b815260206004820152601b60248201527f496e76616c696420636f6e7472696275746f72206164647265737300000000006044820152606490fd5b60405162461bcd60e51b815260206004820152601f60248201527f5265656e7472616e637947756172643a207265656e7472616e742063616c6c006044820152606490fd5b60405162461bcd60e51b815260206004820152600e60248201526d139bdd08185d5d1a1bdc9a5e995960921b6044820152606490fd5b506004546001600160a01b0316331461011c565b506003546001600160a01b03163314610115565b346100b65760203660031901126100b65761038d610643565b610395610691565b6001600160a01b031680156103e757600080546001600160a01b03198116831782556001600160a01b0316907f8be0079c531659141344cd1fd0a4f28419497f9722a3daafe3b4186f6b6457e09080a3005b60405162461bcd60e51b815260206004820152602660248201527f4f776e61626c653a206e6577206f776e657220697320746865207a65726f206160448201526564647265737360d01b6064820152608490fd5b346100b65760003660031901126100b6576004546040516001600160a01b039091168152602090f35b346100b65760003660031901126100b6576000546040516001600160a01b039091168152602090f35b346100b65760203660031901126100b6577f04fb2667f9b4dfe51f4333f18236e03fe5f5981fd3d429d5f9dc73bcbc15573660206104c9610643565b6104d1610691565b600480546001600160a01b0319166001600160a01b03929092169182179055604051908152a1005b346100b65760003660031901126100b657610512610691565b600080546001600160a01b0319811682556001600160a01b03167f8be0079c531659141344cd1fd0a4f28419497f9722a3daafe3b4186f6b6457e08280a3005b346100b65760203660031901126100b6577fe17819dc42dd03f960f41e1d2c445ab73231b51f5f6d2012d3654981d6c1eb34602061058e610643565b610596610691565b600380546001600160a01b0319166001600160a01b03929092169182179055604051908152a1005b346100b65760003660031901126100b6576002546370a0823160e01b8252306004830152602090829060249082906001600160a01b03165afa801561023b57600090610610575b602090604051908152f35b506020813d60201161063b575b8161062a60209383610659565b810103126100b65760209051610605565b3d915061061d565b600435906001600160a01b03821682036100b657565b90601f8019910116810190811067ffffffffffffffff82111761067b57604052565b634e487b7160e01b600052604160045260246000fd5b6000546001600160a01b031633036106a557565b606460405162461bcd60e51b815260206004820152602060248201527f4f776e61626c653a2063616c6c6572206973206e6f7420746865206f776e65726044820152fdfea264697066735822122025287fa0b7ed06d4f6dd941bef0f7a061d569a86127b614e4def164ed57437b764736f6c634300081c0033",
  "linkReferences": {},
  "deployedLinkReferences": {}
}