{
  "_format": "hh-sol-artifact-1",
  "contractName": "ContributionManager",
  "sourceName": "contracts/ContributionManager.sol",
  "abi": [
    {
      "inputs": [
        {
          "internalType": "address",
          "name": "_campaignManager",
          "type": "address"
        },
        {
          "internalType": "address",
          "name": "_escrowManager",
          "type": "address"
        }
      ],
      "stateMutability": "nonpayable",
      "type": "constructor"
    },
    {
      "anonymous": false,
      "inputs": [
        {
          "indexed": true,
          "internalType": "uint256",
          "name": "contributionId",
          "type": "uint256"
        },
        {
          "indexed": true,
          "internalType": "uint256",
          "name": "campaignId",
          "type": "uint256"
        },
        {
          "indexed": true,
          "internalType": "address",
          "name": "contributor",
          "type": "address"
        },
        {
          "indexed": false,
          "internalType": "string",
          "name": "encryptedDataHash",
          "type": "string"
        },
        {
          "indexed": false,
          "internalType": "uint256",
          "name": "score",
          "type": "uint256"
        },
        {
          "indexed": false,
          "internalType": "bool",
          "name": "qualified",
          "type": "bool"
        },
        {
          "indexed": false,
          "internalType": "uint256",
          "name": "timestamp",
          "type": "uint256"
        }
      ],
      "name": "ContributionSubmitted",
      "type": "event"
    },
    {
      "anonymous": false,
      "inputs": [
        {
          "indexed": true,
          "internalType": "address",
          "name": "previousOwner",
          "type": "address"
        },
        {
          "indexed": true,
          "internalType": "address",
          "name": "newOwner",
          "type": "address"
        }
      ],
      "name": "OwnershipTransferred",
      "type": "event"
    },
    {
      "anonymous": false,
      "inputs": [
        {
          "indexed": false,
          "internalType": "address",
          "name": "contractAddress",
          "type": "address"
        }
      ],
      "name": "ReputationContractUpdated",
      "type": "event"
    },
    {
      "inputs": [
        {
          "internalType": "address",
          "name": "",
          "type": "address"
        },
        {
          "internalType": "uint256",
          "name": "",
          "type": "uint256"
        }
      ],
      "name": "addressCampaignContributions",
      "outputs": [
        {
          "internalType": "uint256",
          "name": "",
          "type": "uint256"
        }
      ],
      "stateMutability": "view",
      "type": "function"
    },
    {
      "inputs": [
        {
          "internalType": "address",
          "name": "",
          "type": "address"
        }
      ],
      "name": "addressQualifiedContributions",
      "outputs": [
        {
          "internalType": "uint256",
          "name": "",
          "type": "uint256"
        }
      ],
      "stateMutability": "view",
      "type": "function"
    },
    {
      "inputs": [
        {
          "internalType": "address",
          "name": "",
          "type": "address"
        }
      ],
      "name": "addressTotalContributions",
      "outputs": [
        {
          "internalType": "uint256",
          "name": "",
          "type": "uint256"
        }
      ],
      "stateMutability": "view",
      "type": "function"
    },
    {
      "inputs": [],
      "name": "campaignManager",
      "outputs": [
        {
          "internalType": "contract ICampaignManager",
          "name": "",
          "type": "address"
        }
      ],
      "stateMutability": "view",
      "type": "function"
    },
    {
      "inputs": [
        {
          "internalType": "uint256",
          "name": "",
          "type": "uint256"
        },
        {
          "internalType": "uint256",
          "name": "",
          "type": "uint256"
        }
      ],
      "name": "campaignSubmissions",
      "outputs": [
        {
          "internalType": "uint256",
          "name": "",
          "type": "uint256"
        }
      ],
      "stateMutability": "view",
      "type": "function"
    },
    {
      "inputs": [],
      "name": "contributionCount",
      "outputs": [
        {
          "internalType": "uint256",
          "name": "",
          "type": "uint256"
        }
      ],
      "stateMutability": "view",
      "type": "function"
    },
    {
      "inputs": [
        {
          "internalType": "uint256",
          "name": "_contributionId",
          "type": "uint256"
        }
      ],
      "name": "contributionExists",
      "outputs": [
        {
          "internalType": "bool",
          "name": "",
          "type": "bool"
        }
      ],
      "stateMutability": "view",
      "type": "function"
    },
    {
      "inputs": [
        {
          "internalType": "uint256",
          "name": "",
          "type": "uint256"
        }
      ],
      "name": "contributions",
      "outputs": [
        {
          "internalType": "uint256",
          "name": "id",
          "type": "uint256"
        },
        {
          "internalType": "uint256",
          "name": "campaignId",
          "type": "uint256"
        },
        {
          "internalType": "address",
          "name": "contributor",
          "type": "address"
        },
        {
          "internalType": "string",
          "name": "encryptedDataHash",
          "type": "string"
        },
        {
          "internalType": "string",
          "name": "encryptedAESKey",
          "type": "string"
        },
        {
          "internalType": "string",
          "name": "metadataURI",
          "type": "string"
        },
        {
          "internalType": "uint256",
          "name": "timestamp",
          "type": "uint256"
        },
        {
          "internalType": "uint256",
          "name": "score",
          "type": "uint256"
        },
        {
          "internalType": "bool",
          "name": "qualified",
          "type": "bool"
        }
      ],
      "stateMutability": "view",
      "type": "function"
    },
    {
      "inputs": [
        {
          "internalType": "address",
          "name": "",
          "type": "address"
        },
        {
          "internalType": "uint256",
          "name": "",
          "type": "uint256"
        }
      ],
      "name": "contributorSubmissions",
      "outputs": [
        {
          "internalType": "uint256",
          "name": "",
          "type": "uint256"
        }
      ],
      "stateMutability": "view",
      "type": "function"
    },
    {
      "inputs": [],
      "name": "escrowManager",
      "outputs": [
        {
          "internalType": "contract IEscrowManager",
          "name": "",
          "type": "address"
        }
      ],
      "stateMutability": "view",
      "type": "function"
    },
    {
      "inputs": [
        {
          "internalType": "address",
          "name": "_contributor",
          "type": "address"
        },
        {
          "internalType": "uint256",
          "name": "_campaignId",
          "type": "uint256"
        }
      ],
      "name": "getAddressContributionCount",
      "outputs": [
        {
          "internalType": "uint256",
          "name": "",
          "type": "uint256"
        }
      ],
      "stateMutability": "view",
      "type": "function"
    },
    {
      "inputs": [
        {
          "internalType": "address",
          "name": "_contributor",
          "type": "address"
        }
      ],
      "name": "getAddressTotalContributions",
      "outputs": [
        {
          "internalType": "uint256",
          "name": "totalSubmitted",
          "type": "uint256"
        },
        {
          "internalType": "uint256",
          "name": "totalQualified",
          "type": "uint256"
        }
      ],
      "stateMutability": "view",
      "type": "function"
    },
    {
      "inputs": [
        {
          "internalType": "uint256",
          "name": "_campaignId",
          "type": "uint256"
        }
      ],
      "name": "getCampaignSubmissions",
      "outputs": [
        {
          "internalType": "uint256[]",
          "name": "",
          "type": "uint256[]"
        }
      ],
      "stateMutability": "view",
      "type": "function"
    },
    {
      "inputs": [
        {
          "internalType": "uint256",
          "name": "_contributionId",
          "type": "uint256"
        }
      ],
      "name": "getContributionDetails",
      "outputs": [
        {
          "components": [
            {
              "internalType": "uint256",
              "name": "id",
              "type": "uint256"
            },
            {
              "internalType": "uint256",
              "name": "campaignId",
              "type": "uint256"
            },
            {
              "internalType": "address",
              "name": "contributor",
              "type": "address"
            },
            {
              "internalType": "string",
              "name": "encryptedDataHash",
              "type": "string"
            },
            {
              "internalType": "string",
              "name": "encryptedAESKey",
              "type": "string"
            },
            {
              "internalType": "string",
              "name": "metadataURI",
              "type": "string"
            },
            {
              "internalType": "uint256",
              "name": "timestamp",
              "type": "uint256"
            },
            {
              "internalType": "uint256",
              "name": "score",
              "type": "uint256"
            },
            {
              "internalType": "bool",
              "name": "qualified",
              "type": "bool"
            }
          ],
          "internalType": "struct ContributionManager.Contribution",
          "name": "",
          "type": "tuple"
        }
      ],
      "stateMutability": "view",
      "type": "function"
    },
    {
      "inputs": [],
      "name": "getContributionStore",
      "outputs": [
        {
          "components": [
            {
              "internalType": "uint256",
              "name": "id",
              "type": "uint256"
            },
            {
              "internalType": "uint256",
              "name": "campaignId",
              "type": "uint256"
            },
            {
              "internalType": "address",
              "name": "contributor",
              "type": "address"
            },
            {
              "internalType": "string",
              "name": "encryptedDataHash",
              "type": "string"
            },
            {
              "internalType": "string",
              "name": "encryptedAESKey",
              "type": "string"
            },
            {
              "internalType": "string",
              "name": "metadataURI",
              "type": "string"
            },
            {
              "internalType": "uint256",
              "name": "timestamp",
              "type": "uint256"
            },
            {
              "internalType": "uint256",
              "name": "score",
              "type": "uint256"
            },
            {
              "internalType": "bool",
              "name": "qualified",
              "type": "bool"
            }
          ],
          "internalType": "struct ContributionManager.Contribution[]",
          "name": "",
          "type": "tuple[]"
        }
      ],
      "stateMutability": "view",
      "type": "function"
    },
    {
      "inputs": [
        {
          "internalType": "address",
          "name": "_contributor",
          "type": "address"
        }
      ],
      "name": "getContributorSubmissions",
      "outputs": [
        {
          "internalType": "uint256[]",
          "name": "",
          "type": "uint256[]"
        }
      ],
      "stateMutability": "view",
      "type": "function"
    },
    {
      "inputs": [],
      "name": "owner",
      "outputs": [
        {
          "internalType": "address",
          "name": "",
          "type": "address"
        }
      ],
      "stateMutability": "view",
      "type": "function"
    },
    {
      "inputs": [],
      "name": "renounceOwnership",
      "outputs": [],
      "stateMutability": "nonpayable",
      "type": "function"
    },
    {
      "inputs": [],
      "name": "reputationContract",
      "outputs": [
        {
          "internalType": "contract IReputation",
          "name": "",
          "type": "address"
        }
      ],
      "stateMutability": "view",
      "type": "function"
    },
    {
      "inputs": [
        {
          "internalType": "address",
          "name": "_reputationContract",
          "type": "address"
        }
      ],
      "name": "setReputationContract",
      "outputs": [],
      "stateMutability": "nonpayable",
      "type": "function"
    },
    {
      "inputs": [
        {
          "internalType": "bytes32",
          "name": "",
          "type": "bytes32"
        }
      ],
      "name": "submissionHashes",
      "outputs": [
        {
          "internalType": "bool",
          "name": "",
          "type": "bool"
        }
      ],
      "stateMutability": "view",
      "type": "function"
    },
    {
      "inputs": [
        {
          "internalType": "uint256",
          "name": "_campaignId",
          "type": "uint256"
        },
        {
          "internalType": "string",
          "name": "_encryptedDataHash",
          "type": "string"
        },
        {
          "internalType": "string",
          "name": "_encryptedAESKey",
          "type": "string"
        },
        {
          "internalType": "string",
          "name": "_metadataURI",
          "type": "string"
        },
        {
          "internalType": "uint256",
          "name": "_score",
          "type": "uint256"
        }
      ],
      "name": "submitContribution",
      "outputs": [
        {
          "internalType": "uint256",
          "name": "",
          "type": "uint256"
        }
      ],
      "stateMutability": "nonpayable",
      "type": "function"
    },
    {
      "inputs": [
        {
          "internalType": "address",
          "name": "newOwner",
          "type": "address"
        }
      ],
      "name": "transferOwnership",
      "outputs": [],
      "stateMutability": "nonpayable",
      "type": "function"
    }
  ],
  "bytecode": "0x6080346100da57601f6119e138819003918201601f19168301916001600160401b038311848410176100df5780849260409485528339810103126100da57610052602061004b836100f5565b92016100f5565b60008054336001600160a01b0319821681178355604051949290916001600160a01b0316907f8be0079c531659141344cd1fd0a4f28419497f9722a3daafe3b4186f6b6457e09080a360018055600a80546001600160a01b039283166001600160a01b031991821617909155600b80549390921692169190911790556118d7908161010a8239f35b600080fd5b634e487b7160e01b600052604160045260246000fd5b51906001600160a01b03821682036100da5756fe608080604052600436101561001357600080fd5b600090813560e01c9081630b7a0f55146114695750806310d6ab6b146112f05780631cee07001461122057806340f77f3a14610d1e5780634a9aef68146111ae578063511e471f146111755780635b18056b14611157578063715018a6146110fd57806387bc1425146110d45780638ab83598146110a55780638da5cb5b1461107e5780639061b1a914610f6a5780639437e4bb14610ef65780639584660f14610e885780639aac93ce14610e655780639e342dc414610e1d578063c12255c414610df4578063d9303b6f14610daa578063ea4ef12614610d61578063f2f6824914610d1e578063f2fde38b14610c58578063f7aea860146101495763fb5e76e61461011e57600080fd5b34610146578060031936011261014657600a546040516001600160a01b039091168152602090f35b80fd5b50346101465760a03660031901126101465760043560243567ffffffffffffffff81116107995761017e903690600401611721565b9160443567ffffffffffffffff81116105a25761019f903690600401611721565b9160643567ffffffffffffffff8111610799576101c0903690600401611721565b9260843592600260015414610c13576002600155600c546001600160a01b031680610bcb575b50600a546040516301e042b960e21b81526004810185905290602090829060249082906001600160a01b03165afa908115610597578291610b90575b5015610b3d5760405160208101908482523360601b60408201526102666054828a51610255818d602086860191016114b5565b81010301601f1981018352826115f3565b519020808252600660205260ff604083205416610af8578152600660209081526040808320805460ff19166001179055600a5490516361e448cd60e01b8152600481018690529190829060249082906001600160a01b03165afa908115610597578291610ac6575b508410159160025495604051906102e4826115c0565b8782526020820192868452604083019133835260608401918b83526080850190815260a0850191825260c085019242845260e08601948b86526101008701978a89528d8a52600360205260408a2097518855516001880155600287019060018060a01b039051166bffffffffffffffffffffffff60a01b82541617905560038601905180519067ffffffffffffffff8211610ab25781906103858454611586565b601f8111610a62575b50602090601f83116001146109ff578b926109f4575b50508160011b916000199060031b1c19161790555b518051600486019167ffffffffffffffff82116109e05781906103dc8454611586565b601f8111610990575b50602090601f831160011461092d578a92610922575b50508160011b916000199060031b1c19161790555b518051600585019167ffffffffffffffff821161090e576104318354611586565b601f81116108c9575b50602090601f8311600114610860576008969594939291899183610855575b50508160011b916000199060031b1c19161790555b516006830155516007820155019051151560ff801983541691161790556104966002546117ea565b60025533815260046020526104ae856040832061180f565b82815260056020526104c3856040832061180f565b338152600860205281604082206104da81546117ea565b90556105a6575b600c546001600160a01b031680610552575b50507fe3176f1c77b6ae516a8e87a94008ec4af8cd9fbda69198d267ca67cfe0bb37256020958592610530604051926080845260808401906114d8565b958883015260408201524260608201528033950390a460018055604051908152f35b803b156105a25781809160246040518094819363ed34de0960e01b83523360048401525af1801561059757156104f35761058d8280926115f3565b61014657806104f3565b6040513d84823e3d90fd5b5080fd5b3381526009602052604081206105bc81546117ea565b9055338152600760205260408120838252602052604081206105de81546117ea565b9055600a54604051637cf249df60e01b815260048101859052906020908290602490829086906001600160a01b03165af190811561059757829161081e575b50600b546001600160a01b031690813b15610799578291604483926040519485938492637aa0e40960e11b845233600485015260248401525af1801561059757908291610809575b5050600c546001600160a01b03168061067f575b506104e1565b803b156105a25781809160246040518094819363ed34de0960e01b83523360048401525af18015610597579082916107f4575b5050600c546001600160a01b0316803b156105a2578180916024604051809481936334403e3b60e11b83523360048401525af18015610597579082916107df575b5050600a54604051630ad4962f60e11b81526004810185905290602090829060249082906001600160a01b03165afa90811561059757829161079d575b50600c546001600160a01b031690813b156107995760405163c9ef432960e01b81526001600160a01b0390911660048201529082908290602490829084905af1801561059757908291610784575b50610679565b8161078e916115f3565b61014657803861077e565b8280fd5b90506020813d6020116107d7575b816107b8602093836115f3565b810103126105a257516001600160a01b03811681036105a25738610730565b3d91506107ab565b816107e9916115f3565b6101465780386106f3565b816107fe916115f3565b6101465780386106b2565b81610813916115f3565b610146578038610665565b90506020813d60201161084d575b81610839602093836115f3565b8101031261084857513861061d565b600080fd5b3d915061082c565b015190503880610459565b8389528189209190601f1984168a5b8181106108b1575091600193918560089a999897969410610898575b505050811b01905561046e565b015160001960f88460031b161c1916905538808061088b565b9293602060018192878601518155019501930161086f565b83895260208920601f840160051c81019160208510610904575b601f0160051c01905b8181106108f9575061043a565b8981556001016108ec565b90915081906108e3565b634e487b7160e01b88526041600452602488fd5b0151905038806103fb565b848b52818b209250601f1984168b5b818110610978575090846001959493921061095f575b505050811b019055610410565b015160001960f88460031b161c19169055388080610952565b9293602060018192878601518155019501930161093c565b909150838a5260208a20601f840160051c810191602085106109d6575b90601f859493920160051c01905b8181106109c857506103e5565b8b81558493506001016109bb565b90915081906109ad565b634e487b7160e01b89526041600452602489fd5b0151905038806103a4565b848c52818c209250601f1984168c5b818110610a4a5750908460019594939210610a31575b505050811b0190556103b9565b015160001960f88460031b161c19169055388080610a24565b92936020600181928786015181550195019301610a0e565b909150838b5260208b20601f840160051c81019160208510610aa8575b90601f859493920160051c01905b818110610a9a575061038e565b8c8155849350600101610a8d565b9091508190610a7f565b634e487b7160e01b8a52604160045260248afd5b90506020813d602011610af0575b81610ae1602093836115f3565b810103126108485751386102ce565b3d9150610ad4565b60405162461bcd60e51b815260206004820152601d60248201527f4475706c6963617465207375626d697373696f6e2064657465637465640000006044820152606490fd5b60405162461bcd60e51b815260206004820152602560248201527f43616d706169676e206973206e6f7420616363657074696e67207375626d697360448201526473696f6e7360d81b6064820152608490fd5b90506020813d602011610bc3575b81610bab602093836115f3565b810103126105a2575180151581036105a25738610222565b3d9150610b9e565b803b156105a25781809160246040518094819363acc5f19160e01b83523360048401525af18015610597578290610c03575b506101e6565b610c0c916115f3565b3881610bfd565b60405162461bcd60e51b815260206004820152601f60248201527f5265656e7472616e637947756172643a207265656e7472616e742063616c6c006044820152606490fd5b503461014657602036600319011261014657610c7261149f565b610c7a611849565b6001600160a01b03168015610cca5781546001600160a01b03198116821783556001600160a01b03167f8be0079c531659141344cd1fd0a4f28419497f9722a3daafe3b4186f6b6457e08380a380f35b60405162461bcd60e51b815260206004820152602660248201527f4f776e61626c653a206e6577206f776e657220697320746865207a65726f206160448201526564647265737360d01b6064820152608490fd5b5034610146576040366003190112610146576020906040906001600160a01b03610d4661149f565b16815260078352818120602435825283522054604051908152f35b503461014657604036600319011261014657602435906004358152600560205260408120908154831015610146576020610d9b84846116f3565b90549060031b1c604051908152f35b503461014657602036600319011261014657604090816001600160a01b03610dd061149f565b16918281526008602052818120549281526009602052205482519182526020820152f35b5034610146578060031936011261014657600b546040516001600160a01b039091168152602090f35b503461014657604036600319011261014657610e3761149f565b6001600160a01b0316815260046020526040812080546024359290831015610146576020610d9b84846116f3565b503461014657602036600319011261014657602060025460043510604051908152f35b5034610146576020366003190112610146577fb48fa9bf541befcb145fb17ed9591349d15db698f48943730a3e93592b4011e46020610ec561149f565b610ecd611849565b600c80546001600160a01b0319166001600160a01b03929092169182179055604051908152a180f35b5034610146576020366003190112610146576004358152600560205260408120604051918260208354918281520192825260208220915b818110610f5457610f5085610f44818703826115f3565b604051918291826116b9565b0390f35b8254845260209093019260019283019201610f2d565b503461014657602036600319011261014657600435610f87611790565b506002548110156110395781604091610f50935260036020522060ff600860405192610fb2846115c0565b805484526001810154602085015260028101546001600160a01b03166040850152610fdf60038201611615565b6060850152610ff060048201611615565b608085015261100160058201611615565b60a0850152600681015460c0850152600781015460e085015201541615156101008201526040519182916020835260208301906114fd565b60405162461bcd60e51b815260206004820152601b60248201527f436f6e747269627574696f6e20646f6573206e6f7420657869737400000000006044820152606490fd5b5034610146578060031936011261014657546040516001600160a01b039091168152602090f35b50346101465760203660031901126101465760ff60406020926004358152600684522054166040519015158152f35b5034610146578060031936011261014657600c546040516001600160a01b039091168152602090f35b5034610146578060031936011261014657611116611849565b80546001600160a01b03198116825581906001600160a01b03167f8be0079c531659141344cd1fd0a4f28419497f9722a3daafe3b4186f6b6457e08280a380f35b50346101465780600319360112610146576020600254604051908152f35b5034610146576020366003190112610146576020906040906001600160a01b0361119d61149f565b168152600983522054604051908152f35b5034610146576020366003190112610146576001600160a01b036111d061149f565b168152600460205260408120604051918260208354918281520192825260208220915b81811061120a57610f5085610f44818703826115f3565b82548452602090930192600192830192016111f3565b5034610146576020366003190112610146576040906004358152600360205220805460018201549160018060a01b0360028201541661126160038301611615565b916112d961127160048301611615565b6112cb61128060058501611615565b916112bd60068601549760ff6008600789015498015416976040519b8c9b8c5260208c015260408b015261012060608b01526101208a01906114d8565b9088820360808a01526114d8565b9086820360a08801526114d8565b9260c085015260e084015215156101008301520390f35b503461014657806003193601126101465760025461130d81611778565b9061131b60405192836115f3565b808252601f1961132a82611778565b01835b818110611452575050825b8181106113a65782846040519182916020830160208452825180915260408401602060408360051b870101940192905b82821061137757505050500390f35b919360019193955060206113968192603f198a820301865288516114fd565b9601920192018594939192611368565b80600191855260036020526040852060ff6008604051926113c6846115c0565b80548452858101546020850152858060a01b0360028201541660408501526113f060038201611615565b606085015261140160048201611615565b608085015261141260058201611615565b60a0850152600681015460c0850152600781015460e0850152015416151561010082015261144082866117d6565b5261144b81856117d6565b5001611338565b60209061145d611790565b8282870101520161132d565b9050346105a25760203660031901126105a2576020916040906001600160a01b0361149261149f565b1681526008845220548152f35b600435906001600160a01b038216820361084857565b60005b8381106114c85750506000910152565b81810151838201526020016114b8565b906020916114f1815180928185528580860191016114b5565b601f01601f1916010190565b90815181526020820151602082015260018060a01b03604083015116604082015261010080611567611555611543606087015161012060608801526101208701906114d8565b608087015186820360808801526114d8565b60a086015185820360a08701526114d8565b9360c081015160c085015260e081015160e08501520151151591015290565b90600182811c921680156115b6575b60208310146115a057565b634e487b7160e01b600052602260045260246000fd5b91607f1691611595565b610120810190811067ffffffffffffffff8211176115dd57604052565b634e487b7160e01b600052604160045260246000fd5b90601f8019910116810190811067ffffffffffffffff8211176115dd57604052565b906040519182600082549261162984611586565b80845293600181169081156116975750600114611650575b5061164e925003836115f3565b565b90506000929192526020600020906000915b81831061167b57505090602061164e9282010138611641565b6020919350806001915483858901015201910190918492611662565b90506020925061164e94915060ff191682840152151560051b82010138611641565b602060408183019282815284518094520192019060005b8181106116dd5750505090565b82518452602093840193909201916001016116d0565b805482101561170b5760005260206000200190600090565b634e487b7160e01b600052603260045260246000fd5b81601f820112156108485780359067ffffffffffffffff82116115dd5760405192611756601f8401601f1916602001856115f3565b8284526020838301011161084857816000926020809301838601378301015290565b67ffffffffffffffff81116115dd5760051b60200190565b6040519061179d826115c0565b60006101008382815282602082015282604082015260608082015260606080820152606060a08201528260c08201528260e08201520152565b805182101561170b5760209160051b010190565b60001981146117f95760010190565b634e487b7160e01b600052601160045260246000fd5b8054680100000000000000008110156115dd57611831916001820181556116f3565b819291549060031b91821b91600019901b1916179055565b6000546001600160a01b0316330361185d57565b606460405162461bcd60e51b815260206004820152602060248201527f4f776e61626c653a2063616c6c6572206973206e6f7420746865206f776e65726044820152fdfea264697066735822122082d3532cc6a29cdbf328215c148a2c6c2cc2e884d5d41d0acacc15f97945f8f364736f6c634300081c0033",
  "linkReferences": {},
  "deployedLinkReferences": {}
}