{
  "_format": "hh-sol-artifact-1",
  "contractName": "DataHiveToken",
  "sourceName": "contracts/DataHiveToken.sol",
  "abi": [
    {
      "inputs": [
        {
          "internalType": "uint256",
          "name": "initialSupply",
          "type": "uint256"
        },
        {
          "internalType": "address",
          "name": "initialHolder",
          "type": "address"
        }
      ],
      "stateMutability": "nonpayable",
      "type": "constructor"
    },
    {
      "anonymous": false,
      "inputs": [
        {
          "indexed": true,
          "internalType": "address",
          "name": "owner",
          "type": "address"
        },
        {
          "indexed": true,
          "internalType": "address",
          "name": "spender",
          "type": "address"
        },
        {
          "indexed": false,
          "internalType": "uint256",
          "name": "value",
          "type": "uint256"
        }
      ],
      "name": "Approval",
      "type": "event"
    },
    {
      "anonymous": false,
      "inputs": [
        {
          "indexed": true,
          "internalType": "address",
          "name": "from",
          "type": "address"
        },
        {
          "indexed": false,
          "internalType": "address[]",
          "name": "to",
          "type": "address[]"
        },
        {
          "indexed": false,
          "internalType": "uint256[]",
          "name": "amounts",
          "type": "uint256[]"
        }
      ],
      "name": "BatchTransferred",
      "type": "event"
    },
    {
      "anonymous": false,
      "inputs": [
        {
          "indexed": true,
          "internalType": "address",
          "name": "to",
          "type": "address"
        },
        {
          "indexed": false,
          "internalType": "uint256",
          "name": "amount",
          "type": "uint256"
        }
      ],
      "name": "Minted",
      "type": "event"
    },
    {
      "anonymous": false,
      "inputs": [
        {
          "indexed": true,
          "internalType": "address",
          "name": "previousOwner",
          "type": "address"
        },
        {
          "indexed": true,
          "internalType": "address",
          "name": "newOwner",
          "type": "address"
        }
      ],
      "name": "OwnershipTransferred",
      "type": "event"
    },
    {
      "anonymous": false,
      "inputs": [
        {
          "indexed": false,
          "internalType": "address",
          "name": "account",
          "type": "address"
        }
      ],
      "name": "Paused",
      "type": "event"
    },
    {
      "anonymous": false,
      "inputs": [
        {
          "indexed": true,
          "internalType": "address",
          "name": "from",
          "type": "address"
        },
        {
          "indexed": true,
          "internalType": "address",
          "name": "to",
          "type": "address"
        },
        {
          "indexed": false,
          "internalType": "uint256",
          "name": "value",
          "type": "uint256"
        }
      ],
      "name": "Transfer",
      "type": "event"
    },
    {
      "anonymous": false,
      "inputs": [
        {
          "indexed": false,
          "internalType": "address",
          "name": "account",
          "type": "address"
        }
      ],
      "name": "Unpaused",
      "type": "event"
    },
    {
      "inputs": [],
      "name": "MAX_SUPPLY",
      "outputs": [
        {
          "internalType": "uint256",
          "name": "",
          "type": "uint256"
        }
      ],
      "stateMutability": "view",
      "type": "function"
    },
    {
      "inputs": [
        {
          "internalType": "address",
          "name": "owner",
          "type": "address"
        },
        {
          "internalType": "address",
          "name": "spender",
          "type": "address"
        }
      ],
      "name": "allowance",
      "outputs": [
        {
          "internalType": "uint256",
          "name": "",
          "type": "uint256"
        }
      ],
      "stateMutability": "view",
      "type": "function"
    },
    {
      "inputs": [
        {
          "internalType": "address",
          "name": "spender",
          "type": "address"
        },
        {
          "internalType": "uint256",
          "name": "amount",
          "type": "uint256"
        }
      ],
      "name": "approve",
      "outputs": [
        {
          "internalType": "bool",
          "name": "",
          "type": "bool"
        }
      ],
      "stateMutability": "nonpayable",
      "type": "function"
    },
    {
      "inputs": [
        {
          "internalType": "address",
          "name": "account",
          "type": "address"
        }
      ],
      "name": "balanceOf",
      "outputs": [
        {
          "internalType": "uint256",
          "name": "",
          "type": "uint256"
        }
      ],
      "stateMutability": "view",
      "type": "function"
    },
    {
      "inputs": [
        {
          "internalType": "address[]",
          "name": "recipients",
          "type": "address[]"
        },
        {
          "internalType": "uint256[]",
          "name": "amounts",
          "type": "uint256[]"
        }
      ],
      "name": "batchTransfer",
      "outputs": [],
      "stateMutability": "nonpayable",
      "type": "function"
    },
    {
      "inputs": [
        {
          "internalType": "uint256",
          "name": "amount",
          "type": "uint256"
        }
      ],
      "name": "burn",
      "outputs": [],
      "stateMutability": "nonpayable",
      "type": "function"
    },
    {
      "inputs": [
        {
          "internalType": "address",
          "name": "account",
          "type": "address"
        },
        {
          "internalType": "uint256",
          "name": "amount",
          "type": "uint256"
        }
      ],
      "name": "burnFrom",
      "outputs": [],
      "stateMutability": "nonpayable",
      "type": "function"
    },
    {
      "inputs": [],
      "name": "decimals",
      "outputs": [
        {
          "internalType": "uint8",
          "name": "",
          "type": "uint8"
        }
      ],
      "stateMutability": "view",
      "type": "function"
    },
    {
      "inputs": [
        {
          "internalType": "address",
          "name": "spender",
          "type": "address"
        },
        {
          "internalType": "uint256",
          "name": "subtractedValue",
          "type": "uint256"
        }
      ],
      "name": "decreaseAllowance",
      "outputs": [
        {
          "internalType": "bool",
          "name": "",
          "type": "bool"
        }
      ],
      "stateMutability": "nonpayable",
      "type": "function"
    },
    {
      "inputs": [
        {
          "internalType": "address",
          "name": "spender",
          "type": "address"
        },
        {
          "internalType": "uint256",
          "name": "addedValue",
          "type": "uint256"
        }
      ],
      "name": "increaseAllowance",
      "outputs": [
        {
          "internalType": "bool",
          "name": "",
          "type": "bool"
        }
      ],
      "stateMutability": "nonpayable",
      "type": "function"
    },
    {
      "inputs": [
        {
          "internalType": "address",
          "name": "to",
          "type": "address"
        },
        {
          "internalType": "uint256",
          "name": "amount",
          "type": "uint256"
        }
      ],
      "name": "mint",
      "outputs": [],
      "stateMutability": "nonpayable",
      "type": "function"
    },
    {
      "inputs": [],
      "name": "name",
      "outputs": [
        {
          "internalType": "string",
          "name": "",
          "type": "string"
        }
      ],
      "stateMutability": "view",
      "type": "function"
    },
    {
      "inputs": [],
      "name": "owner",
      "outputs": [
        {
          "internalType": "address",
          "name": "",
          "type": "address"
        }
      ],
      "stateMutability": "view",
      "type": "function"
    },
    {
      "inputs": [],
      "name": "pause",
      "outputs": [],
      "stateMutability": "nonpayable",
      "type": "function"
    },
    {
      "inputs": [],
      "name": "paused",
      "outputs": [
        {
          "internalType": "bool",
          "name": "",
          "type": "bool"
        }
      ],
      "stateMutability": "view",
      "type": "function"
    },
    {
      "inputs": [],
      "name": "renounceOwnership",
      "outputs": [],
      "stateMutability": "nonpayable",
      "type": "function"
    },
    {
      "inputs": [],
      "name": "symbol",
      "outputs": [
        {
          "internalType": "string",
          "name": "",
          "type": "string"
        }
      ],
      "stateMutability": "view",
      "type": "function"
    },
    {
      "inputs": [],
      "name": "totalSupply",
      "outputs": [
        {
          "internalType": "uint256",
          "name": "",
          "type": "uint256"
        }
      ],
      "stateMutability": "view",
      "type": "function"
    },
    {
      "inputs": [
        {
          "internalType": "address",
          "name": "to",
          "type": "address"
        },
        {
          "internalType": "uint256",
          "name": "amount",
          "type": "uint256"
        }
      ],
      "name": "transfer",
      "outputs": [
        {
          "internalType": "bool",
          "name": "",
          "type": "bool"
        }
      ],
      "stateMutability": "nonpayable",
      "type": "function"
    },
    {
      "inputs": [
        {
          "internalType": "address",
          "name": "from",
          "type": "address"
        },
        {
          "internalType": "address",
          "name": "to",
          "type": "address"
        },
        {
          "internalType": "uint256",
          "name": "amount",
          "type": "uint256"
        }
      ],
      "name": "transferFrom",
      "outputs": [
        {
          "internalType": "bool",
          "name": "",
          "type": "bool"
        }
      ],
      "stateMutability": "nonpayable",
      "type": "function"
    },
    {
      "inputs": [
        {
          "internalType": "address",
          "name": "newOwner",
          "type": "address"
        }
      ],
      "name": "transferOwnership",
      "outputs": [],
      "stateMutability": "nonpayable",
      "type": "function"
    },
    {
      "inputs": [],
      "name": "unpause",
      "outputs": [],
      "stateMutability": "nonpayable",
      "type": "function"
    }
  ],
  "bytecode": "0x60806040523461052b5760006118866040813803918261001e81610530565b9384928339810103126105275780516020909101516001600160a01b0381169190829003610523576100506040610530565b92600e84526d2230ba30a434bb32902a37b5b2b760911b60208501526100766040610530565b600381526211121560ea1b6020820152845190946001600160401b03821161050f57600354600181811c91168015610505575b60208210146104f1579081601f849311610483575b50602090601f831160011461041e578492610413575b50508160011b916000199060031b1c1916176003555b83516001600160401b0381116103ff57600454600181811c911680156103f5575b60208210146103e157601f811161037e575b50602094601f821160011461031a57948293949582939261030f575b50508160011b916000199060031b1c1916176004555b600580546001600160a81b0319811633600881811b610100600160a81b0316929092179093556040519291901c6001600160a01b03167f8be0079c531659141344cd1fd0a4f28419497f9722a3daafe3b4186f6b6457e08480a36a52b7d2dcc80cd2e400000083116102c35750821561026c57670de0b6b3a7640000820291808304670de0b6b3a764000014901517156102585750600254908082018092116102425760207fddf252ad1be2c89b69c2b068fc378daa952ba7f163c4a11628f55a4df523b3ef9160009360025584845283825260408420818154019055604051908152a360405161131a908161056c8239f35b634e487b7160e01b600052601160045260246000fd5b634e487b7160e01b81526011600452602490fd5b60405162461bcd60e51b815260206004820152602960248201527f496e697469616c20686f6c6465722063616e6e6f7420626520746865207a65726044820152686f206164647265737360b81b6064820152608490fd5b62461bcd60e51b815260206004820152602160248201527f496e697469616c20737570706c792065786365656473206d617820737570706c6044820152607960f81b6064820152608490fd5b015190503880610139565b601f198216956004845280842091845b8881106103665750836001959697981061034d575b505050811b0160045561014f565b015160001960f88460031b161c1916905538808061033f565b9192602060018192868501518155019401920161032a565b600483527f8a35acfbc15ff81a39ae7d344fd709f28e8600b4aa8c65c6b64bfe7fe36bd19b601f830160051c810191602084106103d7575b601f0160051c01905b8181106103cc575061011d565b8381556001016103bf565b90915081906103b6565b634e487b7160e01b83526022600452602483fd5b90607f169061010b565b634e487b7160e01b82526041600452602482fd5b0151905038806100d4565b600385528185209250601f198416855b81811061046b5750908460019594939210610452575b505050811b016003556100ea565b015160001960f88460031b161c19169055388080610444565b9293602060018192878601518155019501930161042e565b600385529091507fc2575a0e9e593c00f959f8c92f12db2869c3395a3b0502d05e2516446f71f85b601f840160051c810191602085106104e7575b90601f859493920160051c01905b8181106104d957506100be565b8581558493506001016104cc565b90915081906104be565b634e487b7160e01b84526022600452602484fd5b90607f16906100a9565b634e487b7160e01b83526041600452602483fd5b8280fd5b5080fd5b600080fd5b6040519190601f01601f191682016001600160401b0381118382101761055557604052565b634e487b7160e01b600052604160045260246000fdfe608080604052600436101561001357600080fd5b60003560e01c90816306fdde0314610c3957508063095ea7b314610c1357806318160ddd14610bf557806323b872dd14610bbd578063313ce56714610ba157806332cb6b0c14610b7b5780633950935114610b295780633f4ba83a14610a9557806340c10f191461093857806342966c681461091b5780635c975abb146108f857806370a08231146108be578063715018a61461085d57806379cc67901461082b5780638456cb59146107d157806388d695b21461044f5780638da5cb5b1461042257806395d89b411461031a578063a457c2d714610273578063a9059cbb14610242578063dd62ed3e146101f15763f2fde38b1461011157600080fd5b346101ec5760203660031901126101ec5761012a610d3e565b610132611133565b6001600160a01b0381169081156101985760058054610100600160a81b03198116600893841b610100600160a81b031617909155901c6001600160a01b03167f8be0079c531659141344cd1fd0a4f28419497f9722a3daafe3b4186f6b6457e0600080a3005b60405162461bcd60e51b815260206004820152602660248201527f4f776e61626c653a206e6577206f776e657220697320746865207a65726f206160448201526564647265737360d01b6064820152608490fd5b600080fd5b346101ec5760403660031901126101ec5761020a610d3e565b610212610d54565b6001600160a01b039182166000908152600160209081526040808320949093168252928352819020549051908152f35b346101ec5760403660031901126101ec5761026861025e610d3e565b6024359033610fac565b602060405160018152f35b346101ec5760403660031901126101ec5761028c610d3e565b60243590336000526001602052604060002060018060a01b038216600052602052604060002054918083106102c75761026892039033610e07565b60405162461bcd60e51b815260206004820152602560248201527f45524332303a2064656372656173656420616c6c6f77616e63652062656c6f77604482015264207a65726f60d81b6064820152608490fd5b346101ec5760003660031901126101ec5760405160006004548060011c90600181168015610418575b602083108114610404578285529081156103e05750600114610380575b61037c8361037081850382610d6a565b60405191829182610cf5565b0390f35b91905060046000527f8a35acfbc15ff81a39ae7d344fd709f28e8600b4aa8c65c6b64bfe7fe36bd19b916000905b8082106103c657509091508101602001610370610360565b9192600181602092548385880101520191019092916103ae565b60ff191660208086019190915291151560051b840190910191506103709050610360565b634e487b7160e01b84526022600452602484fd5b91607f1691610343565b346101ec5760003660031901126101ec5760055460405160089190911c6001600160a01b03168152602090f35b346101ec5760403660031901126101ec5760043567ffffffffffffffff81116101ec57366023820112156101ec5780600401359061048c82610da2565b9061049a6040519283610d6a565b82825260208201906024829460051b820101903682116101ec57602401915b8183106107b15750505060243567ffffffffffffffff81116101ec57366023820112156101ec578060040135916104ef83610da2565b916104fd6040519384610d6a565b838352602083016024819560051b830101913683116101ec57602401905b8282106107a157505050805182510361075c5780511561071857600093845b83518610156105cc576001600160a01b036105558785610ddd565b51161561057b5761057360019161056c8887610ddd565b5190610dba565b95019461053a565b60405162461bcd60e51b815260206004820152602360248201527f43616e6e6f74207472616e7366657220746f20746865207a65726f206164647260448201526265737360e81b6064820152608490fd5b93909293336000526000602052604060002054106106c35760005b82518110156106225760019061061c6001600160a01b036106088387610ddd565b51166106148389610ddd565b519033610fac565b016105e7565b509183604051926040840190604085525180915260608401929060005b8181106106a45750505060209083830382850152519182815201929060005b81811061068e57337f0671919ce248bc2ab4a8727df08518465633c6bb7051d2de13b1df5481bbc50585870386a2005b825185526020948501949092019160010161065e565b82516001600160a01b031685526020948501949092019160010161063f565b60405162461bcd60e51b815260206004820152602760248201527f496e73756666696369656e742062616c616e636520666f7220626174636820746044820152663930b739b332b960c91b6064820152608490fd5b606460405162461bcd60e51b815260206004820152602060248201527f4d7573742068617665206174206c65617374206f6e6520726563697069656e746044820152fd5b60405162461bcd60e51b815260206004820152601c60248201527f417272617973206d75737420686176652073616d65206c656e677468000000006044820152606490fd5b813581526020918201910161051b565b82356001600160a01b03811681036101ec578152602092830192016104b9565b346101ec5760003660031901126101ec576107ea611133565b6107f26112a0565b600160ff1960055416176005557f62e78cea01bee320cd4e420270b5ea74000d11b0c9f74754ebdbfc544b05a2586020604051338152a1005b346101ec5760403660031901126101ec5761085b610847610d3e565b60243590610856823383610f0f565b61118e565b005b346101ec5760003660031901126101ec57610876611133565b60058054610100600160a81b0319811690915560009060081c6001600160a01b03167f8be0079c531659141344cd1fd0a4f28419497f9722a3daafe3b4186f6b6457e08280a3005b346101ec5760203660031901126101ec576001600160a01b036108df610d3e565b1660005260006020526020604060002054604051908152f35b346101ec5760003660031901126101ec57602060ff600554166040519015158152f35b346101ec5760203660031901126101ec5761085b6004353361118e565b346101ec5760403660031901126101ec57610951610d3e565b6024359061095d611133565b6001600160a01b03168015610a5057600254916a52b7d2dcc80cd2e40000006109868285610dba565b11610a0b576020816109c37f30385c845b448a36257a6a1716e6ad2e1bc2cbe333cde1e69fe849ad6511adfe936000966109be6112a0565b610dba565b6002558385528482526040852081815401905583857fddf252ad1be2c89b69c2b068fc378daa952ba7f163c4a11628f55a4df523b3ef84604051858152a3604051908152a280f35b60405162461bcd60e51b815260206004820152601c60248201527f4d696e7420776f756c6420657863656564206d617820737570706c79000000006044820152606490fd5b60405162461bcd60e51b815260206004820152601f60248201527f43616e6e6f74206d696e7420746f20746865207a65726f2061646472657373006044820152606490fd5b346101ec5760003660031901126101ec57610aae611133565b60055460ff811615610aed5760ff19166005557f5db9ee0a495bf2e6ff9c91a7834c1ba4fdd244a5e8aa4e537bd38aeae4b073aa6020604051338152a1005b60405162461bcd60e51b815260206004820152601460248201527314185d5cd8589b194e881b9bdd081c185d5cd95960621b6044820152606490fd5b346101ec5760403660031901126101ec57610268610b45610d3e565b336000526001602052604060002060018060a01b038216600052602052610b7460406000206024359054610dba565b9033610e07565b346101ec5760003660031901126101ec5760206040516a52b7d2dcc80cd2e40000008152f35b346101ec5760003660031901126101ec57602060405160128152f35b346101ec5760603660031901126101ec57610268610bd9610d3e565b610be1610d54565b60443591610bf0833383610f0f565b610fac565b346101ec5760003660031901126101ec576020600254604051908152f35b346101ec5760403660031901126101ec57610268610c2f610d3e565b6024359033610e07565b346101ec5760003660031901126101ec5760006003548060011c90600181168015610ceb575b602083108114610404578285529081156103e05750600114610c8b5761037c8361037081850382610d6a565b91905060036000527fc2575a0e9e593c00f959f8c92f12db2869c3395a3b0502d05e2516446f71f85b916000905b808210610cd157509091508101602001610370610360565b919260018160209254838588010152019101909291610cb9565b91607f1691610c5f565b91909160208152825180602083015260005b818110610d28575060409293506000838284010152601f8019910116010190565b8060208092870101516040828601015201610d07565b600435906001600160a01b03821682036101ec57565b602435906001600160a01b03821682036101ec57565b90601f8019910116810190811067ffffffffffffffff821117610d8c57604052565b634e487b7160e01b600052604160045260246000fd5b67ffffffffffffffff8111610d8c5760051b60200190565b91908201809211610dc757565b634e487b7160e01b600052601160045260246000fd5b8051821015610df15760209160051b010190565b634e487b7160e01b600052603260045260246000fd5b6001600160a01b0316908115610ebe576001600160a01b0316918215610e6e5760207f8c5be1e5ebec7d5bd14f71427d1e84f3dd0314c0f7b2291e5b200ac8c7c3b925918360005260018252604060002085600052825280604060002055604051908152a3565b60405162461bcd60e51b815260206004820152602260248201527f45524332303a20617070726f766520746f20746865207a65726f206164647265604482015261737360f01b6064820152608490fd5b60405162461bcd60e51b8152602060048201526024808201527f45524332303a20617070726f76652066726f6d20746865207a65726f206164646044820152637265737360e01b6064820152608490fd5b9060018060a01b0382166000526001602052604060002060018060a01b038216600052602052604060002054926000198403610f4c575b50505050565b808410610f6757610f5e930391610e07565b38808080610f46565b60405162461bcd60e51b815260206004820152601d60248201527f45524332303a20696e73756666696369656e7420616c6c6f77616e63650000006044820152606490fd5b6001600160a01b03169081156110e0576001600160a01b031691821561108f57610fd46112a0565b81600052600060205260406000205481811061103b57817fddf252ad1be2c89b69c2b068fc378daa952ba7f163c4a11628f55a4df523b3ef9260209285600052600084520360406000205584600052600082526040600020818154019055604051908152a3565b60405162461bcd60e51b815260206004820152602660248201527f45524332303a207472616e7366657220616d6f756e7420657863656564732062604482015265616c616e636560d01b6064820152608490fd5b60405162461bcd60e51b815260206004820152602360248201527f45524332303a207472616e7366657220746f20746865207a65726f206164647260448201526265737360e81b6064820152608490fd5b60405162461bcd60e51b815260206004820152602560248201527f45524332303a207472616e736665722066726f6d20746865207a65726f206164604482015264647265737360d81b6064820152608490fd5b60055460081c6001600160a01b0316330361114a57565b606460405162461bcd60e51b815260206004820152602060248201527f4f776e61626c653a2063616c6c6572206973206e6f7420746865206f776e65726044820152fd5b6001600160a01b03168015611251576111a56112a0565b80600052600060205260406000205491808310611201576020817fddf252ad1be2c89b69c2b068fc378daa952ba7f163c4a11628f55a4df523b3ef926000958587528684520360408620558060025403600255604051908152a3565b60405162461bcd60e51b815260206004820152602260248201527f45524332303a206275726e20616d6f756e7420657863656564732062616c616e604482015261636560f01b6064820152608490fd5b60405162461bcd60e51b815260206004820152602160248201527f45524332303a206275726e2066726f6d20746865207a65726f206164647265736044820152607360f81b6064820152608490fd5b60ff600554166112ac57565b60405162461bcd60e51b815260206004820152601060248201526f14185d5cd8589b194e881c185d5cd95960821b6044820152606490fdfea2646970667358221220666286a933e33cc4f069d123c7dfa40137726326e6421bc70ec4fe877ee30ab264736f6c634300081c0033",
  "linkReferences": {},
  "deployedLinkReferences": {}
}