{
  "_format": "hh-sol-artifact-1",
  "contractName": "CampaignManager",
  "sourceName": "contracts/CampaignManager.sol",
  "abi": [
    {
      "inputs": [
        {
          "internalType": "contract IERC20",
          "name": "_rewardToken",
          "type": "address"
        }
      ],
      "stateMutability": "nonpayable",
      "type": "constructor"
    },
    {
      "anonymous": false,
      "inputs": [
        {
          "indexed": true,
          "internalType": "uint256",
          "name": "campaignId",
          "type": "uint256"
        }
      ],
      "name": "CampaignActivated",
      "type": "event"
    },
    {
      "anonymous": false,
      "inputs": [
        {
          "indexed": true,
          "internalType": "uint256",
          "name": "campaignId",
          "type": "uint256"
        },
        {
          "indexed": false,
          "internalType": "uint256",
          "name": "refundAmount",
          "type": "uint256"
        }
      ],
      "name": "CampaignCancelled",
      "type": "event"
    },
    {
      "anonymous": false,
      "inputs": [
        {
          "indexed": true,
          "internalType": "uint256",
          "name": "campaignId",
          "type": "uint256"
        },
        {
          "indexed": false,
          "internalType": "string",
          "name": "campaignIdString",
          "type": "string"
        },
        {
          "indexed": true,
          "internalType": "address",
          "name": "creator",
          "type": "address"
        },
        {
          "indexed": false,
          "internalType": "string",
          "name": "title",
          "type": "string"
        },
        {
          "indexed": false,
          "internalType": "uint256",
          "name": "budget",
          "type": "uint256"
        },
        {
          "indexed": false,
          "internalType": "uint256",
          "name": "startTime",
          "type": "uint256"
        },
        {
          "indexed": false,
          "internalType": "uint256",
          "name": "expiration",
          "type": "uint256"
        },
        {
          "indexed": false,
          "internalType": "string",
          "name": "metadataURI",
          "type": "string"
        }
      ],
      "name": "CampaignCreated",
      "type": "event"
    },
    {
      "anonymous": false,
      "inputs": [
        {
          "indexed": true,
          "internalType": "uint256",
          "name": "campaignId",
          "type": "uint256"
        }
      ],
      "name": "CampaignDeactivated",
      "type": "event"
    },
    {
      "anonymous": false,
      "inputs": [
        {
          "indexed": true,
          "internalType": "uint256",
          "name": "campaignId",
          "type": "uint256"
        }
      ],
      "name": "CampaignUpdated",
      "type": "event"
    },
    {
      "anonymous": false,
      "inputs": [
        {
          "indexed": false,
          "internalType": "address",
          "name": "contractAddress",
          "type": "address"
        }
      ],
      "name": "ContributionsContractUpdated",
      "type": "event"
    },
    {
      "anonymous": false,
      "inputs": [
        {
          "indexed": true,
          "internalType": "address",
          "name": "contributor",
          "type": "address"
        },
        {
          "indexed": false,
          "internalType": "uint256",
          "name": "amount",
          "type": "uint256"
        }
      ],
      "name": "ContributorRewarded",
      "type": "event"
    },
    {
      "anonymous": false,
      "inputs": [
        {
          "indexed": false,
          "internalType": "uint256",
          "name": "newFee",
          "type": "uint256"
        }
      ],
      "name": "DefaultPlatformFeeUpdated",
      "type": "event"
    },
    {
      "anonymous": false,
      "inputs": [
        {
          "indexed": false,
          "internalType": "address",
          "name": "contractAddress",
          "type": "address"
        }
      ],
      "name": "EscrowContractUpdated",
      "type": "event"
    },
    {
      "anonymous": false,
      "inputs": [
        {
          "indexed": true,
          "internalType": "address",
          "name": "previousOwner",
          "type": "address"
        },
        {
          "indexed": true,
          "internalType": "address",
          "name": "newOwner",
          "type": "address"
        }
      ],
      "name": "OwnershipTransferred",
      "type": "event"
    },
    {
      "anonymous": false,
      "inputs": [
        {
          "indexed": true,
          "internalType": "address",
          "name": "user",
          "type": "address"
        },
        {
          "indexed": false,
          "internalType": "string",
          "name": "oldUsername",
          "type": "string"
        },
        {
          "indexed": false,
          "internalType": "string",
          "name": "newUsername",
          "type": "string"
        }
      ],
      "name": "UsernameEdited",
      "type": "event"
    },
    {
      "anonymous": false,
      "inputs": [
        {
          "indexed": true,
          "internalType": "address",
          "name": "user",
          "type": "address"
        },
        {
          "indexed": false,
          "internalType": "string",
          "name": "username",
          "type": "string"
        }
      ],
      "name": "UsernameSet",
      "type": "event"
    },
    {
      "inputs": [],
      "name": "MAX_USERNAME_EDITS",
      "outputs": [
        {
          "internalType": "uint256",
          "name": "",
          "type": "uint256"
        }
      ],
      "stateMutability": "view",
      "type": "function"
    },
    {
      "inputs": [],
      "name": "MAX_USERNAME_LENGTH",
      "outputs": [
        {
          "internalType": "uint256",
          "name": "",
          "type": "uint256"
        }
      ],
      "stateMutability": "view",
      "type": "function"
    },
    {
      "inputs": [
        {
          "internalType": "uint256",
          "name": "_campaignId",
          "type": "uint256"
        }
      ],
      "name": "activateCampaign",
      "outputs": [],
      "stateMutability": "nonpayable",
      "type": "function"
    },
    {
      "inputs": [],
      "name": "activeCampaignCount",
      "outputs": [
        {
          "internalType": "uint256",
          "name": "",
          "type": "uint256"
        }
      ],
      "stateMutability": "view",
      "type": "function"
    },
    {
      "inputs": [],
      "name": "campaignCount",
      "outputs": [
        {
          "internalType": "uint256",
          "name": "",
          "type": "uint256"
        }
      ],
      "stateMutability": "view",
      "type": "function"
    },
    {
      "inputs": [
        {
          "internalType": "string",
          "name": "",
          "type": "string"
        }
      ],
      "name": "campaignIdStringExists",
      "outputs": [
        {
          "internalType": "bool",
          "name": "",
          "type": "bool"
        }
      ],
      "stateMutability": "view",
      "type": "function"
    },
    {
      "inputs": [
        {
          "internalType": "string",
          "name": "",
          "type": "string"
        }
      ],
      "name": "campaignIdStringToId",
      "outputs": [
        {
          "internalType": "uint256",
          "name": "",
          "type": "uint256"
        }
      ],
      "stateMutability": "view",
      "type": "function"
    },
    {
      "inputs": [
        {
          "internalType": "uint256",
          "name": "",
          "type": "uint256"
        }
      ],
      "name": "campaigns",
      "outputs": [
        {
          "internalType": "uint256",
          "name": "id",
          "type": "uint256"
        },
        {
          "internalType": "string",
          "name": "campaignIdString",
          "type": "string"
        },
        {
          "internalType": "address",
          "name": "creator",
          "type": "address"
        },
        {
          "internalType": "string",
          "name": "title",
          "type": "string"
        },
        {
          "internalType": "string",
          "name": "description",
          "type": "string"
        },
        {
          "internalType": "string",
          "name": "dataRequirements",
          "type": "string"
        },
        {
          "internalType": "uint256",
          "name": "unitPrice",
          "type": "uint256"
        },
        {
          "internalType": "uint256",
          "name": "totalBudget",
          "type": "uint256"
        },
        {
          "internalType": "uint256",
          "name": "remainingBudget",
          "type": "uint256"
        },
        {
          "internalType": "uint256",
          "name": "maxSubmissions",
          "type": "uint256"
        },
        {
          "internalType": "uint256",
          "name": "currentSubmissions",
          "type": "uint256"
        },
        {
          "internalType": "uint256",
          "name": "startTime",
          "type": "uint256"
        },
        {
          "internalType": "uint256",
          "name": "expiration",
          "type": "uint256"
        },
        {
          "internalType": "bool",
          "name": "active",
          "type": "bool"
        },
        {
          "internalType": "string",
          "name": "metadataURI",
          "type": "string"
        },
        {
          "internalType": "uint256",
          "name": "platformFee",
          "type": "uint256"
        },
        {
          "internalType": "string",
          "name": "encryptionPublicKey",
          "type": "string"
        },
        {
          "internalType": "uint256",
          "name": "rewardThreshold",
          "type": "uint256"
        }
      ],
      "stateMutability": "view",
      "type": "function"
    },
    {
      "inputs": [
        {
          "internalType": "uint256",
          "name": "_campaignId",
          "type": "uint256"
        }
      ],
      "name": "cancelCampaign",
      "outputs": [],
      "stateMutability": "nonpayable",
      "type": "function"
    },
    {
      "inputs": [],
      "name": "contributionsContract",
      "outputs": [
        {
          "internalType": "address",
          "name": "",
          "type": "address"
        }
      ],
      "stateMutability": "view",
      "type": "function"
    },
    {
      "inputs": [
        {
          "internalType": "address",
          "name": "",
          "type": "address"
        }
      ],
      "name": "contributorTotalEarned",
      "outputs": [
        {
          "internalType": "uint256",
          "name": "",
          "type": "uint256"
        }
      ],
      "stateMutability": "view",
      "type": "function"
    },
    {
      "inputs": [
        {
          "components": [
            {
              "internalType": "string",
              "name": "campaignIdString",
              "type": "string"
            },
            {
              "internalType": "string",
              "name": "title",
              "type": "string"
            },
            {
              "internalType": "string",
              "name": "description",
              "type": "string"
            },
            {
              "internalType": "string",
              "name": "dataRequirements",
              "type": "string"
            },
            {
              "internalType": "string[]",
              "name": "qualityCriteria",
              "type": "string[]"
            },
            {
              "internalType": "uint256",
              "name": "unitPrice",
              "type": "uint256"
            },
            {
              "internalType": "uint256",
              "name": "totalBudget",
              "type": "uint256"
            },
            {
              "internalType": "uint256",
              "name": "maxSubmissions",
              "type": "uint256"
            },
            {
              "internalType": "uint256",
              "name": "startTime",
              "type": "uint256"
            },
            {
              "internalType": "uint256",
              "name": "expiration",
              "type": "uint256"
            },
            {
              "internalType": "string",
              "name": "metadataURI",
              "type": "string"
            },
            {
              "internalType": "uint256",
              "name": "platformFee",
              "type": "uint256"
            },
            {
              "internalType": "string",
              "name": "encryptionPublicKey",
              "type": "string"
            },
            {
              "internalType": "uint256",
              "name": "rewardThreshold",
              "type": "uint256"
            }
          ],
          "internalType": "struct CampaignManager.CampaignParams",
          "name": "_params",
          "type": "tuple"
        }
      ],
      "name": "createCampaign",
      "outputs": [
        {
          "internalType": "uint256",
          "name": "",
          "type": "uint256"
        }
      ],
      "stateMutability": "nonpayable",
      "type": "function"
    },
    {
      "inputs": [
        {
          "internalType": "uint256",
          "name": "_campaignId",
          "type": "uint256"
        }
      ],
      "name": "deactivateCampaign",
      "outputs": [],
      "stateMutability": "nonpayable",
      "type": "function"
    },
    {
      "inputs": [],
      "name": "defaultPlatformFee",
      "outputs": [
        {
          "internalType": "uint256",
          "name": "",
          "type": "uint256"
        }
      ],
      "stateMutability": "view",
      "type": "function"
    },
    {
      "inputs": [
        {
          "internalType": "string",
          "name": "_newUsername",
          "type": "string"
        }
      ],
      "name": "editUsername",
      "outputs": [],
      "stateMutability": "nonpayable",
      "type": "function"
    },
    {
      "inputs": [],
      "name": "escrowContract",
      "outputs": [
        {
          "internalType": "address",
          "name": "",
          "type": "address"
        }
      ],
      "stateMutability": "view",
      "type": "function"
    },
    {
      "inputs": [],
      "name": "getActiveCampaigns",
      "outputs": [
        {
          "internalType": "uint256[]",
          "name": "",
          "type": "uint256[]"
        }
      ],
      "stateMutability": "view",
      "type": "function"
    },
    {
      "inputs": [
        {
          "internalType": "address",
          "name": "_address",
          "type": "address"
        }
      ],
      "name": "getAddressCampaignCount",
      "outputs": [
        {
          "internalType": "uint256",
          "name": "total",
          "type": "uint256"
        },
        {
          "internalType": "uint256",
          "name": "active",
          "type": "uint256"
        }
      ],
      "stateMutability": "view",
      "type": "function"
    },
    {
      "inputs": [
        {
          "internalType": "address",
          "name": "_address",
          "type": "address"
        }
      ],
      "name": "getAddressTotalEarned",
      "outputs": [
        {
          "internalType": "uint256",
          "name": "",
          "type": "uint256"
        }
      ],
      "stateMutability": "view",
      "type": "function"
    },
    {
      "inputs": [
        {
          "internalType": "address",
          "name": "_address",
          "type": "address"
        }
      ],
      "name": "getAddressTotalSpent",
      "outputs": [
        {
          "internalType": "uint256",
          "name": "",
          "type": "uint256"
        }
      ],
      "stateMutability": "view",
      "type": "function"
    },
    {
      "inputs": [],
      "name": "getCampaignCount",
      "outputs": [
        {
          "internalType": "uint256",
          "name": "total",
          "type": "uint256"
        },
        {
          "internalType": "uint256",
          "name": "active",
          "type": "uint256"
        }
      ],
      "stateMutability": "view",
      "type": "function"
    },
    {
      "inputs": [
        {
          "internalType": "uint256",
          "name": "_campaignId",
          "type": "uint256"
        }
      ],
      "name": "getCampaignCreator",
      "outputs": [
        {
          "internalType": "address",
          "name": "",
          "type": "address"
        }
      ],
      "stateMutability": "view",
      "type": "function"
    },
    {
      "inputs": [
        {
          "internalType": "uint256",
          "name": "_campaignId",
          "type": "uint256"
        }
      ],
      "name": "getCampaignDetails",
      "outputs": [
        {
          "components": [
            {
              "internalType": "uint256",
              "name": "id",
              "type": "uint256"
            },
            {
              "internalType": "string",
              "name": "campaignIdString",
              "type": "string"
            },
            {
              "internalType": "address",
              "name": "creator",
              "type": "address"
            },
            {
              "internalType": "string",
              "name": "title",
              "type": "string"
            },
            {
              "internalType": "string",
              "name": "description",
              "type": "string"
            },
            {
              "internalType": "string",
              "name": "dataRequirements",
              "type": "string"
            },
            {
              "internalType": "string[]",
              "name": "qualityCriteria",
              "type": "string[]"
            },
            {
              "internalType": "uint256",
              "name": "unitPrice",
              "type": "uint256"
            },
            {
              "internalType": "uint256",
              "name": "totalBudget",
              "type": "uint256"
            },
            {
              "internalType": "uint256",
              "name": "remainingBudget",
              "type": "uint256"
            },
            {
              "internalType": "uint256",
              "name": "maxSubmissions",
              "type": "uint256"
            },
            {
              "internalType": "uint256",
              "name": "currentSubmissions",
              "type": "uint256"
            },
            {
              "internalType": "uint256",
              "name": "startTime",
              "type": "uint256"
            },
            {
              "internalType": "uint256",
              "name": "expiration",
              "type": "uint256"
            },
            {
              "internalType": "bool",
              "name": "active",
              "type": "bool"
            },
            {
              "internalType": "string",
              "name": "metadataURI",
              "type": "string"
            },
            {
              "internalType": "uint256",
              "name": "platformFee",
              "type": "uint256"
            },
            {
              "internalType": "string",
              "name": "encryptionPublicKey",
              "type": "string"
            },
            {
              "internalType": "uint256",
              "name": "rewardThreshold",
              "type": "uint256"
            }
          ],
          "internalType": "struct CampaignManager.Campaign",
          "name": "",
          "type": "tuple"
        }
      ],
      "stateMutability": "view",
      "type": "function"
    },
    {
      "inputs": [
        {
          "internalType": "string",
          "name": "_campaignIdString",
          "type": "string"
        }
      ],
      "name": "getCampaignDetailsByString",
      "outputs": [
        {
          "components": [
            {
              "internalType": "uint256",
              "name": "id",
              "type": "uint256"
            },
            {
              "internalType": "string",
              "name": "campaignIdString",
              "type": "string"
            },
            {
              "internalType": "address",
              "name": "creator",
              "type": "address"
            },
            {
              "internalType": "string",
              "name": "title",
              "type": "string"
            },
            {
              "internalType": "string",
              "name": "description",
              "type": "string"
            },
            {
              "internalType": "string",
              "name": "dataRequirements",
              "type": "string"
            },
            {
              "internalType": "string[]",
              "name": "qualityCriteria",
              "type": "string[]"
            },
            {
              "internalType": "uint256",
              "name": "unitPrice",
              "type": "uint256"
            },
            {
              "internalType": "uint256",
              "name": "totalBudget",
              "type": "uint256"
            },
            {
              "internalType": "uint256",
              "name": "remainingBudget",
              "type": "uint256"
            },
            {
              "internalType": "uint256",
              "name": "maxSubmissions",
              "type": "uint256"
            },
            {
              "internalType": "uint256",
              "name": "currentSubmissions",
              "type": "uint256"
            },
            {
              "internalType": "uint256",
              "name": "startTime",
              "type": "uint256"
            },
            {
              "internalType": "uint256",
              "name": "expiration",
              "type": "uint256"
            },
            {
              "internalType": "bool",
              "name": "active",
              "type": "bool"
            },
            {
              "internalType": "string",
              "name": "metadataURI",
              "type": "string"
            },
            {
              "internalType": "uint256",
              "name": "platformFee",
              "type": "uint256"
            },
            {
              "internalType": "string",
              "name": "encryptionPublicKey",
              "type": "string"
            },
            {
              "internalType": "uint256",
              "name": "rewardThreshold",
              "type": "uint256"
            }
          ],
          "internalType": "struct CampaignManager.Campaign",
          "name": "",
          "type": "tuple"
        }
      ],
      "stateMutability": "view",
      "type": "function"
    },
    {
      "inputs": [
        {
          "internalType": "uint256",
          "name": "_campaignId",
          "type": "uint256"
        }
      ],
      "name": "getCampaignEncryptionPublicKey",
      "outputs": [
        {
          "internalType": "string",
          "name": "",
          "type": "string"
        }
      ],
      "stateMutability": "view",
      "type": "function"
    },
    {
      "inputs": [
        {
          "internalType": "string",
          "name": "_campaignIdString",
          "type": "string"
        }
      ],
      "name": "getCampaignIdFromString",
      "outputs": [
        {
          "internalType": "uint256",
          "name": "",
          "type": "uint256"
        }
      ],
      "stateMutability": "view",
      "type": "function"
    },
    {
      "inputs": [
        {
          "internalType": "uint256",
          "name": "_campaignId",
          "type": "uint256"
        }
      ],
      "name": "getCampaignRemainingBudget",
      "outputs": [
        {
          "internalType": "uint256",
          "name": "",
          "type": "uint256"
        }
      ],
      "stateMutability": "view",
      "type": "function"
    },
    {
      "inputs": [
        {
          "internalType": "uint256",
          "name": "_campaignId",
          "type": "uint256"
        }
      ],
      "name": "getCampaignStatus",
      "outputs": [
        {
          "internalType": "bool",
          "name": "active",
          "type": "bool"
        },
        {
          "internalType": "uint256",
          "name": "totalContributions",
          "type": "uint256"
        },
        {
          "internalType": "uint256",
          "name": "remainingSlots",
          "type": "uint256"
        }
      ],
      "stateMutability": "view",
      "type": "function"
    },
    {
      "inputs": [
        {
          "internalType": "address",
          "name": "_owner",
          "type": "address"
        }
      ],
      "name": "getOwnerActiveCampaigns",
      "outputs": [
        {
          "internalType": "uint256[]",
          "name": "",
          "type": "uint256[]"
        }
      ],
      "stateMutability": "view",
      "type": "function"
    },
    {
      "inputs": [
        {
          "internalType": "uint256",
          "name": "_campaignId",
          "type": "uint256"
        }
      ],
      "name": "getRewardThreshold",
      "outputs": [
        {
          "internalType": "uint256",
          "name": "",
          "type": "uint256"
        }
      ],
      "stateMutability": "view",
      "type": "function"
    },
    {
      "inputs": [
        {
          "internalType": "uint256",
          "name": "_campaignId",
          "type": "uint256"
        }
      ],
      "name": "getUnitPrice",
      "outputs": [
        {
          "internalType": "uint256",
          "name": "",
          "type": "uint256"
        }
      ],
      "stateMutability": "view",
      "type": "function"
    },
    {
      "inputs": [
        {
          "internalType": "address",
          "name": "_address",
          "type": "address"
        }
      ],
      "name": "getUsername",
      "outputs": [
        {
          "internalType": "string",
          "name": "",
          "type": "string"
        }
      ],
      "stateMutability": "view",
      "type": "function"
    },
    {
      "inputs": [
        {
          "internalType": "address",
          "name": "_address",
          "type": "address"
        }
      ],
      "name": "getUsernameEditCount",
      "outputs": [
        {
          "internalType": "uint256",
          "name": "",
          "type": "uint256"
        }
      ],
      "stateMutability": "view",
      "type": "function"
    },
    {
      "inputs": [
        {
          "internalType": "uint256",
          "name": "_campaignId",
          "type": "uint256"
        }
      ],
      "name": "isAcceptingSubmissions",
      "outputs": [
        {
          "internalType": "bool",
          "name": "",
          "type": "bool"
        }
      ],
      "stateMutability": "view",
      "type": "function"
    },
    {
      "inputs": [
        {
          "internalType": "uint256",
          "name": "_campaignId",
          "type": "uint256"
        },
        {
          "internalType": "address",
          "name": "_address",
          "type": "address"
        }
      ],
      "name": "isCampaignOwner",
      "outputs": [
        {
          "internalType": "bool",
          "name": "",
          "type": "bool"
        }
      ],
      "stateMutability": "view",
      "type": "function"
    },
    {
      "inputs": [],
      "name": "owner",
      "outputs": [
        {
          "internalType": "address",
          "name": "",
          "type": "address"
        }
      ],
      "stateMutability": "view",
      "type": "function"
    },
    {
      "inputs": [
        {
          "internalType": "address",
          "name": "",
          "type": "address"
        }
      ],
      "name": "ownerActiveCampaigns",
      "outputs": [
        {
          "internalType": "uint256",
          "name": "",
          "type": "uint256"
        }
      ],
      "stateMutability": "view",
      "type": "function"
    },
    {
      "inputs": [
        {
          "internalType": "address",
          "name": "",
          "type": "address"
        },
        {
          "internalType": "uint256",
          "name": "",
          "type": "uint256"
        }
      ],
      "name": "ownerCampaigns",
      "outputs": [
        {
          "internalType": "uint256",
          "name": "",
          "type": "uint256"
        }
      ],
      "stateMutability": "view",
      "type": "function"
    },
    {
      "inputs": [
        {
          "internalType": "address",
          "name": "",
          "type": "address"
        }
      ],
      "name": "ownerTotalSpent",
      "outputs": [
        {
          "internalType": "uint256",
          "name": "",
          "type": "uint256"
        }
      ],
      "stateMutability": "view",
      "type": "function"
    },
    {
      "inputs": [
        {
          "internalType": "uint256",
          "name": "_campaignId",
          "type": "uint256"
        }
      ],
      "name": "recordSubmission",
      "outputs": [
        {
          "internalType": "uint256",
          "name": "",
          "type": "uint256"
        }
      ],
      "stateMutability": "nonpayable",
      "type": "function"
    },
    {
      "inputs": [],
      "name": "renounceOwnership",
      "outputs": [],
      "stateMutability": "nonpayable",
      "type": "function"
    },
    {
      "inputs": [],
      "name": "rewardToken",
      "outputs": [
        {
          "internalType": "contract IERC20",
          "name": "",
          "type": "address"
        }
      ],
      "stateMutability": "view",
      "type": "function"
    },
    {
      "inputs": [
        {
          "internalType": "address",
          "name": "_contractAddress",
          "type": "address"
        }
      ],
      "name": "setContributionsContract",
      "outputs": [],
      "stateMutability": "nonpayable",
      "type": "function"
    },
    {
      "inputs": [
        {
          "internalType": "uint256",
          "name": "_fee",
          "type": "uint256"
        }
      ],
      "name": "setDefaultPlatformFee",
      "outputs": [],
      "stateMutability": "nonpayable",
      "type": "function"
    },
    {
      "inputs": [
        {
          "internalType": "address",
          "name": "_contractAddress",
          "type": "address"
        }
      ],
      "name": "setEscrowContract",
      "outputs": [],
      "stateMutability": "nonpayable",
      "type": "function"
    },
    {
      "inputs": [
        {
          "internalType": "string",
          "name": "_username",
          "type": "string"
        }
      ],
      "name": "setUsername",
      "outputs": [],
      "stateMutability": "nonpayable",
      "type": "function"
    },
    {
      "inputs": [
        {
          "internalType": "address",
          "name": "newOwner",
          "type": "address"
        }
      ],
      "name": "transferOwnership",
      "outputs": [],
      "stateMutability": "nonpayable",
      "type": "function"
    },
    {
      "inputs": [
        {
          "internalType": "uint256",
          "name": "_campaignId",
          "type": "uint256"
        },
        {
          "internalType": "string",
          "name": "_title",
          "type": "string"
        },
        {
          "internalType": "string",
          "name": "_description",
          "type": "string"
        },
        {
          "internalType": "string",
          "name": "_dataRequirements",
          "type": "string"
        },
        {
          "internalType": "string[]",
          "name": "_qualityCriteria",
          "type": "string[]"
        },
        {
          "internalType": "uint256",
          "name": "_expiration",
          "type": "uint256"
        },
        {
          "internalType": "string",
          "name": "_metadataURI",
          "type": "string"
        },
        {
          "internalType": "string",
          "name": "_encryptionPublicKey",
          "type": "string"
        }
      ],
      "name": "updateCampaign",
      "outputs": [],
      "stateMutability": "nonpayable",
      "type": "function"
    },
    {
      "inputs": [
        {
          "internalType": "address",
          "name": "",
          "type": "address"
        }
      ],
      "name": "usernameEditCount",
      "outputs": [
        {
          "internalType": "uint256",
          "name": "",
          "type": "uint256"
        }
      ],
      "stateMutability": "view",
      "type": "function"
    },
    {
      "inputs": [
        {
          "internalType": "string",
          "name": "",
          "type": "string"
        }
      ],
      "name": "usernameExists",
      "outputs": [
        {
          "internalType": "bool",
          "name": "",
          "type": "bool"
        }
      ],
      "stateMutability": "view",
      "type": "function"
    },
    {
      "inputs": [
        {
          "internalType": "address",
          "name": "",
          "type": "address"
        }
      ],
      "name": "usernames",
      "outputs": [
        {
          "internalType": "string",
          "name": "",
          "type": "string"
        }
      ],
      "stateMutability": "view",
      "type": "function"
    }
  ],
  "bytecode": "0x60803460bf57601f61410738819003918201601f19168301916001600160401b0383118484101760c45780849260209460405283398101031260bf57516001600160a01b0381169081900360bf5760008054336001600160a01b0319821681178355604051939290916001600160a01b0316907f8be0079c531659141344cd1fd0a4f28419497f9722a3daafe3b4186f6b6457e09080a36001805560fa601155601080546001600160a01b03191691909117905561402c90816100db8239f35b600080fd5b634e487b7160e01b600052604160045260246000fdfe610120604052600436101561001357600080fd5b60003560e01c806307810ae4146136c457806311c2ccc0146104a3578063141961bc146134fb57806315a92c5e146134b75780631c34212c146134995780631c9c9021146133e95780631cd896c1146133ce5780631e93945a1461337b578063285bc8d114610c2a5780632959195a14612af85780633e1d72c8146129325780633e8416ba146128f657806345598b4a14612752578063474e1a6f14610bd4578063493f17261461266c57806351e700cc1461237557806361e448cd1461233957806364c0e52f146122fd5780636c19e0041461229b5780636caa9218146122765780636cb0b50e14612258578063715018a6146121ff5780637274e30d146121e15780637b71f722146121955780637cf249df14611ed45780637eca30fe14611e015780638da5cb5b14611dd8578063a54864f114610cbd578063a56a275914610c64578063a734cbfd14610c2a578063a92e528814610c0e578063b388e16214610bd4578063b6a7a7d914610b9a578063b863191d14610b4c578063bd3c383214610b03578063c362b15614610a89578063cc22462c14610a4d578063ce43c032146104dd578063d599ba92146109e1578063d993de6214610842578063de04bbd214610819578063e42a96e7146107f0578063ed59313a14610589578063ee7cfc761461052f578063ee91877c146104dd578063f2f09ab7146104a3578063f2fde38b146103dc578063f309e3f91461037b578063f42375b51461030f578063f7c618c1146102e65763fdd950c11461024e57600080fd5b346102e15760203660031901126102e15760043561026a613f9e565b6103e881116102a4576020817f4a9456f0774fa7a6d15eeda6dd6c6a8ecda076eb0de34d87d5fce89bea38fc9692601155604051908152a1005b60405162461bcd60e51b81526020600482015260156024820152744665652063616e6e6f74206578636565642031302560581b6044820152606490fd5b600080fd5b346102e15760003660031901126102e1576010546040516001600160a01b039091168152602090f35b346102e15760203660031901126102e1577f3e3f3fc86f427db78be526abf54fdc5b307047dc0384650b4090d5a797267c58602061034b613764565b610353613f9e565b600f80546001600160a01b0319166001600160a01b03929092169182179055604051908152a1005b346102e15760203660031901126102e1576004356001600160401b0381116102e15760ff6103c660206103b381943690600401613917565b8160405193828580945193849201613895565b8101600d81520301902054166040519015158152f35b346102e15760203660031901126102e1576103f5613764565b6103fd613f9e565b6001600160a01b0316801561044f57600080546001600160a01b03198116831782556001600160a01b0316907f8be0079c531659141344cd1fd0a4f28419497f9722a3daafe3b4186f6b6457e09080a3005b60405162461bcd60e51b815260206004820152602660248201527f4f776e61626c653a206e6577206f776e657220697320746865207a65726f206160448201526564647265737360d01b6064820152608490fd5b346102e15760203660031901126102e1576001600160a01b036104c4613764565b16600052600c6020526020604060002054604051908152f35b346102e15760203660031901126102e1576001600160a01b036104fe613764565b16600052600b60205261052b61051760406000206137f1565b6040519182916020835260208301906138b8565b0390f35b346102e15760403660031901126102e1576004356024356001600160a01b038116908190036102e1576020916105686002548210613bf3565b6000526004825260018060a01b036002604060002001541614604051908152f35b346102e15760203660031901126102e1576004356001600160401b0381116102e1576105b9903690600401613917565b6105c581511515613eb3565b6105d3602082511115613eff565b33600052600b6020526105ea60406000205461377a565b6107b45760405161061d60ff8351926020818187019561060b818389613895565b8101600d815203019020541615613f3f565b33600052600b602052604060002082516001600160401b03811161079e57610645825461377a565b601f8111610761575b506020601f82116001146106f657916106858261069995936020956000916106eb575b508160011b916000199060031b1c19161790565b90555b604051809381928651928391613895565b8101600d815203019020600160ff198254161790557f74d8e560d2e870c35b35dc882df2a5c96e2bf1cdb5ef6dd2f9cb433c8d04885360405160208152806106e6339460208301906138b8565b0390a2005b905087015188610671565b601f1982169083600052806000209160005b8181106107495750926020949260019282610699989610610730575b5050811b019055610688565b88015160001960f88460031b161c191690558780610724565b9192602060018192868b015181550194019201610708565b61078e90836000526020600020601f840160051c81019160208510610794575b601f0160051c0190613de7565b8461064e565b9091508190610781565b634e487b7160e01b600052604160045260246000fd5b60405162461bcd60e51b8152602060048201526014602482015273155cd95c9b985b5948185b1c9958591e481cd95d60621b6044820152606490fd5b346102e15760003660031901126102e157600f546040516001600160a01b039091168152602090f35b346102e15760003660031901126102e157600e546040516001600160a01b039091168152602090f35b346102e15760203660031901126102e15760043561085e613dfe565b5061086c6002548210613bf3565b60005260046020526040600020604051610885816137b4565b81548152610895600183016137f1565b602082015260028201546001600160a01b031660408201526108b9600383016137f1565b60608201526108ca600483016137f1565b60808201526108db600583016137f1565b60a08201526006820180546108ef8161396d565b916108fd60405193846137d0565b818352602083019060005260206000206000915b8383106109c45761052b866012898860c0840152600781015460e084015260088101546101008401526009810154610120840152600a810154610140840152600b810154610160840152600c810154610180840152600d8101546101a084015260ff600e8201541615156101c084015261098d600f82016137f1565b6101e084015260108101546102008401526109aa601182016137f1565b610220840152015461024082015260405191829182613a02565b6001602081926109d3856137f1565b815201920192019190610911565b346102e15760203660031901126102e1577f7b831657bf556e81a1356cc284f90402807c6629f2ce4362e64538ce916394396020610a1d613764565b610a25613f9e565b600e80546001600160a01b0319166001600160a01b03929092169182179055604051908152a1005b346102e15760203660031901126102e157600435610a6e6002548210613bf3565b600052600460205261052b61051760116040600020016137f1565b346102e15760003660031901126102e157610aa5600354613c3f565b6002546000805b828110610ac1576040518061052b86826138dd565b80600052600460205260ff600e6040600020015416610ae3575b600101610aac565b90610afb8183610af560019488613c71565b52613c85565b919050610adb565b346102e15760203660031901126102e1576004356001600160401b0381116102e157610b3960206103b381933690600401613917565b8101600681520301902054604051908152f35b346102e15760203660031901126102e1576004356001600160401b0381116102e15760ff610b8460206103b381943690600401613917565b8101600581520301902054166040519015158152f35b346102e15760203660031901126102e1576001600160a01b03610bbb613764565b1660005260086020526020604060002054604051908152f35b346102e15760203660031901126102e1576001600160a01b03610bf5613764565b16600052600a6020526020604060002054604051908152f35b346102e15760003660031901126102e157602060405160028152f35b346102e15760203660031901126102e1576001600160a01b03610c4b613764565b1660005260096020526020604060002054604051908152f35b346102e15760403660031901126102e157610c7d613764565b6001600160a01b03166000908152600760205260409020805460243591908210156102e157602091610cae91613b9f565b90549060031b1c604051908152f35b346102e15760203660031901126102e1576004356001600160401b0381116102e1576101c060031982360301126102e157604051906101c082018281106001600160401b0382111761079e5760405280600401356001600160401b0381116102e157610d2f9060043691840101613917565b825260248101356001600160401b0381116102e157610d549060043691840101613917565b602083015260448101356001600160401b0381116102e157610d7c9060043691840101613917565b604083015260648101356001600160401b0381116102e157610da49060043691840101613917565b606083015260848101356001600160401b0381116102e157610dcc9060043691840101613984565b608083015260a481013560a083015260c481013560c083015260e481013560e08301526101048101356101008301526101248101356101208301526101448101356001600160401b0381116102e157610e2b9060043691840101613917565b6101408301526101608201906101648101358252610184810135906001600160401b0382116102e157610e676101a49260043691840101613917565b61018085015201356101a0830152600260015414611d935760026001556101208201516101008301511015611d425760c082015115611cfd5760a082015115611cae576101808201515115611c695781515115611c195760ff610eca8351613bcd565b5416611bca576101a082015115611b755760646101a083015111611b2557518015611b1c575b6103e88111611ad75760c0820151601054600f546040516323b872dd60e01b81523360048201526001600160a01b039182166024820152604481019390935260209183916064918391600091165af1908115611acb57600091611a9c575b5015611a5f57600254809183805191602082015160408301516060840151608085015160a086015160c08701519060e088015192610100890151946101208a0151966101408b0151986101808c01519b6101a001519c6040519e8f90610fb3826137b4565b8152602001528d3360408201526060015260808d015260a08c015260c08b015260e08a0152806101008a01526101208901526101408801526101608701600090526101808701526101a08601526101c08501600190526101e08501526102008401526102208301526102408201528160005260046020526040600020908051825560208101518051906001600160401b03821161079e57611057600185015461377a565b601f8111611a2a575b50602090601f83116001146119b9576110929291600091836117bc575b50508160011b916000199060031b1c19161790565b60018301555b6002820160018060a01b036040830151166bffffffffffffffffffffffff60a01b82541617905560608101518051906001600160401b03821161079e576110e2600385015461377a565b601f8111611984575b50602090601f83116001146119135761111c9291600091836117bc5750508160011b916000199060031b1c19161790565b60038301555b60808101518051906001600160401b03821161079e57611145600485015461377a565b601f81116118de575b50602090601f831160011461186d5761117f9291600091836117bc5750508160011b916000199060031b1c19161790565b60048301555b60a08101518051906001600160401b03821161079e576111a8600585015461377a565b601f8111611838575b50602090601f83116001146117c7576111e29291600091836117bc5750508160011b916000199060031b1c19161790565b60058301555b6006820160c0820151805190600160401b821161079e57825482845580831061173e575b50602001916000526020600020916000905b828210611626575050505060e0810151600783015561010081015160088301556101208101516009830155610140810151600a830155610160810151600b830155610180810151600c8301556101a0810151600d830155600e82016101c0820151151560ff80198354169116179055600f82016101e08201518051906001600160401b03821161079e576112b2835461377a565b601f81116115f4575b50602090601f831160011461158d576112ec9291600091836115825750508160011b916000199060031b1c19161790565b90555b6102008101516010830155601182016102208201518051906001600160401b03821161079e5761131f835461377a565b601f8111611550575b50602090601f83116001146114e25782601295936102409593611361936000926114d75750508160011b916000199060031b1c19161790565b90555b01519101556113738251613bcd565b600160ff1982541617905580611399602084518160405193828580945193849201613895565b81016006815203019020556113af600254613c85565b6002556113bd600354613c85565b600355336000526007602052604060002091825492600160401b84101561079e57836113f0916001602096018155613b9f565b81549060031b9084821b91600019901b19161790553360005260088352604060002061141c8154613c85565b905560c0810151336000526009845261143b6040600020918254613f91565b9055817f8d8a0ba1b7900a22437ee5041b51364efd2ea462cd602b640d3a1cc1eacc999061149c83516114c8878601519560c0810151906101008101516114a96101406101208401519301519960405197889760c0895260c08901906138b8565b908782038e8901526138b8565b9260408601526060850152608084015282810360a084015233966138b8565b0390a360018055604051908152f35b015190508a8061107d565b90601f1983169184600052816000209260005b81811061153857509260019285926012989661024098961061151f575b505050811b019055611364565b015160001960f88460031b161c19169055898080611512565b929360206001819287860151815501950193016114f5565b61157c90846000526020600020601f850160051c8101916020861061079457601f0160051c0190613de7565b87611328565b01519050888061107d565b90601f1983169184600052816000209260005b8181106115dc57509084600195949392106115c3575b505050811b0190556112ef565b015160001960f88460031b161c191690558780806115b6565b929360206001819287860151815501950193016115a0565b61162090846000526020600020601f850160051c8101916020861061079457601f0160051c0190613de7565b876112bb565b80518051906001600160401b03821161079e57611643865461377a565b601f811161170c575b50602090601f831160011461169f5792611685836001959460209487966000926116945750508160011b916000199060031b1c19161790565b87555b0194019101909261121e565b015190508e8061107d565b90601f1983169187600052816000209260005b8181106116f457509360209360019693879693838895106116db575b505050811b018755611688565b015160001960f88460031b161c191690558d80806116ce565b929360206001819287860151815501950193016116b2565b61173890876000526020600020601f850160051c8101916020861061079457601f0160051c0190613de7565b8a61164c565b8360005282602060002091820191015b81811061175b575061120c565b806117686001925461377a565b80611775575b500161174e565b601f8111831461178b5750600081555b8a61176e565b6117a9908260005283601f6020600020920160051c82019101613de7565b8060005260006020812081835555611785565b01519050878061107d565b91906005850160005280600020906000935b601f198416851061181d576001945083601f19811610611804575b505050811b0160058301556111e8565b015160001960f88460031b161c191690558680806117f4565b818101518355602094850194600190930192909101906117d9565b61186790600586016000526020600020601f850160051c8101916020861061079457601f0160051c0190613de7565b866111b1565b91906004850160005280600020906000935b601f19841685106118c3576001945083601f198116106118aa575b505050811b016004830155611185565b015160001960f88460031b161c1916905586808061189a565b8181015183556020948501946001909301929091019061187f565b61190d90600486016000526020600020601f850160051c8101916020861061079457601f0160051c0190613de7565b8661114e565b91906003850160005280600020906000935b601f1984168510611969576001945083601f19811610611950575b505050811b016003830155611122565b015160001960f88460031b161c19169055868080611940565b81810151835560209485019460019093019290910190611925565b6119b390600386016000526020600020601f850160051c8101916020861061079457601f0160051c0190613de7565b866110eb565b91906001850160005280600020906000935b601f1984168510611a0f576001945083601f198116106119f6575b505050811b016001830155611098565b015160001960f88460031b161c191690558680806119e6565b818101518355602094850194600190930192909101906119cb565b611a5990600186016000526020600020601f850160051c8101916020861061079457601f0160051c0190613de7565b86611060565b60405162461bcd60e51b8152602060048201526015602482015274151bdad95b881d1c985b9cd9995c8819985a5b1959605a1b6044820152606490fd5b611abe915060203d602011611ac4575b611ab681836137d0565b810190613e8e565b83610f4e565b503d611aac565b6040513d6000823e3d90fd5b60405162461bcd60e51b815260206004820152601e60248201527f506c6174666f726d206665652063616e6e6f74206578636565642031302500006044820152606490fd5b50601154610ef0565b60405162461bcd60e51b815260206004820152602260248201527f526577617264207468726573686f6c642063616e6e6f74206578636565642031604482015261030360f41b6064820152608490fd5b60405162461bcd60e51b815260206004820152602760248201527f526577617264207468726573686f6c64206d75737420626520677265617465726044820152660207468616e20360cc1b6064820152608490fd5b60405162461bcd60e51b815260206004820152602160248201527f43616d706169676e20494420737472696e6720616c72656164792065786973746044820152607360f81b6064820152608490fd5b60405162461bcd60e51b815260206004820152602260248201527f43616d706169676e20494420737472696e672063616e6e6f7420626520656d70604482015261747960f01b6064820152608490fd5b60405162461bcd60e51b815260206004820152601a60248201527f5075626c6963206b65792063616e6e6f7420626520656d7074790000000000006044820152606490fd5b60405162461bcd60e51b815260206004820152602160248201527f556e6974207072696365206d7573742062652067726561746572207468616e206044820152600360fc1b6064820152608490fd5b60405162461bcd60e51b815260206004820152601d60248201527f427564676574206d7573742062652067726561746572207468616e20300000006044820152606490fd5b60405162461bcd60e51b815260206004820152602360248201527f45787069726174696f6e206d7573742062652061667465722073746172742074604482015262696d6560e81b6064820152608490fd5b60405162461bcd60e51b815260206004820152601f60248201527f5265656e7472616e637947756172643a207265656e7472616e742063616c6c006044820152606490fd5b346102e15760003660031901126102e1576000546040516001600160a01b039091168152602090f35b346102e15760203660031901126102e157600435611e226002548210613bf3565b806000526004602052611e4660018060a01b03600260406000200154163314613d00565b806000526004602052600e604060002001805460ff811615611e8f5760ff191690557fa8ad368de07a46b4c9632fee456e1227f02e971f82939d68bd4696b2e378dfa7600080a2005b60405162461bcd60e51b815260206004820152601c60248201527f43616d706169676e20697320616c726561647920696e616374697665000000006044820152606490fd5b346102e15760203660031901126102e157600e54600435906001600160a01b0316330361213557611f086002548210613bf3565b8060005260046020526040600020600e810191611f2860ff845416613d61565b600c82015442106120f057611f43600d830154421115613da6565b600b820191825493600a82019384548610156120ab57600983019485549560078501968754908181106120665781611f8791611f8060209c613c85565b8755613f84565b825532600052600a8952611fa16040600020918254613f91565b90558654906040518281527f8565ff6669c04439af2c80b16abe9af84f3442c16849ae6b1eb657cb268bf4db8a3292a25410918215612058575b5050611fee575b50505054604051908152f35b60ff198154169055612001600354613ea6565b600355600201546001600160a01b031660009081526008845260409020805461202990613ea6565b90557fa8ad368de07a46b4c9632fee456e1227f02e971f82939d68bd4696b2e378dfa7600080a2828080611fe2565b549054111590508680611fdb565b60405162461bcd60e51b815260206004820152601c60248201527f496e73756666696369656e742063616d706169676e20627564676574000000006044820152606490fd5b60405162461bcd60e51b815260206004820152601760248201527f4d6178207375626d697373696f6e7320726561636865640000000000000000006044820152606490fd5b60405162461bcd60e51b815260206004820152601860248201527f43616d706169676e20686173206e6f74207374617274656400000000000000006044820152606490fd5b60405162461bcd60e51b815260206004820152603260248201527f4f6e6c7920636f6e747269627574696f6e7320636f6e74726163742063616e2060448201527131b0b636103a3434b990333ab731ba34b7b760711b6064820152608490fd5b346102e15760203660031901126102e15760406001600160a01b036121b8613764565b168060005260076020528160002054906000526008602052816000205482519182526020820152f35b346102e15760003660031901126102e1576020600254604051908152f35b346102e15760003660031901126102e157612218613f9e565b600080546001600160a01b0319811682556001600160a01b03167f8be0079c531659141344cd1fd0a4f28419497f9722a3daafe3b4186f6b6457e08280a3005b346102e15760003660031901126102e1576020600354604051908152f35b346102e15760003660031901126102e157604060025460035482519182526020820152f35b346102e15760203660031901126102e1576004356122bc6002548210613bf3565b600052600460205260606040600020600a6122e860ff600e8401541692600b8101549283910154613f84565b90604051921515835260208301526040820152f35b346102e15760203660031901126102e15760043561231e6002548210613bf3565b60005260046020526020600760406000200154604051908152f35b346102e15760203660031901126102e15760043561235a6002548210613bf3565b60005260046020526020601260406000200154604051908152f35b346102e15760203660031901126102e1576004356001600160401b0381116102e1576123a5903690600401613917565b6123b181511515613eb3565b6123bf602082511115613eff565b33600052600b6020526123d660406000205461377a565b15612635576040516123f860ff8351926020818187019561060b818389613895565b33600052600c602052600260406000205410156125fc5733600052600b602052612462602061242a60406000206137f1565b926040518281865161243f8183858b01613895565b8101600d81520301902060ff198154169055604051809381928751928391613895565b8101600d815203019020600160ff1982541617905533600052600b602052604060002082516001600160401b03811161079e5761249f825461377a565b601f81116125ca575b506020601f821160011461254057916124fd827f03cf3e8d8cbb3bb53f66bc49633dba574bf96da8ae4e488cdacbe87b5d6196e89593612531956000916106eb57508160011b916000199060031b1c19161790565b90555b33600052600c60205260406000206125188154613c85565b90556106e66040519283926040845260408401906138b8565b828103602084015233956138b8565b601f1982169083600052806000209160005b8181106125b25750926125319492600192827f03cf3e8d8cbb3bb53f66bc49633dba574bf96da8ae4e488cdacbe87b5d6196e8989610612599575b5050811b019055612500565b88015160001960f88460031b161c19169055878061258d565b9192602060018192868b015181550194019201612552565b6125f690836000526020600020601f840160051c8101916020851061079457601f0160051c0190613de7565b846124a8565b60405162461bcd60e51b815260206004820152601160248201527013585e0819591a5d1cc81c995858da1959607a1b6044820152606490fd5b60405162461bcd60e51b815260206004820152600f60248201526e139bc81d5cd95c9b985b59481cd95d608a1b6044820152606490fd5b346102e15760203660031901126102e15760043561268d6002548210613bf3565b8060005260046020526126b160018060a01b03600260406000200154163314613d00565b8060005260046020526040600020600e810190815460ff811661270d576126df600d60019301544210613da6565b60ff19161790557f141c887329aaf008f79cc3613bdf4b305d54d2f381909f35518966b3d6a79d56600080a2005b60405162461bcd60e51b815260206004820152601a60248201527f43616d706169676e20697320616c7265616479206163746976650000000000006044820152606490fd5b346102e15760203660031901126102e1576004356127736002548210613bf3565b80600052600460205261279760018060a01b03600260406000200154163314613d00565b806000526004602052604060002090600e820180546127b860ff8216613d61565b60ff191690556009820180549081612804575b836127d7600354613ea6565b600355600201546001600160a01b03166000908152600860205260409020805461280090613ea6565b9055005b600090819055601054600f5460028601546040516323b872dd60e01b81526001600160a01b03928316600482015290821660248201526044810185905292602092849260649284929091165af1908115611acb576000916128d7575b50156128995760207f36acd1dcb6f0ee33dd3de4e8247261b42637734a3841c141a5e17acd37ef584591604051908152a28180806127cb565b60405162461bcd60e51b81526020600482015260166024820152751499599d5b99081d1c985b9cd9995c8819985a5b195960521b6044820152606490fd5b6128f0915060203d602011611ac457611ab681836137d0565b84612860565b346102e15760203660031901126102e1576004356129176002548210613bf3565b60005260046020526020600960406000200154604051908152f35b346102e15760203660031901126102e1576004356001600160401b0381116102e15760206129676129af923690600401613917565b61296f613dfe565b506040519061299e60ff82519385818186019661298d81838a613895565b810160058152030190205416613caa565b604051938492839251928391613895565b8101600681520301902054600052600460205260406000206040516129d3816137b4565b815481526129e3600183016137f1565b602082015260028201546001600160a01b03166040820152612a07600383016137f1565b6060820152612a18600483016137f1565b6080820152612a29600583016137f1565b60a0820152600682018054612a3d8161396d565b91612a4b60405193846137d0565b818352602083019060005260206000206000915b838310612adb5761052b866012898860c0840152600781015460e084015260088101546101008401526009810154610120840152600a810154610140840152600b810154610160840152600c810154610180840152600d8101546101a084015260ff600e8201541615156101c084015261098d600f82016137f1565b600160208192612aea856137f1565b815201920192019190612a5f565b346102e1576101003660031901126102e1576004356024356001600160401b0381116102e157612b2c903690600401613917565b906044356001600160401b0381116102e157612b4c903690600401613917565b6064356001600160401b0381116102e157612b6b903690600401613917565b926084356001600160401b0381116102e157612b8b903690600401613984565b9060a4359060c4356001600160401b0381116102e157612baf903690600401613917565b9260e4356001600160401b0381116102e157612bcf903690600401613917565b96612bdd6002548810613bf3565b866000526004602052612c0160018060a01b03600260406000200154163314613d00565b866000526004602052604060002095612c2060ff600e89015416613d61565b600d870193612c3185544210613da6565b4286111561333757805160038901916001600160401b03821161079e57612c58835461377a565b601f8111613305575b50602090601f831160011461329e57612c929291600091836132935750508160011b916000199060031b1c19161790565b90555b805160048801916001600160401b03821161079e57612cb4835461377a565b601f8111613261575b50602090601f83116001146131fa57612cee9291600091836131ef5750508160011b916000199060031b1c19161790565b90555b805160058701916001600160401b03821161079e57612d10835461377a565b601f81116131bd575b50602090601f831160011461315657612d4a92916000918361314b5750508160011b916000199060031b1c19161790565b90555b80516006860191600160401b821161079e5782548284558083106130cd575b50602001916000526020600020916000905b828210612fb5575050505055600f8201908051906001600160401b03821161079e57612daa835461377a565b601f8111612f83575b50602090601f8311600114612f1c57612de49291600091836117bc5750508160011b916000199060031b1c19161790565b90555b82519081612e18575b827feb99199fa768b75351d1d205616eb313e8775bf75ad483f1a9c5dc947d9aa105600080a2005b601101906001600160401b03811161079e57612e34825461377a565b601f8111612eea575b506020601f8211600114612e85578190612e6f939495600092612e7a5750508160011b916000199060031b1c19161790565b90555b808280612df0565b01519050858061107d565b601f1982169083600052806000209160005b818110612ed257509583600195969710612eb9575b505050811b019055612e72565b015160001960f88460031b161c19169055848080612eac565b9192602060018192868b015181550194019201612e97565b612f1690836000526020600020601f840160051c8101916020851061079457601f0160051c0190613de7565b84612e3d565b90601f1983169184600052816000209260005b818110612f6b5750908460019594939210612f52575b505050811b019055612de7565b015160001960f88460031b161c19169055868080612f45565b92936020600181928786015181550195019301612f2f565b612faf90846000526020600020601f850160051c8101916020861061079457601f0160051c0190613de7565b86612db3565b80518051906001600160401b03821161079e57612fd2865461377a565b601f811161309b575b50602090601f831160011461302e5792613014836001959460209487966000926130235750508160011b916000199060031b1c19161790565b87555b01940191019092612d7e565b01519050388061107d565b90601f1983169187600052816000209260005b818110613083575093602093600196938796938388951061306a575b505050811b018755613017565b015160001960f88460031b161c191690558f808061305d565b92936020600181928786015181550195019301613041565b6130c790876000526020600020601f850160051c8101916020861061079457601f0160051c0190613de7565b8c612fdb565b8360005282602060002091820191015b8181106130ea5750612d6c565b806130f76001925461377a565b80613104575b50016130dd565b601f8111831461311a5750600081555b8c6130fd565b613138908260005283601f6020600020920160051c82019101613de7565b8060005260006020812081835555613114565b015190508b8061107d565b90601f1983169184600052816000209260005b8181106131a5575090846001959493921061318c575b505050811b019055612d4d565b015160001960f88460031b161c191690558a808061317f565b92936020600181928786015181550195019301613169565b6131e990846000526020600020601f850160051c8101916020861061079457601f0160051c0190613de7565b8a612d19565b015190508c8061107d565b90601f1983169184600052816000209260005b8181106132495750908460019594939210613230575b505050811b019055612cf1565b015160001960f88460031b161c191690558b8080613223565b9293602060018192878601518155019501930161320d565b61328d90846000526020600020601f850160051c8101916020861061079457601f0160051c0190613de7565b8b612cbd565b015190508d8061107d565b90601f1983169184600052816000209260005b8181106132ed57509084600195949392106132d4575b505050811b019055612c95565b015160001960f88460031b161c191690558c80806132c7565b929360206001819287860151815501950193016132b1565b61333190846000526020600020601f850160051c8101916020861061079457601f0160051c0190613de7565b8c612c61565b606460405162461bcd60e51b815260206004820152602060248201527f45787069726174696f6e206d75737420626520696e20746865206675747572656044820152fd5b346102e15760203660031901126102e1576004356001600160401b0381116102e157610b3960206133b181933690600401613917565b6040519061299e60ff82519385818186019661298d81838a613895565b346102e15760003660031901126102e1576020604051818152f35b346102e15760203660031901126102e1576001600160a01b0361340a613764565b16806000526008602052613422604060002054613c3f565b60009182526007602052604082208054919290815b83811061344c576040518061052b87826138dd565b6134568183613b9f565b90549060031b1c80600052600460205260ff600e6040600020015416613480575b50600101613437565b8361349291610af56001949689613c71565b9290613477565b346102e15760003660031901126102e1576020601154604051908152f35b346102e15760203660031901126102e1576004356134d86002548210613bf3565b6000526004602052602060018060a01b0360026040600020015416604051908152f35b346102e15760203660031901126102e157600435600052600460205260406000208054610100528060018101613530906137f1565b60028201546001600160a01b031660e05261354d600383016137f1565b9061355a600484016137f1565b91613567600585016137f1565b9260078501549360088601546009870154600a88015491600b89015493600c8a015495600d8b015497600e8c015460ff1699600f8d016135a6906137f1565b9c601001549d601181016135b9906137f1565b6080526012015460a05260405160c0526101005160c0515260c051602001610240905260c051610240016135ec916138b8565b60e05160c0516040015260c051810360c0516060015261360b916138b8565b60c051810360c05160800152613620916138b8565b60c051810360c05160a00152613635916138b8565b9760c05160c0015260c05160e0015260c051610100015260c051610120015260c051610140015260c051610160015260c0516101800152151560c0516101a0015260c051810360c0516101c0015261368c916138b8565b9060c0516101e0015260c051810360c0516102000152608051906136af916138b8565b60a05160c051610220015260c051900360c051f35b346102e15760203660031901126102e1576004356136e56002548210613bf3565b60005260046020526020604060002060ff600e820154169081613755575b81613746575b81613734575b81613720575b506040519015158152f35b905060076009820154910154111582613715565b600b810154600a82015411915061370f565b600d8101544211159150613709565b600c8101544210159150613703565b600435906001600160a01b03821682036102e157565b90600182811c921680156137aa575b602083101461379457565b634e487b7160e01b600052602260045260246000fd5b91607f1691613789565b61026081019081106001600160401b0382111761079e57604052565b90601f801991011681019081106001600160401b0382111761079e57604052565b90604051918260008254926138058461377a565b8084529360018116908115613873575060011461382c575b5061382a925003836137d0565b565b90506000929192526020600020906000915b81831061385757505090602061382a928201013861381d565b602091935080600191548385890101520191019091849261383e565b90506020925061382a94915060ff191682840152151560051b8201013861381d565b60005b8381106138a85750506000910152565b8181015183820152602001613898565b906020916138d181518092818552858086019101613895565b601f01601f1916010190565b602060408183019282815284518094520192019060005b8181106139015750505090565b82518452602093840193909201916001016138f4565b81601f820112156102e1578035906001600160401b03821161079e576040519261394b601f8401601f1916602001856137d0565b828452602083830101116102e157816000926020809301838601378301015290565b6001600160401b03811161079e5760051b60200190565b9080601f830112156102e157813561399b8161396d565b926139a960405194856137d0565b81845260208085019260051b820101918383116102e15760208201905b8382106139d557505050505090565b81356001600160401b0381116102e1576020916139f787848094880101613917565b8152019101906139c6565b6020815281516020820152613a88613a72613a5c613a31602086015161026060408701526102808601906138b8565b60408601516001600160a01b0316606086810191909152860151858203601f190160808701526138b8565b6080850151848203601f190160a08601526138b8565b60a0840151838203601f190160c08501526138b8565b60c083015190601f198382030160e0840152815180825260208201916020808360051b8301019401926000915b838310613b72575050505050610240613b69613b476102609360e08701516101008701526101008701516101208701526101208701516101408701526101408701516101608701526101608701516101808701526101808701516101a08701526101a08701516101c08701526101c087015115156101e08701526101e0870151601f19878303016102008801526138b8565b610200860151610220860152610220860151601f1986830301848701526138b8565b93015191015290565b9091929394602080613b90600193601f1986820301875289516138b8565b97019301930191939290613ab5565b8054821015613bb75760005260206000200190600090565b634e487b7160e01b600052603260045260246000fd5b6020613be6918160405193828580945193849201613895565b8101600581520301902090565b15613bfa57565b60405162461bcd60e51b815260206004820152601760248201527f43616d706169676e20646f6573206e6f742065786973740000000000000000006044820152606490fd5b90613c498261396d565b613c5660405191826137d0565b8281528092613c67601f199161396d565b0190602036910137565b8051821015613bb75760209160051b010190565b6000198114613c945760010190565b634e487b7160e01b600052601160045260246000fd5b15613cb157565b60405162461bcd60e51b815260206004820152602160248201527f43616d706169676e20494420737472696e6720646f6573206e6f7420657869736044820152601d60fa1b6064820152608490fd5b15613d0757565b60405162461bcd60e51b815260206004820152602c60248201527f4f6e6c792063616d706169676e2063726561746f722063616e2063616c6c207460448201526b3434b990333ab731ba34b7b760a11b6064820152608490fd5b15613d6857565b60405162461bcd60e51b815260206004820152601660248201527543616d706169676e206973206e6f742061637469766560501b6044820152606490fd5b15613dad57565b60405162461bcd60e51b815260206004820152601260248201527110d85b5c185a59db881a185cc8195b99195960721b6044820152606490fd5b818110613df2575050565b60008155600101613de7565b60405190613e0b826137b4565b6000610240838281526060602082015282604082015260608082015260606080820152606060a0820152606060c08201528260e08201528261010082015282610120820152826101408201528261016082015282610180820152826101a0820152826101c082015260606101e08201528261020082015260606102208201520152565b908160209103126102e1575180151581036102e15790565b8015613c94576000190190565b15613eba57565b60405162461bcd60e51b815260206004820152601860248201527f557365726e616d652063616e6e6f7420626520656d70747900000000000000006044820152606490fd5b15613f0657565b60405162461bcd60e51b8152602060048201526011602482015270557365726e616d6520746f6f206c6f6e6760781b6044820152606490fd5b15613f4657565b60405162461bcd60e51b81526020600482015260166024820152752ab9b2b93730b6b29030b63932b0b23c903a30b5b2b760511b6044820152606490fd5b91908203918211613c9457565b91908201809211613c9457565b6000546001600160a01b03163303613fb257565b606460405162461bcd60e51b815260206004820152602060248201527f4f776e61626c653a2063616c6c6572206973206e6f7420746865206f776e65726044820152fdfea2646970667358221220a17aed482e8ea8b278e3c120c335cf334076e42a007cea9ed2c39a77ab7bc1d964736f6c634300081c0033",
  "linkReferences": {},
  "deployedLinkReferences": {}
}