{
  "_format": "hh-sol-artifact-1",
  "contractName": "Reputation",
  "sourceName": "contracts/Reputation.sol",
  "abi": [
    {
      "inputs": [],
      "stateMutability": "nonpayable",
      "type": "constructor"
    },
    {
      "anonymous": false,
      "inputs": [
        {
          "indexed": true,
          "internalType": "address",
          "name": "user",
          "type": "address"
        },
        {
          "indexed": true,
          "internalType": "uint256",
          "name": "badgeId",
          "type": "uint256"
        },
        {
          "indexed": false,
          "internalType": "string",
          "name": "badgeName",
          "type": "string"
        }
      ],
      "name": "BadgeAwarded",
      "type": "event"
    },
    {
      "anonymous": false,
      "inputs": [
        {
          "indexed": true,
          "internalType": "uint256",
          "name": "badgeId",
          "type": "uint256"
        },
        {
          "indexed": false,
          "internalType": "string",
          "name": "name",
          "type": "string"
        }
      ],
      "name": "BadgeCreated",
      "type": "event"
    },
    {
      "anonymous": false,
      "inputs": [
        {
          "indexed": true,
          "internalType": "address",
          "name": "user",
          "type": "address"
        },
        {
          "indexed": false,
          "internalType": "uint256",
          "name": "newTotal",
          "type": "uint256"
        }
      ],
      "name": "CampaignContributionRecorded",
      "type": "event"
    },
    {
      "anonymous": false,
      "inputs": [
        {
          "indexed": true,
          "internalType": "address",
          "name": "user",
          "type": "address"
        },
        {
          "indexed": false,
          "internalType": "uint256",
          "name": "newTotal",
          "type": "uint256"
        }
      ],
      "name": "ContributionRecorded",
      "type": "event"
    },
    {
      "anonymous": false,
      "inputs": [
        {
          "indexed": true,
          "internalType": "address",
          "name": "previousOwner",
          "type": "address"
        },
        {
          "indexed": true,
          "internalType": "address",
          "name": "newOwner",
          "type": "address"
        }
      ],
      "name": "OwnershipTransferred",
      "type": "event"
    },
    {
      "anonymous": false,
      "inputs": [
        {
          "indexed": true,
          "internalType": "address",
          "name": "user",
          "type": "address"
        },
        {
          "indexed": false,
          "internalType": "uint256",
          "name": "newTotal",
          "type": "uint256"
        }
      ],
      "name": "PaymentRecorded",
      "type": "event"
    },
    {
      "anonymous": false,
      "inputs": [
        {
          "indexed": true,
          "internalType": "address",
          "name": "user",
          "type": "address"
        },
        {
          "indexed": false,
          "internalType": "int256",
          "name": "change",
          "type": "int256"
        },
        {
          "indexed": false,
          "internalType": "uint256",
          "name": "newScore",
          "type": "uint256"
        }
      ],
      "name": "ReputationChanged",
      "type": "event"
    },
    {
      "anonymous": false,
      "inputs": [
        {
          "indexed": true,
          "internalType": "address",
          "name": "user",
          "type": "address"
        }
      ],
      "name": "ReputationStoreCreated",
      "type": "event"
    },
    {
      "inputs": [],
      "name": "BASE_CAMPAIGN_CONTRIBUTION_POINTS",
      "outputs": [
        {
          "internalType": "uint256",
          "name": "",
          "type": "uint256"
        }
      ],
      "stateMutability": "view",
      "type": "function"
    },
    {
      "inputs": [],
      "name": "BASE_CONTRIBUTION_POINTS",
      "outputs": [
        {
          "internalType": "uint256",
          "name": "",
          "type": "uint256"
        }
      ],
      "stateMutability": "view",
      "type": "function"
    },
    {
      "inputs": [],
      "name": "BASE_PAYMENT_POINTS",
      "outputs": [
        {
          "internalType": "uint256",
          "name": "",
          "type": "uint256"
        }
      ],
      "stateMutability": "view",
      "type": "function"
    },
    {
      "inputs": [
        {
          "internalType": "address",
          "name": "_user",
          "type": "address"
        },
        {
          "internalType": "uint256",
          "name": "_points",
          "type": "uint256"
        }
      ],
      "name": "addReputationPoints",
      "outputs": [],
      "stateMutability": "nonpayable",
      "type": "function"
    },
    {
      "inputs": [
        {
          "internalType": "uint256",
          "name": "",
          "type": "uint256"
        }
      ],
      "name": "badges",
      "outputs": [
        {
          "internalType": "string",
          "name": "name",
          "type": "string"
        },
        {
          "internalType": "string",
          "name": "description",
          "type": "string"
        },
        {
          "internalType": "uint256",
          "name": "scoreThreshold",
          "type": "uint256"
        },
        {
          "internalType": "uint256",
          "name": "contributionThreshold",
          "type": "uint256"
        },
        {
          "internalType": "uint256",
          "name": "paymentThreshold",
          "type": "uint256"
        },
        {
          "internalType": "uint256",
          "name": "campaignContributionThreshold",
          "type": "uint256"
        }
      ],
      "stateMutability": "view",
      "type": "function"
    },
    {
      "inputs": [
        {
          "internalType": "address",
          "name": "_user",
          "type": "address"
        }
      ],
      "name": "ensureReputationStoreExists",
      "outputs": [],
      "stateMutability": "nonpayable",
      "type": "function"
    },
    {
      "inputs": [
        {
          "internalType": "address",
          "name": "_user",
          "type": "address"
        }
      ],
      "name": "getBadgeCount",
      "outputs": [
        {
          "internalType": "uint256",
          "name": "",
          "type": "uint256"
        }
      ],
      "stateMutability": "view",
      "type": "function"
    },
    {
      "inputs": [
        {
          "internalType": "address",
          "name": "_user",
          "type": "address"
        }
      ],
      "name": "getBadges",
      "outputs": [
        {
          "internalType": "uint256[]",
          "name": "",
          "type": "uint256[]"
        }
      ],
      "stateMutability": "view",
      "type": "function"
    },
    {
      "inputs": [
        {
          "internalType": "address",
          "name": "_user",
          "type": "address"
        }
      ],
      "name": "getCampaignContributionCount",
      "outputs": [
        {
          "internalType": "uint256",
          "name": "",
          "type": "uint256"
        }
      ],
      "stateMutability": "view",
      "type": "function"
    },
    {
      "inputs": [
        {
          "internalType": "address",
          "name": "_user",
          "type": "address"
        }
      ],
      "name": "getContributionCount",
      "outputs": [
        {
          "internalType": "uint256",
          "name": "",
          "type": "uint256"
        }
      ],
      "stateMutability": "view",
      "type": "function"
    },
    {
      "inputs": [
        {
          "internalType": "address",
          "name": "_user",
          "type": "address"
        }
      ],
      "name": "getReputationScore",
      "outputs": [
        {
          "internalType": "uint256",
          "name": "",
          "type": "uint256"
        }
      ],
      "stateMutability": "view",
      "type": "function"
    },
    {
      "inputs": [
        {
          "internalType": "address",
          "name": "_user",
          "type": "address"
        }
      ],
      "name": "getSuccessfulPayments",
      "outputs": [
        {
          "internalType": "uint256",
          "name": "",
          "type": "uint256"
        }
      ],
      "stateMutability": "view",
      "type": "function"
    },
    {
      "inputs": [
        {
          "internalType": "address",
          "name": "_user",
          "type": "address"
        }
      ],
      "name": "hasReputationStore",
      "outputs": [
        {
          "internalType": "bool",
          "name": "",
          "type": "bool"
        }
      ],
      "stateMutability": "view",
      "type": "function"
    },
    {
      "inputs": [],
      "name": "owner",
      "outputs": [
        {
          "internalType": "address",
          "name": "",
          "type": "address"
        }
      ],
      "stateMutability": "view",
      "type": "function"
    },
    {
      "inputs": [
        {
          "internalType": "address",
          "name": "_campaignCreator",
          "type": "address"
        }
      ],
      "name": "recordSuccessfulCampaignContribution",
      "outputs": [],
      "stateMutability": "nonpayable",
      "type": "function"
    },
    {
      "inputs": [
        {
          "internalType": "address",
          "name": "_user",
          "type": "address"
        }
      ],
      "name": "recordSuccessfulContribution",
      "outputs": [],
      "stateMutability": "nonpayable",
      "type": "function"
    },
    {
      "inputs": [
        {
          "internalType": "address",
          "name": "_user",
          "type": "address"
        }
      ],
      "name": "recordSuccessfulPayment",
      "outputs": [],
      "stateMutability": "nonpayable",
      "type": "function"
    },
    {
      "inputs": [],
      "name": "renounceOwnership",
      "outputs": [],
      "stateMutability": "nonpayable",
      "type": "function"
    },
    {
      "inputs": [
        {
          "internalType": "address",
          "name": "newOwner",
          "type": "address"
        }
      ],
      "name": "transferOwnership",
      "outputs": [],
      "stateMutability": "nonpayable",
      "type": "function"
    }
  ],
  "bytecode": "0x6080604052346116f35760008054336001600160a01b0319821681178355916001600160a01b03909116907f8be0079c531659141344cd1fd0a4f28419497f9722a3daafe3b4186f6b6457e09080a36001805561005c6040611717565b60128152712737bb34b1b29021b7b73a3934b13aba37b960711b60208201526100856040611717565b90601782527f4d61646520666972737420636f6e747269627574696f6e00000000000000000060208301526100b86116f8565b818152602081019283526040810160008152606082016001815260808301906000825260a08401926000845260035468010000000000000000811015610da8576001810180600355811015610e8b576003600052945180516006969096026000805160206124e78339815191520195906001600160401b038211610da857865490600182811c921680156116e9575b6020831014610d885781601f849311611696575b50602090601f831160011461163157600092611626575b50508160011b916000199060031b1c19161785555b9551805190969060018601906001600160401b038111610da8578154600181811c9116801561161c575b6020821014610d8857601f81116115d4575b506020601f821160011461156a578190600598999a60009261155f575b50508160011b916000199060031b1c19161790555b516002860155516003850155516004840155519101556003546000198101908111610cb5576040516020815282519283602083015260005b84811061154957836000805160206124c783398151915284604081896000838284010152601f80199101168101030190a26102686040611717565b601281527120b1ba34bb329021b7b73a3934b13aba37b960711b60208201526102916040611717565b90601582527f4d61646520313020636f6e747269627574696f6e73000000000000000000000060208301526102c46116f8565b81815260208101928352604081016064815260608201600a815260808301906000825260a08401926000845260035468010000000000000000811015610da8576001810180600355811015610e8b576003600052945180516006969096026000805160206124e78339815191520195906001600160401b038211610da857865490600182811c9216801561153f575b6020831014610d885781601f8493116114ec575b50602090601f83116001146114875760009261147c575b50508160011b916000199060031b1c19161785555b9551805190969060018601906001600160401b038111610da8578154600181811c91168015611472575b6020821014610d8857601f811161142a575b506020601f82116001146113c0578190600598999a6000926113b5575b50508160011b916000199060031b1c19161790555b516002860155516003850155516004840155519101556003546000198101908111610cb5576040516020815282519283602083015260005b84811061139f57836000805160206124c783398151915284604081896000838284010152601f80199101168101030190a26104746040611717565b601281527122bc3832b93a1021b7b73a3934b13aba37b960711b602082015261049d6040611717565b90601582527f4d61646520353020636f6e747269627574696f6e73000000000000000000000060208301526104d06116f8565b81815260208101928352604081016101f48152606082016032815260808301906000825260a08401926000845260035468010000000000000000811015610da8576001810180600355811015610e8b576003600052945180516006969096026000805160206124e78339815191520195906001600160401b038211610da857865490600182811c92168015611395575b6020831014610d885781601f849311611342575b50602090601f83116001146112dd576000926112d2575b50508160011b916000199060031b1c19161785555b9551805190969060018601906001600160401b038111610da8578154600181811c911680156112c8575b6020821014610d8857601f8111611280575b506020601f8211600114611216578190600598999a60009261120b575b50508160011b916000199060031b1c19161790555b516002860155516003850155516004840155519101556003546000198101908111610cb5576040516020815282519283602083015260005b8481106111f557836000805160206124c783398151915284604081896000838284010152601f80199101168101030190a26106816040611717565b600e81526d2a393ab9ba32b21026b2b6b132b960911b60208201526106a66040611717565b90601f82527f436f6d706c657465642035207375636365737366756c207061796d656e74730060208301526106d96116f8565b818152602081019283526040810160328152606082016000815260808301906005825260a08401926000845260035468010000000000000000811015610da8576001810180600355811015610e8b576003600052945180516006969096026000805160206124e78339815191520195906001600160401b038211610da857865490600182811c921680156111eb575b6020831014610d885781601f849311611198575b50602090601f831160011461113357600092611128575b50508160011b916000199060031b1c19161785555b9551805190969060018601906001600160401b038111610da8578154600181811c9116801561111e575b6020821014610d8857601f81116110d6575b506020601f821160011461106c578190600598999a600092611061575b50508160011b916000199060031b1c19161790555b516002860155516003850155516004840155519101556003546000198101908111610cb5576040516020815282519283602083015260005b84811061104b57836000805160206124c783398151915284604081896000838284010152601f80199101168101030190a26108896040611717565b600c81526b22b634ba329026b2b6b132b960a11b60208201526108ac6040611717565b90601582527f486967682072657075746174696f6e2073636f7265000000000000000000000060208301526108df6116f8565b81815260208101928352604081016103e88152606082016000815260808301906000825260a08401926000845260035468010000000000000000811015610da8576001810180600355811015610e8b576003600052945180516006969096026000805160206124e78339815191520195906001600160401b038211610da857865490600182811c92168015611041575b6020831014610d885781601f849311610fee575b50602090601f8311600114610f8957600092610f7e575b50508160011b916000199060031b1c19161785555b9551805190969060018601906001600160401b038111610da8578154600181811c91168015610f74575b6020821014610d8857601f8111610f2c575b506020601f8211600114610ec2578190600598999a600092610eb7575b50508160011b916000199060031b1c19161790555b516002860155516003850155516004840155519101556003546000198101908111610cb5576040516020815282519283602083015260005b848110610ea157836000805160206124c783398151915284604081896000838284010152601f80199101168101030190a2610a906040611717565b600f81526e21b0b6b830b4b3b71026b0b9ba32b960891b6020820152610ab66040611717565b90601a82527f52656365697665642031303020636f6e747269627574696f6e730000000000006020830152610ae96116f8565b818152602081019283526040810161012c8152606082016000815260808301906000825260a08401926064845260035468010000000000000000811015610da8576001810180600355811015610e8b576003600052945180516006969096026000805160206124e78339815191520195906001600160401b038211610da857865490600182811c92168015610e81575b6020831014610d885781601f849311610e2e575b50602090601f8311600114610dc957600092610dbe575b50508160011b916000199060031b1c19161785555b9551805190969060018601906001600160401b038111610da8578154600181811c91168015610d9e575b6020821014610d8857601f8111610d40575b506020601f8211600114610cd6578190600598999a600092610ccb575b50508160011b916000199060031b1c19161790555b516002860155516003850155516004840155519101556003546000198101908111610cb5576040516020815282519283602083015260005b848110610c9f57836000805160206124c783398151915284604081896000838284010152601f80199101168101030190a2604051610d8a908161173d8239f35b8060208092840101516040828601015201610c5f565b634e487b7160e01b600052601160045260246000fd5b015190508a80610c12565b601f1982169983600052816000209a60005b818110610d285750916005999a9b91846001959410610d0f575b505050811b019055610c27565b015160001960f88460031b161c191690558a8080610d02565b838301518d556001909c019b60209384019301610ce8565b826000526020600020601f830160051c81019160208410610d7e575b601f0160051c01905b818110610d725750610bf5565b60008155600101610d65565b9091508190610d5c565b634e487b7160e01b600052602260045260246000fd5b90607f1690610be3565b634e487b7160e01b600052604160045260246000fd5b015190508980610ba4565b60008981528281209350601f198516905b818110610e165750908460019594939210610dfd575b505050811b018555610bb9565b015160001960f88460031b161c19169055898080610df0565b92936020600181928786015181550195019301610dda565b909150876000526020600020601f840160051c81019160208510610e77575b90601f859493920160051c01905b818110610e685750610b8d565b60008155849350600101610e5b565b9091508190610e4d565b91607f1691610b79565b634e487b7160e01b600052603260045260246000fd5b8060208092840101516040828601015201610a55565b015190508a80610a08565b601f1982169983600052816000209a60005b818110610f145750916005999a9b91846001959410610efb575b505050811b019055610a1d565b015160001960f88460031b161c191690558a8080610eee565b838301518d556001909c019b60209384019301610ed4565b826000526020600020601f830160051c81019160208410610f6a575b601f0160051c01905b818110610f5e57506109eb565b60008155600101610f51565b9091508190610f48565b90607f16906109d9565b01519050898061099a565b60008981528281209350601f198516905b818110610fd65750908460019594939210610fbd575b505050811b0185556109af565b015160001960f88460031b161c19169055898080610fb0565b92936020600181928786015181550195019301610f9a565b909150876000526020600020601f840160051c81019160208510611037575b90601f859493920160051c01905b8181106110285750610983565b6000815584935060010161101b565b909150819061100d565b91607f169161096f565b806020809284010151604082860101520161084e565b015190508a80610801565b601f1982169983600052816000209a60005b8181106110be5750916005999a9b918460019594106110a5575b505050811b019055610816565b015160001960f88460031b161c191690558a8080611098565b838301518d556001909c019b6020938401930161107e565b826000526020600020601f830160051c81019160208410611114575b601f0160051c01905b81811061110857506107e4565b600081556001016110fb565b90915081906110f2565b90607f16906107d2565b015190508980610793565b60008981528281209350601f198516905b8181106111805750908460019594939210611167575b505050811b0185556107a8565b015160001960f88460031b161c1916905589808061115a565b92936020600181928786015181550195019301611144565b909150876000526020600020601f840160051c810191602085106111e1575b90601f859493920160051c01905b8181106111d2575061077c565b600081558493506001016111c5565b90915081906111b7565b91607f1691610768565b8060208092840101516040828601015201610646565b015190508a806105f9565b601f1982169983600052816000209a60005b8181106112685750916005999a9b9184600195941061124f575b505050811b01905561060e565b015160001960f88460031b161c191690558a8080611242565b838301518d556001909c019b60209384019301611228565b826000526020600020601f830160051c810191602084106112be575b601f0160051c01905b8181106112b257506105dc565b600081556001016112a5565b909150819061129c565b90607f16906105ca565b01519050898061058b565b60008981528281209350601f198516905b81811061132a5750908460019594939210611311575b505050811b0185556105a0565b015160001960f88460031b161c19169055898080611304565b929360206001819287860151815501950193016112ee565b909150876000526020600020601f840160051c8101916020851061138b575b90601f859493920160051c01905b81811061137c5750610574565b6000815584935060010161136f565b9091508190611361565b91607f1691610560565b8060208092840101516040828601015201610439565b015190508a806103ec565b601f1982169983600052816000209a60005b8181106114125750916005999a9b918460019594106113f9575b505050811b019055610401565b015160001960f88460031b161c191690558a80806113ec565b838301518d556001909c019b602093840193016113d2565b826000526020600020601f830160051c81019160208410611468575b601f0160051c01905b81811061145c57506103cf565b6000815560010161144f565b9091508190611446565b90607f16906103bd565b01519050898061037e565b60008981528281209350601f198516905b8181106114d457509084600195949392106114bb575b505050811b018555610393565b015160001960f88460031b161c191690558980806114ae565b92936020600181928786015181550195019301611498565b909150876000526020600020601f840160051c81019160208510611535575b90601f859493920160051c01905b8181106115265750610367565b60008155849350600101611519565b909150819061150b565b91607f1691610353565b806020809284010151604082860101520161022d565b0151905038806101e0565b601f1982169983600052816000209a60005b8181106115bc5750916005999a9b918460019594106115a3575b505050811b0190556101f5565b015160001960f88460031b161c19169055388080611596565b838301518d556001909c019b6020938401930161157c565b826000526020600020601f830160051c81019160208410611612575b601f0160051c01905b81811061160657506101c3565b600081556001016115f9565b90915081906115f0565b90607f16906101b1565b015190503880610172565b60008981528281209350601f198516905b81811061167e5750908460019594939210611665575b505050811b018555610187565b015160001960f88460031b161c19169055388080611658565b92936020600181928786015181550195019301611642565b909150876000526020600020601f840160051c810191602085106116df575b90601f859493920160051c01905b8181106116d0575061015b565b600081558493506001016116c3565b90915081906116b5565b91607f1691610147565b600080fd5b6040519060c082016001600160401b03811183821017610da857604052565b6040519190601f01601f191682016001600160401b03811183821017610da85760405256fe608080604052600436101561001357600080fd5b60003560e01c90816303828e4514610817575080630fb91b88146107da57806337f3a30c1461079d57806368807c76146106bd5780636f6569091461067b578063715018a61461062257806375a67d5c146105e85780637d0cd7f51461055f5780638529644f146105435780638da5cb5b1461051a57806398e36d8b14610467578063acc5f19114610446578063acccc3911461042a578063c9ef43291461034a578063d475c2c31461030d578063da94a3eb146102f1578063ea986c3e146102b4578063ed34de09146101bc5763f2fde38b146100f057600080fd5b346101b75760203660031901126101b7576101096108d1565b610111610abc565b6001600160a01b0316801561016357600080546001600160a01b03198116831782556001600160a01b0316907f8be0079c531659141344cd1fd0a4f28419497f9722a3daafe3b4186f6b6457e09080a3005b60405162461bcd60e51b815260206004820152602660248201527f4f776e61626c653a206e6577206f776e657220697320746865207a65726f206160448201526564647265737360d01b6064820152608490fd5b600080fd5b346101b75760203660031901126101b7576101d56108d1565b6101dd610abc565b6101e681610a53565b60018060a01b03811690816000526002602052600160406000200161020b8154610a44565b90558160005260026020526040600020918254600a810180911161029e5761029c9355806000526002602052807f066f85029e78c953d750ee9be93911767775a3ad66dfe87e746f58fce18d694a6020600160406000200154604051908152a2806000526002602052600080516020610d3583398151915260408060002054815190600a82526020820152a2610b14565b005b634e487b7160e01b600052601160045260246000fd5b346101b75760203660031901126101b7576001600160a01b036102d56108d1565b1660005260026020526020600360406000200154604051908152f35b346101b75760003660031901126101b7576020604051600a8152f35b346101b75760203660031901126101b7576001600160a01b0361032e6108d1565b1660005260026020526020600160406000200154604051908152f35b346101b75760203660031901126101b7576103636108d1565b61036b610abc565b61037481610a53565b60018060a01b0381169081600052600260205260036040600020016103998154610a44565b905581600052600260205260406000209182546003810180911161029e5761029c9355806000526002602052807f0c628ef7a55459ae22532e0a190407871bce70fcbd2d7390aa3a69b3a2d86e9f6020600360406000200154604051908152a2806000526002602052600080516020610d3583398151915260408060002054815190600382526020820152a2610b14565b346101b75760003660031901126101b757602060405160058152f35b346101b75760203660031901126101b75761029c6104626108d1565b610a53565b346101b75760203660031901126101b7576004356003548110156101b7576104916104f3916108e7565b50604051906104ab826104a4818461091c565b03836109cb565b6040516104c6816104bf816001860161091c565b03826109cb565b6002820154916003810154610501600560048401549301549360405197889760c0895260c0890190610a03565b908782036020890152610a03565b9360408601526060850152608084015260a08301520390f35b346101b75760003660031901126101b7576000546040516001600160a01b039091168152602090f35b346101b75760003660031901126101b757602060405160038152f35b346101b75760403660031901126101b7576105786108d1565b60243590610584610abc565b61058d81610a53565b6001600160a01b038116600081815260026020526040902080548481019190821061029e5761029c94600080516020610d358339815191529260409255836000526002602052816000205482519182526020820152a2610b14565b346101b75760203660031901126101b7576001600160a01b036106096108d1565b1660005260026020526020604060002054604051908152f35b346101b75760003660031901126101b75761063b610abc565b600080546001600160a01b0319811682556001600160a01b03167f8be0079c531659141344cd1fd0a4f28419497f9722a3daafe3b4186f6b6457e08280a3005b346101b75760203660031901126101b7576001600160a01b0361069c6108d1565b166000526002602052602060ff600660406000200154166040519015158152f35b346101b75760203660031901126101b7576106d66108d1565b6106de610abc565b6106e781610a53565b60018060a01b03811690816000526002602052600260406000200161070c8154610a44565b905581600052600260205260406000209182546005810180911161029e5761029c9355806000526002602052807f8d40b1e890ced9adf397d25a06046df796e132dd75cbfb5a21c868c2b4a4a75e6020600260406000200154604051908152a2806000526002602052600080516020610d3583398151915260408060002054815190600582526020820152a2610b14565b346101b75760203660031901126101b7576001600160a01b036107be6108d1565b1660005260026020526020600260406000200154604051908152f35b346101b75760203660031901126101b7576001600160a01b036107fb6108d1565b1660005260026020526020600460406000200154604051908152f35b346101b75760203660031901126101b7576001600160a01b036108386108d1565b16600052600260205260046040600020019081548082526020820190819360005260206000209060005b8181106108bb57505050816108789103826109cb565b6040519182916020830190602084525180915260408301919060005b8181106108a2575050500390f35b8251845285945060209384019390920191600101610894565b8254845260209093019260019283019201610862565b600435906001600160a01b03821682036101b757565b6003548110156109065760036000526006602060002091020190600090565b634e487b7160e01b600052603260045260246000fd5b600092918154918260011c926001811680156109c1575b6020851081146109ab5784845290811561098e575060011461095457505050565b60009081526020812093945091925b838310610974575060209250010190565b600181602092949394548385870101520191019190610963565b915050602093945060ff929192191683830152151560051b010190565b634e487b7160e01b600052602260045260246000fd5b93607f1693610933565b90601f8019910116810190811067ffffffffffffffff8211176109ed57604052565b634e487b7160e01b600052604160045260246000fd5b919082519283825260005b848110610a2f575050826000602080949584010152601f8019910116010190565b80602080928401015182828601015201610a0e565b600019811461029e5760010190565b6001600160a01b031660008181526002602052604090206006015460ff1615610a795750565b8060005260026020526006604060002001600160ff198254161790557f67305840db483c074758b9e8070d2d78b7e947e329fb759d0d3cc64bcfc441ac600080a2565b6000546001600160a01b03163303610ad057565b606460405162461bcd60e51b815260206004820152602060248201527f4f776e61626c653a2063616c6c6572206973206e6f7420746865206f776e65726044820152fd5b6001600160a01b031660008181526002602052604081209192919060058201905b600354811015610d2d57806000528160205260ff6040600020541615610b5e575b600101610b35565b610b67816108e7565b506040519060c082019082821067ffffffffffffffff8311176109ed5760a091604052604051610b9b816104bf818561091c565b8352604051610bb1816104bf816001860161091c565b60208401526002810154806040850152600382015493846060820152600560048401549384608084015201549384910152865410159283610d1e575b5082610d0f575b5081610d00575b5015610b56578460005260026020526040600020906005820191816000528260205260ff60406000205416610cc35760040191825492680100000000000000008410156109ed5760018401808255841015610906576001938391600052602060002001558160005260205260406000208260ff1982541617905580867f3c087d4e86c455eb2fc66d29134947033fd1c4133051c00e31a4ac6f76877ad1610cb9610ca4846108e7565b5060405191829160208352602083019061091c565b0390a39050610b56565b60405162461bcd60e51b815260206004820152601560248201527410985919d948185b1c9958591e48185dd85c991959605a1b6044820152606490fd5b90506003840154101538610bfb565b60028601541015915038610bf4565b60018701541015925038610bed565b505050905056fedc3faeadeebcfa827a4c4cc5a430dc9501e614bb5e272ffc223c35f8a48d92eca2646970667358221220600c78537732e0159cac160f7f560dee4d55cc495c2c705178e0e17d49ebd28964736f6c634300081c00332a19b122d7ceb6b21d4ac9a7636241ea8d5068dec98786163aa0de488f4ccc52c2575a0e9e593c00f959f8c92f12db2869c3395a3b0502d05e2516446f71f85b",
  "linkReferences": {},
  "deployedLinkReferences": {}
}